:1000000002002E220000000000000000000000009E
:1000200000000000000000000000000201C975810E
:100030004F12015AE582600302009A780079007A33
:10004000007B007C007D00EC4D601C88828983E48D
:1000500093A3A882A9838A828B83F0A3AA82AB830D
:100060001CBCFFE31D80E07582007583007C007D71
:1000700000EC4D600AE4F0A31CBCFFF51D80F27596
:1000800082007583007C007D00EC4D600AE4F0A3E3
:100090001CBCFFF51D80F212000312025280FE1BF1
:1000A0005B324A005661726961626C6520667265F6
:1000B0007175656E63792067656E657261746F72C4
:1000C00020666F72207468652045464D384C423179
:1000D0002E0D0A436865636B2070696E7320503281
:1000E0002E3020616E642050322E31207769746882
:1000F00020746865206F7363696C6C6F73636F70D5
:10010000652E0D0A004E6577206672657175656E05
:1001100063793D00256C7500536F72727920256CF0
:100120007520487A206973206F7574206F6620727D
:10013000616E67652E0A000A41637475616C206602
:1001400072657175656E63793A20256C750A003C9D
:100150004E4F20464C4F41543E0075A7007597DE28
:100160007597AD43FF8075EF0275A71075C12075B7
:10017000A70075A90075A900E5A930E7FB75A903DB
:1001800075A903E5A930E7FB43A60343A41075E175
:100190000175E21075E340759810858E8E758DE6B9
:1001A000858D8B53890F438920D28ED29975C800D3
:1001B000438E1075CAEE75CBF675CEFF75CFFFD2A4
:1001C000ADD2CAD2AF75820022C0D075D000C2CFE6
:1001D000B2A0A2A0B392A1D0D032AA82AB83438EA8
:1001E000407592B87593FF859294859395759104A7
:1001F0007C007D00C3EC9AED9B500FE59130E7FB4E
:1002000053917F0CBC00ED0D80EA75910022AA820B
:10021000AB837C007D00C3EC9AED9B502B7E00BE2F
:100220000400501D9000FAC002C003C004C005C005
:10023000061201DAD006D005D004D003D0020E8019
:10024000DE0CBC00D10D80CE225389F0438901C25F
:100250008C22749FC0E07400C0E07480C0E012047F
:10026000CE15811581158174A4C0E07400C0E074BE
:1002700080C0E01204CE15811581158112024974E7
:1002800005C0E07401C0E07480C0E01204CE1581A6
:10029000158115817409C0E07400C0E07440C0E0AD
:1002A0007414C0E07401C0E07480C0E01203E1E5A2
:1002B0008124FAF581E5092509F50FE50A33F510E2
:1002C000E50B33F511E50C33F51290A20075F04AF9
:1002D0007404120402AA82AB83ACF0FDC374FF9ACB
:1002E00074FF9BE49CE49D5020C009C00AC00BC071
:1002F0000C7418C0E07401C0E07480C0E01204CE39
:10030000E58124F9F581020379C2CAE4C39AFAE4CB
:100310009BFB74019CE49D8ACA8BCBD2CAAACAAB50
:10032000CB7C00E4FDC39AFAE49BFB74019CFCE4E3
:100330009DFDEA2AF50FEB33F510EC33F511ED33A3
:10034000F51290A20075F04A7404120467AA82ABF9
:1003500083ACF0FD8A098B0A8C0B8D0CC002C003A4
:10036000C004C0057437C0E07401C0E07480C0E010
:100370001204CEE58124F9F581758A00758C00C2DE
:100380008DC28CD28CE5092509F50FE50A33F510ED
:10039000E50B33F511E50C33F5129003E8E4F5F0C5
:1003A00012040212020EE4F509F50AF50BF50CC26F
:1003B000CA02027F120AA7AA82BA0810758220C058
:1003C00002120ABA758208120ABAD0028A822285FB
:1003D000823385833485F035850D369003B402066B
:1003E000FFC008858108E50824FBF536E50824FBF5
:1003F000F886330886340886359003B41206FFD099
:100400000822FB7A20E4FCFDFEFFE5822582F582CE
:10041000E58333F583E5F033F5F0EB33FB4017DA92
:10042000E98042E5822582F582E58333F583E5F0B4
:1004300033F5F0EB33FBEC33FCED33FDEE33FEEF45
:1004400033FFEC950FED9510EE9511EF95124013DB
:10045000EC950FFCED9510FDEE9511FEEF9512FF5A
:10046000438201DABEEB22FBC2D530E715D2D5E4D8
:10047000C39582F582E49583F583E495F0F5F0E485
:100480009BFBE51230E717B2D5E4C3950FF50FE4F7
:100490009510F510E49511F511E49512F512EB1293
:1004A000040230D513FBE4C39582F582E49583F50D
:1004B00083E495F0F5F0E49B22020ABA8582318547
:1004C000833285F033850E349004B9020B58C0088E
:1004D000858108E50824FBF534E50824FBF886311E
:1004E0000886320886339004B9120B58D00822854A
:1004F0002382852483121179858232E532600A05D0
:100500002CE4B52C06052D8002D203853282227A96
:10051000007B003003057840760022C002C0031241
:1005200004EFAC82D003D002BC0002802DBC0802D4
:100530008014BC09028023BC0A02801EBC0D02800C
:1005400019BC20218014EA4B60D11ABAFF011B1597
:100550002C74FFB52C02152D80C1EA4B60BDEA2436
:1005600040F8760022EC7009EA2440F87600D203C5
:1005700022ECB53107EA2440F8760022C3EA940F52
:10058000EB940050968A058B060ABA00010BED2405
:1005900040F8A60402051BAA827B7FC3EA6480940C
:1005A000B0401174B98AF063F08095F04006EA24F7
:1005B000D0FB8030C3EA648094C1401174C68AF0D5
:1005C00063F08095F0400674C92AFB8017C3EA6483
:1005D0008094E1400F74E68AF063F08095F0400467
:1005E00074A92AFBC3EB952E50038B822275827F60
:1005F00022AA82752800752900752A00752B008AA9
:1006000000E6FA60148A82C000120597AB82D0001F
:10061000C3EB952E40030880E886038B82C000124E
:100620000597AA82D000C3E52E9A4050852E0F75FB
:100630001000751100751200852882852983852A8E
:10064000F0E52BC002C00012110BAB82AC83ADF001
:10065000FED000D0028B288C298D2A8E2BE4FBFC47
:10066000FDEA2528FAEB3529FBEC352AFCED352B84
:10067000FD8A288B298C2A8D2B08809D85288285D0
:100680002983852AF0E52B22AA8275280075290086
:10069000752A00752B008A00E6FB60228B82C0035E
:1006A000C000120597AC82D000D003C3EC952E4059
:1006B0000DBB2D028008BB2B0280030880DA880264
:1006C0008603BB2D03D38001C39206BB2D0280039A
:1006D000BB2B010A8A821205F1300613C3E4952868
:1006E000FAE49529FBE4952AFCE4952BFD8008AA01
:1006F00028AB29AC2AAD2B8A828B838CF0ED228526
:100700008223858324E4F52CF52DF530C203AA332A
:10071000AB34AC358A828B838CF01210EFFD740100
:100720002AF533E43BF5348C35EDFA7003020A9E6A
:10073000BA25028003020A37D202C200752E007564
:100740002F00C204C205AB33AC34AD358B828C8331
:100750008DF01210EFFAA3AB82AC838B338C348D07
:10076000358B828C838DF01210EFF5318A06BE3006
:100770000040168A06EE24C6400FE52F75F00AA445
:10078000FEEA24D02EF52F80C38A06BE6100400AFF
:100790008A06EE248540035302DFBA250280ADBAF3
:1007A0002A028045BA42028036BA43028040BA44E7
:1007B000030208B2BA49030208B2BA4C028025BA51
:1007C0004E030208C5BA4F030208B7BA530280208D
:1007D000BA55030208B0BA58030208BE0208EDD2A7
:1007E0000002074CD20102074CD20402074CD2058A
:1007F000200417E53624FDF88836860308860408A9
:10080000860518188B258C268D27E52F700B300553
:10081000047B0180027BFF8B2F752E00C3E52E9594
:100820002F50051204EFAA82300307E52E70030251
:1008300008EDEA601ABA2002800DBA09028008BAEF
:100840000D028003BA0A03300505E52FB52E1FE51A
:100850002E60C92004120530AB25AC26AD278B8253
:100860008C838DF0E412117B752E000208EDBA081E
:100870001CE52E60A7200411AB25AC26AD271BBBC1
:10088000FF011C8B258C268D27152E808F20041BA5
:10089000AB25AC26AD278B828C838DF0EA12117BC1
:1008A0000BBB00010C8B258C268D27052E02081C06
:1008B000C202752E0A8036C202752E08802FC2022F
:1008C000752E108028E53624FDF8883686030886C4
:1008D0000408860518188B258C268D278B828C831F
:1008E0008DF0E52C12117BA3E52D12117BE52E7006
:1008F00003020A3712050F7840E67003020A373008
:100900000403020A37E53624FDF888368603088694
:100910000408860518188B258C268D2705302002A3
:10092000030209B0300135852537852638852739FA
:10093000758240120688AE82AF83ABF0FC853782A9
:100940008538838539F0EE12117BA3EF12117BA35A
:10095000EB12117BA3EC12117B020A3730002685C3
:100960002537852638852739758240120688AE825C
:10097000AF83ABF0FC8537828538838539F0EE1282
:10098000117B020A378525378526388527397582F8
:1009900040120688AE82AF83ABF0FC853782853883
:1009A000838539F0EE12117BA3EF12117B020A3717
:1009B00030013485253785263885273975824012E0
:1009C00005F1AE82AF83ABF0FC8537828538838535
:1009D00039F0EE12117BA3EF12117BA3EB12117B06
:1009E000A3EC12117B8050300025852537852638F1
:1009F0008527397582401205F1AE82AF83ABF0FCDA
:100A00008537828538838539F0EE12117B80288501
:100A100025378526388527397582401205F1AE8243
:100A2000AF83ABF0FC8537828538838539F0EE12D1
:100A3000117BA3EF12117B20030302070EAB33AC33
:100A400034AD358B828C838DF01210EFFEA3AB8218
:100A5000AC838B338C348D35EEFA700302070EBAFB
:100A600025E18B828C838DF01210EFFABA6E028032
:100A700003BA4ECFE53624FDF8883686020886068E
:100A800008860718188A258E268F278A828E838FDC
:100A9000F0E52C12117BA3E52D12117B80A5AA3065
:100AA0007B008A828B832210980280FBAA998A821B
:100AB000C002120ABAD0028A8222AA82BA0A081096
:100AC000990280FB75990D10990280FB8A9922AAE0
:100AD0008274E0C0E0740AC0E0C023C0248A82228D
:100AE000052AE4B52A02052B22AA8274302AFA24A8
:100AF000C6500A74072AFA3007034302208A82028A
:100B00000ACFE582FAC4540FF582C002120AE9D076
:100B100002740F5AF582020AE9AA25AB26AC27AD6A
:100B200028AE29753020EE2EFEED235401FF42063B
:100B3000EA2AFAEB33FBEC33FCED33FDC3EE952CE4
:100B40004008EEC3952CFE430201D530D98A258B8F
:100B5000268C278D288E2922858223858324E4F5FF
:100B60002AF52BAA31AB32AC338A828B838CF012FC
:100B700010EFFD74012AF531E43BF5328C33EDFAC8
:100B800070030210E8BA250280030210E0C20BC213
:100B90000CC20DC20EC20FC210C211C212C208C2D4
:100BA00009C20A752C00752D00752EFFAB31AC32D1
:100BB000AD338B828C838DF01210EFFAA3AB82AC35
:100BC000838B318C328D33BA25078A82120ACF800B
:100BD000928A06BE3000402E8A06EE24C640277454
:100BE000FFB52E13E52D75F00AA4FEEA24D02EF5EC
:100BF0002D70BFD20C80BBE52E75F00AA4FEEA244E
:100C0000D02EF52E80ACBA2E0A74FFB52EA4752E08
:100C100000809F8A06BE6100400E8A06EE24854051
:100C2000075302DFD2078002C207BA20028075BADA
:100C30002303020CB3BA2A03020CB8BA2B02805F5A
:100C4000BA2D028055BA4202805FBA4303020CFDFE
:100C5000BA4403020E38BA4503020E52BA460302E2
:100C60000E4EBA4703020E56BA4903020E38BA4C6A
:100C700002803BBA4E03020E5ABA4F03020E3FBA2D
:100C80005003020DD1BA5303020D21BA5503020ECF
:100C900044BA5803020E49020E84D20B020BB2D2A0
:100CA0000D020BB2D20E020BB2D210020BB2D21155
:100CB000020BB2D212020BB274FFB52E2030100B11
:100CC000E53414F88834862D020BB2E53424FEF89E
:100CD00088348606088607188E2D020BB230100B5A
:100CE000E53414F88834862E020BB2E53424FEF87D
:100CF00088348606088607188E2E020BB230100A3A
:100D0000E53414F888348602800FE53424FEF88830
:100D1000348603088604188B028A82120ACF020ED8
:100D200089E53424FDF8883486030886040886059E
:100D300018188B258C268D278B828C838DF01211B1
:100D400094AB82AC838B2F74FFB52E03852F2E209E
:100D50000B1DC3E52F952D5016E52DC3952FF52DB1
:100D6000AB2D152DEB6008758220120ACF80F1851E
:100D700025828526838527F01210EFFBFA6029ABC8
:100D80002E152EC3E464808BF063F08095F050182C
:100D90008A82120ACFAB25AC26AD270BBB00010C13
:100DA0008B258C268D2780C7200B03020E89C3E577
:100DB0002F952D4003020E89E52DC3952FF52DAB00
:100DC0002D152DEB7003020E89758220120ACF803B
:100DD000EEE53424FDF88834860308860408860589
:100DE00018188B258C268D27E527FB30E7047A43DE
:100DF0008013EB546060047A50800AEB30E6047A8A
:100E00004980027A588A82C002120ACF75823A1249
:100E10000ACF758230120ACF758278120ACFD002BB
:100E2000BA4902800BBA50028006852682120B0254
:100E3000852582120B028051D20F752C0A804A75CB
:100E40002C088045752C0A8040752C10803BD208F8
:100E50008037D2098033D20A802FE53424FDF88808
:100E600034860308860408860518188B258C268D81
:100E7000278B828C838DF0E52A12117BA3E52B1240
:100E8000117B80058A82120ACF20080620090330D0
:100E90000A5AE53424FCF888348603088604088658
:100EA000050886061818188B258C268D278E287520
:100EB000254F75260175278085253585263685279A
:100EC0003774012535FEE43536FFAB378E258F2686
:100ED0008B278535828536838537F01210EFFBFA34
:100EE0007003020B638A82120ACF80CCE52C700358
:100EF000020B637B3F30102BE53414F88834E6FC9A
:100F00003395E0FDFEFF8C258D268E278F28200F40
:100F10005EAC257D007E007F008C258D268E278F80
:100F200028804C30111FE53424FCF88834860408EE
:100F300086050886060886071818188C258D268EC3
:100F4000278F28802AE53424FEF888348604088612
:100F50000518ED3395E0FEFF8C258D268E278F2812
:100F6000200F0CAC25AD267E007F008E278F283009
:100F70001243E52545264527452860397408B52CD8
:100F80000C758230C003120ACFD00380287410B5CC
:100F90002C23758230C003120ACFD00330070C75A2
:100FA0008278C003120ACFD003800A758258C0032A
:100FB000120ACFD003300F25AC25AD26AE27E52889
:100FC000FF30E717C3E49CFCE49DFDE49EFEE49F34
:100FD000FF8C258D268E278F288002C20F752F004B
:100FE000D2138B00752900C000120B19D0002013FA
:100FF0000DE529C4FCE6FD4CF61888038002A629FD
:10100000052FB213E52545264527452870D68803C8
:10101000E52D7003752D01200C1A200B17E52F0408
:10102000FCC3952D500E758220C003120ACFD00349
:10103000152D80E9300F0E75822DC003120ACFD016
:1010400003152D8024E52F6020300D0E75822BC0F6
:1010500003120ACFD003152D800F300E0C7582209D
:10106000C003120ACFD003152D200B1EAC2D152D59
:10107000C3E52F9C5027300C047C3080027C208CF0
:1010800082C003120ACFD00380E2C3E52F952D5012
:1010900009E52DC3952FF52D8003752D008B00AB31
:1010A0002F152FEB6022B21320130A08E6C4540F49
:1010B000FB8B2980078603740F5BF529852982C085
:1010C00000120AE9D00080D7200B03020B63AB2D7E
:1010D000152DEB7003020B63758220120ACF80EE90
:1010E0008A82120ACF020B63852A82852B832220F3
:1010F000F71430F6148883A88220F507E6A88375D4
:10110000830022E280F7E49322E022AAF0FBE5824A
:10111000850FF0A4FCADF0E583850FF0A42DFDE470
:1011200035F0FEE5828510F0A42DFDE5F03EFEE4ED
:1011300033FFEA850FF0A42EFEE5F03FFFE583853F
:1011400010F0A42EFEE5F03FFFE5828511F0A42EFD
:10115000FEE5F03FFFEB850FF0A42FFFEA8510F0CE
:10116000A42FFFE5838511F0A42FFFE5828512F0FF
:10117000A42F8EF08D838C8222E47320F71030F63A
:10118000118883A88220F507F6A88375830022F2D0
:1011900080F7F022AA82AB83ACF07D007E008A82C9
:1011A0008B838CF01210EFFFA3AA82AB83EF600752
:1011B0000DBD00EA0E80E78D828E832200000000C4
:00000001FF
