:1000000002002E00000000000000000000000000C0
:100020000000000000000000000000020353758182
:100030008A120267E582600302009A780079007AEA
:10004000007B007C007D00EC4D601C88828983E48D
:1000500093A3A882A9838A828B83F0A3AA82AB830D
:100060001CBCFFE31D80E07582007583007C007D71
:1000700000EC4D600AE4F0A31CBCFFF51D80F27596
:1000800082007583007C007D00EC4D600AE4F0A3E3
:100090001CBCFFF51D80F21201BA120B0180FE0A92
:1000A0007265616420313A202061742070696E208D
:1000B000312E363A2025660D000A726561642030C3
:1000C0003A20566F6C742061742070696E20312E56
:1000D000363A2025660D005475726E207269676885
:1000E00074200D0A00476F20537472616967687449
:1000F000200D0A001B5B324A005371756172652046
:10010000776176652067656E657261746F722066CF
:100110006F72207468652045464D384C42312E0D73
:100120000A436865636B2070696E732050322E320B
:1001300020616E642050322E3120776974682074FB
:100140006865206F7363696C6C6F73636F70652E85
:100150000D0A000A0D006175746F200D0A000D5420
:100160003D2566206D732020200A20006D616E758C
:10017000616C200D0A0054696D653A2025660A09F4
:100180000D0052494748540A0D00464F52574152FC
:10019000440A0D004241434B574152440A0D004C62
:1001A0004546540A0D0053544F500A0D00446F2029
:1001B0006E6F7468696E670D0A0075220075230002
:1001C000752400752500E4F536F537E4F538F53982
:1001D000753A01753B00753C00753D00753E007534
:1001E0003F0075400075410075420175430075443C
:1001F0000175450075460175470075480175490050
:10020000754A01754B00754C00754D00754E0075B3
:100210004F007550007551007552017553007554AB
:1002200000755500755601755700755800755900D1
:10023000755A01755B00755C01755D00755E007532
:100240005F0075600175610075620075630075641B
:100250000075650075660075670075680075690052
:10026000756A02E4F56B2275A7007597DE7597AD88
:1002700075FF8075EF0675A71075C12075A700750D
:10028000A90075A900E5A930E7FB75A90375A903C5
:10029000E5A930E7FB43A41075E10175E20075E3C1
:1002A00040759810758DE6858D8B53890F43892095
:1002B000D28ED29975C800438E1075CAE075CBE313
:1002C00075CEFF75CFFFD2ADD2CAD2AF75820022F4
:1002D000AA82AB83438E407592B87593FF85929442
:1002E0008593957591047C007D00C3EC9AED9B503D
:1002F0000FE59130E7FB53917F0CBC00ED0D80EAD8
:1003000075910022AA82AB837C007D00C3EC9AED3C
:100310009B502B7E00BE0400501D9000FAC002C00E
:1003200003C004C005C0061202D0D006D005D00418
:10033000D003D0020E80DE0CBC00D10D80CE228511
:1003400082BBD2EC20ECFDD2EC20ECFD85BD828599
:10035000BE8322C0E0C002C003C0D075D000C2CFAF
:100360000522E522249B5003752200AA227B00C3AC
:10037000E5269AE5279B9200B39294AA227B00C3BC
:10038000E5289AE5299B9200B39295AA227B00C3A7
:10039000E52A9AE52B9B9200B39292AA227B00C396
:1003A000E52C9AE52D9B9200B39293E52224AF921F
:1003B00000B392A0D0D0D003D002D0E03275A70015
:1003C00075B28075BCF875B91E75E80075DF3F75AC
:1003D000B300D2EF225389F0438901C28C22120369
:1003E0003F121150AA82AB83ACF0FDC002C003C023
:1003F00004C005906C8B75F05374401211BCAA8236
:10040000AB83ACF0FDE58124FCF581E4C0E074FC35
:10041000C0E0747FC0E07446C0E08A828B838CF0B9
:10042000ED121306AA82AB83ACF0FDE58124FCF546
:10043000818A828B838CF0ED22AA828572F005F08E
:100440007401800225E0D5F0FBFB75A720BA0002FD
:10045000800ABA0102800FBA021E8014EBF4FA522D
:10046000F1EB42D48012EBF4FA52F2EB42D5800861
:10047000EBF4FA52F3EB42CC75A70022752663E445
:10048000F527E4F528F529F52AF52B752C63E4F515
:100490002DD286D283D281C2A622E4F526F5277515
:1004A0002863E4F529752A63E4F52BE4F52CF52D92
:1004B000D286D283C281D2A622E4F526F5277528FA
:1004C00063E4F529E4F52AF52B752C63E4F52DD2C8
:1004D00086C283D281C2A622752663E4F527E4F59D
:1004E00028F529752A63E4F52BE4F52CF52DD28641
:1004F000C283D281C2A622E4F526F527F528F52984
:10050000F52AF52BF52CF52DC286D283D281C2A611
:1005100022758A00758C00C28D7A007B00C28C75B2
:10052000820CC002C0031203DEAC82AD83AEF0FFCA
:1005300074CDC0E074CCC0E0744CC0E0743DC0E049
:100540008C828D838EF0EF12118CAC82E58124FCBD
:10055000F581D003D002EC70C675820CC002C003D6
:100560001203DEAC82AD83AEF0FF74CDC0E074CC7C
:10057000C0E0744CC0E0743DC0E08C828D838EF08E
:10058000EF12118CAC82E58124FCF581D003D002FE
:10059000EC60C6D28CE4F56CF56D75820CC002C0BF
:1005A000031203DEAE82AF83A8F0F974CDC0E0740D
:1005B000CCC0E0744CC0E0743DC0E08E828F838874
:1005C000F0E912118CAE82E58124FCF581D003D0D4
:1005D00002EE7003020717108D02800C056CE4B563
:1005E0006C02056DAA6CAB6DC002C003856C828580
:1005F0006D83C002C0031212F9AE82AF83A8F0F976
:10060000C006C007C000C00190000075F0807447AC
:100610001211BCAE82AF83A8F0F9E58124FCF5810C
:10062000D003D002858C82C006C007C000C0011272
:10063000125FAC82AD83AAF0FBC004C005C002C04B
:100640000390000075F08074431211BCAA82AB8342
:10065000ACF0FDE58124FCF581D001D000D007D0BD
:1006600006C002C003C004C0058E828F8388F0E9F3
:1006700012126AAA82AB83ACF0FDE58124FCF581FD
:10068000AE8A7F008E828F83C002C003C004C00583
:100690001212F9AE82AF83A8F0F9D005D004D003CE
:1006A000D002C006C007C000C0018A828B838CF0D4
:1006B000ED12126AAA82AB83ACF0FDE58124FCF551
:1006C00081C002C003C004C00590C33E75F02E7403
:1006D000391211BCAA82AB83ACF0FDE58124FCF594
:1006E00081C003E4C0E0C0E074E1C0E07444C0E055
:1006F0008A828B838CF0ED12115CAA82E58124FC46
:10070000F581D003EAD003D002700302059A90006D
:100710000075F0E1744422C28C8A828B831212F934
:10072000AA82AB83ACF0FDC002C003C004C0059038
:10073000000075F08074471211BCAA82AB83ACF044
:10074000FDE58124FCF581858C82C002C003C004D4
:10075000C00512125FAE82AF83A8F0F9C006C007D1
:10076000C000C00190000075F08074431211BCAE4F
:1007700082AF83A8F0F9E58124FCF581D005D0048F
:10078000D003D002C006C007C000C0018A828B839C
:100790008CF0ED12126AAA82AB83ACF0FDE58124E5
:1007A000FCF581AE8A7F008E828F83C002C003C0B9
:1007B00004C0051212F9AE82AF83A8F0F9D005D0BB
:1007C00004D003D002C006C007C000C0018A828BDB
:1007D000838CF0ED12126AAA82AB83ACF0FDE58146
:1007E00024FCF581C002C003C004C00590C33E755F
:1007F000F02E74391211BCAA82AB83ACF0FDE581F6
:1008000024FCF5818A828B838CF0ED2285827885A9
:10081000837985F07A7D007E00C3ED9573EE648068
:100820008574F063F08095F050508D07EECF25E091
:10083000CF33F8EF2578F9E83579FAAB7A89828AEF
:10084000838BF0121134F9A3121134FAEF2575FFDE
:10085000E83576F8AB778F8288838BF0121134FFFE
:10086000A3121134F8E9B50706EAB5000280049036
:100870000000220DBD00A20E809F90000122757520
:100880003A757600757740757304E4F574900062EC
:1008900075F04012080CE5828583F045F060030294
:1008A00004F7757542757600757740757304E4F545
:1008B0007490006275F04012080CE5828583F04563
:1008C000F0600302047C75754A7576007577407593
:1008D0007304E4F57490006275F04012080CE58230
:1008E0008583F045F0600302049A757552757600B1
:1008F000757740757304E4F57490006275F04012EA
:10090000080CE5828583F045F060030204B9757533
:100910005A757600757740757304E4F5749000623B
:1009200075F04012080CE5828583F045F060030203
:1009300004D80204F775820C12033FE5828583F028
:1009400045F060F19000001202D075820C0203DEC7
:10095000120935AA82AB83ACF0FD74CDC0E074CC33
:10096000C0E0744CC0E0743DC0E08A828B838CF0A0
:10097000ED12118CAA82E58124FCF581EA702B121C
:100980000935AA82AB83ACF0FDC002C003C004C02D
:1009900005749FC0E07400C0E07480C0E01212D8FB
:1009A000E58124F9F58190000122120935AA82AB74
:1009B00083ACF0FDC002C003C004C00574B9C0E040
:1009C0007400C0E07480C0E01212D8E58124F9F50B
:1009D000819000002290000A020304120950E5826F
:1009E0008583F045F060F4120950AA82AB83BA0106
:1009F00055BB00527562017563007A017B00C3EA42
:100A00009404EB64809480503A90000AC002C003C2
:100A1000120304D003D0028A04EBCC25E0CC33ECE3
:100A20002462F8C002C003C000120950E582858329
:100A3000F0D000D003D002F608A6F0180ABA00BE23
:100A40000B80BB02087E2230B206E56A456B700D52
:100A500030B2FDE4F56AF56BF582F5832230B30D13
:100A60007401B56A06E4B56B028002800D30B3FDF7
:100A7000756A01E4F56B90000122756A02E4F56B7A
:100A800090000222AA82AB83ACF0FD749AC0E0749D
:100A900099C0E07419C0E0743FC0E08A828B838CF7
:100AA000F0ED12115CAA82E58124FCF581EA70392F
:100AB00074D7C0E07400C0E07480C0E01212D81592
:100AC00081158115811204D89001F412030490015C
:100AD000F412030490012C1203041204F79001F4A1
:100AE0001203049000FA02030474E5C0E07400C02D
:100AF000E07480C0E01212D81581158115810204BE
:100B00007C758A00758C00C28D1203D575720675CE
:100B100082011204391203BD74F4C0E07400C0E015
:100B20007480C0E01212D815811581158174F9C046
:100B3000E07400C0E07480C0E01212D81581158105
:100B400015817453C0E07401C0E07480C0E01212DB
:100B5000D81581158115811204F7120A47AA82ABB4
:100B600083EA4B6003020CE37456C0E07401C0E0FA
:100B70007480C0E01212D8158115811581758A0024
:100B8000758C00C28D20A1FD30A1FDD28C7C007D32
:100B90000030A10C108D0280F80CBC00F40D80F127
:100BA000C28C8C828D831212F9AC82AD83AEF0FFC1
:100BB000C004C005C006C00790000075F0807447EF
:100BC0001211BC85826E85836F85F070F571E581A9
:100BD00024FCF581858C8212125FA882A983ACF077
:100BE000FDC000C001C004C00590000075F0807415
:100BF000431211BCAC82AD83AEF0FFE58124FCF55D
:100C000081C004C005C006C007856E82856F8385DC
:100C100070F0E57112126A85826E85836F85F070BF
:100C2000F571E58124FCF581A88A790088828983A1
:100C30001212F9A882A983ACF0FDC000C001C00463
:100C4000C005856E82856F838570F0E57112126A2A
:100C5000AC82AD83AEF0FFE58124FCF581C004C019
:100C600005C006C00790F4FC75F03274341211BC54
:100C7000AC82AD83AEF0FFE58124FCF581C004C0F9
:100C800005C006C00790000075F07A74441211BCCC
:100C9000AC82AD83AEF0FFE58124FCF581C004C0D9
:100CA00005C006C007C004C005C006C007745EC00A
:100CB000E07401C0E07480C0E01212D8E58124F92C
:100CC000F581900032120304D007D006D005D0047D
:100CD0008C828D838EF0EF120A849000321203040E
:100CE000020B5ABA0105BB0002800302111C746C8E
:100CF000C0E07401C0E07480C0E01212D815811504
:100D0000811581120511AA82AB83ACF0FDC002C02F
:100D100003C004C005C002C003C004C0057476C08F
:100D2000E07401C0E07480C0E01212D8E58124F9BB
:100D3000F581D005D004D003D002C002C003C004A6
:100D4000C005E4C0E0C0E07496C0E07443C0E08A2F
:100D5000828B838CF0ED12118CAE82E58124FCF540
:100D600081D005D004D003D002EE7039C002C00398
:100D7000C004C005C006E4C0E0C0E074E1C0E07497
:100D800043C0E08A828B838CF0ED12115CAF82E568
:100D90008124FCF581D006D005D004D003D002EF29
:100DA0007003020F35C002C003C004C005C006E4D2
:100DB000C0E0C0E074AFC0E07444C0E08A828B83BE
:100DC0008CF0ED12118CAF82E58124FCF581D00608
:100DD000D005D004D003D002EF703BC002C003C0E6
:100DE00004C005C006E4C0E07480C0E074BBC0E08D
:100DF0007444C0E08A828B838CF0ED12115CAF8268
:100E0000E58124FCF581D006D005D004D003D002C2
:100E1000EF7003020F35C002C003C004C005C00656
:100E2000E4C0E07480C0E07484C0E07444C0E08A30
:100E3000828B838CF0ED12118CAF82E58124FCF55E
:100E400081D006D005D004D003D002EF703BC002A1
:100E5000C003C004C005C006E4C0E07440C0E07434
:100E600088C0E07444C0E08A828B838CF0ED12115C
:100E70005CAF82E58124FCF581D006D005D004D09A
:100E800003D002EF7003020F35C002C003C004C0DC
:100E900005C006E4C0E07480C0E074DEC0E07444C5
:100EA000C0E08A828B838CF0ED12118CAF82E581D9
:100EB00024FCF581D006D005D004D003D002EF6029
:100EC00074C002C003C004C005C006E4C0E0C0E0B6
:100ED0007416C0E07444C0E08A828B838CF0ED12FB
:100EE000118CAF82E58124FCF581D006D005D004B9
:100EF000D003D002EF6003020B5AC002C003C0044B
:100F0000C005C006E4C0E07480C0E0743BC0E0747B
:100F100044C0E08A828B838CF0ED12115CAF82E5D5
:100F20008124FCF581D006D005D004D003D002EF97
:100F30006003020B5AC002C003C004C005C006E42F
:100F4000C0E0C0E074AFC0E07444C0E08A828B832C
:100F50008CF0ED12118CAF82E58124FCF581D00676
:100F6000D005D004D003D002EF7053C002C003C03C
:100F700004C005C006E4C0E07480C0E074BBC0E0FB
:100F80007444C0E08A828B838CF0ED12115CAF82D6
:100F9000E58124FCF581D006D005D004D003D00231
:100FA000EF701B7482C0E07401C0E07480C0E01276
:100FB00012D81581158115811204D8020B5AEE70D2
:100FC0004DC002C003C004C005E4C0E0C0E074E14D
:100FD000C0E07443C0E08A828B838CF0ED12115C18
:100FE000AE82E58124FCF581D005D004D003D00287
:100FF000EE701B748AC0E07401C0E07480C0E0121F
:1010000012D815811581158112047C020B5AC00279
:10101000C003C004C005E4C0E0C0E07416C0E074C2
:1010200044C0E08A828B838CF0ED12118CAE82E595
:101030008124FCF581D005D004D003D002EE704F9E
:10104000C002C003C004C005E4C0E07480C0E07406
:101050003BC0E07444C0E08A828B838CF0ED1211B7
:101060005CAE82E58124FCF581D005D004D003D0AC
:1010700002EE701B7494C0E07401C0E07480C0E0A4
:101080001212D815811581158112049A020B5AC0CB
:1010900002C003C004C005E4C0E07480C0E07484F2
:1010A000C0E07444C0E08A828B838CF0ED12118C16
:1010B000AE82E58124FCF581D005D004D003D002B6
:1010C000EE703EC0E07440C0E07488C0E07444C07C
:1010D000E08A828B838CF0ED12115CAA82E5812478
:1010E000FCF581EA701B749FC0E07401C0E074805D
:1010F000C0E01212D81581158115811204B9020BB6
:101100005A74A6C0E07401C0E07480C0E01212D826
:101110001581158115811204F7020B5A74ADC0E0D8
:101120007401C0E07480C0E01212D81581158115D9
:1011300081020B5A20F71430F6148883A88220F518
:1011400007E6A88375830022E280F7E49322E02279
:10115000E4AC83AB82FAF9748E02142EFFA88118D6
:1011600018121456D2D133E6400730E70B758201CE
:101170002220E70675820022C2D1121438E97003DA
:10118000F5822230D101B3E433F58222FFA8811821
:1011900018121456D2D133E6400730E70B7582009F
:1011A0002220E70675820122C2D1121438E97003A9
:1011B000F5822220D101B3E433F58222121503BC5B
:1011C00000030214A2EF60FA30D502B2D1E583B475
:1011D000FF030214B8E582B4FF030214B82583406C
:1011E000072482400B0214A224831450030214B873
:1011F000F582EA8DF0A4A8F0EA8EF0A428F8E43590
:10120000F0F9EB8DF0A428E935F0F9E433CA8FF05A
:10121000A429F9EA35F0FAEBF88EF0A429F9EA35B9
:10122000F0FAE433FBEC8DF0A429F9EA35F0FAE4A6
:101230003BFBE88FF0A42AFAEB35F0FBE433CCFD5E
:101240008EF0A42AFAEB35F0FBE43CFCED8FF0A421
:101250002BFBEC35F0FC20E7031214D0021481E4E0
:10126000AC82FBFAF9748602142E1215037900E59C
:1012700083B58202800D5003121531E583C3958238
:1012800012154BE5D0C465D020E117EA2DFAEB3EEC
:10129000FBEC3FFC5009740112154BEC4480FC023E
:1012A0001481C3EA9DFAEB9EFBEC9FFC500FC3E454
:1012B00099F9E49AFAE49BFBE49CFCB2D11214D0B5
:1012C000021481021F1A85821885831985F01A85F8
:1012D000091B9012C302196DC008858108E5082416
:1012E000FBF51BE50824FBF8861808861908861A02
:1012F0009012C312196DD00822AC83AB827A0079A8
:1013000000748E021F3812150330D502B2D1BF000F
:1013100009BC00030214C50214B8BC00030214A2E5
:10132000E583B4FF0BE582B4FF030214C50214A2E7
:10133000E582B4FF030214B8C395835007247F40AD
:101340000B0214A224801450030214B8C0E0E4CCB1
:10135000CBCAF98D728E738F74EF54F0C4F5757526
:1013600083068575F0EB84F582E9C4F9EAC4FAEBEB
:10137000C4FBEC540FC47803D6FC18EBD6FB18EA78
:10138000D6FA8582F0EDA4A8F0FD8582F0EEA428BF
:10139000FEE435F0F88582F0EFA428FFE435F0F89C
:1013A000E99DF9EA9EFAEB9FFBEC98FCAD72AE73F7
:1013B000AF7430E7101582E92DF9EA3EFAEB3FFBF6
:1013C000E43CFC80EDC082D58398C3E933F9EA336D
:1013D000FAEB33FBEC33FCC3E99DEA9EEB9FEC9404
:1013E00000B3E413F9D002D0E0C44AFAD003D0E04D
:1013F000C44BFBD004D0E0F5F0540FC44CFCD082B9
:10140000158230F40FD3EC13FCEB13FBEA13FAE96B
:1014100013F90582E930E70A74012AFAE43BFBE498
:101420003CFC021499FCABF0AA83A982749EC2D141
:10143000F5821214D00214817901AA82E68F82B556
:10144000821318E6B5F00E18E6B5830918E68A820D
:10145000B58202790022B4800FE5F0700AE583704E
:1014600006E58270027F00EFB6801518B6001018EE
:10147000B6000B18B600060808087600220808080F
:1014800022B98003EA13B34010EA2401FAE43BFBDB
:10149000E43CFC50047C800582BC000EBB000BBA0F
:1014A0000008E4F5F0F583F58222A2D1E582138CE1
:1014B000F092F78B838A8222E4F583F58275F080BF
:1014C000F4A2D11322E4F583F58275F0C0747F2273
:1014D0007804EC7011E58224F8500AF582E4C9CA58
:1014E000CBFCD8EF22EC7820058220E713D58201CF
:1014F00022C3E933F9EA33FAEB33FBEC33FCD8EAE5
:10150000158222AA82AB83A2F73392D16002D2F76E
:10151000F582ACF0E58124F9F8E6FD08E6FE0886E0
:10152000F008E6A2F73392D56002D2F7F583AFF068
:1015300022E582C583F582A2D133A2D592D113923E
:10154000D5ECCFFCEBCEFBEACDFA226040F8258249
:10155000500274FFF582E824F8501ECCCBCAF9E49F
:10156000CC24F85014CBCAF9E4CB24F8500BCAF9B8
:10157000E4CA24F8500379002224086010F8C3EC70
:1015800013FCEB13FBEA13FAE913F9D8F122AA8250
:10159000749FC0E07415C0E0C00AC00B8A822205A7
:1015A00011E4B51102051222AA8274302AFA24C667
:1015B000500A74072AFA3001034302208A82021576
:1015C0008EE582FAC4540FF582C0021215A8D0022B
:1015D000740F5AF5820215A8AA0CAB0DAC0EAD0F14
:1015E000AE10751720EE2EFEED235401FF4206EAE1
:1015F0002AFAEB33FBEC33FCED33FDC3EE951340DD
:1016000008EEC39513FE430201D517D98A0C8B0D42
:101610008C0E8D0F8E10227887E624D075F00AA4E8
:10162000FA7888E624D02AFA78868603BB2D04C38C
:10163000E49AFA751301C3E464808AF063F080953C
:10164000F050297517038A0374F62517401C0513FB
:10165000E51714247BF8E517247BF98704A60477A3
:101660002E1BEBFA6004051780DE8B02EA30E70DD3
:10167000787C8603787DA603787C762E0AE5156053
:101680000AE51504FB2513F5138005300C0205133C
:10169000787B8603E4BB2D0104FB70062007033032
:1016A0000802051330050302175E300657EB600C85
:1016B00075822DC00212158ED002801C30070C7569
:1016C000822BC00212158ED002800D30080A75825E
:1016D00020C00212158ED002787C8604BC2E0C75B8
:1016E0008230C00212158ED0021514AC141514C32A
:1016F000E5139C40030217A2758230C00212158EBA
:10170000D00280E7AC141514C3E5139C500C75820D
:1017100020C00212158ED00280EA787B8604BC2D90
:101720000C75822DC00212158ED002801C30070C61
:1017300075822BC00212158ED002800D30080A75FA
:101740008220C00212158ED002787C8604BC2E52F4
:10175000758230C00212158ED00215148044EB60E1
:101760000E75822DC00212158ED002151480203005
:10177000070E75822BC00212158ED0021514800F31
:1017800030080C758220C00212158ED00215147814
:101790007C8603BB2E0C758230C00212158ED002DF
:1017A0001514751701C20EE517247BF88603BB4597
:1017B0000302185FBB2E348A03C3E464808BF0639A
:1017C000F08095F0500F758230C00312158ED00353
:1017D0001B8B0280E48B02D20EE5157038200C03BF
:1017E00002185F75822E12158E8074300E278A03C0
:1017F000EB30E71FC3E464808515F063F08095F05B
:10180000500C758230C00312158ED00315150B8B4A
:101810000280DD8B02300E0EC3E464808515F06318
:10182000F08095F05021E517247BF886038B82C069
:101830000212158ED002300E0EE517247BF88603B7
:10184000BB2E02800215151514C3E464808515F0C3
:1018500063F08095F04003200E0505170217A7C31B
:10186000E464808515F063F08095F0500A7582304D
:1018700012158E151580E830050FAA141514EA60AC
:101880000875822012158E80F122E5157003300C48
:101890000D74072515FAE514C39AF5148006E514AE
:1018A00024FAF514751700787B8602BA2B0F2007EF
:1018B0000C787B7620200805751701051420051982
:1018C000AA14C3E464808AF063F08095F0500A752E
:1018D000822012158E151480E7C20EE517247BF8BE
:1018E0008602BA00028069BA451F3001027665C3DC
:1018F000E464808515F063F08095F0500A758230BD
:1019000012158E151580E8D20EC3E5179402E43344
:10191000FA7014EA700EC3E464808515F063F080F9
:1019200095F04003300E16E517247BF886028A8274
:1019300012158EE51724FD50121515800E7402B590
:101940001709300C0675822E12158E05170218DB4A
:10195000300519AA14C3E464808AF063F08095F01E
:10196000500A75822012158E151480E72285820A8E
:1019700085830BE4F511F512AA18AB19AC1A8A820B
:101980008B838CF0121134FD74012AF518E43BF5B9
:10199000198C1AEDFA7003021F13BA250280030294
:1019A0001F0BC205C206C207C208C209C20AC20B87
:1019B000C20CC202C203C20475130075140075156F
:1019C000FFAB18AC19AD1A8B828C838DF0121134D9
:1019D000FAA3AB82AC838B188C198D1ABA25078AAF
:1019E0008212158E80928A06BE3000402E8A06EE44
:1019F00024C6402774FFB51513E51475F00AA4FE3C
:101A0000EA24D02EF51470BFD20680BBE51575F020
:101A10000AA4FEEA24D02EF51580ACBA2E0A74FF73
:101A2000B515A4751500809F8A06BE6100400E8A18
:101A300006EE248540075302DFD2018002C201BABC
:101A400020028075BA2303021AC8BA2A03021ACDEB
:101A5000BA2B02805FBA2D028055BA4202805FBA6B
:101A60004303021B12BA4403021C4DBA4503021C75
:101A700067BA4603021C63BA4703021C6BBA4903E8
:101A8000021C4DBA4C02803BBA4E03021C6FBA4F87
:101A900003021C54BA5003021BE6BA5303021B365E
:101AA000BA5503021C59BA5803021C5E021C99D293
:101AB000050219C7D2070219C7D2080219C7D20AEC
:101AC0000219C7D20B0219C7D20C0219C774FFB58D
:101AD0001520300A0BE51B14F8881B86140219C761
:101AE000E51B24FEF8881B8606088607188E14025C
:101AF00019C7300A0BE51B14F8881B86150219C795
:101B0000E51B24FEF8881B8606088607188E15023A
:101B100019C7300A0AE51B14F8881B8602800FE5F6
:101B20001B24FEF8881B8603088604188B028A8211
:101B300012158E021C9EE51B24FDF8881B860308E7
:101B4000860408860518188B0C8C0D8D0E8B828CE4
:101B5000838DF0122094AB82AC838B1674FFB51585
:101B60000385161520051DC3E51695145016E514BA
:101B7000C39516F514AB141514EB6008758220128A
:101B8000158E80F1850C82850D83850EF01211343F
:101B9000FBFA6029AB151515C3E464808BF063F084
:101BA0008095F050188A8212158EAB0CAC0DAD0EDC
:101BB0000BBB00010C8B0C8C0D8D0E80C720050318
:101BC000021C9EC3E51695144003021C9EE514C337
:101BD0009516F514AB141514EB7003021C9E758258
:101BE0002012158E80EEE51B24FDF8881B86030865
:101BF000860408860518188B0C8C0D8D0EE50EFBDF
:101C000030E7047A438013EB546060047A50800A12
:101C1000EB30E6047A4980027A588A82C0021215B3
:101C20008E75823A12158E75823012158E758278F5
:101C300012158ED002BA4902800BBA500280068576
:101C40000D821215C1850C821215C18051D2097501
:101C5000130A804A751308804575130A804075136E
:101C600010803BD2028037D2038033D204802FE52C
:101C70001B24FDF8881B86030886040886051818AF
:101C80008B0C8C0D8D0E8B828C838DF0E5111220C8
:101C90007BA3E51212207B80058A8212158E20021A
:101CA00006200303300470E51B24FCF8881B860320
:101CB0000886040886050886061818188B0C8C0DF3
:101CC0008D0E8E0FE50CE50DE50EE50F8B828C83F6
:101CD0008DF0EE121F5C74FFB51503751506300408
:101CE00027747F550FFB8B10E510EB2BFB8B10E55A
:101CF0000E30E70674014510F510E5102468400623
:101D0000749925104002D20330030612188A021972
:101D100078121617021978E51370030219787B8080
:101D2000300A2BE51B14F8881BE6FC3395E0FDFE1A
:101D3000FF8C0C8D0D8E0E8F0F20095EAC0C7D007C
:101D40007E007F008C0C8D0D8E0E8F0F804C300B23
:101D50001FE51B24FCF8881B8604088605088606F8
:101D60000886071818188C0C8D0D8E0E8F0F802A80
:101D7000E51B24FEF8881B860408860518ED3395BC
:101D8000E0FEFF8C0C8D0D8E0E8F0F20090CAC0C1D
:101D9000AD0D7E007F008E0E8F0F300C43E50C459D
:101DA0000D450E450F60397408B5130C758230C0AF
:101DB0000312158ED00380287410B513237582305A
:101DC000C00312158ED00330010C758278C0031247
:101DD000158ED003800A758258C00312158ED00369
:101DE000300925AC0CAD0DAE0EE50FFF30E717C383
:101DF000E49CFCE49DFDE49EFEE49FFF8C0C8D0DB5
:101E00008E0E8F0F8002C209751600D20D8B0075E1
:101E10001000C0001215D8D000200D0DE510C4FC34
:101E2000E6FD4CF61888038002A6100516B20DE5F3
:101E30000C450D450E450F70D68803E514700375EB
:101E4000140120061A200517E51604FCC39514504A
:101E50000E758220C00312158ED003151480E93050
:101E6000090E75822DC00312158ED003151480241F
:101E7000E516602030070E75822BC00312158ED038
:101E8000031514800F30080C758220C00312158EC4
:101E9000D003151420051EAC141514C3E5169C5070
:101EA000273006047C3080027C208C82C00312150F
:101EB0008ED00380E2C3E51695145009E514C3954E
:101EC00016F51480037514008B00AB161516EB6025
:101ED00022B20D200D0A08E6C4540FFB8B108007B8
:101EE0008603740F5BF510851082C0001215A8D010
:101EF0000080D7200503021978AB141514EB70038A
:101F000002197875822012158E80EE8A8212158E43
:101F100002197885118285128322AA82BA0A0810D2
:101F2000990280FB75990D10990280FB8A9922FC19
:101F3000ABF0AA83A982749EF582C2D1EC30E71679
:101F4000D2D1E9F42401F9EAF43400FAEBF43400D4
:101F5000FBECF43400FC1214D0021481C0E0F8450C
:101F600082458345F07009F5F0FBFCFDFE02202A56
:101F7000E823A2F792E0F8A982AA83D2F7ABF07C1B
:101F8000007E07C3749798404074FF2EFE740A8940
:101F9000F0A4F985F082740A8AF0A4FA85F08374BB
:101FA0000A8BF0A4FB740529F9EA3582FAEB358334
:101FB000FB740035F0FCC3EC13FCEB13FBEA13FAE3
:101FC000E913F908EC70EF80BAE8C3947FF88B83CB
:101FD0008EF0E4FBFCFDFEFF08C3E933F9EA33FAB7
:101FE000E58333F583EB3BD4FBEC3CD4FCED3DD4F3
:101FF000FDEE3ED4FEEF3FD4FF602D05F074052BBF
:10200000D4FBE43CD4FCE43DD4FDE43ED4FEE43F08
:10201000D4FF758204C3EF13FFEE13FEED13FDEC46
:1020200013FCEB13FBD582EDD8AF787BD0E020E733
:1020300004762B8002762D087906E7C4540F4430CD
:10204000F608B90603762E08E7540F4430F608194F
:10205000B902E7764508E5F020E704762B800476A0
:102060002DF4040875F00A844430F608E5F0443095
:10207000F608E4F690007B75F0402220F71030F669
:10208000118883A88220F507F6A88375830022F2C1
:1020900080F7F022AA82AB83ACF07D007E008A82BA
:1020A0008B838CF0121134FFA3AA82AB83EF6007FD
:1020B0000DBD00EA0E80E78D828E832200000000B5
:00000001FF
