:1000000002002E00000000000000000000000000C0
:10002000000000000000000000000002036D758168
:100030008E12026AE582600302009A780079007AE3
:10004000007B007C007D00EC4D601C88828983E48D
:1000500093A3A882A9838A828B83F0A3AA82AB830D
:100060001CBCFFE31D80E07582007583007C007D71
:1000700000EC4D600AE4F0A31CBCFFF51D80F27596
:1000800082007583007C007D00EC4D600AE4F0A3E3
:100090001CBCFFF51D80F21201BA120B6B80FE0A28
:1000A0007265616420313A202061742070696E208D
:1000B000312E363A2025660D000A726561642030C3
:1000C0003A20566F6C742061742070696E20312E56
:1000D000363A2025660D005475726E207269676885
:1000E00074200D0A00476F20537472616967687449
:1000F000200D0A001B5B324A005371756172652046
:10010000776176652067656E657261746F722066CF
:100110006F72207468652045464D384C42312E0D73
:100120000A436865636B2070696E732050322E320B
:1001300020616E642050322E3120776974682074FB
:100140006865206F7363696C6C6F73636F70652E85
:100150000D0A000A0D006175746F200D0A000D5420
:100160003D2566206D732020200A20006D616E758C
:10017000616C200D0A0054696D653A2025660A09F4
:100180000D0052494748540A0D00464F52574152FC
:10019000440A0D004241434B574152440A0D004C62
:1001A0004546540A0D0053544F500A0D00446F2029
:1001B0006E6F7468696E670D0A0075220075230002
:1001C000752400752500E4F536F537E4F538F53982
:1001D000753A01753B00753C00753D00753E007534
:1001E0003F0075400075410075420175430075443C
:1001F0000175450075460175470075480175490050
:10020000754A01754B00754C00754D00754E0075B3
:100210004F007550007551007552017553007554AB
:1002200000755500755601755700755800755900D1
:10023000755A01755B00755C01755D00755E007532
:100240005F0075600175610075620075630075641B
:100250000075650075660075670075680075690052
:10026000756A02E4F56B756E002275A7007597DE5E
:100270007597AD75FF8075EF0675A71075C1207570
:10028000A70075A90075A900E5A930E7FB75A903CA
:1002900075A903E5A930E7FB43A41075E10175E2F8
:1002A0000075E340759810758DE6858D8B53890F29
:1002B000438920D28ED29975C800438E1075CAE04A
:1002C00075CBE375CEFF75CFFFD2ADD2CA75A7103F
:1002D000759800756CD8756DDC75A4FF75A5FF4326
:1002E000F304D29AD2AF75820022AA82AB83438EE6
:1002F000407592B87593FF85929485939575910496
:100300007C007D00C3EC9AED9B500FE59130E7FB3C
:1003100053917F0CBC00ED0D80EA75910022AA82FA
:10032000AB837C007D00C3EC9AED9B502B7E00BE1E
:100330000400501D9000FAC002C003C004C005C0F4
:10034000061202EAD006D005D004D003D0020E80F7
:10035000DE0CBC00D10D80CE228582BBD2EC20EC1D
:10036000FDD2EC20ECFD85BD8285BE8322C0E0C0BD
:1003700002C003C0D075D000C2CF0522E522249B65
:100380005003752200AA227B00C3E5269AE5279B2D
:100390009200B39294AA227B00C3E5289AE5299B98
:1003A0009200B39295AA227B00C3E52A9AE52B9B83
:1003B0009200B39292AA227B00C3E52C9AE52D9B72
:1003C0009200B39293E52224AF9200B392A0D0D0D2
:1003D000D003D002D0E03275A70075B28075BCF8AA
:1003E00075B91E75E80075DF3F75B300D2EF225373
:1003F00089F0438901C28C22120359121265AA8224
:10040000AB83ACF0FDC002C003C004C005906C8B90
:1004100075F0537440121305AA82AB83ACF0FDE56E
:100420008124FCF581E4C0E074FCC0E0747FC0E08E
:100430007446C0E08A828B838CF0ED12146CAA8221
:10044000AB83ACF0FDE58124FCF5818A828B838C43
:10045000F0ED22AA828576F005F07401800225E095
:10046000D5F0FBFB75A720BA0002800ABA01028012
:100470000FBA021E8014EBF4FA52F1EB42D4801250
:10048000EBF4FA52F2EB42D58008EBF4FA52F3EBBC
:1004900042CC75A70022752663E4F527E4F528F51C
:1004A00029F52AF52B752C63E4F52DD286D283D25B
:1004B00081C2A622E4F526F527752863E4F529759F
:1004C0002A63E4F52BE4F52CF52DD286D283C28184
:1004D000D2A622E4F526F527752863E4F529E4F58C
:1004E0002AF52B752C63E4F52DD286C283D281C206
:1004F000A622752663E4F527E4F528F529752A6315
:10050000E4F52BE4F52CF52DD286C283D281C2A668
:1005100022E4F526F527F528F529F52AF52BF52C03
:10052000F52DC286D283D281C2A622758A00758C2F
:1005300000C28D7A007B00C28C75820CC002C003A1
:100540001203F8AC82AD83AEF0FF74CDC0E074CC82
:10055000C0E0744CC0E0743DC0E08C828D838EF0AE
:10056000EF1212D5AC82E58124FCF581D003D002D4
:10057000EC70C675820CC002C0031203F8AC82ADE9
:1005800083AEF0FF74CDC0E074CCC0E0744CC0E02A
:10059000743DC0E08C828D838EF0EF1212D5AC8258
:1005A000E58124FCF581D003D002EC60C6D28CE456
:1005B000F570F57175820CC002C0031203F8AE82AB
:1005C000AF83A8F0F974CDC0E074CCC0E0744CC027
:1005D000E0743DC0E08E828F8388F0E91212D5AEC0
:1005E00082E58124FCF581D003D002EE700302077E
:1005F00031108D02800C0570E4B570020571AA708F
:10060000AB71C002C003857082857183C002C003D4
:1006100012145FAE82AF83A8F0F9C006C007C00015
:10062000C00190000075F0807447121305AE82AFD0
:1006300083A8F0F9E58124FCF581D003D002858CF4
:1006400082C006C007C000C0011213C5AC82AD83D2
:10065000AAF0FBC004C005C002C00390000075F002
:10066000807443121305AA82AB83ACF0FDE58124AC
:10067000FCF581D001D000D007D006C002C003C075
:1006800004C0058E828F8388F0E91213D0AA82AB52
:1006900083ACF0FDE58124FCF581AE8A7F008E827B
:1006A0008F83C002C003C004C00512145FAE82AFC6
:1006B00083A8F0F9D005D004D003D002C006C0074B
:1006C000C000C0018A828B838CF0ED1213D0AA8205
:1006D000AB83ACF0FDE58124FCF581C002C003C012
:1006E00004C00590C33E75F02E7439121305AA821A
:1006F000AB83ACF0FDE58124FCF581C003E4C0E0F0
:10070000C0E074E1C0E07444C0E08A828B838CF066
:10071000ED121271AA82E58124FCF581D003EAD0A2
:1007200003D00270030205B490000075F0E1744438
:1007300022C28C8A828B8312145FAA82AB83ACF0B4
:10074000FDC002C003C004C00590000075F08074B5
:1007500047121305AA82AB83ACF0FDE58124FCF5BA
:1007600081858C82C002C003C004C0051213C5AECF
:1007700082AF83A8F0F9C006C007C000C001900096
:100780000075F0807443121305AE82AF83A8F0F9B0
:10079000E58124FCF581D005D004D003D002C00649
:1007A000C007C000C0018A828B838CF0ED1213D089
:1007B000AA82AB83ACF0FDE58124FCF581AE8A7F93
:1007C000008E828F83C002C003C004C00512145F74
:1007D000AE82AF83A8F0F9D005D004D003D002C018
:1007E00006C007C000C0018A828B838CF0ED121313
:1007F000D0AA82AB83ACF0FDE58124FCF581C00278
:10080000C003C004C00590C33E75F02E74391213A6
:1008100005AA82AB83ACF0FDE58124FCF5818A82D8
:100820008B838CF0ED2285827C85837D85F07E7DB7
:10083000007E00C3ED9577EE64808578F063F080EC
:1008400095F050508D07EECF25E0CF33F8EF257CA3
:10085000F9E8357DFAAB7E89828A838BF0121249E2
:10086000F9A3121249FAEF2579FFE8357AF8AB7B44
:100870008F8288838BF0121249FFA3121249F8E984
:10088000B50706EAB500028004900000220DBD0005
:10089000A20E809F9000012275793A757A00757BCF
:1008A00040757704E4F57890006275F040120826F0
:1008B000E5828583F045F060030205117579427584
:1008C0007A00757B40757704E4F57890006275F0E6
:1008D00040120826E5828583F045F0600302049605
:1008E00075794A757A00757B40757704E4F57890E0
:1008F000006275F040120826E5828583F045F060BD
:10090000030204B4757952757A00757B40757704DB
:10091000E4F57890006275F040120826E582858340
:10092000F045F060030204D375795A757A00757B3F
:1009300040757704E4F57890006275F0401208265F
:10094000E5828583F045F060030204F2020511752B
:10095000820C120359E5828583F045F060F1900026
:10096000001202EA75820C0203F812094FAA82AB48
:1009700083ACF0FD74CDC0E074CCC0E0744CC0E03A
:10098000743DC0E08A828B838CF0ED1212D5AA826E
:10099000E58124FCF581EA702B12094FAA82AB8312
:1009A000ACF0FDC002C003C004C005749FC0E07479
:1009B00000C0E07480C0E012143EE58124F9F581A6
:1009C0009000012212094FAA82AB83ACF0FDC00255
:1009D000C003C004C00574B9C0E07400C0E07480F6
:1009E000C0E012143EE58124F9F5819000002290C8
:1009F000000A02031E12096AE5828583F045F06051
:100A0000F412096AAA82AB83BA0155BB005275621F
:100A1000017563007A017B00C3EA9404EB6480945F
:100A200080503A90000AC002C00312031ED003D0C7
:100A3000028A04EBCC25E0CC33EC2462F8C002C07F
:100A400003C00012096AE5828583F0D000D003D08C
:100A500002F608A6F0180ABA00BE0B80BB0208987E
:100A60002230B306E56A456B700D30B3FDE4F56ADC
:100A7000F56BF582F5832230B20D7401B56A06E498
:100A8000B56B028002800D30B2FD756A01E4F56B32
:100A90009000012230B10D7403B56A06E4B56B0213
:100AA0008002800D30B1FD756A03E4F56B900003A0
:100AB0002230B00D7404B56A06E4B56B0280028082
:100AC0000D30B0FD756A04E4F56B90000422756A80
:100AD00002E4F56B90000222AA82AB83ACF0FD74B5
:100AE0009AC0E07499C0E07419C0E0743FC0E08A15
:100AF000828B838CF0ED121271AA82E58124FCF5C1
:100B000081EA703974D7C0E07400C0E07480C0E03E
:100B100012143E1581158115811204F29001F41210
:100B2000031E9001F412031E90012C12031E1205E5
:100B3000119001F412031E9000FA02031E74E5C026
:100B4000E07400C0E07480C0E012143E158115818D
:100B50001581020496AA82AB83C2B08A768B779005
:100B600003E81213A812031ED2B022756F00758A13
:100B700000758C00C28D1203EF7576067582011226
:100B800004537576047582021204537576057582D6
:100B9000021204531203D774F4C0E07400C0E0746E
:100BA00080C0E012143E15811581158174F9C0E0F2
:100BB0007400C0E07480C0E012143E1581158115E8
:100BC000817453C0E07401C0E07480C0E012143E30
:100BD000158115811581120511120A61AA82AB8354
:100BE000EA4B6003020D7F7456C0E07401C0E074EC
:100BF00080C0E012143E158115811581758A00753B
:100C00008C00C28D20A1FD30A1FDD28C7C007D0026
:100C100030A10C108D0280F80CBC00F40D80F1C2E4
:100C20008C8C828D8312145FAC82AD83AEF0FFC0DA
:100C300004C005C006C00790000075F0807447121C
:100C4000130585827285837385F074F575E58124BB
:100C5000FCF581858C821213C5A882A983ACF0FDB6
:100C6000C000C001C004C00590000075F08074434E
:100C7000121305AC82AD83AEF0FFE58124FCF58153
:100C8000C004C005C006C007857282857383857461
:100C9000F0E5751213D085827285837385F074F543
:100CA00075E58124FCF581A88A7900888289831200
:100CB000145FA882A983ACF0FDC000C001C004C0CD
:100CC000058572828573838574F0E5751213D0AC47
:100CD00082AD83AEF0FFE58124FCF581C004C00540
:100CE000C006C00790F4FC75F0327434121305ACE2
:100CF00082AD83AEF0FFE58124FCF581C004C00520
:100D0000C006C00790000075F07A7444121305AC59
:100D100082AD83AEF0FFE58124FCF581C004C005FF
:100D2000C006C007C004C005C006C007745EC0E0AE
:100D30007401C0E07480C0E012143EE58124F9F52E
:100D40008190003212031ED007D006D005D0048C4B
:100D5000828D838EF0EFC004C005C006C007120A62
:100D6000D8D007D006D005D0048C828D838EF0EFCA
:100D70001212A1120B5590003212031E020BD9BAA7
:100D80000105BB000280030211B8746CC0E074015D
:100D9000C0E07480C0E012143E15811581158112E7
:100DA000052BAC82AD83AEF0FFC004C005C006C009
:100DB00007C004C005C006C0077476C0E07401C057
:100DC000E07480C0E012143EE58124F9F581D0077B
:100DD000D006D005D004C004C005C006C007E4C0DA
:100DE000E0C0E07496C0E07443C0E08C828D838ED6
:100DF000F0EF1212D5A882E58124FCF581D007D04E
:100E000006D005D004E87039C004C005C006C0078C
:100E1000C000E4C0E0C0E074E1C0E07443C0E08C16
:100E2000828D838EF0EF121271A982E58124FCF588
:100E300081D000D007D006D005D004E97003020F9E
:100E4000D1C004C005C006C007C000E4C0E0C0E0D7
:100E500074AFC0E07444C0E08C828D838EF0EF12DA
:100E600012D5A982E58124FCF581D000D007D006F7
:100E7000D005D004E9703BC004C005C006C007C05F
:100E800000E4C0E07480C0E074BBC0E07444C0E023
:100E90008C828D838EF0EF121271A982E58124FC81
:100EA000F581D000D007D006D005D004E970030248
:100EB0000FD1C004C005C006C007C000E4C0E07484
:100EC00080C0E07484C0E07444C0E08C828D838E66
:100ED000F0EF1212D5A982E58124FCF581D000D073
:100EE00007D006D005D004E9703BC004C005C00699
:100EF000C007C000E4C0E07440C0E07488C0E07483
:100F000044C0E08C828D838EF0EF121271A982E5CD
:100F10008124FCF581D000D007D006D005D004E9AB
:100F20007003020FD1C004C005C006C007C000E4B2
:100F3000C0E07480C0E074DEC0E07444C0E08C8225
:100F40008D838EF0EF1212D5A982E58124FCF58104
:100F5000D000D007D006D005D004E96074C004C02A
:100F600005C006C007C000E4C0E0C0E07416C0E0E1
:100F70007444C0E08C828D838EF0EF1212D5A9826A
:100F8000E58124FCF581D000D007D006D005D0043F
:100F9000E96003020BD9C004C005C006C007C00049
:100FA000E4C0E07480C0E0743BC0E07444C0E08CF6
:100FB000828D838EF0EF121271A982E58124FCF5F7
:100FC00081D000D007D006D005D004E96003020B21
:100FD000D9C004C005C006C007C000E4C0E0C0E03E
:100FE00074AFC0E07444C0E08C828D838EF0EF1249
:100FF00012D5A982E58124FCF581D000D007D00666
:10100000D005D004E97053C004C005C006C007C0B5
:1010100000E4C0E07480C0E074BBC0E07444C0E091
:101020008C828D838EF0EF121271A982E58124FCEF
:10103000F581D000D007D006D005D004E9701B742C
:1010400082C0E07401C0E07480C0E012143E1581DB
:10105000158115811204F2020BD9E8704DC004C04D
:1010600005C006C007E4C0E0C0E074E1C0E074431E
:10107000C0E08C828D838EF0EF121271A882E58120
:1010800024FCF581D007D006D005D004E8701B748D
:101090008AC0E07401C0E07480C0E012143E158183
:1010A00015811581120496020BD9C004C005C00633
:1010B000C007E4C0E0C0E07416C0E07444C0E08C37
:1010C000828D838EF0EF1212D5A882E58124FCF583
:1010D00081D007D006D005D004E8704FC004C00509
:1010E000C006C007E4C0E07480C0E0743BC0E07498
:1010F00044C0E08C828D838EF0EF121271A882E5DD
:101100008124FCF581D007D006D005D004E8701BFF
:101110007494C0E07401C0E07480C0E012143E1505
:1011200081158115811204B4020BD9C004C005C019
:1011300006C007E4C0E07480C0E07484C0E074447A
:10114000C0E08C828D838EF0EF1212D5A882E581EB
:1011500024FCF581D007D006D005D004E8703EC04D
:10116000E07440C0E07488C0E07444C0E08C828DBC
:10117000838EF0EF121271AC82E58124FCF581ECD4
:10118000701B749FC0E07401C0E07480C0E0121452
:101190003E1581158115811204D3020BD974A6C0A6
:1011A000E07401C0E07480C0E012143E1581158126
:1011B0001581120511020BD9BA0376BB0073758233
:1011C000111203F8AA82AB83ACF0FDC002C003C0C9
:1011D00004C005E4C0E0C0E07440C0E0C0E08A8222
:1011E0008B838CF0ED1212D5AE82E58124FCF58163
:1011F000D005D004D003D002EE702A749AC0E074F7
:1012000099C0E07459C0E07440C0E08A828B838C3E
:10121000F0ED121271AA82E58124FCF581EA7005D5
:10122000120511800312049690006412031E020B33
:10123000D974ADC0E07401C0E07480C0E012143E07
:10124000158115811581020BD920F71430F6148809
:1012500083A88220F507E6A88375830022E280F741
:10126000E49322E022E4AC83AB82FAF9748E021597
:1012700094FFA88118181215BCD2D133E64007306C
:10128000E70B7582012220E70675820022C2D11287
:10129000159EE97003F5822230D101B3E433F58263
:1012A000221215E7700AE582458345F0700122E4B9
:1012B00030D112F4700BE5F0F47006E58330E701ED
:1012C0002290800022700AE5F07006E58320E70195
:1012D00022907FFF22FFA88118181215BCD2D133AB
:1012E000E6400730E70B7582002220E70675820191
:1012F00022C2D112159EE97003F5822220D101B3DA
:10130000E433F582221216C4BC0003021663EF60B8
:10131000FA30D502B2D1E583B4FF03021679E58233
:10132000B4FF03021679258340072482400B02167E
:10133000632483145003021679F582EA8DF0A4A881
:10134000F0EA8EF0A428F8E435F0F9EB8DF0A4284B
:10135000E935F0F9E433CA8FF0A429F9EA35F0FA57
:10136000EBF88EF0A429F9EA35F0FAE433FBEC8DC2
:10137000F0A429F9EA35F0FAE43BFBE88FF0A42A5F
:10138000FAEB35F0FBE433CCFD8EF0A42AFAEB3512
:10139000F0FBE43CFCED8FF0A42BFBEC35F0FC20E3
:1013A000E703121691021642E5828576F0A4C58203
:1013B000C0F08577F0A4D0F025F0C5838576F0A441
:1013C0002583F58322E4AC82FBFAF9748602159436
:1013D0001216C47900E583B58202800D50031216FF
:1013E000F2E583C3958212170CE5D0C465D020E1E5
:1013F00017EA2DFAEB3EFBEC3FFC50097401121783
:101400000CEC4480FC021642C3EA9DFAEB9EFBEC16
:101410009FFC500FC3E499F9E49AFAE49BFBE49C27
:10142000FCB2D11216910216420220DB8582188589
:10143000831985F01A85091B901429021B2EC008F8
:10144000858108E50824FBF51BE50824FBF88618D0
:1014500008861908861A901429121B2ED00822AC6F
:1014600083AB827A007900748E0220F91216C430A0
:10147000D502B2D1BF0009BC00030216860216795C
:10148000BC0003021663E583B4FF0BE582B4FF03DF
:10149000021686021663E582B4FF03021679C3952D
:1014A000835007247F400B021663248014500302EC
:1014B0001679C0E0E4CCCBCAF98D768E778F78EFC1
:1014C00054F0C4F5797583068579F0EB84F582E9EB
:1014D000C4F9EAC4FAEBC4FBEC540FC47803D6FC9D
:1014E00018EBD6FB18EAD6FA8582F0EDA4A8F0FD39
:1014F0008582F0EEA428FEE435F0F88582F0EFA4B2
:1015000028FFE435F0F8E99DF9EA9EFAEB9FFBEC41
:1015100098FCAD76AE77AF7830E7101582E92DF9FB
:10152000EA3EFAEB3FFBE43CFC80EDC082D58398B9
:10153000C3E933F9EA33FAEB33FBEC33FCC3E99D3F
:10154000EA9EEB9FEC9400B3E413F9D002D0E0C420
:101550004AFAD003D0E0C44BFBD004D0E0F5F054FD
:101560000FC44CFCD082158230F40FD3EC13FCEB8B
:1015700013FBEA13FAE913F90582E930E70A74016B
:101580002AFAE43BFBE43CFC02165AFCABF0AA83CB
:10159000A982749EC2D1F582121691021642790177
:1015A000AA82E68F82B5821318E6B5F00E18E6B56A
:1015B000830918E68A82B58202790022B4800FE599
:1015C000F0700AE5837006E58270027F00EFB68056
:1015D0001518B6001018B6000B18B6000608080853
:1015E0007600220808082212211DC3749E958240AD
:1015F00039790012170C30D126E9F42401F582EA7A
:10160000F43400F583EBF43400F5F0ECF4340070BE
:101610000AE582458345F0700122E430E70F22ECB1
:1016200020E71489828A838BF02230D10AE4F58284
:10163000F583F5F074802274FFF582F583F5F0747C
:101640007F22B98003EA13B34010EA2401FAE43B95
:10165000FBE43CFC50047C800582BC000EBB000B0C
:10166000BA0008E4F5F0F583F58222A2D1E58213F1
:101670008CF092F78B838A8222E4F583F58275F0F1
:1016800080F4A2D11322E4F583F58275F0C0747F53
:10169000227804EC7011E58224F8500AF582E4C93E
:1016A000CACBFCD8EF22EC7820058220E713D58244
:1016B0000122C3E933F9EA33FAEB33FBEC33FCD80C
:1016C000EA158222AA82AB83A2F73392D16002D2BA
:1016D000F7F582ACF0E58124F9F8E6FD08E6FE08AE
:1016E00086F008E6A2F73392D56002D2F7F583AF11
:1016F000F022E582C583F582A2D133A2D592D1131F
:1017000092D5ECCFFCEBCEFBEACDFA226040F82577
:1017100082500274FFF582E824F8501ECCCBCAF93F
:10172000E4CC24F85014CBCAF9E4CB24F8500BCA0B
:10173000F9E4CA24F8500379002224086010F8C3A1
:10174000EC13FCEB13FBEA13FAE913F9D8F122AA24
:10175000827460C0E07417C0E0C00AC00B8A8222A5
:101760000511E4B51102051222AA8274302AFA2466
:10177000C6500A74072AFA3001034302208A820203
:10178000174FE582FAC4540FF582C002121769D0D0
:1017900002740F5AF582021769AA0CAB0DAC0EAD9C
:1017A0000FAE10751720EE2EFEED235401FF4206FA
:1017B000EA2AFAEB33FBEC33FCED33FDC3EE951371
:1017C0004008EEC39513FE430201D517D98A0C8B4E
:1017D0000D8C0E8D0F8E1022788BE624D075F00ABA
:1017E000A4FA788CE624D02AFA788A8603BB2D04E2
:1017F000C3E49AFA751301C3E464808AF063F0804D
:1018000095F050297517038A0374F62517401C05B7
:1018100013E51714247FF8E517247FF98704A6043D
:10182000772E1BEBFA6004051780DE8B02EA30E7A7
:101830000D788086037881A6037880762E0AE515D8
:10184000600AE51504FB2513F5138005300C02052D
:1018500013787F8603E4BB2D0104FB700620070389
:10186000300802051330050302191F300657EB60DC
:101870000C75822DC00212174FD002801C30070C4D
:1018800075822BC00212174FD002800D30080A75E6
:101890008220C00212174FD00278808604BC2E0C22
:1018A000758230C00212174FD0021514AC141514F3
:1018B000C3E5139C4003021963758230C0021217FE
:1018C0004FD00280E7AC141514C3E5139C500C757F
:1018D0008220C00212174FD00280EA787F8604BCB3
:1018E0002D0C75822DC00212174FD002801C3007BC
:1018F0000C75822BC00212174FD002800D30080ADF
:10190000758220C00212174FD00278808604BC2E48
:1019100052758230C00212174FD00215148044EB6A
:10192000600E75822DC00212174FD0021514802050
:1019300030070E75822BC00212174FD0021514808B
:101940000F30080C758220C00212174FD0021514F8
:1019500078808603BB2E0C758230C00212174FD0E0
:10196000021514751701C20EE517247FF88603BB14
:101970004503021A20BB2E348A03C3E464808BF033
:1019800063F08095F0500F758230C00312174FD06E
:10199000031B8B0280E48B02D20EE5157038200CFD
:1019A00003021A2075822E12174F8074300E278A78
:1019B00003EB30E71FC3E464808515F063F0809586
:1019C000F0500C758230C00312174FD00315150B61
:1019D0008B0280DD8B02300E0EC3E464808515F02F
:1019E00063F08095F05021E517247FF886038B8201
:1019F000C00212174FD002300E0EE517247FF88672
:101A000003BB2E02800215151514C3E464808515EE
:101A1000F063F08095F04003200E05051702196869
:101A2000C3E464808515F063F08095F0500A7582F8
:101A30003012174F151580E830050FAA141514EA57
:101A4000600875822012174F80F122E5157003306F
:101A50000C0D74072515FAE514C39AF5148006E5F4
:101A60001424FAF514751700787F8602BA2B0F201C
:101A7000070C787F762020080575170105142005CE
:101A800019AA14C3E464808AF063F08095F0500AC8
:101A900075822012174F151480E7C20EE517247FB8
:101AA000F88602BA00028069BA451F3001027665E5
:101AB000C3E464808515F063F08095F0500A758268
:101AC0003012174F151580E8D20EC3E5179402E4C3
:101AD00033FA7014EA700EC3E464808515F063F085
:101AE0008095F04003300E16E517247FF886028AB1
:101AF0008212174FE51724FD50121515800E74023F
:101B0000B51709300C0675822E12174F0517021AE9
:101B10009C300519AA14C3E464808AF063F08095B0
:101B2000F0500A75822012174F151480E722858223
:101B30000A85830BE4F511F512AA18AB19AC1A8AC1
:101B4000828B838CF0121249FD74012AF518E43B54
:101B5000F5198C1AEDFA70030220D4BA250280031D
:101B60000220CCC205C206C207C208C209C20AC20C
:101B70000BC20CC202C203C20475130075140075B7
:101B800015FFAB18AC19AD1A8B828C838DF0121235
:101B900049FAA3AB82AC838B188C198D1ABA25072E
:101BA0008A8212174F80928A06BE3000402E8A0623
:101BB000EE24C6402774FFB51513E51475F00AA48A
:101BC000FEEA24D02EF51470BFD20680BBE5157551
:101BD000F00AA4FEEA24D02EF51580ACBA2E0A74C1
:101BE000FFB515A4751500809F8A06BE6100400EE2
:101BF0008A06EE248540075302DFD2018002C2012B
:101C0000BA20028075BA2303021C89BA2A03021C77
:101C10008EBA2B02805FBA2D028055BA4202805FD5
:101C2000BA4303021CD3BA4403021E0EBA45030290
:101C30001E28BA4603021E24BA4703021E2CBA49C4
:101C400003021E0EBA4C02803BBA4E03021E30BA8B
:101C50004F03021E15BA5003021DA7BA5303021CFC
:101C6000F7BA5503021E1ABA5803021E1F021E5A63
:101C7000D205021B88D207021B88D208021B88D219
:101C80000A021B88D20B021B88D20C021B8874FF2D
:101C9000B51520300A0BE51B14F8881B8614021BAF
:101CA00088E51B24FEF8881B8606088607188E1414
:101CB000021B88300A0BE51B14F8881B8615021BD3
:101CC00088E51B24FEF8881B8606088607188E15F3
:101CD000021B88300A0AE51B14F8881B8602800F55
:101CE000E51B24FEF8881B8603088604188B028AED
:101CF0008212174F021E5FE51B24FDF8881B860326
:101D000008860408860518188B0C8C0D8D0E8B82A6
:101D10008C838DF0122267AB82AC838B1674FFB577
:101D2000150385161520051DC3E51695145016E5F7
:101D300014C39516F514AB141514EB6008758220C6
:101D400012174F80F1850C82850D83850EF01212DB
:101D500049FBFA6029AB151515C3E464808BF06369
:101D6000F08095F050188A8212174FAB0CAC0DAD75
:101D70000E0BBB00010C8B0C8C0D8D0E80C720054B
:101D800003021E5FC3E51695144003021E5FE514AF
:101D9000C39516F514AB141514EB7003021E5F7592
:101DA000822012174F80EEE51B24FDF8881B860366
:101DB00008860408860518188B0C8C0D8D0EE50E10
:101DC000FB30E7047A438013EB546060047A508060
:101DD0000AEB30E6047A4980027A588A82C00212FD
:101DE000174F75823A12174F75823012174F75824E
:101DF0007812174FD002BA4902800BBA50028006FF
:101E0000850D82121782850C821217828051D209A9
:101E100075130A804A751308804575130A8040754A
:101E20001310803BD2028037D2038033D204802F3C
:101E3000E51B24FDF8881B86030886040886051820
:101E4000188B0C8C0D8D0E8B828C838DF0E511120E
:101E5000224EA3E51212224E80058A8212174F20CD
:101E60000206200303300470E51B24FCF8881B865F
:101E7000030886040886050886061818188B0C8C3B
:101E80000D8D0E8E0FE50CE50DE50EE50F8B828CAA
:101E9000838DF0EE12212F74FFB5150375150630F2
:101EA0000427747F550FFB8B10E510EB2BFB8B1079
:101EB000E50E30E70674014510F510E51024684082
:101EC00006749925104002D203300306121A4B0201
:101ED0001B391217D8021B39E5137003021B397B1B
:101EE00084300A2BE51B14F8881BE6FC3395E0FDD3
:101EF000FEFF8C0C8D0D8E0E8F0F20095EAC0C7DBD
:101F0000007E007F008C0C8D0D8E0E8F0F804C306C
:101F10000B1FE51B24FCF8881B8604088605088631
:101F2000060886071818188C0C8D0D8E0E8F0F80E2
:101F30002AE51B24FEF8881B860408860518ED3365
:101F400095E0FEFF8C0C8D0D8E0E8F0F20090CACD2
:101F50000CAD0D7E007F008E0E8F0F300C43E50C14
:101F6000450D450E450F60397408B5130C75823068
:101F7000C00312174FD00380287410B51323758245
:101F800030C00312174FD00330010C758278C003A4
:101F900012174FD003800A758258C00312174FD012
:101FA00003300925AC0CAD0DAE0EE50FFF30E71781
:101FB000C3E49CFCE49DFDE49EFEE49FFF8C0C8D3D
:101FC0000D8E0E8F0F8002C209751600D20D8B0088
:101FD000751000C000121799D000200D0DE510C437
:101FE000FCE6FD4CF61888038002A6100516B20D1B
:101FF000E50C450D450E450F70D68803E5147003BA
:1020000075140120061A200517E51604FCC3951463
:10201000500E758220C00312174FD003151480E9AB
:1020200030090E75822DC00312174FD0031514808E
:1020300024E516602030070E75822BC00312174F5F
:10204000D0031514800F30080C758220C0031217BE
:102050004FD003151420051EAC141514C3E5169CAF
:1020600050273006047C3080027C208C82C0031212
:10207000174FD00380E2C3E51695145009E514C349
:102080009516F51480037514008B00AB161516EB2E
:102090006022B20D200D0A08E6C4540FFB8B10809D
:1020A000078603740F5BF510851082C00012176954
:1020B000D00080D7200503021B39AB141514EB7038
:1020C00003021B3975822012174F80EE8A82121785
:1020D0004F021B3985118285128322AA82BA0A080F
:1020E00010990280FB75990D10990280FB8A992244
:1020F000FCABF0AA83A982749EF582C2D1EC30E7D2
:1021000016D2D1E9F42401F9EAF43400FAEBF434FC
:1021100000FBECF43400FC121691021642AA82ABCA
:1021200083A2F73392D16002D2F7F582ACF022C0DD
:10213000E0F84582458345F07009F5F0FBFCFDFEB3
:102140000221FDE823A2F792E0F8A982AA83D2F740
:10215000ABF07C007E07C3749798404074FF2EFE5E
:10216000740A89F0A4F985F082740A8AF0A4FA85C9
:10217000F083740A8BF0A4FB740529F9EA3582FA1E
:10218000EB3583FB740035F0FCC3EC13FCEB13FB65
:10219000EA13FAE913F908EC70EF80BAE8C3947F08
:1021A000F88B838EF0E4FBFCFDFEFF08C3E933F9F6
:1021B000EA33FAE58333F583EB3BD4FBEC3CD4FC08
:1021C000ED3DD4FDEE3ED4FEEF3FD4FF602D05F093
:1021D00074052BD4FBE43CD4FCE43DD4FDE43ED4B4
:1021E000FEE43FD4FF758204C3EF13FFEE13FEED50
:1021F00013FDEC13FCEB13FBD582EDD8AF787FD049
:10220000E020E704762B8002762D087906E7C45497
:102210000F4430F608B90603762E08E7540F443011
:10222000F60819B902E7764508E5F020E704762BB1
:102230008004762DF4040875F00A844430F608E52D
:10224000F04430F608E4F690007F75F0402220F765
:102250001030F6118883A88220F507F6A8837583CD
:102260000022F280F7F022AA82AB83ACF07D007EE0
:10227000008A828B838CF0121249FFA3AA82AB835F
:10228000EF60070DBD00EA0E80E78D828E8322008D
:00000001FF
