:1000000002002E00000000000000000000000000C0
:1000200000000000000000000000000203327581A3
:1000300088120246E582600302009A780079007A0D
:10004000007B007C007D00EC4D601C88828983E48D
:1000500093A3A882A9838A828B83F0A3AA82AB830D
:100060001CBCFFE31D80E07582007583007C007D71
:1000700000EC4D600AE4F0A31CBCFFF51D80F27596
:1000800082007583007C007D00EC4D600AE4F0A3E3
:100090001CBCFFF51D80F2120199120A9A80FE46DF
:1000A0006F72776172640A0D004261636B776172EF
:1000B000640A0D004C6566740A0D00526967687425
:1000C0000A0D0053746F700A0D0025660A0D000AB0
:1000D0007265616420313A202061742070696E205D
:1000E000322E333A2025660D005475726E207269E7
:1000F000676874200D0A00476F2053747261696746
:100100006874200D0A001B5B324A005371756172DE
:100110006520776176652067656E657261746F72C0
:1001200020666F72207468652045464D384C423118
:100130002E0D0A436865636B2070696E7320503220
:100140002E3220616E642050322E3120776974681F
:1001500020746865206F7363696C6C6F73636F7074
:10016000652E0D0A000A0D006175746F200D0A00DE
:100170000D543D2566206D732020200A2000436F1A
:100180006D6D616E643A200025640900446F206E35
:100190006F7468696E670D0A00752200752300751B
:1001A0002400752500E4F536F537E4F538F53975A2
:1001B0003A00753B00753C00753D00753E00753F8B
:1001C000007540007541007542017543007544019A
:1001D00075450075460175470075480175490075FC
:1001E0004A01754B00754C00754D00754E01754FF9
:1001F000007550017551007552017553007554001A
:10020000755500755600755700755801755900757C
:100210005A01755B00755C00755D00755E00755F69
:10022000007560007561007562007563007564009B
:1002300075650075660075670075680075690075FD
:100240006A02E4F56B2275A7007597DE7597AD75A8
:10025000FF8075EF0675A71075C12075A70075A9F9
:100260000075A900E5A930E7FB75A90375A903E5A9
:10027000A930E7FB43A41075E10175E20075E34086
:10028000759810758DE6858D8B53890F438920D223
:100290008ED29975C800438E1075CAE075CBE37590
:1002A000CEFF75CFFFD2ADD2CAD2AF75820022AADF
:1002B00082AB83438E407592B87593FF8592948587
:1002C00093957591047C007D00C3EC9AED9B500FD3
:1002D000E59130E7FB53917F0CBC00ED0D80EA7592
:1002E000910022AA82AB837C007D00C3EC9AED9B37
:1002F000502B7E00BE0400501D9000FAC002C003C7
:10030000C004C005C0061202AFD006D005D004D08C
:1003100003D0020E80DE0CBC00D10D80CE2285827F
:10032000BBD2EC20ECFDD2EC20ECFD85BD8285BE7D
:100330008322C0E0C002C003C0D075D000C2CF0588
:1003400022E522249B5003752200AA227B00C3E5EC
:10035000269AE5279B9200B392A5AA227B00C3E5CB
:10036000289AE5299B9200B392A4AA227B00C3E5B8
:100370002A9AE52B9B9200B392A3AA227B00C3E5A5
:100380002C9AE52D9B9200B392A2E52224AF920015
:10039000B392A0D0D0D003D002D0E03275A70075C0
:1003A000B28075BCF875B91E75E80075DF3F75B38E
:1003B00000D2EF225389F0438901C28C2212031E1E
:1003C000120D6CAA82AB83ACF0FDC002C003C00466
:1003D000C005906C8B75F0537440120DD8AA82AB97
:1003E00083ACF0FDE58124FCF581E4C0E074FCC041
:1003F000E0747FC0E07446C0E08A828B838CF0EDAD
:10040000120F22AA82AB83ACF0FDE58124FCF581BA
:100410008A828B838CF0ED22AA828570F005F074BD
:1004200001800225E0D5F0FBFB75A720BA00028011
:100430000ABA0102800FBA021E8014EBF4FA52F1DC
:10044000EB42D48012EBF4FA52F2EB42D58008EB87
:10045000F4FA52F3EB42CC75A70022752663E4F55B
:1004600027E4F528F529F52AF52B752C63E4F52DFD
:10047000D287D286D290C2A5749FC0E07400C0E03B
:100480007480C0E0120EF415811581158122E4F507
:1004900026F527752863E4F529752A63E4F52BE42E
:1004A000F52CF52DD287D286C290D2A574A9C0E0D2
:1004B0007400C0E07480C0E0120EF415811581153F
:1004C0008122E4F526F527752863E4F529E4F52A69
:1004D000F52B752C63E4F52DD287C286D290C2A588
:1004E00074B4C0E07400C0E07480C0E0120EF41573
:1004F000811581158122752663E4F527E4F528F539
:1005000029752A63E4F52BE4F52CF52DD287C286F4
:10051000D290C2A574BBC0E07400C0E07480C0E09B
:10052000120EF415811581158122E4F526F527F5C3
:1005300028F529F52AF52BF52CF52DC287D286D280
:1005400090C2A574C3C0E07400C0E07480C0E01223
:100550000EF415811581158122758A00758C00C2F3
:100560008DC28C2096FD3096FDD28C7A007B0030B7
:10057000960C108D0280F80ABA00F40B80F12096D8
:100580000C108D0280F80ABA00F40B80F1C28C8A3C
:10059000828B83120F15AA82AB83ACF0FDC002C020
:1005A00003C004C00590000075F0807447120DD898
:1005B000AA82AB83ACF0FDE58124FCF581858C82B9
:1005C000C002C003C004C005120E7BAE82AF83A878
:1005D000F0F9C006C007C000C00190000075F080AF
:1005E0007443120DD8AE82AF83A8F0F9E58124FCE4
:1005F000F581D005D004D003D002C006C007C000EA
:10060000C0018A828B838CF0ED120E86AA82AB83A6
:10061000ACF0FDE58124FCF581AE8A7F008E828FEF
:1006200083C002C003C004C005120F15AE82AF83A1
:10063000A8F0F9D005D004D003D002C006C007C08E
:1006400000C0018A828B838CF0ED120E86AA82ABE9
:1006500083ACF0FDE58124FCF581C002C003C00439
:10066000C00590F4FC75F0327434120DD8AA82AB38
:1006700083ACF0FDE58124FCF581C002C003C00419
:10068000C005C002C003C004C00574CAC0E0740045
:10069000C0E07480C0E0120EF4E58124F9F5819089
:1006A000000075F07A7444120DD8AA82AB83ACF0C6
:1006B000FDE58124FCF5818A828B838CF0ED228517
:1006C000827685837785F0787D007E00C3ED957115
:1006D000EE64808572F063F08095F050508D07EEE7
:1006E000CF25E0CF33F8EF2576F9E83577FAAB7808
:1006F00089828A838BF0120D50F9A3120D50FAEF04
:100700002573FFE83574F8AB758F8288838BF01200
:100710000D50FFA3120D50F8E9B50706EAB5000227
:100720008004900000220DBD00A20E809F90000169
:100730002275733A757400757540757104E4F5722D
:1007400090006275F0401206BFE5828583F045F0A7
:10075000600612052A0207F47573427574007575F8
:1007600040757104E4F57290006275F0401206BFA6
:10077000E5828583F045F0600612045B0207F4759C
:10078000734A757400757540757104E4F5729000D4
:100790006275F0401206BFE5828583F045F0600582
:1007A00012048E804F7573527574007575407571A3
:1007B00004E4F57290006275F0401206BFE5828590
:1007C00083F045F060051204C2802975735A757470
:1007D00000757540757104E4F57290006275F04023
:1007E0001206BFE5828583F045F060051204F680AD
:1007F0000312052A9001660202E375820C12031EA1
:10080000E5828583F045F060F19000001202AF753B
:10081000820C0203BD227582101203BDAA82AB8333
:10082000ACF0FDE4C0E0C0E0C0E0743FC0E08A820C
:100830008B838CF0ED120DA8AA82E58124FCF58152
:10084000EA702E7582101203BDAA82AB83ACF0FD54
:10085000C002C003C004C00574CFC0E07400C0E093
:100860007480C0E0120EF4E58124F9F58190000156
:1008700022900000229000140202E3120816E58282
:100880008583F045F060F49000AF1202E3756201D9
:100890007563007A017B00C3EA9404EB6480948062
:1008A000503A900166C002C0031202E3D003D002A6
:1008B0008A04EBCC25E0CC33EC2462F8C002C00300
:1008C000C000120816E5828583F0D000D003D00264
:1008D000F608A6F0180ABA00BE0B80BB020731303A
:1008E000B106E56A456B700D30B1FDE4F56AF56B54
:1008F000F582F5832230B30D7401B56A06E4B56B59
:10090000028002800D30B3FD756A01E4F56B900042
:10091000012230B70D7403B56A06E4B56B0280029C
:10092000800D30B7FD756A03E4F56B900003227506
:100930006A02E4F56B90000222AA82AB83ACF0FD60
:10094000749AC0E07499C0E07419C0E0743FC0E0CC
:100950008A828B838CF0ED120D78AA82E58124FCCB
:10096000F581EA703974E9C0E07400C0E07480C0B9
:10097000E0120EF41581158115811204F69001F430
:100980001202E39001F41202E390012C1202E3122E
:10099000052A9001F41202E39000FA0202E374F7D0
:1009A000C0E07400C0E07480C0E0120EF415811540
:1009B00081158102045BAA82AB83ACF0FDC2B0C09A
:1009C00002C003C004C00574CDC0E074CCC0E074A4
:1009D0004CC0E0743FC0E08A828B838CF0ED120D36
:1009E000A8AE82E58124FCF581D005D004D003D0E7
:1009F00002EE60099000C81202E3020A97EE703816
:100A0000C002C003C004C005E4C0E0C0E0C0E074A0
:100A100040C0E08A828B838CF0ED120DA8AE82E597
:100A20008124FCF581D005D004D003D002EE60080B
:100A30009001F41202E3805FC002C003C004C0054D
:100A4000E4C0E0C0E0C0E07440C0E08A828B838CE8
:100A5000F0ED120DA8AE82E58124FCF581D005D021
:100A600004D003D002EE70297433C0E0C0E0C0E0CF
:100A70007440C0E08A828B838CF0ED120DA8AA82AC
:100A8000E58124FCF581EA60089003201202E380EE
:100A9000069003E81202E3D2B022758A00758C003A
:100AA000C28D1203B4757006758201120418757038
:100AB0000675820212041812039C7406C0E07401C9
:100AC000C0E07480C0E0120EF415811581158174A8
:100AD0000BC0E07401C0E07480C0E0120EF4158118
:100AE000158115817465C0E07401C0E07480C0E0B8
:100AF000120EF41581158115811208DFAA82AB83CD
:100B0000EA4B6003020C9C7468C0E07401C0E0749E
:100B100080C0E0120EF4158115811581758A00756B
:100B20008C00C28D20A1FD30A1FDD28C7C007D0007
:100B300030A10C108D0280F80CBC00F40D80F1C2C5
:100B40008C8C828D83120F15AC82AD83AEF0FFC00A
:100B500004C005C006C00790000075F080744712FD
:100B60000DD885826C85836D85F06EF56FE58124E7
:100B7000FCF581858C82120E7BAC82AD83AEF0FFDA
:100B8000C004C005C006C00790000075F080744323
:100B9000120DD8AC82AD83AEF0FFE58124FCF58167
:100BA000C004C005C006C007856C82856D83856E54
:100BB000F0E56F120E8685826C85836D85F06EF58B
:100BC0006FE58124FCF581AC8A7D008C828D8312D7
:100BD0000F15AC82AD83AEF0FFC004C005C006C0E7
:100BE00007856C82856D83856EF0E56F120E86AC8D
:100BF00082AD83AEF0FFE58124FCF581C004C00521
:100C0000C006C00790F4FC75F0327434120DD8ACF5
:100C100082AD83AEF0FFE58124FCF581C004C00500
:100C2000C006C00790000075F07A7444120DD8AC6D
:100C300082AD83AEF0FFE58124FCF581C004C005E0
:100C4000C006C007C004C005C006C0077470C0E07D
:100C50007401C0E07480C0E0120EF4E58124F9F55F
:100C6000819000321202E3D007D006D005D0048C68
:100C7000828D838EF0EFC004C005C006C007120944
:100C800039D007D006D005D0048C828D838EF0EF4A
:100C90001209B69000321202E3020AF9BA0105BB4A
:100CA00000028003020D3812087B747EC0E07401DC
:100CB000C0E07480C0E0120EF41581158115817AB0
:100CC000007B00C3EA9404EB64809480503A8A0469
:100CD000EBCC25E0CC33EC2462F8860408860518BA
:100CE000C002C003C004C0057488C0E07401C0E045
:100CF0007480C0E0120EF4E58124FBF581D003D0AE
:100D0000020ABA00BE0B80BB7465C0E07401C0E08B
:100D10007480C0E0120EF415811581158175620092
:100D2000756300756400756500756600756700750C
:100D30006800756900020AF9748CC0E07401C0E0B3
:100D40007480C0E0120EF4158115811581020AF934
:100D500020F71430F6148883A88220F507E6A883CC
:100D600075830022E280F7E49322E022E4AC83ABB7
:100D700082FAF9748E02104AFFA8811818121072B4
:100D8000D2D133E6400730E70B7582012220E70617
:100D900075820022C2D1121054E97003F58222300C
:100DA000D101B3E433F58222FFA881181812107222
:100DB000D2D133E6400730E70B7582002220E706E8
:100DC00075820122C2D1121054E97003F5822220EB
:100DD000D101B3E433F5822212111FBC00030210CB
:100DE000BEEF60FA30D502B2D1E583B4FF03021042
:100DF000D4E582B4FF030210D42583400724824047
:100E00000B0210BE24831450030210D4F582EA8D25
:100E1000F0A4A8F0EA8EF0A428F8E435F0F9EB8D00
:100E2000F0A428E935F0F9E433CA8FF0A429F9EAEF
:100E300035F0FAEBF88EF0A429F9EA35F0FAE4334C
:100E4000FBEC8DF0A429F9EA35F0FAE43BFBE88FDE
:100E5000F0A42AFAEB35F0FBE433CCFD8EF0A42AA3
:100E6000FAEB35F0FBE43CFCED8FF0A42BFBEC350A
:100E7000F0FC20E7031210EC02109DE4AC82FBFAB8
:100E8000F9748602104A12111F7900E583B58202B7
:100E9000800D500312114DE583C39582121167E551
:100EA000D0C465D020E117EA2DFAEB3EFBEC3FFC05
:100EB00050097401121167EC4480FC02109DC3EAD2
:100EC0009DFAEB9EFBEC9FFC500FC3E499F9E49A6A
:100ED000FAE49BFBE49CFCB2D11210EC02109D02E0
:100EE0001B3685821885831985F01A85091B900E9B
:100EF000DF021589C008858108E50824FBF51BE59C
:100F00000824FBF8861808861908861A900EDF1246
:100F10001589D00822AC83AB827A007900748E02E6
:100F20001B5412111F30D502B2D1BF0009BC0003FF
:100F30000210E10210D4BC00030210BEE583B4FF2E
:100F40000BE582B4FF030210E10210BEE582B4FF9C
:100F5000030210D4C395835007247F400B0210BEB8
:100F600024801450030210D4C0E0E4CCCBCAF98D25
:100F7000708E718F72EF54F0C4F5737583068573AC
:100F8000F0EB84F582E9C4F9EAC4FAEBC4FBEC5453
:100F90000FC47803D6FC18EBD6FB18EAD6FA858284
:100FA000F0EDA4A8F0FD8582F0EEA428FEE435F073
:100FB000F88582F0EFA428FFE435F0F8E99DF9EA1E
:100FC0009EFAEB9FFBEC98FCAD70AE71AF7230E710
:100FD000101582E92DF9EA3EFAEB3FFBE43CFC8078
:100FE000EDC082D58398C3E933F9EA33FAEB33FBDA
:100FF000EC33FCC3E99DEA9EEB9FEC9400B3E41351
:10100000F9D002D0E0C44AFAD003D0E0C44BFBD000
:1010100004D0E0F5F0540FC44CFCD082158230F4BB
:101020000FD3EC13FCEB13FBEA13FAE913F9058277
:10103000E930E70A74012AFAE43BFBE43CFC0210C5
:10104000B5FCABF0AA83A982749EC2D1F5821210BE
:10105000EC02109D7901AA82E68F82B5821318E610
:10106000B5F00E18E6B5830918E68A82B5820279D2
:101070000022B4800FE5F0700AE5837006E5827007
:10108000027F00EFB6801518B6001018B6000B18D6
:10109000B6000608080876002208080822B980036E
:1010A000EA13B34010EA2401FAE43BFBE43CFC50B1
:1010B000047C800582BC000EBB000BBA0008E4F57E
:1010C000F0F583F58222A2D1E582138CF092F78BA2
:1010D000838A8222E4F583F58275F080F4A2D1132D
:1010E00022E4F583F58275F0C0747F227804EC70F9
:1010F00011E58224F8500AF582E4C9CACBFCD8EF86
:1011000022EC7820058220E713D5820122C3E9333F
:10111000F9EA33FAEB33FBEC33FCD8EA158222AA66
:1011200082AB83A2F73392D16002D2F7F582ACF0A2
:10113000E58124F9F8E6FD08E6FE0886F008E6A257
:10114000F73392D56002D2F7F583AFF022E582C57E
:1011500083F582A2D133A2D592D11392D5ECCFFCE4
:10116000EBCEFBEACDFA226040F82582500274FFF4
:10117000F582E824F8501ECCCBCAF9E4CC24F85010
:1011800014CBCAF9E4CB24F8500BCAF9E4CA24F80A
:10119000500379002224086010F8C3EC13FCEB1311
:1011A000FBEA13FAE913F9D8F122AA8274BBC0E072
:1011B0007411C0E0C00AC00B8A82220511E4B51187
:1011C00002051222AA8274302AFA24C6500A740731
:1011D0002AFA3001034302208A820211AAE582FA28
:1011E000C4540FF582C0021211C4D002740F5AF514
:1011F000820211C4AA0CAB0DAC0EAD0FAE10751768
:1012000020EE2EFEED235401FF4206EA2AFAEB33CC
:10121000FBEC33FCED33FDC3EE95134008EEC395B4
:1012200013FE430201D517D98A0C8B0D8C0E8D0F3E
:101230008E10227885E624D075F00AA4FA7886E626
:1012400024D02AFA78848603BB2D04C3E49AFA7565
:101250001301C3E464808AF063F08095F05029752F
:1012600017038A0374F62517401C0513E517142489
:1012700079F8E5172479F98704A604772E1BEBFA91
:101280006004051780DE8B02EA30E70D787A86036A
:10129000787BA603787A762E0AE515600AE51504B0
:1012A000FB2513F5138005300C02051378798603AE
:1012B000E4BB2D0104FB7006200703300802051370
:1012C00030050302137A300657EB600C75822DC08F
:1012D000021211AAD002801C30070C75822BC002AA
:1012E0001211AAD002800D30080A758220C00212A5
:1012F00011AAD002787A8604BC2E0C758230C00206
:101300001211AAD0021514AC141514C3E5139C4095
:10131000030213BE758230C0021211AAD00280E708
:10132000AC141514C3E5139C500C758220C0021236
:1013300011AAD00280EA78798604BC2D0C75822D22
:10134000C0021211AAD002801C30070C75822BC07B
:10135000021211AAD002800D30080A758220C00244
:101360001211AAD002787A8604BC2E52758230C03F
:10137000021211AAD00215148044EB600E75822D62
:10138000C0021211AAD0021514802030070E7582F7
:101390002BC0021211AAD0021514800F30080C7550
:1013A0008220C0021211AAD0021514787A8603BBDB
:1013B0002E0C758230C0021211AAD00215147517B6
:1013C00001C20EE5172479F88603BB450302147B9E
:1013D000BB2E348A03C3E464808BF063F08095F005
:1013E000500F758230C0031211AAD0031B8B0280EC
:1013F000E48B02D20EE5157038200C0302147B75C5
:10140000822E1211AA8074300E278A03EB30E71F58
:10141000C3E464808515F063F08095F0500C75820C
:1014200030C0031211AAD00315150B8B0280DD8B7F
:1014300002300E0EC3E464808515F063F08095F0F1
:101440005021E5172479F886038B82C0021211AA75
:10145000D002300E0EE5172479F88603BB2E0280E9
:101460000215151514C3E464808515F063F08095AA
:10147000F04003200E0505170213C3C3E464808502
:1014800015F063F08095F0500A7582301211AA159C
:101490001580E830050FAA141514EA60087582203B
:1014A0001211AA80F122E5157003300C0D74072586
:1014B00015FAE514C39AF5148006E51424FAF51418
:1014C00075170078798602BA2B0F20070C78797689
:1014D000202008057517010514200519AA14C3E476
:1014E00064808AF063F08095F0500A7582201211B2
:1014F000AA151480E7C20EE5172479F88602BA000F
:10150000028069BA451F3001027665C3E4648085B4
:1015100015F063F08095F0500A7582301211AA150B
:101520001580E8D20EC3E5179402E433FA7014EA8A
:10153000700EC3E464808515F063F08095F040037D
:10154000300E16E5172479F886028A821211AAE570
:101550001724FD50121515800E7402B51709300CB2
:101560000675822E1211AA05170214F7300519AA62
:1015700014C3E464808AF063F08095F0500A7582A9
:10158000201211AA151480E72285820A85830BE4B4
:10159000F511F512AA18AB19AC1A8A828B838CF05C
:1015A000120D50FD74012AF518E43BF5198C1AED63
:1015B000FA7003021B2FBA25028003021B27C20503
:1015C000C206C207C208C209C20AC20BC20CC202CA
:1015D000C203C2047513007514007515FFAB18AC77
:1015E00019AD1A8B828C838DF0120D50FAA3AB8249
:1015F000AC838B188C198D1ABA25078A821211AA0E
:1016000080928A06BE3000402E8A06EE24C640270D
:1016100074FFB51513E51475F00AA4FEEA24D02E64
:10162000F51470BFD20680BBE51575F00AA4FEEA7A
:1016300024D02EF51580ACBA2E0A74FFB515A4750A
:101640001500809F8A06BE6100400E8A06EE248542
:1016500040075302DFD2018002C201BA2002807526
:10166000BA23030216E4BA2A030216E9BA2B02804F
:101670005FBA2D028055BA4202805FBA4303021757
:101680002EBA4403021869BA4503021883BA460306
:1016900002187FBA4703021887BA4903021869BAC9
:1016A0004C02803BBA4E0302188BBA4F03021870EB
:1016B000BA5003021802BA5303021752BA55030272
:1016C0001875BA580302187A0218B5D2050215E344
:1016D000D2070215E3D2080215E3D20A0215E3D2BB
:1016E0000B0215E3D20C0215E374FFB51520300A86
:1016F0000BE51B14F8881B86140215E3E51B24FE7A
:10170000F8881B8606088607188E140215E3300A2F
:101710000BE51B14F8881B86150215E3E51B24FE58
:10172000F8881B8606088607188E150215E3300A0E
:101730000AE51B14F8881B8602800FE51B24FEF8BF
:10174000881B8603088604188B028A821211AA025B
:1017500018BAE51B24FDF8881B8603088604088652
:101760000518188B0C8C0D8D0E8B828C838DF012CE
:101770001CB0AB82AC838B1674FFB51503851615B0
:1017800020051DC3E51695145016E514C39516F5EE
:1017900014AB141514EB60087582201211AA80F1A5
:1017A000850C82850D83850EF0120D50FBFA6029A1
:1017B000AB151515C3E464808BF063F08095F05091
:1017C000188A821211AAAB0CAC0DAD0E0BBB000136
:1017D0000C8B0C8C0D8D0E80C72005030218BAC32C
:1017E000E516951440030218BAE514C39516F514CE
:1017F000AB141514EB70030218BA7582201211AAEB
:1018000080EEE51B24FDF8881B8603088604088605
:101810000518188B0C8C0D8D0EE50EFB30E7047A45
:10182000438013EB546060047A50800AEB30E60486
:101830007A4980027A588A82C0021211AA75823AC5
:101840001211AA7582301211AA7582781211AAD0CB
:1018500002BA4902800BBA50028006850D8212112D
:10186000DD850C821211DD8051D20975130A804A80
:10187000751308804575130A8040751310803BD29C
:10188000028037D2038033D204802FE51B24FDF879
:10189000881B860308860408860518188B0C8C0D97
:1018A0008D0E8B828C838DF0E511121C97A3E512AF
:1018B000121C9780058A821211AA200206200303B7
:1018C000300470E51B24FCF8881B86030886040896
:1018D00086050886061818188B0C8C0D8D0E8E0F39
:1018E000E50CE50DE50EE50F8B828C838DF0EE1295
:1018F0001B7874FFB51503751506300427747F55E2
:101900000FFB8B10E510EB2BFB8B10E50E30E70681
:1019100074014510F510E5102468400674992510EF
:101920004002D2033003061214A602159412123399
:10193000021594E51370030215947B7E300A2BE5A3
:101940001B14F8881BE6FC3395E0FDFEFF8C0C8D24
:101950000D8E0E8F0F20095EAC0C7D007E007F0087
:101960008C0C8D0D8E0E8F0F804C300B1FE51B24C1
:10197000FCF8881B86040886050886060886071872
:1019800018188C0C8D0D8E0E8F0F802AE51B24FEEF
:10199000F8881B860408860518ED3395E0FEFF8C59
:1019A0000C8D0D8E0E8F0F20090CAC0CAD0D7E0032
:1019B0007F008E0E8F0F300C43E50C450D450E4514
:1019C0000F60397408B5130C758230C0031211AA68
:1019D000D00380287410B51323758230C003121110
:1019E000AAD00330010C758278C0031211AAD0036B
:1019F000800A758258C0031211AAD003300925ACA1
:101A00000CAD0DAE0EE50FFF30E717C3E49CFCE410
:101A10009DFDE49EFEE49FFF8C0C8D0D8E0E8F0FBE
:101A20008002C209751600D20D8B00751000C0002F
:101A30001211F4D000200D0DE510C4FCE6FD4CF6AB
:101A40001888038002A6100516B20DE50C450D4559
:101A50000E450F70D68803E5147003751401200637
:101A60001A200517E51604FCC39514500E75822044
:101A7000C0031211AAD003151480E930090E758233
:101A80002DC0031211AAD00315148024E51660207E
:101A900030070E75822BC0031211AAD003151480D3
:101AA0000F30080C758220C0031211AAD003151440
:101AB00020051EAC141514C3E5169C5027300604EF
:101AC0007C3080027C208C82C0031211AAD003805B
:101AD000E2C3E51695145009E514C39516F5148074
:101AE000037514008B00AB161516EB6022B20D20A7
:101AF0000D0A08E6C4540FFB8B1080078603740F91
:101B00005BF510851082C0001211C4D00080D72070
:101B10000503021594AB141514EB700302159475AC
:101B200082201211AA80EE8A821211AA02159485CF
:101B3000118285128322AA82BA0A0810990280FBB8
:101B400075990D10990280FB8A9922FCABF0AA834B
:101B5000A982749EF582C2D1EC30E716D2D1E9F4A5
:101B60002401F9EAF43400FAEBF43400FBECF43429
:101B700000FC1210EC02109DC0E0F8458245834540
:101B8000F07009F5F0FBFCFDFE021C46E823A2F70D
:101B900092E0F8A982AA83D2F7ABF07C007E07C35B
:101BA000749798404074FF2EFE740A89F0A4F9855A
:101BB000F082740A8AF0A4FA85F083740A8BF0A488
:101BC000FB740529F9EA3582FAEB3583FB7400359D
:101BD000F0FCC3EC13FCEB13FBEA13FAE913F9086E
:101BE000EC70EF80BAE8C3947FF88B838EF0E4FB4F
:101BF000FCFDFEFF08C3E933F9EA33FAE58333F568
:101C000083EB3BD4FBEC3CD4FCED3DD4FDEE3ED469
:101C1000FEEF3FD4FF602D05F074052BD4FBE43CB0
:101C2000D4FCE43DD4FDE43ED4FEE43FD4FF758211
:101C300004C3EF13FFEE13FEED13FDEC13FCEB13E7
:101C4000FBD582EDD8AF7879D0E020E704762B8001
:101C500002762D087906E7C4540F4430F608B90619
:101C600003762E08E7540F4430F60819B902E776D8
:101C70004508E5F020E704762B8004762DF404086F
:101C800075F00A844430F608E5F04430F608E4F6CE
:101C900090007975F0402220F71030F6118883A863
:101CA0008220F507F6A88375830022F280F7F022E0
:101CB000AA82AB83ACF07D007E008A828B838CF09D
:101CC000120D50FFA3AA82AB83EF60070DBD00EA9F
:101CD0000E80E78D828E832200000000000000004D
:00000001FF
