:1000000002002E00000000000000000000000000C0
:100020000000000000000000000000020345758190
:1000300088120259E582600302009A780079007AFA
:10004000007B007C007D00EC4D601C88828983E48D
:1000500093A3A882A9838A828B83F0A3AA82AB830D
:100060001CBCFFE31D80E07582007583007C007D71
:1000700000EC4D600AE4F0A31CBCFFF51D80F27596
:1000800082007583007C007D00EC4D600AE4F0A3E3
:100090001CBCFFF51D80F21201AC120AAD80FE46B9
:1000A0006F72776172640A0D004261636B776172EF
:1000B000640A0D004C6566740A0D00526967687425
:1000C0000A0D0053746F700A0D0025660A0D000AB0
:1000D0007265616420313A202061742070696E205D
:1000E000322E333A2025660D005475726E207269E7
:1000F000676874200D0A00476F2053747261696746
:100100006874200D0A001B5B324A005371756172DE
:100110006520776176652067656E657261746F72C0
:1001200020666F72207468652045464D384C423118
:100130002E0D0A436865636B2070696E7320503220
:100140002E3220616E642050322E3120776974681F
:1001500020746865206F7363696C6C6F73636F7074
:10016000652E0D0A000A0D006175746F200D0A00DE
:100170000D543D2566206D732020200A2000436F1A
:100180006D6D616E643A2000256409007069725FCC
:10019000766F6C746167653A202566200D0A00440D
:1001A0006F206E6F7468696E670D0A0075220075A6
:1001B0002300752400752500E4F536F537E4F5389D
:1001C000F539753A00753B00753C00753D00753E8C
:1001D00000753F0075400075410075420175430090
:1001E00075440175450075460175470075480175F0
:1001F0004900754A01754B00754C00754D00754EF0
:1002000001754F007550017551007552017553000D
:100210007554007555007556007557007558017571
:100220005900755A01755B00755C00755D00755E5F
:1002300000755F0075600075610075620075630090
:1002400075640075650075660075670075680075F2
:100250006900756A02E4F56B2275A7007597DE7573
:1002600097AD75FF8075EF0675A71075C12075A74E
:100270000075A90075A900E5A930E7FB75A903750C
:10028000A903E5A930E7FB43A41075E10175E2007D
:1002900075E340759810758DE6858D8B53890F43F6
:1002A0008920D28ED29975C800438E1075CAE07528
:1002B000CBE375CEFF75CFFFD2ADD2CAD2AF758278
:1002C0000022AA82AB83438E407592B87593FF8556
:1002D00092948593957591047C007D00C3EC9AED12
:1002E0009B500FE59130E7FB53917F0CBC00ED0D67
:1002F00080EA75910022AA82AB837C007D00C3EC6A
:100300009AED9B502B7E00BE0400501D9000FAC059
:1003100002C003C004C005C0061202C2D006D00548
:10032000D004D003D0020E80DE0CBC00D10D80CEF4
:10033000228582BBD2EC20ECFDD2EC20ECFD85BD09
:100340008285BE8322C0E0C002C003C0D075D00049
:10035000C2CF0522E522249B5003752200AA227BEE
:1003600000C3E5269AE5279B9200B39294AA227BCC
:1003700000C3E5289AE5299B9200B39295AA227BB7
:1003800000C3E52A9AE52B9B9200B39292AA227BA6
:1003900000C3E52C9AE52D9B9200B39293E52224AD
:1003A000AF9200B392A0D0D0D003D002D0E032758B
:1003B000A70075B28075BCF875B91E75E80075DFC9
:1003C0003F75B300D2EF225389F0438901C28C22DA
:1003D000120331120E5CAA82AB83ACF0FDC002C0E6
:1003E00003C004C005906C8B75F0537440120EC8A6
:1003F000AA82AB83ACF0FDE58124FCF581E4C0E08A
:1004000074FCC0E0747FC0E07446C0E08A828B83D5
:100410008CF0ED121012AA82AB83ACF0FDE58124C2
:10042000FCF5818A828B838CF0ED22AA828570F0A4
:1004300005F07401800225E0D5F0FBFB75A720BA1A
:100440000002800ABA0102800FBA021E8014EBF487
:10045000FA52F1EB42D48012EBF4FA52F2EB42D5AD
:100460008008EBF4FA52F3EB42CC75A70022752614
:1004700063E4F527E4F528F529F52AF52B752C63B7
:10048000E4F52DD287D286D290C2A5749FC0E074C5
:1004900000C0E07480C0E0120FE415811581158161
:1004A00022E4F526F527752863E4F529752A63E427
:1004B000F52BE4F52CF52DD287D286C290D2A57407
:1004C000A9C0E07400C0E07480C0E0120FE41581A0
:1004D0001581158122E4F526F527752863E4F529B1
:1004E000E4F52AF52B752C63E4F52DD287C286D26C
:1004F00090C2A574B4C0E07400C0E07480C0E01283
:100500000FE415811581158122752663E4F527E432
:10051000F528F529752A63E4F52BE4F52CF52DD2A1
:1005200087C286D290C2A574BBC0E07400C0E074DC
:1005300080C0E0120FE415811581158122E4F526B3
:10054000F527F528F529F52AF52BF52CF52DC28789
:10055000D286D290C2A574C3C0E07400C0E074809B
:10056000C0E0120FE415811581158122758A00758E
:100570008C00C28DC28C2096FD3096FDD28C7A0004
:100580007B0030960C108D0280F80ABA00F40B80C4
:10059000F120960C108D0280F80ABA00F40B80F15D
:1005A000C28C8A828B83121005AA82AB83ACF0FDC9
:1005B000C002C003C004C00590000075F0807447FD
:1005C000120EC8AA82AB83ACF0FDE58124FCF58154
:1005D000858C82C002C003C004C005120F6BAE82BE
:1005E000AF83A8F0F9C006C007C000C001900000AA
:1005F00075F0807443120EC8AE82AF83A8F0F9E59F
:100600008124FCF581D005D004D003D002C006C0FF
:1006100007C000C0018A828B838CF0ED120F76AA8E
:1006200082AB83ACF0FDE58124FCF581AE8A7F00CE
:100630008E828F83C002C003C004C005121005AEB5
:1006400082AF83A8F0F9D005D004D003D002C00651
:10065000C007C000C0018A828B838CF0ED120F7638
:10066000AA82AB83ACF0FDE58124FCF581C002C019
:1006700003C004C00590F4FC75F0327434120EC847
:10068000AA82AB83ACF0FDE58124FCF581C002C0F9
:1006900003C004C005C002C003C004C00574CAC0C2
:1006A000E07400C0E07480C0E0120FE4E58124F93A
:1006B000F58190000075F07A7444120EC8AA82ABDE
:1006C00083ACF0FDE58124FCF5818A828B838CF07C
:1006D000ED2285827685837785F0787D007E00C364
:1006E000ED9571EE64808572F063F08095F0505066
:1006F0008D07EECF25E0CF33F8EF2576F9E8357793
:10070000FAAB7889828A838BF0120E40F9A3120E1D
:1007100040FAEF2573FFE83574F8AB758F82888354
:100720008BF0120E40FFA3120E40F8E9B50706EA5F
:10073000B500028004900000220DBD00A20E809F33
:100740009000012275733A757400757540757104D7
:10075000E4F57290006275F0401206D2E58285835E
:10076000F045F0600612053D020807757342757486
:1007700000757540757104E4F57290006275F04083
:100780001206D2E5828583F045F0600612046E02FF
:10079000080775734A757400757540757104E4F542
:1007A0007290006275F0401206D2E5828583F045B2
:1007B000F060051204A1804F757352757400757551
:1007C00040757104E4F57290006275F0401206D233
:1007D000E5828583F045F060051204D580297573A4
:1007E0005A757400757540757104E4F57290006275
:1007F00075F0401206D2E5828583F045F06005125F
:100800000509800312053D9001660202F675820C0F
:10081000120331E5828583F045F060F1900000120B
:1008200002C275820C0203D0227582101203D0AA74
:1008300082AB83ACF0FDE4C0E0C0E0C0E0743FC038
:10084000E08A828B838CF0ED120E98AA82E58124D7
:10085000FCF581EA702E7582101203D0AA82AB8358
:10086000ACF0FDC002C003C004C00574CFC0E0748A
:1008700000C0E07480C0E0120FE4E58124F9F58146
:1008800090000122900000229000140202F612084B
:1008900029E5828583F045F060F49000AF1202F6FE
:1008A0007562017563007A017B00C3EA9404EB640E
:1008B000809480503A900166C002C0031202F6D0C4
:1008C00003D0028A04EBCC25E0CC33EC2462F8C0E0
:1008D00002C003C000120829E5828583F0D000D051
:1008E00003D002F608A6F0180ABA00BE0B80BB02BD
:1008F000074430B106E56A456B700D30B1FDE4F593
:100900006AF56BF582F5832230B30D7401B56A0682
:10091000E4B56B028002800D30B3FD756A01E4F529
:100920006B9000012230B70D7403B56A06E4B56B15
:10093000028002800D30B7FD756A03E4F56B90000C
:100940000322756A02E4F56B90000222AA82AB834F
:10095000ACF0FD749AC0E07499C0E07419C0E07402
:100960003FC0E08A828B838CF0ED120E68AA82E58C
:100970008124FCF581EA703974E9C0E07400C0E0BC
:100980007480C0E0120FE4158115811581120509EC
:100990009001F41202F69001F41202F690012C126A
:1009A00002F612053D9001F41202F69000FA0202DE
:1009B000F674F7C0E07400C0E07480C0E0120FE489
:1009C00015811581158102046EAA82AB83ACF0FDFE
:1009D000C2B0C002C003C004C00574CDC0E074CC76
:1009E000C0E0744CC0E0743FC0E08A828B838CF01E
:1009F000ED120E98AE82E58124FCF581D005D0047D
:100A0000D003D002EE60099000C81202F6020AAAD2
:100A1000EE7038C002C003C004C005E4C0E0C0E00E
:100A2000C0E07440C0E08A828B838CF0ED120E9897
:100A3000AE82E58124FCF581D005D004D003D0023C
:100A4000EE60089001F41202F6805FC002C003C09D
:100A500004C005E4C0E0C0E0C0E07440C0E08A82A9
:100A60008B838CF0ED120E98AE82E58124FCF5812B
:100A7000D005D004D003D002EE70297433C0E0C09A
:100A8000E0C0E07440C0E08A828B838CF0ED120EEF
:100A900098AA82E58124FCF581EA6008900320127F
:100AA00002F680069003E81202F6D2B022758A00A0
:100AB000758C00C28D1203C7757006758201120411
:100AC0002B75700375820212042B757004758202F7
:100AD00012042B75700675820212042B1203AF7478
:100AE00006C0E07401C0E07480C0E0120FE415811C
:100AF00015811581740BC0E07401C0E07480C0E002
:100B0000120FE41581158115817465C0E07401C070
:100B1000E07480C0E0120FE4158115811581120880
:100B2000F2AA82AB83EA4B6003020CC17468C0E096
:100B30007401C0E07480C0E0120FE41581158115C6
:100B400081758A00758C00C28D20A1FD30A1FDD277
:100B50008C7C007D0030A10C108D0280F80CBC0054
:100B6000F40D80F1C28C8C828D83121005AC82ADA5
:100B700083AEF0FFC004C005C006C007900000753A
:100B8000F0807447120EC885826C85836D85F06E87
:100B9000F56FE58124FCF581858C82120F6BAC82A8
:100BA000AD83AEF0FFC004C005C006C007900000D2
:100BB00075F0807443120EC8AC82AD83AEF0FFE5D1
:100BC0008124FCF581C004C005C006C007856C8285
:100BD000856D83856EF0E56F120F7685826C858357
:100BE0006D85F06EF56FE58124FCF581AC8A7D00A2
:100BF0008C828D83121005AC82AD83AEF0FFC004F1
:100C0000C005C006C007856C82856D83856EF0E5E2
:100C10006F120F76AC82AD83AEF0FFE58124FCF558
:100C200081C004C005C006C00790F4FC75F03274A2
:100C300034120EC8AC82AD83AEF0FFE58124FCF522
:100C400081C004C005C006C00790000075F07A742A
:100C500044120EC8AC82AD83AEF0FFE58124FCF5F2
:100C600081C004C005C006C007C004C005C006C0DE
:100C7000077470C0E07401C0E07480C0E0120FE43B
:100C8000E58124F9F5819000321202F6D007D006F2
:100C9000D005D0048C828D838EF0EFC004C005C0D7
:100CA00006C00712094CD007D006D005D0048C82AC
:100CB0008D838EF0EF1209C99000321202F6020BFA
:100CC0001EBA0105BB00028003020D5D12088E747E
:100CD0007EC0E07401C0E07480C0E0120FE41581B2
:100CE000158115817C007D00C3EC9404ED64809433
:100CF00080503A8C06EDCE25E0CE33EE2462F886A5
:100D00000608860718C004C005C006C0077488C05E
:100D1000E07401C0E07480C0E0120FE4E58124FBC0
:100D2000F581D005D0040CBC00BE0D80BB7465C03D
:100D3000E07401C0E07480C0E0120FE415811581F9
:100D400015817562007563007564007565007566D0
:100D500000756700756800756900020B1EBA03050F
:100D6000BB00028003020E287582111203D0AA82F2
:100D7000AB83ACF0FDC002C003C004C005E4C0E01A
:100D8000C0E07440C0E0C0E08A828B838CF0ED123A
:100D90000E98AE82E58124FCF581D005D004D00305
:100DA000D002EE704AC002C003C004C005749AC0ED
:100DB000E07499C0E07459C0E07440C0E08A828B4E
:100DC000838CF0ED120E68AE82E58124FCF581D0B3
:100DD00005D004D003D002EE7015C002C003C004D9
:100DE000C00512053DD005D004D003D0028013C049
:100DF00002C003C004C00512046ED005D004D003A5
:100E0000D002900064C002C003C004C0051202F604
:100E1000748CC0E07401C0E07480C0E0120FE4E59F
:100E20008124F9F581020B1E749FC0E07401C0E0BB
:100E30007480C0E0120FE4158115811581020B1E2C
:100E400020F71430F6148883A88220F507E6A883DB
:100E500075830022E280F7E49322E022E4AC83ABC6
:100E600082FAF9748E02113AFFA8811818121162E1
:100E7000D2D133E6400730E70B7582012220E70626
:100E800075820022C2D1121144E97003F58222302A
:100E9000D101B3E433F58222FFA881181812116240
:100EA000D2D133E6400730E70B7582002220E706F7
:100EB00075820122C2D1121144E97003F582222009
:100EC000D101B3E433F5822212120FBC00030211E8
:100ED000AEEF60FA30D502B2D1E583B4FF03021160
:100EE000C4E582B4FF030211C42583400724824075
:100EF0000B0211AE24831450030211C4F582EA8D53
:100F0000F0A4A8F0EA8EF0A428F8E435F0F9EB8D0F
:100F1000F0A428E935F0F9E433CA8FF0A429F9EAFE
:100F200035F0FAEBF88EF0A429F9EA35F0FAE4335B
:100F3000FBEC8DF0A429F9EA35F0FAE43BFBE88FED
:100F4000F0A42AFAEB35F0FBE433CCFD8EF0A42AB2
:100F5000FAEB35F0FBE43CFCED8FF0A42BFBEC3519
:100F6000F0FC20E7031211DC02118DE4AC82FBFAE5
:100F7000F9748602113A12120F7900E583B58202E4
:100F8000800D500312123DE583C39582121257E57E
:100F9000D0C465D020E117EA2DFAEB3EFBEC3FFC14
:100FA00050097401121257EC4480FC02118DC3EAFF
:100FB0009DFAEB9EFBEC9FFC500FC3E499F9E49A79
:100FC000FAE49BFBE49CFCB2D11211DC02118D020D
:100FD0001C2685821885831985F01A85091B900FB8
:100FE000CF021679C008858108E50824FBF51BE5CA
:100FF0000824FBF8861808861908861A900FCF1265
:101000001679D00822AC83AB827A007900748E0204
:101010001C4412120F30D502B2D1BF0009BC00032C
:101020000211D10211C4BC00030211AEE583B4FF6A
:101030000BE582B4FF030211D10211AEE582B4FFC9
:10104000030211C4C395835007247F400B0211AEE5
:1010500024801450030211C4C0E0E4CCCBCAF98D43
:10106000708E718F72EF54F0C4F5737583068573BB
:10107000F0EB84F582E9C4F9EAC4FAEBC4FBEC5462
:101080000FC47803D6FC18EBD6FB18EAD6FA858293
:10109000F0EDA4A8F0FD8582F0EEA428FEE435F082
:1010A000F88582F0EFA428FFE435F0F8E99DF9EA2D
:1010B0009EFAEB9FFBEC98FCAD70AE71AF7230E71F
:1010C000101582E92DF9EA3EFAEB3FFBE43CFC8087
:1010D000EDC082D58398C3E933F9EA33FAEB33FBE9
:1010E000EC33FCC3E99DEA9EEB9FEC9400B3E41360
:1010F000F9D002D0E0C44AFAD003D0E0C44BFBD010
:1011000004D0E0F5F0540FC44CFCD082158230F4CA
:101110000FD3EC13FCEB13FBEA13FAE913F9058286
:10112000E930E70A74012AFAE43BFBE43CFC0211D3
:10113000A5FCABF0AA83A982749EC2D1F5821211DC
:10114000DC02118D7901AA82E68F82B5821318E63E
:10115000B5F00E18E6B5830918E68A82B5820279E1
:101160000022B4800FE5F0700AE5837006E5827016
:10117000027F00EFB6801518B6001018B6000B18E5
:10118000B6000608080876002208080822B980037D
:10119000EA13B34010EA2401FAE43BFBE43CFC50C0
:1011A000047C800582BC000EBB000BBA0008E4F58D
:1011B000F0F583F58222A2D1E582138CF092F78BB1
:1011C000838A8222E4F583F58275F080F4A2D1133C
:1011D00022E4F583F58275F0C0747F227804EC7008
:1011E00011E58224F8500AF582E4C9CACBFCD8EF95
:1011F00022EC7820058220E713D5820122C3E9334F
:10120000F9EA33FAEB33FBEC33FCD8EA158222AA75
:1012100082AB83A2F73392D16002D2F7F582ACF0B1
:10122000E58124F9F8E6FD08E6FE0886F008E6A266
:10123000F73392D56002D2F7F583AFF022E582C58D
:1012400083F582A2D133A2D592D11392D5ECCFFCF3
:10125000EBCEFBEACDFA226040F82582500274FF03
:10126000F582E824F8501ECCCBCAF9E4CC24F8501F
:1012700014CBCAF9E4CB24F8500BCAF9E4CA24F819
:10128000500379002224086010F8C3EC13FCEB1320
:10129000FBEA13FAE913F9D8F122AA8274ABC0E091
:1012A0007412C0E0C00AC00B8A82220511E4B51195
:1012B00002051222AA8274302AFA24C6500A740740
:1012C0002AFA3001034302208A8202129AE582FA46
:1012D000C4540FF582C0021212B4D002740F5AF532
:1012E000820212B4AA0CAB0DAC0EAD0FAE10751786
:1012F00020EE2EFEED235401FF4206EA2AFAEB33DC
:10130000FBEC33FCED33FDC3EE95134008EEC395C3
:1013100013FE430201D517D98A0C8B0D8C0E8D0F4D
:101320008E10227885E624D075F00AA4FA7886E635
:1013300024D02AFA78848603BB2D04C3E49AFA7574
:101340001301C3E464808AF063F08095F05029753E
:1013500017038A0374F62517401C0513E517142498
:1013600079F8E5172479F98704A604772E1BEBFAA0
:101370006004051780DE8B02EA30E70D787A860379
:10138000787BA603787A762E0AE515600AE51504BF
:10139000FB2513F5138005300C02051378798603BD
:1013A000E4BB2D0104FB700620070330080205137F
:1013B00030050302146A300657EB600C75822DC0AD
:1013C0000212129AD002801C30070C75822BC002C8
:1013D00012129AD002800D30080A758220C00212C3
:1013E000129AD002787A8604BC2E0C758230C00224
:1013F00012129AD0021514AC141514C3E5139C40B4
:10140000030214AE758230C00212129AD00280E735
:10141000AC141514C3E5139C500C758220C0021245
:10142000129AD00280EA78798604BC2D0C75822D40
:10143000C00212129AD002801C30070C75822BC099
:101440000212129AD002800D30080A758220C00262
:1014500012129AD002787A8604BC2E52758230C05D
:101460000212129AD00215148044EB600E75822D80
:10147000C00212129AD0021514802030070E758215
:101480002BC00212129AD0021514800F30080C756E
:101490008220C00212129AD0021514787A8603BBF9
:1014A0002E0C758230C00212129AD00215147517D4
:1014B00001C20EE5172479F88603BB450302156BBC
:1014C000BB2E348A03C3E464808BF063F08095F014
:1014D000500F758230C00312129AD0031B8B02800A
:1014E000E48B02D20EE5157038200C0302156B75E3
:1014F000822E12129A8074300E278A03EB30E71F77
:10150000C3E464808515F063F08095F0500C75821B
:1015100030C00312129AD00315150B8B0280DD8B9D
:1015200002300E0EC3E464808515F063F08095F000
:101530005021E5172479F886038B82C00212129A93
:10154000D002300E0EE5172479F88603BB2E0280F8
:101550000215151514C3E464808515F063F08095B9
:10156000F04003200E0505170214B3C3E464808520
:1015700015F063F08095F0500A75823012129A15BA
:101580001580E830050FAA141514EA60087582204A
:1015900012129A80F122E5157003300C0D740725A4
:1015A00015FAE514C39AF5148006E51424FAF51427
:1015B00075170078798602BA2B0F20070C78797698
:1015C000202008057517010514200519AA14C3E485
:1015D00064808AF063F08095F0500A7582201212C0
:1015E0009A151480E7C20EE5172479F88602BA002E
:1015F000028069BA451F3001027665C3E4648085C4
:1016000015F063F08095F0500A75823012129A1529
:101610001580E8D20EC3E5179402E433FA7014EA99
:10162000700EC3E464808515F063F08095F040038C
:10163000300E16E5172479F886028A8212129AE58E
:101640001724FD50121515800E7402B51709300CC1
:101650000675822E12129A05170215E7300519AA8F
:1016600014C3E464808AF063F08095F0500A7582B8
:101670002012129A151480E72285820A85830BE4D2
:10168000F511F512AA18AB19AC1A8A828B838CF06B
:10169000120E40FD74012AF518E43BF5198C1AED81
:1016A000FA7003021C1FBA25028003021C17C20530
:1016B000C206C207C208C209C20AC20BC20CC202D9
:1016C000C203C2047513007514007515FFAB18AC86
:1016D00019AD1A8B828C838DF0120E40FAA3AB8267
:1016E000AC838B188C198D1ABA25078A8212129A2C
:1016F00080928A06BE3000402E8A06EE24C640271D
:1017000074FFB51513E51475F00AA4FEEA24D02E73
:10171000F51470BFD20680BBE51575F00AA4FEEA89
:1017200024D02EF51580ACBA2E0A74FFB515A47519
:101730001500809F8A06BE6100400E8A06EE248551
:1017400040075302DFD2018002C201BA2002807535
:10175000BA23030217D4BA2A030217D9BA2B02807C
:101760005FBA2D028055BA4202805FBA4303021865
:101770001EBA4403021959BA4503021973BA460343
:1017800002196FBA4703021977BA4903021959BA05
:101790004C02803BBA4E0302197BBA4F0302196018
:1017A000BA50030218F2BA5303021842BA550302A0
:1017B0001965BA580302196A0219A5D2050216D38F
:1017C000D2070216D3D2080216D3D20A0216D3D2F7
:1017D0000B0216D3D20C0216D374FFB51520300AB3
:1017E0000BE51B14F8881B86140216D3E51B24FE98
:1017F000F8881B8606088607188E140216D3300A4E
:101800000BE51B14F8881B86150216D3E51B24FE76
:10181000F8881B8606088607188E150216D3300A2C
:101820000AE51B14F8881B8602800FE51B24FEF8CE
:10183000881B8603088604188B028A8212129A0279
:1018400019AAE51B24FDF8881B8603088604088670
:101850000518188B0C8C0D8D0E8B828C838DF012DD
:101860001DA0AB82AC838B1674FFB51503851615CE
:1018700020051DC3E51695145016E514C39516F5FD
:1018800014AB141514EB600875822012129A80F1C3
:10189000850C82850D83850EF0120E40FBFA6029BF
:1018A000AB151515C3E464808BF063F08095F050A0
:1018B000188A8212129AAB0CAC0DAD0E0BBB000154
:1018C0000C8B0C8C0D8D0E80C72005030219AAC34A
:1018D000E516951440030219AAE514C39516F514EC
:1018E000AB141514EB70030219AA75822012129A18
:1018F00080EEE51B24FDF8881B8603088604088615
:101900000518188B0C8C0D8D0EE50EFB30E7047A54
:10191000438013EB546060047A50800AEB30E60495
:101920007A4980027A588A82C00212129A75823AE3
:1019300012129A75823012129A75827812129AD007
:1019400002BA4902800BBA50028006850D8212123B
:10195000CD850C821212CD8051D20975130A804AAE
:10196000751308804575130A8040751310803BD2AB
:10197000028037D2038033D204802FE51B24FDF888
:10198000881B860308860408860518188B0C8C0DA6
:101990008D0E8B828C838DF0E511121D87A3E512CD
:1019A000121D8780058A8212129A200206200303E4
:1019B000300470E51B24FCF8881B860308860408A5
:1019C00086050886061818188B0C8C0D8D0E8E0F48
:1019D000E50CE50DE50EE50F8B828C838DF0EE12A4
:1019E0001C6874FFB51503751506300427747F5500
:1019F0000FFB8B10E510EB2BFB8B10E50E30E70691
:101A000074014510F510E5102468400674992510FE
:101A10004002D203300306121596021684121323D5
:101A2000021684E51370030216847B7E300A2BE5D0
:101A30001B14F8881BE6FC3395E0FDFEFF8C0C8D33
:101A40000D8E0E8F0F20095EAC0C7D007E007F0096
:101A50008C0C8D0D8E0E8F0F804C300B1FE51B24D0
:101A6000FCF8881B86040886050886060886071881
:101A700018188C0C8D0D8E0E8F0F802AE51B24FEFE
:101A8000F8881B860408860518ED3395E0FEFF8C68
:101A90000C8D0D8E0E8F0F20090CAC0CAD0D7E0041
:101AA0007F008E0E8F0F300C43E50C450D450E4523
:101AB0000F60397408B5130C758230C00312129A86
:101AC000D00380287410B51323758230C00312121E
:101AD0009AD00330010C758278C00312129AD00399
:101AE000800A758258C00312129AD003300925ACBF
:101AF0000CAD0DAE0EE50FFF30E717C3E49CFCE420
:101B00009DFDE49EFEE49FFF8C0C8D0D8E0E8F0FCD
:101B10008002C209751600D20D8B00751000C0003E
:101B20001212E4D000200D0DE510C4FCE6FD4CF6C9
:101B30001888038002A6100516B20DE50C450D4568
:101B40000E450F70D68803E5147003751401200646
:101B50001A200517E51604FCC39514500E75822053
:101B6000C00312129AD003151480E930090E758251
:101B70002DC00312129AD00315148024E51660209C
:101B800030070E75822BC00312129AD003151480F1
:101B90000F30080C758220C00312129AD00315145E
:101BA00020051EAC141514C3E5169C5027300604FE
:101BB0007C3080027C208C82C00312129AD0038079
:101BC000E2C3E51695145009E514C39516F5148083
:101BD000037514008B00AB161516EB6022B20D20B6
:101BE0000D0A08E6C4540FFB8B1080078603740FA0
:101BF0005BF510851082C0001212B4D00080D7208F
:101C00000503021684AB141514EB700302168475D9
:101C1000822012129A80EE8A8212129A021684850B
:101C2000118285128322AA82BA0A0810990280FBC7
:101C300075990D10990280FB8A9922FCABF0AA835A
:101C4000A982749EF582C2D1EC30E716D2D1E9F4B4
:101C50002401F9EAF43400FAEBF43400FBECF43438
:101C600000FC1211DC02118DC0E0F845824583456D
:101C7000F07009F5F0FBFCFDFE021D36E823A2F72B
:101C800092E0F8A982AA83D2F7ABF07C007E07C36A
:101C9000749798404074FF2EFE740A89F0A4F98569
:101CA000F082740A8AF0A4FA85F083740A8BF0A497
:101CB000FB740529F9EA3582FAEB3583FB740035AC
:101CC000F0FCC3EC13FCEB13FBEA13FAE913F9087D
:101CD000EC70EF80BAE8C3947FF88B838EF0E4FB5E
:101CE000FCFDFEFF08C3E933F9EA33FAE58333F577
:101CF00083EB3BD4FBEC3CD4FCED3DD4FDEE3ED479
:101D0000FEEF3FD4FF602D05F074052BD4FBE43CBF
:101D1000D4FCE43DD4FDE43ED4FEE43FD4FF758220
:101D200004C3EF13FFEE13FEED13FDEC13FCEB13F6
:101D3000FBD582EDD8AF7879D0E020E704762B8010
:101D400002762D087906E7C4540F4430F608B90628
:101D500003762E08E7540F4430F60819B902E776E7
:101D60004508E5F020E704762B8004762DF404087E
:101D700075F00A844430F608E5F04430F608E4F6DD
:101D800090007975F0402220F71030F6118883A872
:101D90008220F507F6A88375830022F280F7F022EF
:101DA000AA82AB83ACF07D007E008A828B838CF0AC
:101DB000120E40FFA3AA82AB83EF60070DBD00EABD
:101DC0000E80E78D828E832200000000000000005C
:00000001FF
