:1000000002002E00000000000000000000000000C0
:1000200000000000000000000000000202EC7581EA
:1000300082120200E582600302009A780079007A59
:10004000007B007C007D00EC4D601C88828983E48D
:1000500093A3A882A9838A828B83F0A3AA82AB830D
:100060001CBCFFE31D80E07582007583007C007D71
:1000700000EC4D600AE4F0A31CBCFFF51D80F27596
:1000800082007583007C007D00EC4D600AE4F0A3E3
:100090001CBCFFF51D80F212015912084780FE4674
:1000A0006F72776172640A0D004261636B776172EF
:1000B000640A0D004C6566740A0D00526967687425
:1000C0000A0D0053746F700A0D0025660A0D000AB0
:1000D0007265616420313A202061742070696E205D
:1000E000322E333A2025660D001B5B324A005371D5
:1000F0007561726520776176652067656E657261EE
:10010000746F7220666F72207468652045464D38A2
:100110004C42312E0D0A436865636B2070696E7323
:100120002050322E3220616E642050322E312077E2
:1001300069746820746865206F7363696C6C6F7391
:10014000636F70652E0D0A000A0D00436F6D6D61BF
:100150006E643A200025640900752200752300753D
:100160002400752500E4F536F537E4F538F53975E2
:100170003A00753B00753C00753D00753E00753FCB
:1001800000754000754100754201754300754401DA
:10019000754500754601754700754801754900753C
:1001A0004A01754B00754C00754D00754E01754F39
:1001B000007550017551007552017553007554005A
:1001C00075550075560075570075580175590075BD
:1001D0005A01755B00755C00755D00755E00755FAA
:1001E00000756000756100756200756300756400DC
:1001F0007565007566007567007568007569002291
:1002000075A7007597DE7597AD75FF8075EF06755C
:10021000A71075C12075A70075A90075A900E5A9EB
:1002200030E7FB75A90375A903E5A930E7FB43A4F3
:100230001075E10175E20075E340759810758DE663
:10024000858D8B53890F438920D28ED29975C80032
:10025000438E1075CAE075CBE375CEFF75CFFFD224
:10026000ADD2CAD2AF75820022AA82AB83438E4040
:100270007592B87593FF8592948593957591047CDA
:10028000007D00C3EC9AED9B500FE59130E7FB53E6
:10029000917F0CBC00ED0D80EA75910022AA82AB23
:1002A000837C007D00C3EC9AED9B502B7E00BE0446
:1002B00000501D9000FAC002C003C004C005C00673
:1002C000120269D006D005D004D003D0020E80DE21
:1002D0000CBC00D10D80CE228582BBD2EC20ECFD7F
:1002E000D2EC20ECFD85BD8285BE8322C0E0C00239
:1002F000C003C0D075D000C2CF0522E522249B5098
:1003000003752200AA227B00C3E5269AE5279B926B
:1003100000B39294AA227B00C3E5289AE5299B9218
:1003200000B39295AA227B00C3E52A9AE52B9B9203
:1003300000B39292AA227B00C3E52C9AE52D9B92F2
:1003400000B39293D0D0D003D002D0E03275A70092
:1003500075B28075BCF875B91E75E80075DF3F751C
:10036000B300D2EF225389F0438901C28C221202DA
:10037000D8120944AA82AB83ACF0FDC002C003C00E
:1003800004C005906C8B75F0537440120980AA82EA
:10039000AB83ACF0FDE58124FCF581E4C0E074FCA6
:1003A000C0E0747FC0E07446C0E08A828B838CF02A
:1003B000ED120ACAAA82AB83ACF0FDE58124FCF5FC
:1003C000818A828B838CF0ED22AA82856AF005F007
:1003D0007401800225E0D5F0FBFB75A720BA00026E
:1003E000800ABA0102800FBA021E8014EBF4FA529E
:1003F000F1EB42D48012EBF4FA52F2EB42D58008D2
:10040000EBF4FA52F3EB42CC75A70022752663E4B5
:10041000F527E4F528F529F52AF52B752C63E4F585
:100420002D749FC0E07400C0E07480C0E0120A9C8C
:1004300015811581158122E4F526F527752863E4D9
:10044000F529752A63E4F52BE4F52CF52D74A9C084
:10045000E07400C0E07480C0E0120A9C1581158130
:10046000158122E4F526F527F528F529752A46E4B5
:10047000F52BE4F52CF52D74B4C0E07400C0E074E5
:1004800080C0E0120A9C15811581158122752663B2
:10049000E4F527E4F528F529F52AF52BF52CF52DBB
:1004A00074BBC0E07400C0E07480C0E0120A9C1508
:1004B000811581158122E4F526F527F528F529F522
:1004C0002AF52BF52CF52D74C3C0E07400C0E07440
:1004D00080C0E0120A9C15811581158122758A0061
:1004E000758C00C28DC28C2096FD3096FDD28C7A20
:1004F000007B0030960C108D0280F80ABA00F40BD5
:1005000080F120960C108D0280F80ABA00F40B805E
:10051000F1C28C8A828B83120ABDAA82AB83ACF0B3
:10052000FDC002C003C004C00590000075F08074D7
:1005300047120980AA82AB83ACF0FDE58124FCF56B
:1005400081858C82C002C003C004C005120A23AE9C
:1005500082AF83A8F0F9C006C007C000C0019000B8
:100560000075F0807443120980AE82AF83A8F0F961
:10057000E58124FCF581D005D004D003D002C0066B
:10058000C007C000C0018A828B838CF0ED120A2E56
:10059000AA82AB83ACF0FDE58124FCF581AE8A7FB5
:1005A000008E828F83C002C003C004C005120ABD42
:1005B000AE82AF83A8F0F9D005D004D003D002C03A
:1005C00006C007C000C0018A828B838CF0ED120A3E
:1005D0002EAA82AB83ACF0FDE58124FCF581C0023C
:1005E000C003C004C00590F4FC75F03274341209E5
:1005F00080AA82AB83ACF0FDE58124FCF581C002CA
:10060000C003C004C005C002C003C004C00574CA52
:10061000C0E07400C0E07480C0E0120A9CE5812450
:10062000F9F58190000075F07A7444120980AA826D
:10063000AB83ACF0FDE58124FCF5818A828B838C51
:10064000F0ED2285827085837185F0727D007E00D9
:10065000C3ED956BEE6480856CF063F08095F0508F
:10066000508D07EECF25E0CF33F8EF2570F9E83550
:1006700071FAAB7289828A838BF0120928F9A3126E
:100680000928FAEF256DFFE8356EF8AB6F8F828889
:10069000838BF0120928FFA3120928F8E9B5070691
:1006A000EAB500028004900000220DBD00A20E8079
:1006B0009F90000122756D3A756E00756F40756BE5
:1006C00004E4F56C90006275F040120643E5828503
:1006D00083F045F060061204B6020778756D427526
:1006E0006E00756F40756B04E4F56C90006275F0F8
:1006F00040120643E5828583F045F0600612040C43
:10070000020778756D4A756E00756F40756B04E46D
:10071000F56C90006275F040120643E5828583F027
:1007200045F06005120437804F756D52756E007587
:100730006F40756B04E4F56C90006275F040120632
:1007400043E5828583F045F06005120463802975D6
:100750006D5A756E00756F40756B04E4F56C900012
:100760006275F040120643E5828583F045F060052E
:1007700012048D80031204B690015E02029D758200
:100780001012036EAA82AB83ACF0FDE4C0E0C0E0BF
:10079000C0E0743FC0E08A828B838CF0ED12095078
:1007A000AA82E58124FCF581EA702E75821012037D
:1007B0006EAA82AB83ACF0FDC002C003C004C005CA
:1007C00074CFC0E07400C0E07480C0E0120A9CE501
:1007D0008124F9F5819000012290000022900014FC
:1007E00002029D12077EE5828583F045F060F49059
:1007F00000AF12029D7562017563007A017B00C330
:10080000EA9404EB64809480503A900166C002C080
:100810000312029DD003D0028A04EBCC25E0CC3336
:10082000EC2462F8C002C003C00012077EE5828596
:1008300083F0D000D003D002F608A6F0180ABA0060
:10084000BE0B80BB0206B5120365756A0375820292
:100850001203C912034D74E9C0E07400C0E0748053
:10086000C0E0120A9C15811581158174EEC0E074F8
:1008700000C0E07480C0E0120A9C158115811581CA
:100880007448C0E07401C0E07480C0E0120A9C1596
:100890008115811581C2A11207E3744BC0E0740178
:1008A000C0E07480C0E0120A9C1581158115817A20
:1008B000007B00C3EA9404EB64809480503A8A047D
:1008C000EBCC25E0CC33EC2462F8860408860518CE
:1008D000C002C003C004C0057455C0E07401C0E08C
:1008E0007480C0E0120A9CE58124FBF581D003D01E
:1008F000020ABA00BE0B80BB7448C0E07401C0E0BD
:100900007480C0E0120A9C15811581158175620002
:100910007563007564007565007566007567007520
:10092000680075690002089720F71430F614888370
:10093000A88220F507E6A88375830022E280F7E409
:100940009322E022E4AC83AB82FAF9748E020BF2BC
:10095000FFA8811818120C1AD2D133E6400730E7ED
:100960000B7582002220E70675820122C2D1120B8C
:10097000FCE97003F5822220D101B3E433F5822231
:10098000120CC7BC0003020C66EF60FA30D502B24D
:10099000D1E583B4FF03020C7CE582B4FF03020CB3
:1009A0007C258340072482400B020C66248314506C
:1009B00003020C7CF582EA8DF0A4A8F0EA8EF0A484
:1009C00028F8E435F0F9EB8DF0A428E935F0F9E4E6
:1009D00033CA8FF0A429F9EA35F0FAEBF88EF0A4C7
:1009E00029F9EA35F0FAE433FBEC8DF0A429F9EAB1
:1009F00035F0FAE43BFBE88FF0A42AFAEB35F0FB84
:100A0000E433CCFD8EF0A42AFAEB35F0FBE43CFC99
:100A1000ED8FF0A42BFBEC35F0FC20E703120C94D7
:100A2000020C45E4AC82FBFAF97486020BF2120C5C
:100A3000C77900E583B58202800D5003120CF5E5FD
:100A400083C39582120D0FE5D0C465D020E117EA6B
:100A50002DFAEB3EFBEC3FFC50097401120D0FEC3C
:100A60004480FC020C45C3EA9DFAEB9EFBEC9FFC24
:100A7000500FC3E499F9E49AFAE49BFBE49CFCB2BE
:100A8000D1120C94020C450216DE8582188583195A
:100A900085F01A85091B900A87021131C0088581EB
:100AA00008E50824FBF51BE50824FBF886180886F2
:100AB0001908861A900A87121131D00822AC83AB2C
:100AC000827A007900748E0216FC120CC730D502AF
:100AD000B2D1BF0009BC0003020C89020C7CBC002F
:100AE00003020C66E583B4FF0BE582B4FF03020C3E
:100AF00089020C66E582B4FF03020C7CC395835027
:100B000007247F400B020C662480145003020C7CE7
:100B1000C0E0E4CCCBCAF98D6A8E6B8F6CEF54F0D9
:100B2000C4F56D758306856DF0EB84F582E9C4F933
:100B3000EAC4FAEBC4FBEC540FC47803D6FC18EB00
:100B4000D6FB18EAD6FA8582F0EDA4A8F0FD8582DE
:100B5000F0EEA428FEE435F0F88582F0EFA428FF3B
:100B6000E435F0F8E99DF9EA9EFAEB9FFBEC98FC7E
:100B7000AD6AAE6BAF6C30E7101582E92DF9EA3E35
:100B8000FAEB3FFBE43CFC80EDC082D58398C3E9DF
:100B900033F9EA33FAEB33FBEC33FCC3E99DEA9E0D
:100BA000EB9FEC9400B3E413F9D002D0E0C44AFA0E
:100BB000D003D0E0C44BFBD004D0E0F5F0540FC418
:100BC0004CFCD082158230F40FD3EC13FCEB13FBFA
:100BD000EA13FAE913F90582E930E70A74012AFAFF
:100BE000E43BFBE43CFC020C5DFCABF0AA83A98275
:100BF000749EC2D1F582120C94020C457901AA822E
:100C0000E68F82B5821318E6B5F00E18E6B58309B3
:100C100018E68A82B58202790022B4800FE5F0706E
:100C20000AE5837006E58270027F00EFB680151832
:100C3000B6001018B6000B18B600060808087600B3
:100C40002208080822B98003EA13B34010EA2401FD
:100C5000FAE43BFBE43CFC50047C800582BC000EC3
:100C6000BB000BBA0008E4F5F0F583F58222A2D1AF
:100C7000E582138CF092F78B838A8222E4F583F568
:100C80008275F080F4A2D11322E4F583F58275F029
:100C9000C0747F227804EC7011E58224F8500AF5C4
:100CA00082E4C9CACBFCD8EF22EC7820058220E789
:100CB00013D5820122C3E933F9EA33FAEB33FBECB3
:100CC00033FCD8EA158222AA82AB83A2F73392D1F1
:100CD0006002D2F7F582ACF0E58124F9F8E6FD0870
:100CE000E6FE0886F008E6A2F73392D56002D2F756
:100CF000F583AFF022E582C583F582A2D133A2D578
:100D000092D11392D5ECCFFCEBCEFBEACDFA226068
:100D100040F82582500274FFF582E824F8501ECC7A
:100D2000CBCAF9E4CC24F85014CBCAF9E4CB24F8AC
:100D3000500BCAF9E4CA24F8500379002224086051
:100D400010F8C3EC13FCEB13FBEA13FAE913F9D820
:100D5000F122AA827463C0E0740DC0E0C00AC00B27
:100D60008A82220511E4B51102051222AA8274308A
:100D70002AFA24C6500A74072AFA300103430220D3
:100D80008A82020D52E582FAC4540FF582C0021223
:100D90000D6CD002740F5AF582020D6CAA0CAB0DCB
:100DA000AC0EAD0FAE10751720EE2EFEED235401E4
:100DB000FF4206EA2AFAEB33FBEC33FCED33FDC3CA
:100DC000EE95134008EEC39513FE430201D517D9E3
:100DD0008A0C8B0D8C0E8D0F8E1022787FE624D01E
:100DE00075F00AA4FA7880E624D02AFA787E860381
:100DF000BB2D04C3E49AFA751301C3E464808AF03E
:100E000063F08095F050297517038A0374F625174F
:100E1000401C0513E517142473F8E5172473F987AC
:100E200004A604772E1BEBFA6004051780DE8B0204
:100E3000EA30E70D787486037875A6037874762E09
:100E40000AE515600AE51504FB2513F51380053046
:100E50000C02051378738603E4BB2D0104FB7006B6
:100E60002007033008020513300503020F22300665
:100E700057EB600C75822DC002120D52D002801CFF
:100E800030070C75822BC002120D52D002800D303B
:100E9000080A758220C002120D52D00278748604AE
:100EA000BC2E0C758230C002120D52D0021514AC4B
:100EB000141514C3E5139C4003020F66758230C0FD
:100EC00002120D52D00280E7AC141514C3E5139C36
:100ED000500C758220C002120D52D00280EA787345
:100EE0008604BC2D0C75822DC002120D52D00280DA
:100EF0001C30070C75822BC002120D52D002800DDF
:100F000030080A758220C002120D52D00278748611
:100F100004BC2E52758230C002120D52D00215143C
:100F20008044EB600E75822DC002120D52D0021566
:100F300014802030070E75822BC002120D52D00291
:100F40001514800F30080C758220C002120D52D08B
:100F500002151478748603BB2E0C758230C0021201
:100F60000D52D0021514751701C20EE5172473F83F
:100F70008603BB4503021023BB2E348A03C3E464FB
:100F8000808BF063F08095F0500F758230C00312B3
:100F90000D52D0031B8B0280E48B02D20EE515703C
:100FA00038200C0302102375822E120D52807430EB
:100FB0000E278A03EB30E71FC3E464808515F063D6
:100FC000F08095F0500C758230C003120D52D003A2
:100FD00015150B8B0280DD8B02300E0EC3E464808E
:100FE0008515F063F08095F05021E5172473F8869D
:100FF000038B82C002120D52D002300E0EE5172470
:1010000073F88603BB2E02800215151514C3E46421
:10101000808515F063F08095F04003200E050517DC
:10102000020F6BC3E464808515F063F08095F05087
:101030000A758230120D52151580E830050FAA147A
:101040001514EA6008758220120D5280F122E51510
:101050007003300C0D74072515FAE514C39AF514C6
:101060008006E51424FAF51475170078738602BA21
:101070002B0F20070C7873762020080575170105C3
:1010800014200519AA14C3E464808AF063F08095E3
:10109000F0500A758220120D52151480E7C20EE539
:1010A000172473F88602BA00028069BA451F30011E
:1010B000027665C3E464808515F063F08095F05096
:1010C0000A758230120D52151580E8D20EC3E5174D
:1010D0009402E433FA7014EA700EC3E46480851558
:1010E000F063F08095F04003300E16E5172473F896
:1010F00086028A82120D52E51724FD5012151580C2
:101100000E7402B51709300C0675822E120D5205A9
:101110001702109F300519AA14C3E464808AF06393
:10112000F08095F0500A758220120D52151480E758
:101130002285820A85830BE4F511F512AA18AB19F2
:10114000AC1A8A828B838CF0120928FD74012AF56F
:1011500018E43BF5198C1AEDFA70030216D7BA257C
:101160000280030216CFC205C206C207C208C20926
:10117000C20AC20BC20CC202C203C20475130075BC
:1011800014007515FFAB18AC19AD1A8B828C838DCA
:10119000F0120928FAA3AB82AC838B188C198D1A34
:1011A000BA25078A82120D5280928A06BE3000400C
:1011B0002E8A06EE24C6402774FFB51513E5147574
:1011C000F00AA4FEEA24D02EF51470BFD20680BB2C
:1011D000E51575F00AA4FEEA24D02EF51580ACBA08
:1011E0002E0A74FFB515A4751500809F8A06BE618E
:1011F00000400E8A06EE248540075302DFD20180AC
:1012000002C201BA20028075BA230302128CBA2AE4
:1012100003021291BA2B02805FBA2D028055BA42A6
:1012200002805FBA43030212D6BA4403021411BA11
:10123000450302142BBA4603021427BA47030214CB
:101240002FBA4903021411BA4C02803BBA4E030272
:101250001433BA4F03021418BA50030213AABA5334
:10126000030212FABA550302141DBA5803021422DB
:1012700002145DD20502118BD20702118BD2080233
:10128000118BD20A02118BD20B02118BD20C0211DC
:101290008B74FFB51520300A0BE51B14F8881B86EC
:1012A0001402118BE51B24FEF8881B8606088607AE
:1012B000188E1402118B300A0BE51B14F8881B865C
:1012C0001502118BE51B24FEF8881B86060886078D
:1012D000188E1502118B300A0AE51B14F8881B863C
:1012E00002800FE51B24FEF8881B8603088604187D
:1012F0008B028A82120D52021462E51B24FDF888CB
:101300001B860308860408860518188B0C8C0D8D27
:101310000E8B828C838DF0121858AB82AC838B16A7
:1013200074FFB5150385161520051DC3E516951424
:101330005016E514C39516F514AB141514EB60089C
:10134000758220120D5280F1850C82850D83850EE9
:10135000F0120928FBFA6029AB151515C3E4648067
:101360008BF063F08095F050188A82120D52AB0C0E
:10137000AC0DAD0E0BBB00010C8B0C8C0D8D0E80DB
:10138000C7200503021462C3E51695144003021436
:1013900062E514C39516F514AB141514EB70030233
:1013A0001462758220120D5280EEE51B24FDF88830
:1013B0001B860308860408860518188B0C8C0D8D77
:1013C0000EE50EFB30E7047A438013EB54606004B3
:1013D0007A50800AEB30E6047A4980027A588A8291
:1013E000C002120D5275823A120D52758230120DE2
:1013F00052758278120D52D002BA4902800BBA504F
:10140000028006850D82120D85850C82120D858065
:1014100051D20975130A804A751308804575130A5D
:101420008040751310803BD2028037D2038033D2C4
:1014300004802FE51B24FDF8881B8603088604081A
:10144000860518188B0C8C0D8D0E8B828C838DF07D
:10145000E51112183FA3E51212183F80058A821287
:101460000D52200206200303300470E51B24FCF813
:10147000881B86030886040886050886061818183F
:101480008B0C8C0D8D0E8E0FE50CE50DE50EE50F2A
:101490008B828C838DF0EE12172074FFB5150375C7
:1014A0001506300427747F550FFB8B10E510EB2BCE
:1014B000FB8B10E50E30E70674014510F510E510C2
:1014C00024684006749925104002D20330030612A6
:1014D000104E02113C120DDB02113CE513700302A9
:1014E000113C7B78300A2BE51B14F8881BE6FC3393
:1014F00095E0FDFEFF8C0C8D0D8E0E8F0F20095E8A
:10150000AC0C7D007E007F008C0C8D0D8E0E8F0F3D
:10151000804C300B1FE51B24FCF8881B86040886D2
:10152000050886060886071818188C0C8D0D8E0E77
:101530008F0F802AE51B24FEF8881B860408860589
:1015400018ED3395E0FEFF8C0C8D0D8E0E8F0F2065
:10155000090CAC0CAD0D7E007F008E0E8F0F300C91
:1015600043E50C450D450E450F60397408B5130C65
:10157000758230C003120D52D00380287410B51349
:1015800023758230C003120D52D00330010C7582D6
:1015900078C003120D52D003800A758258C003121E
:1015A0000D52D003300925AC0CAD0DAE0EE50FFF8A
:1015B00030E717C3E49CFCE49DFDE49EFEE49FFF3E
:1015C0008C0C8D0D8E0E8F0F8002C209751600D205
:1015D0000D8B00751000C000120D9CD000200D0D69
:1015E000E510C4FCE6FD4CF61888038002A6100541
:1015F00016B20DE50C450D450E450F70D68803E576
:1016000014700375140120061A200517E51604FC52
:10161000C39514500E758220C003120D52D00315CD
:101620001480E930090E75822DC003120D52D003CB
:1016300015148024E516602030070E75822BC00338
:10164000120D52D0031514800F30080C758220C083
:1016500003120D52D003151420051EAC141514C32B
:10166000E5169C50273006047C3080027C208C825A
:10167000C003120D52D00380E2C3E5169514500941
:10168000E514C39516F51480037514008B00AB1692
:101690001516EB6022B20D200D0A08E6C4540FFBAC
:1016A0008B1080078603740F5BF510851082C000D5
:1016B000120D6CD00080D720050302113CAB14152D
:1016C00014EB700302113C758220120D5280EE8AD9
:1016D00082120D5202113C85118285128322AA8248
:1016E000BA0A0810990280FB75990D10990280FBC7
:1016F0008A9922FCABF0AA83A982749EF582C2D19A
:10170000EC30E716D2D1E9F42401F9EAF43400FA16
:10171000EBF43400FBECF43400FC120C94020C45A6
:10172000C0E0F84582458345F07009F5F0FBFCFD0B
:10173000FE0217EEE823A2F792E0F8A982AA83D26C
:10174000F7ABF07C007E07C3749798404074FF2E7F
:10175000FE740A89F0A4F985F082740A8AF0A4FA6A
:1017600085F083740A8BF0A4FB740529F9EA3582AD
:10177000FAEB3583FB740035F0FCC3EC13FCEB1380
:10178000FBEA13FAE913F908EC70EF80BAE8C394A6
:101790007FF88B838EF0E4FBFCFDFEFF08C3E9338A
:1017A000F9EA33FAE58333F583EB3BD4FBEC3CD425
:1017B000FCED3DD4FDEE3ED4FEEF3FD4FF602D05A1
:1017C000F074052BD4FBE43CD4FCE43DD4FDE43EB2
:1017D000D4FEE43FD4FF758204C3EF13FFEE13FE83
:1017E000ED13FDEC13FCEB13FBD582EDD8AF787352
:1017F000D0E020E704762B8002762D087906E7C436
:10180000540F4430F608B90603762E08E7540F4407
:1018100030F60819B902E7764508E5F020E70476C6
:101820002B8004762DF4040875F00A844430F60801
:10183000E5F04430F608E4F690007375F04022209D
:10184000F71030F6118883A88220F507F6A8837573
:10185000830022F280F7F022AA82AB83ACF07D00F5
:101860007E008A828B838CF0120928FFA3AA82ABA8
:1018700083EF60070DBD00EA0E80E78D828E832224
:00000001FF
