:1000000002002E00000000000000000000000000C0
:1000200000000000000000000000000202FD7581D9
:1000300084120211E582600302009A780079007A46
:10004000007B007C007D00EC4D601C88828983E48D
:1000500093A3A882A9838A828B83F0A3AA82AB830D
:100060001CBCFFE31D80E07582007583007C007D71
:1000700000EC4D600AE4F0A31CBCFFF51D80F27596
:1000800082007583007C007D00EC4D600AE4F0A3E3
:100090001CBCFFF51D80F212016A120AD580FE46D3
:1000A0006F72776172640A0D004261636B776172EF
:1000B000640A0D004C6566740A0D00526967687425
:1000C0000A0D0053746F700A0D000A726561642096
:1000D000313A202061742070696E20312E363A202A
:1000E00025660D000A7265616420303A20566F6CF7
:1000F000742061742070696E20312E363A20256696
:100100000D001B5B324A0053717561726520776187
:1001100076652067656E657261746F7220666F72B6
:10012000207468652045464D384C42312E0D0A43F7
:100130006865636B2070696E732050322E322061C7
:100140006E642050322E312077697468207468659F
:10015000206F7363696C6C6F73636F70652E0D0A2B
:10016000000A0D002566090A0D007522007523009E
:10017000752400752500E4F536F537E4F538F539D2
:10018000753A01753B00753C00753D00753E007584
:100190003F0075400075410075420175430075448C
:1001A00001754500754601754700754801754900A0
:1001B000754A01754B00754C00754D00754E007504
:1001C0004F007550007551007552017553007554FC
:1001D0000075550075560175570075580075590022
:1001E000755A01755B00755C01755D00755E007583
:1001F0005F0075600175610075620075630075646C
:1002000000756500756600756700756800756900A2
:100210002275A7007597DE7597AD75FF8075EF069F
:1002200075A71075C12075A70075A90075A900E50F
:10023000A930E7FB75A90375A903E5A930E7FB43DE
:10024000A41075E10175E20075E340759810758D95
:10025000E6858D8B53890F438920D28ED29975C83C
:1002600000438E1075CAE075CBE375CEFF75CFFFE6
:10027000D2ADD2CAD2AF75820022AA82AB83438E9E
:10028000407592B87593FF85929485939575910406
:100290007C007D00C3EC9AED9B500FE59130E7FBAD
:1002A00053917F0CBC00ED0D80EA75910022AA826B
:1002B000AB837C007D00C3EC9AED9B502B7E00BE8F
:1002C0000400501D9000FAC002C003C004C005C065
:1002D0000612027AD006D005D004D003D0020E80D8
:1002E000DE0CBC00D10D80CE228582BBD2EC20EC8E
:1002F000FDD2EC20ECFD85BD8285BE8322C0E0C02E
:1003000002C003C0D075D000C2CF0522E522249BD5
:100310005003752200AA227B00C3E5269AE5279B9D
:100320009200B39294AA227B00C3E5289AE5299B08
:100330009200B39293AA227B00C3E5269AE5279BFD
:100340009200B39296AA227B00C3E5289AE5299BE6
:100350009200B39295D0D0D003D002D0E03275A7EE
:100360000075B28075BCF875B91E75E80075DF3F81
:1003700075B300D2EF225389F0438901C28C221257
:1003800002E9120B6DAA82AB83ACF0FDC002C00380
:10039000C004C005906C8B75F0537440120BBAAA60
:1003A00082AB83ACF0FDE58124FCF581E4C0E07410
:1003B000FCC0E0747FC0E07446C0E08A828B838C0E
:1003C000F0ED120D04AA82AB83ACF0FDE58124FCB4
:1003D000F5818A828B838CF0ED22AA82856CF005F0
:1003E000F07401800225E0D5F0FBFB75A720BA0070
:1003F00002800ABA0102800FBA021E8014EBF4FADE
:1004000052F1EB42D48012EBF4FA52F2EB42D58077
:1004100008EBF4FA52F3EB42CC75A7002275266381
:10042000E4F527E4F528F529F52AF52B752C63E486
:10043000F52D749FC0E07400C0E07480C0E0120C21
:10044000D615811581158122E4F526F527752863D7
:10045000E4F529752A63E4F52BE4F52CF52D74A950
:10046000C0E07400C0E07480C0E0120CD6158115A5
:1004700081158122E4F526F527F528F529752A4608
:10048000E4F52BE4F52CF52D74B4C0E07400C0E065
:100490007480C0E0120CD615811581158122752655
:1004A00063E4F527E4F528F529F52AF52BF52CF575
:1004B0002D74BBC0E07400C0E07480C0E0120CD6A4
:1004C00015811581158122E4F526F527F528F529F2
:1004D000F52AF52BF52CF52D74C3C0E07400C0E0AF
:1004E0007480C0E0120CD615811581158122858299
:1004F0007285837385F0747D007E00C3ED956DEE8B
:100500006480856EF063F08095F050508D07EECFDB
:1005100025E0CF33F8EF2572F9E83573FAAB74892B
:10052000828A838BF0120B51F9A3120B51FAEF253B
:100530006FFFE83570F8AB718F8288838BF0120BF8
:1005400051FFA3120B51F8E9B50706EAB500028086
:1005500004900000220DBD00A20E809F9000012299
:10056000756F3A757000757140756D04E4F56E90A5
:10057000006275F0401204EEE5828583F045F0607C
:10058000030204C7756F42757000757140756D0484
:10059000E4F56E90006275F0401204EEE58285830A
:1005A000F045F0600302041D756F4A7570007571A7
:1005B00040756D04E4F56E90006275F0401204EE33
:1005C000E5828583F045F06003020448756F52753B
:1005D0007000757140756D04E4F56E90006275F001
:1005E000401204EEE5828583F045F0600302047456
:1005F000756F5A757000757140756D04E4F56E90F5
:10060000006275F0401204EEE5828583F045F060EB
:100610000302049E0204C7758A00758C00C28DE433
:10062000F56AF56BC28C75820C12037FAC82AD83C8
:10063000AEF0FFE4C0E0C0E0C0E0743FC0E08C82F8
:100640008D838EF0EF120B8AAC82E58124FCF5815C
:10065000EC60D375820C12037FAC82AD83AEF0FFE9
:10066000E4C0E0C0E0C0E0743FC0E08C828D838EC7
:10067000F0EF120B8AAC82E58124FCF581EC70036B
:100680000207E3D28C856A82856B83120CF7AC82F9
:10069000AD83AEF0FFC004C005C006C007900000E7
:1006A00075F0807447120BBAAC82AD83AEF0FFE5F3
:1006B0008124FCF581858C82C004C005C006C0077A
:1006C000120C5DA882A983AAF0FBC000C001C00281
:1006D000C00390000075F0807443120BBAAA82AB7D
:1006E00083A8F0F9E58124FCF581D007D006D00578
:1006F000D004C002C003C000C0018C828D838EF084
:10070000EF120C68AA82AB83ACF0FDE58124FCF506
:1007100081AE8A7F008E828F83C002C003C004C076
:1007200005120CF7AE82AF83A8F0F9D005D004D043
:1007300003D002C006C007C000C0018A828B838C30
:10074000F0ED120C68AA82AB83ACF0FDE58124FCCD
:10075000F581C002C003C004C00590C33E75F02EF1
:100760007439120BBAAA82AB83ACF0FDE58124FC8C
:10077000F581E4C0E0C0E074C8C0E07442C0E08A23
:10078000828B838CF0ED120B8AAA82E58124FCF522
:1007900081EA6003020653AA6AAB6B75820CC00241
:1007A000C00312037FAC82AD83AEF0FFE4C0E0C0B3
:1007B000E0C0E0743FC0E08C828D838EF0EF120BBE
:1007C0008AAC82E58124FCF581D003D002EC600381
:1007D000020653108D0280C30ABA00010B8A6A8B8D
:1007E0006B80B8C28C856A82856B83120CF7AA82F3
:1007F000AB83ACF0FDC002C003C004C00590000094
:1008000075F0807447120BBAAA82AB83ACF0FDE599
:100810008124FCF581858C82C002C003C004C00520
:10082000120C5DAE82AF83A8F0F9C006C007C0000D
:10083000C00190000075F0807443120BBAAE82AF15
:1008400083A8F0F9E58124FCF581D005D004D0031C
:10085000D002C006C007C000C0018A828B838CF022
:10086000ED120C68AA82AB83ACF0FDE58124FCF5A7
:1008700081AE8A7F008E828F83C002C003C004C015
:1008800005120CF7AE82AF83A8F0F9D005D004D0E2
:1008900003D002C006C007C000C0018A828B838CCF
:1008A000F0ED120C68AA82AB83ACF0FDE58124FC6C
:1008B000F581C002C003C004C00590F4FC75F0329D
:1008C0007434120BBAAA82AB83ACF0FDE58124FC30
:1008D000F581C002C003C004C00590000075F07A25
:1008E0007444120BBAAA82AB83ACF0FDE58124FC00
:1008F000F5818A828B838CF0ED22AA82AB83ACF0E7
:10090000FDC002C003C004C005E4C0E0C0E0742024
:10091000C0E07441C0E08A828B838CF0ED120B79C9
:10092000AE82E58124FCF581D005D004D003D0024D
:10093000EE600302041DC002C003C004C005E4C091
:10094000E0C0E074A0C0E07441C0E08A828B838C78
:10095000F0ED120B79AE82E58124FCF581D005D053
:1009600004D003D002EE6003020448C002C003C0FA
:1009700004C005E4C0E0C0E074F0C0E07441C0E031
:100980008A828B838CF0ED120B79AE82E58124FC98
:10099000F581D005D004D003D002EE600302049E9E
:1009A000E4C0E0C0E07420C0E07442C0E08A828B02
:1009B000838CF0ED120B79AA82E58124FCF581EAA3
:1009C00060030204740204C775820C1202E9E58216
:1009D0008583F045F060F190000012027A75820C78
:1009E00002037F1209C8AA82AB83ACF0FDE4C0E029
:1009F000C0E0C0E0743FC0E08A828B838CF0ED12CF
:100A00000B8AAA82E58124FCF581EA702B1209C8C1
:100A1000AA82AB83ACF0FDC002C003C004C0057461
:100A2000CAC0E07400C0E07480C0E0120CD6E5815A
:100A300024F9F581900001221209C8AA82AB83AC87
:100A4000F0FDC002C003C004C00574E4C0E074003F
:100A5000C0E07480C0E0120CD6E58124F9F58190E5
:100A600000002290000A0202AE1209E3E5828583AB
:100A7000F045F060F41209E3AA82AB83BA0155BBDA
:100A800000527562017563007A017B00C3EA940429
:100A9000EB64809480503A90000AC002C0031202B6
:100AA000AED003D0028A04EBCC25E0CC33EC246238
:100AB000F8C002C003C0001209E3E5828583F0D0CC
:100AC00000D003D002F608A6F0180ABA00BE0B80C8
:100AD000BB02056022120376756C06758201120353
:100AE000DA12035E7402C0E07401C0E07480C0E0FA
:100AF000120CD61581158115817407C0E07401C0F0
:100B0000E07480C0E0120CD61581158115817461E6
:100B1000C0E07401C0E07480C0E0120CD6158115ED
:100B2000811581C2A1120A69120617AA82AB83AC91
:100B3000F0FDC002C003C004C0057464C0E07401CD
:100B4000C0E07480C0E0120CD6E58124F9F5818004
:100B5000D420F71430F6148883A88220F507E6A87D
:100B60008375830022E280F7E49322E022E4AC83E1
:100B7000AB82FAF9748E020E2CFFA8811818120E9F
:100B800054120E36E96401F58222FFA8811818126A
:100B90000E54D2D133E6400730E70B758200222095
:100BA000E70675820122C2D1120E36E97003F58282
:100BB0002220D101B3E433F58222120F01BC0003DD
:100BC000020EA0EF60FA30D502B2D1E583B4FF0384
:100BD000020EB6E582B4FF03020EB6258340072459
:100BE00082400B020EA02483145003020EB6F5823D
:100BF000EA8DF0A4A8F0EA8EF0A428F8E435F0F924
:100C0000EB8DF0A428E935F0F9E433CA8FF0A4297C
:100C1000F9EA35F0FAEBF88EF0A429F9EA35F0FAA2
:100C2000E433FBEC8DF0A429F9EA35F0FAE43BFB60
:100C3000E88FF0A42AFAEB35F0FBE433CCFD8EF01C
:100C4000A42AFAEB35F0FBE43CFCED8FF0A42BFB7F
:100C5000EC35F0FC20E703120ECE020E7FE4AC82EE
:100C6000FBFAF97486020E2C120F017900E583B5A8
:100C70008202800D5003120F2FE583C39582120F5D
:100C800049E5D0C465D020E117EA2DFAEB3EFBEC34
:100C90003FFC50097401120F49EC4480FC020E7FA6
:100CA000C3EA9DFAEB9EFBEC9FFC500FC3E499F95D
:100CB000E49AFAE49BFBE49CFCB2D1120ECE020E45
:100CC0007F02191885821885831985F01A85091BFA
:100CD000900CC102136BC008858108E50824FBF560
:100CE0001BE50824FBF8861808861908861A900C5C
:100CF000C112136BD00822AC83AB827A00790074E6
:100D00008E021936120F0130D502B2D1BF0009BCD4
:100D10000003020EC3020EB6BC0003020EA0E58360
:100D2000B4FF0BE582B4FF03020EC3020EA0E582FE
:100D3000B4FF03020EB6C395835007247F400B0215
:100D40000EA02480145003020EB6C0E0E4CCCBCA3F
:100D5000F98D6C8E6D8F6EEF54F0C4F56F75830650
:100D6000856FF0EB84F582E9C4F9EAC4FAEBC4FBC1
:100D7000EC540FC47803D6FC18EBD6FB18EAD6FA6D
:100D80008582F0EDA4A8F0FD8582F0EEA428FEE4B3
:100D900035F0F88582F0EFA428FFE435F0F8E99DFE
:100DA000F9EA9EFAEB9FFBEC98FCAD6CAE6DAF6E72
:100DB00030E7101582E92DF9EA3EFAEB3FFBE43CFF
:100DC000FC80EDC082D58398C3E933F9EA33FAEBAE
:100DD00033FBEC33FCC3E99DEA9EEB9FEC9400B33C
:100DE000E413F9D002D0E0C44AFAD003D0E0C44BF7
:100DF000FBD004D0E0F5F0540FC44CFCD082158237
:100E000030F40FD3EC13FCEB13FBEA13FAE913F9FC
:100E10000582E930E70A74012AFAE43BFBE43CFC72
:100E2000020E97FCABF0AA83A982749EC2D1F58210
:100E3000120ECE020E7F7901AA82E68F82B582134E
:100E400018E6B5F00E18E6B5830918E68A82B58271
:100E500002790022B4800FE5F0700AE5837006E5A0
:100E60008270027F00EFB6801518B6001018B60029
:100E70000B18B6000608080876002208080822B9F0
:100E80008003EA13B34010EA2401FAE43BFBE43C9C
:100E9000FC50047C800582BC000EBB000BBA00082D
:100EA000E4F5F0F583F58222A2D1E582138CF0926D
:100EB000F78B838A8222E4F583F58275F080F4A2B1
:100EC000D11322E4F583F58275F0C0747F22780493
:100ED000EC7011E58224F8500AF582E4C9CACBFC13
:100EE000D8EF22EC7820058220E713D5820122C3B7
:100EF000E933F9EA33FAEB33FBEC33FCD8EA158239
:100F000022AA82AB83A2F73392D16002D2F7F58294
:100F1000ACF0E58124F9F8E6FD08E6FE0886F00865
:100F2000E6A2F73392D56002D2F7F583AFF022E55F
:100F300082C583F582A2D133A2D592D11392D5EC8A
:100F4000CFFCEBCEFBEACDFA226040F825825002BE
:100F500074FFF582E824F8501ECCCBCAF9E4CC2407
:100F6000F85014CBCAF9E4CB24F8500BCAF9E4CA00
:100F700024F8500379002224086010F8C3EC13FC15
:100F8000EB13FBEA13FAE913F9D8F122AA82749D54
:100F9000C0E0740FC0E0C00AC00B8A82220511E4D1
:100FA000B51102051222AA8274302AFA24C6500A08
:100FB00074072AFA3001034302208A82020F8CE56B
:100FC00082FAC4540FF582C002120FA6D002740F29
:100FD0005AF582020FA6AA0CAB0DAC0EAD0FAE10E7
:100FE000751720EE2EFEED235401FF4206EA2AFA81
:100FF000EB33FBEC33FCED33FDC3EE95134008EE11
:10100000C39513FE430201D517D98A0C8B0D8C0EA4
:101010008D0F8E10227881E624D075F00AA4FA781C
:1010200082E624D02AFA78808603BB2D04C3E49A92
:10103000FA751301C3E464808AF063F08095F05080
:10104000297517038A0374F62517401C0513E51745
:10105000142475F8E5172475F98704A604772E1B68
:10106000EBFA6004051780DE8B02EA30E70D787634
:1010700086037877A6037876762E0AE515600AE56A
:101080001504FB2513F5138005300C020513787544
:101090008603E4BB2D0104FB700620070330080221
:1010A000051330050302115C300657EB600C7582A6
:1010B0002DC002120F8CD002801C30070C75822BC1
:1010C000C002120F8CD002800D30080A758220C039
:1010D00002120F8CD00278768604BC2E0C758230FA
:1010E000C002120F8CD0021514AC141514C3E513F2
:1010F0009C40030211A0758230C002120F8CD002F6
:1011000080E7AC141514C3E5139C500C758220C005
:1011100002120F8CD00280EA78758604BC2D0C7503
:10112000822DC002120F8CD002801C30070C7582F9
:101130002BC002120F8CD002800D30080A7582205D
:10114000C002120F8CD00278768604BC2E527582B3
:1011500030C002120F8CD00215148044EB600E7563
:10116000822DC002120F8CD0021514802030070E81
:1011700075822BC002120F8CD0021514800F30081C
:101180000C758220C002120F8CD00215147876865E
:1011900003BB2E0C758230C002120F8CD0021514C6
:1011A000751701C20EE5172475F88603BB450302C7
:1011B000125DBB2E348A03C3E464808BF063F0803D
:1011C00095F0500F758230C003120F8CD0031B8B2B
:1011D0000280E48B02D20EE5157038200C03021257
:1011E0005D75822E120F8C8074300E278A03EB30CF
:1011F000E71FC3E464808515F063F08095F0500C20
:10120000758230C003120F8CD00315150B8B028032
:10121000DD8B02300E0EC3E464808515F063F08030
:1012200095F05021E5172475F886038B82C00212D1
:101230000F8CD002300E0EE5172475F88603BB2EF6
:1012400002800215151514C3E464808515F063F05F
:101250008095F04003200E0505170211A5C3E46434
:10126000808515F063F08095F0500A758230120F7A
:101270008C151580E830050FAA141514EA6008755E
:101280008220120F8C80F122E5157003300C0D7452
:10129000072515FAE514C39AF5148006E51424FA17
:1012A000F51475170078758602BA2B0F20070C7895
:1012B0007576202008057517010514200519AA1454
:1012C000C3E464808AF063F08095F0500A75822050
:1012D000120F8C151480E7C20EE5172475F88602EC
:1012E000BA00028069BA451F3001027665C3E46422
:1012F000808515F063F08095F0500A758230120FEA
:101300008C151580E8D20EC3E5179402E433FA7009
:1013100014EA700EC3E464808515F063F08095F0E4
:101320004003300E16E5172475F886028A82120FE4
:101330008CE51724FD50121515800E7402B517099F
:10134000300C0675822E120F8C05170212D930054B
:1013500019AA14C3E464808AF063F08095F0500AFF
:10136000758220120F8C151480E72285820A8583EE
:101370000BE4F511F512AA18AB19AC1A8A828B830B
:101380008CF0120B51FD74012AF518E43BF5198C11
:101390001AEDFA7003021911BA2502800302190925
:1013A000C205C206C207C208C209C20AC20BC20CE9
:1013B000C202C203C2047513007514007515FFAB99
:1013C00018AC19AD1A8B828C838DF0120B51FAA3D5
:1013D000AB82AC838B188C198D1ABA25078A8212BE
:1013E0000F8C80928A06BE3000402E8A06EE24C6FC
:1013F000402774FFB51513E51475F00AA4FEEA241E
:10140000D02EF51470BFD20680BBE51575F00AA486
:10141000FEEA24D02EF51580ACBA2E0A74FFB5155D
:10142000A4751500809F8A06BE6100400E8A06EEF4
:10143000248540075302DFD2018002C201BA200294
:101440008075BA23030214C6BA2A030214CBBA2B3E
:1014500002805FBA2D028055BA4202805FBA430310
:10146000021510BA440302164BBA4503021665BAB8
:101470004603021661BA4703021669BA4903021607
:101480004BBA4C02803BBA4E0302166DBA4F0302B0
:101490001652BA50030215E4BA5303021534BA5572
:1014A00003021657BA580302165C021697D20502B9
:1014B00013C5D2070213C5D2080213C5D20A0213FC
:1014C000C5D20B0213C5D20C0213C574FFB515208B
:1014D000300A0BE51B14F8881B86140213C5E51BA4
:1014E00024FEF8881B8606088607188E140213C58A
:1014F000300A0BE51B14F8881B86150213C5E51B83
:1015000024FEF8881B8606088607188E150213C568
:10151000300A0AE51B14F8881B8602800FE51B249D
:10152000FEF8881B8603088604188B028A82120F35
:101530008C02169CE51B24FDF8881B860308860494
:1015400008860518188B0C8C0D8D0E8B828C838D64
:10155000F0121A92AB82AC838B1674FFB51503851B
:10156000161520051DC3E51695145016E514C395F0
:1015700016F514AB141514EB6008758220120F8C4D
:1015800080F1850C82850D83850EF0120B51FBFADC
:101590006029AB151515C3E464808BF063F080956A
:1015A000F050188A82120F8CAB0CAC0DAD0E0BBB39
:1015B00000010C8B0C8C0D8D0E80C72005030216CC
:1015C0009CC3E5169514400302169CE514C39516BA
:1015D000F514AB141514EB700302169C75822012DF
:1015E0000F8C80EEE51B24FDF8881B86030886041B
:1015F00008860518188B0C8C0D8D0EE50EFB30E758
:10160000047A438013EB546060047A50800AEB3014
:10161000E6047A4980027A588A82C002120F8C75D9
:10162000823A120F8C758230120F8C758278120FED
:101630008CD002BA4902800BBA50028006850D8216
:10164000120FBF850C82120FBF8051D20975130A89
:10165000804A751308804575130A80407513108001
:101660003BD2028037D2038033D204802FE51B2483
:10167000FDF8881B860308860408860518188B0C5D
:101680008C0D8D0E8B828C838DF0E511121A79A34F
:10169000E512121A7980058A82120F8C2002062028
:1016A0000303300470E51B24FCF8881B86030886BE
:1016B000040886050886061818188B0C8C0D8D0EEC
:1016C0008E0FE50CE50DE50EE50F8B828C838DF01A
:1016D000EE12195A74FFB5150375150630042774F8
:1016E0007F550FFB8B10E510EB2BFB8B10E50E30BD
:1016F000E70674014510F510E5102468400674995A
:1017000025104002D203300306121288021376120B
:101710001015021376E51370030213767B7A300AF4
:101720002BE51B14F8881BE6FC3395E0FDFEFF8CCF
:101730000C8D0D8E0E8F0F20095EAC0C7D007E008F
:101740007F008C0C8D0D8E0E8F0F804C300B1FE5A3
:101750001B24FCF8881B8604088605088606088674
:10176000071818188C0C8D0D8E0E8F0F802AE51B14
:1017700024FEF8881B860408860518ED3395E0FEE4
:10178000FF8C0C8D0D8E0E8F0F20090CAC0CAD0D47
:101790007E007F008E0E8F0F300C43E50C450D450B
:1017A0000E450F60397408B5130C758230C00312F2
:1017B0000F8CD00380287410B51323758230C003BA
:1017C000120F8CD00330010C758278C003120F8C7D
:1017D000D003800A758258C003120F8CD0033009E1
:1017E00025AC0CAD0DAE0EE50FFF30E717C3E49C42
:1017F000FCE49DFDE49EFEE49FFF8C0C8D0D8E0E9F
:101800008F0F8002C209751600D20D8B0075100073
:10181000C000120FD6D000200D0DE510C4FCE6FD6F
:101820004CF61888038002A6100516B20DE50C458B
:101830000D450E450F70D68803E51470037514012D
:1018400020061A200517E51604FCC39514500E75E2
:101850008220C003120F8CD003151480E930090ECA
:1018600075822DC003120F8CD00315148024E51649
:10187000602030070E75822BC003120F8CD0031529
:1018800014800F30080C758220C003120F8CD00317
:10189000151420051EAC141514C3E5169C502730F2
:1018A00006047C3080027C208C82C003120F8CD016
:1018B0000380E2C3E51695145009E514C39516F5A7
:1018C0001480037514008B00AB161516EB6022B262
:1018D0000D200D0A08E6C4540FFB8B108007860309
:1018E000740F5BF510851082C000120FA6D0008027
:1018F000D7200503021376AB141514EB7003021303
:1019000076758220120F8C80EE8A82120F8C021361
:101910007685118285128322AA82BA0A081099025A
:1019200080FB75990D10990280FB8A9922FCABF01F
:10193000AA83A982749EF582C2D1EC30E716D2D177
:10194000E9F42401F9EAF43400FAEBF43400FBEC96
:10195000F43400FC120ECE020E7FC0E0F845824542
:101960008345F07009F5F0FBFCFDFE021A28E82320
:10197000A2F792E0F8A982AA83D2F7ABF07C007EAE
:1019800007C3749798404074FF2EFE740A89F0A430
:10199000F985F082740A8AF0A4FA85F083740A8BC0
:1019A000F0A4FB740529F9EA3582FAEB3583FB7460
:1019B0000035F0FCC3EC13FCEB13FBEA13FAE9135C
:1019C000F908EC70EF80BAE8C3947FF88B838EF04F
:1019D000E4FBFCFDFEFF08C3E933F9EA33FAE583D3
:1019E00033F583EB3BD4FBEC3CD4FCED3DD4FDEE76
:1019F0003ED4FEEF3FD4FF602D05F074052BD4FBE1
:101A0000E43CD4FCE43DD4FDE43ED4FEE43FD4FF0A
:101A1000758204C3EF13FFEE13FEED13FDEC13FC10
:101A2000EB13FBD582EDD8AF7875D0E020E70476D4
:101A30002B8002762D087906E7C4540F4430F6084F
:101A4000B90603762E08E7540F4430F60819B90298
:101A5000E7764508E5F020E704762B8004762DF440
:101A6000040875F00A844430F608E5F04430F608BE
:101A7000E4F690007575F0402220F71030F61188DA
:101A800083A88220F507F6A88375830022F280F7E9
:101A9000F022AA82AB83ACF07D007E008A828B8329
:101AA0008CF0120B51FFA3AA82AB83EF60070DBD30
:101AB00000EA0E80E78D828E832200000000000085
:00000001FF
