:1000000002002E00000000000000000000000000C0
:1000200000000000000000000000000203057581D0
:1000300082120219E582600302009A780079007A40
:10004000007B007C007D00EC4D601C88828983E48D
:1000500093A3A882A9838A828B83F0A3AA82AB830D
:100060001CBCFFE31D80E07582007583007C007D71
:1000700000EC4D600AE4F0A31CBCFFF51D80F27596
:1000800082007583007C007D00EC4D600AE4F0A3E3
:100090001CBCFFF51D80F212017212089680FE460C
:1000A0006F72776172640A0D004261636B776172EF
:1000B000640A0D004C6566740A0D00526967687425
:1000C0000A0D0053746F700A0D000A726561642096
:1000D000313A202061742070696E20322E333A202C
:1000E00025660D000A7265616420303A20566F6CF7
:1000F000742061742070696E20322E333A20256698
:100100000D001B5B324A0053717561726520776187
:1001100076652067656E657261746F7220666F72B6
:10012000207468652045464D384C42312E0D0A43F7
:100130006865636B2070696E732050322E322061C7
:100140006E642050322E312077697468207468659F
:10015000206F7363696C6C6F73636F70652E0D0A2B
:10016000000A0D00436F6D6D616E643A20002564D6
:100170000900752200752300752400752500E4F53B
:1001800036F537E4F538F539753A01753B00753CBD
:1001900000753D00753E00753F00754000754100DB
:1001A000754201754300754401754500754601753A
:1001B0004700754801754900754A01754B00754C3B
:1001C00000754D00754E00754F007550007551005B
:1001D00075520175530075540075550075560175BB
:1001E0005700755800755900755A01755B00755CAC
:1001F00001755D00755E00755F00756001756100D9
:10020000756200756300756400756500756600753C
:1002100067007568007569002275A7007597DE751F
:1002200097AD75FF8075EF0675A71075C12075A78E
:100230000075A90075A900E5A930E7FB75A903754C
:10024000A903E5A930E7FB43A41075E10175E200BD
:1002500075E340759810758DE6858D8B53890F4336
:100260008920D28ED29975C800438E1075CAE07568
:10027000CBE375CEFF75CFFFD2ADD2CAD2AF7582B8
:100280000022AA82AB83438E407592B87593FF8596
:1002900092948593957591047C007D00C3EC9AED52
:1002A0009B500FE59130E7FB53917F0CBC00ED0DA7
:1002B00080EA75910022AA82AB837C007D00C3ECAA
:1002C0009AED9B502B7E00BE0400501D9000FAC09A
:1002D00002C003C004C005C006120282D006D005C9
:1002E000D004D003D0020E80DE0CBC00D10D80CE35
:1002F000228582BBD2EC20ECFDD2EC20ECFD85BD4A
:100300008285BE8322C0E0C002C003C0D075D00089
:10031000C2CF0522E522249B5003752200AA227B2E
:1003200000C3E5269AE5279B9200B39294AA227B0C
:1003300000C3E5289AE5299B9200B39295AA227BF7
:1003400000C3E52A9AE52B9B9200B39292AA227BE6
:1003500000C3E52C9AE52D9B9200B39293D0D0D0A8
:1003600003D002D0E03275A70075B28075BCF87575
:10037000B91E75E80075DF3F75B300D2EF225389CF
:10038000F0438901C28C221202F112099CAA82ABAD
:1003900083ACF0FDC002C003C004C005906C8B7537
:1003A000F05374401209D8AA82AB83ACF0FDE5810A
:1003B00024FCF581E4C0E074FCC0E0747FC0E0740C
:1003C00046C0E08A828B838CF0ED120B22AA82ABAE
:1003D00083ACF0FDE58124FCF5818A828B838CF06F
:1003E000ED22AA82856AF005F07401800225E0D52D
:1003F000F0FBFB75A720BA0002800ABA0102800F49
:10040000BA021E8014EBF4FA52F1EB42D48012EBE4
:10041000F4FA52F2EB42D58008EBF4FA52F3EB42D5
:10042000CC75A70022752663E4F527E4F528F529A5
:10043000F52AF52B752C63E4F52D749FC0E074004C
:10044000C0E07480C0E0120AF41581158115812284
:10045000E4F526F527752863E4F529752A63E4F5A4
:100460002BE4F52CF52D74A9C0E07400C0E0748075
:10047000C0E0120AF415811581158122E4F526F5F4
:1004800027F528F529752A46E4F52BE4F52CF52DFA
:1004900074B4C0E07400C0E07480C0E0120AF415C7
:1004A000811581158122752663E4F527E4F528F589
:1004B00029F52AF52BF52CF52D74BBC0E07400C08E
:1004C000E07480C0E0120AF415811581158122E4E0
:1004D000F526F527F528F529F52AF52BF52CF52D28
:1004E00074C3C0E07400C0E07480C0E0120AF41568
:1004F000811581158122758A00758C00C28DC28C90
:100500002097FD3097FDD28C7A007B0030970C103D
:100510008D0280F80ABA00F40B80F1C28C8A828BBB
:1005200083120B15AA82AB83ACF0FDC002C003C0DE
:1005300004C00590000075F08074471209D8AA82A3
:10054000AB83ACF0FDE58124FCF581858C82C00293
:10055000C003C004C005120A7BAE82AF83A8F0F9C5
:10056000C006C007C000C00190000075F080744351
:100570001209D8AE82AF83A8F0F9E58124FCF58199
:10058000D005D004D003D002C006C007C000C0010F
:100590008A828B838CF0ED120A86AA82AB83ACF040
:1005A000FDE58124FCF581AE8A7F008E828F83C0B9
:1005B00002C003C004C005120B15AE82AF83A8F0C1
:1005C000F9D005D004D003D002C006C007C000C0D7
:1005D000018A828B838CF0ED120A86AA82AB83ACEF
:1005E000F0FDE58124FCF581C002C003C004C00514
:1005F00090F4FC75F03274341209D8AA82AB83AC43
:10060000F0FDE58124FCF581C002C003C004C005F3
:1006100090000075F07A74441209D8AA82AB83ACBA
:10062000F0FDE58124FCF5818A828B838CF0ED223C
:1006300085827085837185F0727D007E00C3ED95A3
:100640006BEE6480856CF063F08095F050508D0700
:10065000EECF25E0CF33F8EF2570F9E83571FAAB2E
:100660007289828A838BF0120980F9A3120980FAB9
:10067000EF256DFFE8356EF8AB6F8F8288838BF0C6
:10068000120980FFA3120980F8E9B50706EAB50050
:10069000028004900000220DBD00A20E809F9000F9
:1006A0000122756D3A756E00756F40756B04E4F547
:1006B0006C90006275F040120630E5828583F0454B
:1006C000F060030204CF756D42756E00756F407562
:1006D0006B04E4F56C90006275F040120630E58220
:1006E0008583F045F06003020425756D4A756E0040
:1006F000756F40756B04E4F56C90006275F0401204
:100700000630E5828583F045F06003020450756D84
:1007100052756E00756F40756B04E4F56C90006265
:1007200075F040120630E5828583F045F0600302E3
:10073000047C756D5A756E00756F40756B04E4F539
:100740006C90006275F040120630E5828583F045BA
:10075000F060030204A60204CF75820C1202F1E5D8
:10076000828583F045F060F190000012028275826C
:100770000C020387758210120387AA82AB83ACF048
:10078000FDE4C0E0C0E0C0E0743FC0E08A828B833B
:100790008CF0ED1209A8AA82E58124FCF581EA70AB
:1007A0002B120759AA82AB83ACF0FDC002C003C074
:1007B00004C00574CAC0E07400C0E07480C0E012D8
:1007C0000AF4E58124F9F581900001227582101266
:1007D0000387AA82AB83ACF0FDE4C0E0C0E0C0E0D8
:1007E000743FC0E08A828B838CF0ED1209A8AA8244
:1007F000E58124FCF581EA602A120759AA82AB83BD
:10080000ACF0FDC002C003C004C00574E4C0E074D5
:1008100000C0E07480C0E0120AF4E58124F9F5819B
:10082000900000229000640202B6120774E58285EF
:1008300083F045F060F4120774AA82AB83BA0155C5
:10084000BB00527562017563007A017B00C3EA94B4
:1008500004EB64809480503A900064C002C003129C
:1008600002B6D003D0028A04EBCC25E0CC33EC24D2
:1008700062F8C002C003C000120774E5828583F0ED
:10088000D000D003D002F608A6F0180ABA00BE0BBA
:1008900080BB0206A22212037E756A0375820212D1
:1008A00003E21203667402C0E07401C0E07480C009
:1008B000E0120AF41581158115817407C0E07401F6
:1008C000C0E07480C0E0120AF415811581158174AE
:1008D00061C0E07401C0E07480C0E0120AF41581C8
:1008E00015811581C2A11204CF12082A7464C0E0D8
:1008F0007401C0E07480C0E0120AF41581158115FE
:10090000817A007B00C3EA9404EB64809480503ABF
:100910008A04EBCC25E0CC33EC2462F8860408860C
:100920000518C002C003C004C005746EC0E07401A5
:10093000C0E07480C0E0120AF4E58124FBF581D0A8
:1009400003D0020ABA00BE0B80BB7461C0E0740120
:10095000C0E07480C0E0120AF4158115811581751C
:1009600062007563007564007565007566007567E3
:10097000007568007569009003E81202B60208E984
:1009800020F71430F6148883A88220F507E6A883A0
:1009900075830022E280F7E49322E022E4AC83AB8B
:1009A00082FAF9748E020C4AFFA8811818120C7290
:1009B000D2D133E6400730E70B7582002220E706EC
:1009C00075820122C2D1120C54E97003F5822220F3
:1009D000D101B3E433F58222120D1FBC0003020CD7
:1009E000BEEF60FA30D502B2D1E583B4FF03020C4A
:1009F000D4E582B4FF03020CD4258340072482404F
:100A00000B020CBE2483145003020CD4F582EA8D31
:100A1000F0A4A8F0EA8EF0A428F8E435F0F9EB8D04
:100A2000F0A428E935F0F9E433CA8FF0A429F9EAF3
:100A300035F0FAEBF88EF0A429F9EA35F0FAE43350
:100A4000FBEC8DF0A429F9EA35F0FAE43BFBE88FE2
:100A5000F0A42AFAEB35F0FBE433CCFD8EF0A42AA7
:100A6000FAEB35F0FBE43CFCED8FF0A42BFBEC350E
:100A7000F0FC20E703120CEC020C9DE4AC82FBFAC4
:100A8000F97486020C4A120D1F7900E583B58202C3
:100A9000800D5003120D4DE583C39582120D67E55D
:100AA000D0C465D020E117EA2DFAEB3EFBEC3FFC09
:100AB00050097401120D67EC4480FC020C9DC3EADE
:100AC0009DFAEB9EFBEC9FFC500FC3E499F9E49A6E
:100AD000FAE49BFBE49CFCB2D1120CEC020C9D02EC
:100AE000173685821885831985F01A85091B900AA7
:100AF000DF021189C008858108E50824FBF51BE5A4
:100B00000824FBF8861808861908861A900ADF124E
:100B10001189D00822AC83AB827A007900748E02EE
:100B20001754120D1F30D502B2D1BF0009BC00030B
:100B3000020CE1020CD4BC0003020CBEE583B4FF3E
:100B40000BE582B4FF03020CE1020CBEE582B4FFA8
:100B500003020CD4C395835007247F400B020CBEC4
:100B60002480145003020CD4C0E0E4CCCBCAF98D2D
:100B70006A8E6B8F6CEF54F0C4F56D758306856DCE
:100B8000F0EB84F582E9C4F9EAC4FAEBC4FBEC5457
:100B90000FC47803D6FC18EBD6FB18EAD6FA858288
:100BA000F0EDA4A8F0FD8582F0EEA428FEE435F077
:100BB000F88582F0EFA428FFE435F0F8E99DF9EA22
:100BC0009EFAEB9FFBEC98FCAD6AAE6BAF6C30E726
:100BD000101582E92DF9EA3EFAEB3FFBE43CFC807C
:100BE000EDC082D58398C3E933F9EA33FAEB33FBDE
:100BF000EC33FCC3E99DEA9EEB9FEC9400B3E41355
:100C0000F9D002D0E0C44AFAD003D0E0C44BFBD004
:100C100004D0E0F5F0540FC44CFCD082158230F4BF
:100C20000FD3EC13FCEB13FBEA13FAE913F905827B
:100C3000E930E70A74012AFAE43BFBE43CFC020CCD
:100C4000B5FCABF0AA83A982749EC2D1F582120CC6
:100C5000EC020C9D7901AA82E68F82B5821318E618
:100C6000B5F00E18E6B5830918E68A82B5820279D6
:100C70000022B4800FE5F0700AE5837006E582700B
:100C8000027F00EFB6801518B6001018B6000B18DA
:100C9000B6000608080876002208080822B9800372
:100CA000EA13B34010EA2401FAE43BFBE43CFC50B5
:100CB000047C800582BC000EBB000BBA0008E4F582
:100CC000F0F583F58222A2D1E582138CF092F78BA6
:100CD000838A8222E4F583F58275F080F4A2D11331
:100CE00022E4F583F58275F0C0747F227804EC70FD
:100CF00011E58224F8500AF582E4C9CACBFCD8EF8A
:100D000022EC7820058220E713D5820122C3E93343
:100D1000F9EA33FAEB33FBEC33FCD8EA158222AA6A
:100D200082AB83A2F73392D16002D2F7F582ACF0A6
:100D3000E58124F9F8E6FD08E6FE0886F008E6A25B
:100D4000F73392D56002D2F7F583AFF022E582C582
:100D500083F582A2D133A2D592D11392D5ECCFFCE8
:100D6000EBCEFBEACDFA226040F82582500274FFF8
:100D7000F582E824F8501ECCCBCAF9E4CC24F85014
:100D800014CBCAF9E4CB24F8500BCAF9E4CA24F80E
:100D9000500379002224086010F8C3EC13FCEB1315
:100DA000FBEA13FAE913F9D8F122AA8274BBC0E076
:100DB000740DC0E0C00AC00B8A82220511E4B5118F
:100DC00002051222AA8274302AFA24C6500A740735
:100DD0002AFA3001034302208A82020DAAE582FA30
:100DE000C4540FF582C002120DC4D002740F5AF51C
:100DF00082020DC4AA0CAB0DAC0EAD0FAE10751770
:100E000020EE2EFEED235401FF4206EA2AFAEB33D0
:100E1000FBEC33FCED33FDC3EE95134008EEC395B8
:100E200013FE430201D517D98A0C8B0D8C0E8D0F42
:100E30008E1022787FE624D075F00AA4FA7880E636
:100E400024D02AFA787E8603BB2D04C3E49AFA756F
:100E50001301C3E464808AF063F08095F050297533
:100E600017038A0374F62517401C0513E51714248D
:100E700073F8E5172473F98704A604772E1BEBFAA1
:100E80006004051780DE8B02EA30E70D7874860374
:100E90007875A6037874762E0AE515600AE51504C0
:100EA000FB2513F5138005300C02051378738603B8
:100EB000E4BB2D0104FB7006200703300802051374
:100EC000300503020F7A300657EB600C75822DC097
:100ED00002120DAAD002801C30070C75822BC002B2
:100EE000120DAAD002800D30080A758220C00212AD
:100EF0000DAAD00278748604BC2E0C758230C00214
:100F0000120DAAD0021514AC141514C3E5139C409D
:100F100003020FBE758230C002120DAAD00280E714
:100F2000AC141514C3E5139C500C758220C002123A
:100F30000DAAD00280EA78738604BC2D0C75822D30
:100F4000C002120DAAD002801C30070C75822BC083
:100F500002120DAAD002800D30080A758220C0024C
:100F6000120DAAD00278748604BC2E52758230C04D
:100F700002120DAAD00215148044EB600E75822D6A
:100F8000C002120DAAD0021514802030070E7582FF
:100F90002BC002120DAAD0021514800F30080C7558
:100FA0008220C002120DAAD002151478748603BBE9
:100FB0002E0C758230C002120DAAD00215147517BE
:100FC00001C20EE5172473F88603BB450302107BAC
:100FD000BB2E348A03C3E464808BF063F08095F009
:100FE000500F758230C003120DAAD0031B8B0280F4
:100FF000E48B02D20EE5157038200C0302107B75CD
:10100000822E120DAA8074300E278A03EB30E71F60
:10101000C3E464808515F063F08095F0500C758210
:1010200030C003120DAAD00315150B8B0280DD8B87
:1010300002300E0EC3E464808515F063F08095F0F5
:101040005021E5172473F886038B82C002120DAA83
:10105000D002300E0EE5172473F88603BB2E0280F3
:101060000215151514C3E464808515F063F08095AE
:10107000F04003200E050517020FC3C3E46480850A
:1010800015F063F08095F0500A758230120DAA15A4
:101090001580E830050FAA141514EA60087582203F
:1010A000120DAA80F122E5157003300C0D7407258E
:1010B00015FAE514C39AF5148006E51424FAF5141C
:1010C00075170078738602BA2B0F20070C78737699
:1010D000202008057517010514200519AA14C3E47A
:1010E00064808AF063F08095F0500A758220120DBA
:1010F000AA151480E7C20EE5172473F88602BA0019
:10110000028069BA451F3001027665C3E4648085B8
:1011100015F063F08095F0500A758230120DAA1513
:101120001580E8D20EC3E5179402E433FA7014EA8E
:10113000700EC3E464808515F063F08095F0400381
:10114000300E16E5172473F886028A82120DAAE57E
:101150001724FD50121515800E7402B51709300CB6
:101160000675822E120DAA05170210F7300519AA6E
:1011700014C3E464808AF063F08095F0500A7582AD
:1011800020120DAA151480E72285820A85830BE4BC
:10119000F511F512AA18AB19AC1A8A828B838CF060
:1011A000120980FD74012AF518E43BF5198C1AED3B
:1011B000FA700302172FBA25028003021727C2050F
:1011C000C206C207C208C209C20AC20BC20CC202CE
:1011D000C203C2047513007514007515FFAB18AC7B
:1011E00019AD1A8B828C838DF0120980FAA3AB8221
:1011F000AC838B188C198D1ABA25078A82120DAA16
:1012000080928A06BE3000402E8A06EE24C6402711
:1012100074FFB51513E51475F00AA4FEEA24D02E68
:10122000F51470BFD20680BBE51575F00AA4FEEA7E
:1012300024D02EF51580ACBA2E0A74FFB515A4750E
:101240001500809F8A06BE6100400E8A06EE248546
:1012500040075302DFD2018002C201BA200280752A
:10126000BA23030212E4BA2A030212E9BA2B02805B
:101270005FBA2D028055BA4202805FBA430302135F
:101280002EBA4403021469BA4503021483BA460312
:1012900002147FBA4703021487BA4903021469BAD9
:1012A0004C02803BBA4E0302148BBA4F03021470F7
:1012B000BA5003021402BA5303021352BA5503027E
:1012C0001475BA580302147A0214B5D2050211E358
:1012D000D2070211E3D2080211E3D20A0211E3D2CB
:1012E0000B0211E3D20C0211E374FFB51520300A92
:1012F0000BE51B14F8881B86140211E3E51B24FE82
:10130000F8881B8606088607188E140211E3300A37
:101310000BE51B14F8881B86150211E3E51B24FE60
:10132000F8881B8606088607188E150211E3300A16
:101330000AE51B14F8881B8602800FE51B24FEF8C3
:10134000881B8603088604188B028A82120DAA0263
:1013500014BAE51B24FDF8881B860308860408865A
:101360000518188B0C8C0D8D0E8B828C838DF012D2
:1013700018B0AB82AC838B1674FFB51503851615B8
:1013800020051DC3E51695145016E514C39516F5F2
:1013900014AB141514EB6008758220120DAA80F1AD
:1013A000850C82850D83850EF0120980FBFA602979
:1013B000AB151515C3E464808BF063F08095F05095
:1013C000188A82120DAAAB0CAC0DAD0E0BBB00013E
:1013D0000C8B0C8C0D8D0E80C72005030214BAC334
:1013E000E516951440030214BAE514C39516F514D6
:1013F000AB141514EB70030214BA758220120DAAF7
:1014000080EEE51B24FDF8881B8603088604088609
:101410000518188B0C8C0D8D0EE50EFB30E7047A49
:10142000438013EB546060047A50800AEB30E6048A
:101430007A4980027A588A82C002120DAA75823ACD
:10144000120DAA758230120DAA758278120DAAD0DB
:1014500002BA4902800BBA50028006850D82120D35
:10146000DD850C82120DDD8051D20975130A804A88
:10147000751308804575130A8040751310803BD2A0
:10148000028037D2038033D204802FE51B24FDF87D
:10149000881B860308860408860518188B0C8C0D9B
:1014A0008D0E8B828C838DF0E511121897A3E512B7
:1014B00012189780058A82120DAA200206200303C3
:1014C000300470E51B24FCF8881B8603088604089A
:1014D00086050886061818188B0C8C0D8D0E8E0F3D
:1014E000E50CE50DE50EE50F8B828C838DF0EE1299
:1014F000177874FFB51503751506300427747F55EA
:101500000FFB8B10E510EB2BFB8B10E50E30E70685
:1015100074014510F510E5102468400674992510F3
:101520004002D2033003061210A6021194120E33A9
:10153000021194E51370030211947B78300A2BE5B5
:101540001B14F8881BE6FC3395E0FDFEFF8C0C8D28
:101550000D8E0E8F0F20095EAC0C7D007E007F008B
:101560008C0C8D0D8E0E8F0F804C300B1FE51B24C5
:10157000FCF8881B86040886050886060886071876
:1015800018188C0C8D0D8E0E8F0F802AE51B24FEF3
:10159000F8881B860408860518ED3395E0FEFF8C5D
:1015A0000C8D0D8E0E8F0F20090CAC0CAD0D7E0036
:1015B0007F008E0E8F0F300C43E50C450D450E4518
:1015C0000F60397408B5130C758230C003120DAA70
:1015D000D00380287410B51323758230C003120D18
:1015E000AAD00330010C758278C003120DAAD00373
:1015F000800A758258C003120DAAD003300925ACA9
:101600000CAD0DAE0EE50FFF30E717C3E49CFCE414
:101610009DFDE49EFEE49FFF8C0C8D0D8E0E8F0FC2
:101620008002C209751600D20D8B00751000C00033
:10163000120DF4D000200D0DE510C4FCE6FD4CF6B3
:101640001888038002A6100516B20DE50C450D455D
:101650000E450F70D68803E514700375140120063B
:101660001A200517E51604FCC39514500E75822048
:10167000C003120DAAD003151480E930090E75823B
:101680002DC003120DAAD00315148024E516602086
:1016900030070E75822BC003120DAAD003151480DB
:1016A0000F30080C758220C003120DAAD003151448
:1016B00020051EAC141514C3E5169C5027300604F3
:1016C0007C3080027C208C82C003120DAAD0038063
:1016D000E2C3E51695145009E514C39516F5148078
:1016E000037514008B00AB161516EB6022B20D20AB
:1016F0000D0A08E6C4540FFB8B1080078603740F95
:101700005BF510851082C000120DC4D00080D72078
:101710000503021194AB141514EB700302119475B8
:101720008220120DAA80EE8A82120DAA02119485DF
:10173000118285128322AA82BA0A0810990280FBBC
:1017400075990D10990280FB8A9922FCABF0AA834F
:10175000A982749EF582C2D1EC30E716D2D1E9F4A9
:101760002401F9EAF43400FAEBF43400FBECF4342D
:1017700000FC120CEC020C9DC0E0F845824583454C
:10178000F07009F5F0FBFCFDFE021846E823A2F715
:1017900092E0F8A982AA83D2F7ABF07C007E07C35F
:1017A000749798404074FF2EFE740A89F0A4F9855E
:1017B000F082740A8AF0A4FA85F083740A8BF0A48C
:1017C000FB740529F9EA3582FAEB3583FB740035A1
:1017D000F0FCC3EC13FCEB13FBEA13FAE913F90872
:1017E000EC70EF80BAE8C3947FF88B838EF0E4FB53
:1017F000FCFDFEFF08C3E933F9EA33FAE58333F56C
:1018000083EB3BD4FBEC3CD4FCED3DD4FDEE3ED46D
:10181000FEEF3FD4FF602D05F074052BD4FBE43CB4
:10182000D4FCE43DD4FDE43ED4FEE43FD4FF758215
:1018300004C3EF13FFEE13FEED13FDEC13FCEB13EB
:10184000FBD582EDD8AF7873D0E020E704762B800B
:1018500002762D087906E7C4540F4430F608B9061D
:1018600003762E08E7540F4430F60819B902E776DC
:101870004508E5F020E704762B8004762DF4040873
:1018800075F00A844430F608E5F04430F608E4F6D2
:1018900090007375F0402220F71030F6118883A86D
:1018A0008220F507F6A88375830022F280F7F022E4
:1018B000AA82AB83ACF07D007E008A828B838CF0A1
:1018C000120980FFA3AA82AB83EF60070DBD00EA77
:1018D0000E80E78D828E8322000000000000000051
:00000001FF
