:1000000002002E00000000000000000000000000C0
:10002000000000000000000000000002029E758138
:10003000781201B2E582600302009A780079007AB2
:10004000007B007C007D00EC4D601C88828983E48D
:1000500093A3A882A9838A828B83F0A3AA82AB830D
:100060001CBCFFE31D80E07582007583007C007D71
:1000700000EC4D600AE4F0A31CBCFFF51D80F27596
:1000800082007583007C007D00EC4D600AE4F0A3E3
:100090001CBCFFF51D80F212010B1207EF80FE1B46
:1000A0005B324A0053717561726520776176652015
:1000B00067656E657261746F7220666F7220746816
:1000C000652045464D384C42312E0D0A4368656324
:1000D0006B2070696E732050322E3220616E642066
:1000E00050322E31207769746820746865206F73F0
:1000F00063696C6C6F73636F70652E0D0A000A0084
:100100003C4E4F20464C4F41543E00752200752313
:1001100000752400752500E4F536F537E4F538F56B
:1001200039753A01753B00753C00753D00753E0020
:10013000753F0075400075410075420175430075BB
:1001400044017545007546017547007548017549BC
:1001500000754A01754B00754C00754D00754E00D9
:10016000754F00755000755100755201755300753B
:10017000540075550075560175570075580075592E
:1001800000755A01755B00755C01755D00755E0058
:10019000755F0075600175610075620075630075BB
:1001A000640075650075660075670075680075699F
:1001B000002275A7007597DE7597AD75FF8075EF06
:1001C0000675A71075C12075A70075A90075A9004F
:1001D000E5A930E7FB75A90375A903E5A930E7FB9D
:1001E00043A41075E10175E20075E3407598107540
:1001F0008DE6858D8B53890F438920D28ED29975D8
:10020000C800438E1075CAE075CBE375CEFF75CF7D
:10021000FFD2ADD2CAD2AF75820022AA82AB83438D
:100220008E407592B87593FF8592948593957591DC
:10023000047C007D00C3EC9AED9B500FE59130E704
:10024000FB53917F0CBC00ED0D80EA75910022AA52
:1002500082AB837C007D00C3EC9AED9B502B7E002B
:10026000BE0400501D9000FAC002C003C004C005C7
:10027000C00612021BD006D005D004D003D0020E57
:1002800080DE0CBC00D10D80CE228582BBD2EC205A
:10029000ECFDD2EC20ECFD85BD8285BE8322C0E062
:1002A000C002C003C0D075D000C2CF0522E5222411
:1002B0009B5003752200AA227B00C3E5269AE527FE
:1002C0009B9200B39294AA227B00C3E5289AE52969
:1002D0009B9200B39293AA227B00C3E5269AE5275E
:1002E0009B9200B39296AA227B00C3E5289AE52947
:1002F0009B9200B39295D0D0D003D002D0E032755B
:10030000A70075B28075BCF875B91E75E80075DF79
:100310003F75B300D2EF225389F0438901C28C228A
:1003200012028A120857AA82AB83ACF0FDC002C049
:1003300003C004C005906C8B75F05374401208C361
:10034000AA82AB83ACF0FDE58124FCF581E4C0E03A
:1003500074FCC0E0747FC0E07446C0E08A828B8386
:100360008CF0ED120A0DAA82AB83ACF0FDE581247E
:10037000FCF5818A828B838CF0ED22AA82856AF05B
:1003800005F07401800225E0D5F0FBFB75A720BACB
:100390000002800ABA0102800FBA021E8014EBF438
:1003A000FA52F1EB42D48012EBF4FA52F2EB42D55E
:1003B0008008EBF4FA52F3EB42CC75A700227526C5
:1003C00063E4F527E4F528F529F52AF52B752C6368
:1003D000E4F52D22E4F526F527752863E4F5297563
:1003E0002A63E4F52BE4F52CF52D22E4F526F52718
:1003F000F528F529752A46E4F52BE4F52CF52D2290
:10040000752663E4F527E4F528F529F52AF52BF59B
:100410002CF52D22E4F526F527F528F529F52AF502
:100420002BF52CF52D22758A00758C00C28DC28C9F
:100430002097FD3097FDD28C7A007B0030970C100E
:100440008D0280F80ABA00F40B80F1C28C8A828B8C
:1004500083120A00AA82AB83ACF0FDC002C003C0C5
:1004600004C00590000075F08074471208C3AA828A
:10047000AB83ACF0FDE58124FCF581858C82C00264
:10048000C003C004C005120966AE82AF83A8F0F9AC
:10049000C006C007C000C00190000075F080744322
:1004A0001208C3AE82AF83A8F0F9E58124FCF58180
:1004B000D005D004D003D002C006C007C000C001E0
:1004C0008A828B838CF0ED120971AA82AB83ACF027
:1004D000FDE58124FCF581AE8A7F008E828F83C08A
:1004E00002C003C004C005120A00AE82AF83A8F0A8
:1004F000F9D005D004D003D002C006C007C000C0A8
:10050000018A828B838CF0ED120971AA82AB83ACD5
:10051000F0FDE58124FCF581C002C003C004C005E4
:1005200090F4FC75F03274341208C3AA82AB83AC29
:10053000F0FDE58124FCF581C002C003C004C005C4
:1005400090000075F07A74441208C3AA82AB83ACA1
:10055000F0FDE58124FCF5818A828B838CF0ED220D
:1005600085827085837185F0727D007E00C3ED9574
:100570006BEE6480856CF063F08095F050508D07D1
:10058000EECF25E0CF33F8EF2570F9E83571FAABFF
:100590007289828A838BF012083BF9A312083BFA16
:1005A000EF256DFFE8356EF8AB6F8F8288838BF097
:1005B00012083BFFA312083BF8E9B50706EAB500AD
:1005C000028004900000220DBD00A20E809F9000CA
:1005D0000122756D3A756E00756F40756B04E4F518
:1005E0006C90006275F040120560E5828583F045ED
:1005F000F06003020414756D42756E00756F4075EE
:100600006B04E4F56C90006275F040120560E582C1
:100610008583F045F060030203BE756D4A756E0078
:10062000756F40756B04E4F56C90006275F04012D4
:100630000560E5828583F045F060030203D4756DA3
:1006400052756E00756F40756B04E4F56C90006236
:1006500075F040120560E5828583F045F060030285
:1006600003EB756D5A756E00756F40756B04E4F59C
:100670006C90006275F040120560E5828583F0455C
:10068000F0600302040002041475820C12028AE571
:10069000828583F045F070F175820C12028AE58242
:1006A0008583F045F060F190000012021B75820C0A
:1006B00002032075820C120320AA82AB83ACF0FDEA
:1006C000E4C0E0C0E0C0E0C0E08A828B838CF0ED43
:1006D000120893AA82E58124FCF581EA702F7582C5
:1006E0000C120320AA82AB83ACF0FDE4C0E0C0E0B2
:1006F000C0E0C0E08A828B838CF0ED120863AA828E
:10070000E58124FCF581EA70049000012275820CD9
:10071000120320AA82AB83ACF0FDE4C0E0C0E0C0CD
:10072000E0C0E08A828B838CF0ED120893AA82E508
:100730008124FCF581EA702F75820C120320AA82B5
:10074000AB83ACF0FDE4C0E0C0E0C0E0C0E08A8272
:100750008B838CF0ED120863AA82E58124FCF5817D
:10076000EA700490000022900000221206B3E58295
:100770008583F045F060F41206B3AA82AB83BA0118
:100780006DBB006A7562017563007A017B00C3EA84
:100790009404EB64809480503A900005C002C0033A
:1007A00012024FD003D0028A04EBCC25E0CC33EC0C
:1007B0002462F8C002C003C0001206B3E58285833C
:1007C000F0D000D003D002F608A6F0180ABA00BE96
:1007D0000B80BB1205D275620075630075640075ED
:1007E00065007566007567007568007569002212FE
:1007F00003171202FF749FC0E07400C0E07480C051
:10080000E01209DF15811581158174A4C0E0740020
:10081000C0E07480C0E01209DF1581158115817474
:10082000FEC0E07400C0E07480C0E01209DF1581F2
:1008300015811581C2A112076B80FB20F71430F6D9
:10084000148883A88220F507E6A88375830022E236
:1008500080F7E49322E022E4AC83AB82FAF9748E51
:10086000020B35FFA8811818120B5DD2D133E64078
:100870000730E70B7582012220E70675820022C24D
:10088000D1120B3FE97003F5822230D101B3E4337A
:10089000F58222FFA8811818120B5DD2D133E640F1
:1008A0000730E70B7582002220E70675820122C21D
:1008B000D1120B3FE97003F5822220D101B3E4335A
:1008C000F58222120C0ABC0003020BA9EF60FA3079
:1008D000D502B2D1E583B4FF03020BBFE582B4FFBA
:1008E00003020BBF258340072482400B020BA9247F
:1008F00083145003020BBFF582EA8DF0A4A8F0EA3E
:100900008EF0A428F8E435F0F9EB8DF0A428E93551
:10091000F0F9E433CA8FF0A429F9EA35F0FAEBF8DC
:100920008EF0A429F9EA35F0FAE433FBEC8DF0A45B
:1009300029F9EA35F0FAE43BFBE88FF0A42AFAEB58
:1009400035F0FBE433CCFD8EF0A42AFAEB35F0FB56
:10095000E43CFCED8FF0A42BFBEC35F0FC20E7032E
:10096000120BD7020B88E4AC82FBFAF97486020BF7
:1009700035120C0A7900E583B58202800D5003120E
:100980000C38E583C39582120C52E5D0C465D020A3
:10099000E117EA2DFAEB3EFBEC3FFC500974011223
:1009A0000C52EC4480FC020B88C3EA9DFAEB9EFBE0
:1009B000EC9FFC500FC3E499F9E49AFAE49BFBE442
:1009C0009CFCB2D1120BD7020B880212B58582189B
:1009D00085831985F01A85091B9009CA020D1EC06E
:1009E00008858108E50824FBF51BE50824FBF8864B
:1009F0001808861908861A9009CA120D1ED00822F6
:100A0000AC83AB827A007900748E0212D3120C0A86
:100A100030D502B2D1BF0009BC0003020BCC020BDF
:100A2000BFBC0003020BA9E583B4FF0BE582B4FF52
:100A300003020BCC020BA9E582B4FF03020BBFC378
:100A400095835007247F400B020BA9248014500388
:100A5000020BBFC0E0E4CCCBCAF98D6A8E6B8F6C01
:100A6000EF54F0C4F56D758306856DF0EB84F58267
:100A7000E9C4F9EAC4FAEBC4FBEC540FC47803D61A
:100A8000FC18EBD6FB18EAD6FA8582F0EDA4A8F0A4
:100A9000FD8582F0EEA428FEE435F0F88582F0EFC3
:100AA000A428FFE435F0F8E99DF9EA9EFAEB9FFBF4
:100AB000EC98FCAD6AAE6BAF6C30E7101582E92D97
:100AC000F9EA3EFAEB3FFBE43CFC80EDC082D583C3
:100AD00098C3E933F9EA33FAEB33FBEC33FCC3E9AF
:100AE0009DEA9EEB9FEC9400B3E413F9D002D0E0B2
:100AF000C44AFAD003D0E0C44BFBD004D0E0F5F0F8
:100B0000540FC44CFCD082158230F40FD3EC13FC8C
:100B1000EB13FBEA13FAE913F90582E930E70A74EB
:100B2000012AFAE43BFBE43CFC020BA0FCABF0AA7C
:100B300083A982749EC2D1F582120BD7020B8879E9
:100B400001AA82E68F82B5821318E6B5F00E18E688
:100B5000B5830918E68A82B58202790022B4800F33
:100B6000E5F0700AE5837006E58270027F00EFB65B
:100B7000801518B6001018B6000B18B60006080845
:100B80000876002208080822B98003EA13B340104F
:100B9000EA2401FAE43BFBE43CFC50047C8005823F
:100BA000BC000EBB000BBA0008E4F5F0F583F5823B
:100BB00022A2D1E582138CF092F78B838A8222E401
:100BC000F583F58275F080F4A2D11322E4F583F564
:100BD0008275F0C0747F227804EC7011E58224F8ED
:100BE000500AF582E4C9CACBFCD8EF22EC78200584
:100BF0008220E713D5820122C3E933F9EA33FAEB05
:100C000033FBEC33FCD8EA158222AA82AB83A2F72D
:100C10003392D16002D2F7F582ACF0E58124F9F885
:100C2000E6FD08E6FE0886F008E6A2F73392D560F6
:100C300002D2F7F583AFF022E582C583F582A2D117
:100C400033A2D592D11392D5ECCFFCEBCEFBEACDFB
:100C5000FA226040F82582500274FFF582E824F8F9
:100C6000501ECCCBCAF9E4CC24F85014CBCAF9E41A
:100C7000CB24F8500BCAF9E4CA24F85003790022B7
:100C800024086010F8C3EC13FCEB13FBEA13FAE939
:100C900013F9D8F122AA8274A6C0E0740CC0E0C097
:100CA0000AC00B8A82220511E4B51102051222AA9C
:100CB0008274302AFA24C6500A74072AFA300103D3
:100CC0004302208A82020C95E582FAC4540FF58211
:100CD000C002120CAFD002740F5AF582020CAFAAF8
:100CE0000CAB0DAC0EAD0FAE10751720EE2EFEED59
:100CF000235401FF4206EA2AFAEB33FBEC33FCED06
:100D000033FDC3EE95134008EEC39513FE43020175
:100D1000D517D98A0C8B0D8C0E8D0F8E10228582E3
:100D20000A85830BE4F511F512AA18AB19AC1A8ADF
:100D3000828B838CF012083BFD74012AF518E43B8A
:100D4000F5198C1AEDFA70030212AEBA250280036F
:100D50000212A6C205C206C207C208C209C20AC25E
:100D60000BC20CC202C203C20475130075140075D5
:100D700015FFAB18AC19AD1A8B828C838DF012085D
:100D80003BFAA3AB82AC838B188C198D1ABA25075A
:100D90008A82120C9580928A06BE3000402E8A0606
:100DA000EE24C6402774FFB51513E51475F00AA4A8
:100DB000FEEA24D02EF51470BFD20680BBE515756F
:100DC000F00AA4FEEA24D02EF51580ACBA2E0A74DF
:100DD000FFB515A4751500809F8A06BE6100400E00
:100DE0008A06EE248540075302DFD2018002C20149
:100DF000BA20028075BA2303020E79BA2A03020EC2
:100E00007EBA2B02805FBA2D028055BA4202805F03
:100E1000BA4303020EC3BA4403020FFEBA450302EB
:100E20001018BA4603021014BA470302101CBA493C
:100E300003020FFEBA4C02803BBA4E03021020BAE6
:100E40004F03021005BA5003020F97BA5303020E64
:100E5000E7BA550302100ABA580302100F02104AEB
:100E6000D205020D78D207020D78D208020D78D291
:100E70000A020D78D20B020D78D20C020D7874FFA5
:100E8000B51520300A0BE51B14F8881B8614020DDB
:100E900078E51B24FEF8881B8606088607188E1442
:100EA000020D78300A0BE51B14F8881B8615020D1D
:100EB00078E51B24FEF8881B8606088607188E1521
:100EC000020D78300A0AE51B14F8881B8602800F91
:100ED000E51B24FEF8881B8603088604188B028A0B
:100EE00082120C9502104FE51B24FDF8881B860327
:100EF00008860408860518188B0C8C0D8D0E8B82C5
:100F00008C838DF0121310AB82AC838B1674FFB5FB
:100F1000150385161520051DC3E51695145016E515
:100F200014C39516F514AB141514EB6008758220E4
:100F3000120C9580F1850C82850D83850EF01208C8
:100F40003BFBFA6029AB151515C3E464808BF06395
:100F5000F08095F050188A82120C95AB0CAC0DAD58
:100F60000E0BBB00010C8B0C8C0D8D0E80C7200569
:100F70000302104FC3E5169514400302104FE51409
:100F8000C39516F514AB141514EB700302104F75CE
:100F90008220120C9580EEE51B24FDF8881B860349
:100FA00008860408860518188B0C8C0D8D0EE50E2E
:100FB000FB30E7047A438013EB546060047A50807E
:100FC0000AEB30E6047A4980027A588A82C002121B
:100FD0000C9575823A120C95758230120C957582BB
:100FE00078120C95D002BA4902800BBA50028006E2
:100FF000850D82120CC8850C82120CC88051D20952
:1010000075130A804A751308804575130A80407568
:101010001310803BD2028037D2038033D204802F5A
:10102000E51B24FDF8881B8603088604088605183E
:10103000188B0C8C0D8D0E8B828C838DF0E511122C
:1010400012F7A3E5121212F780058A82120C95207E
:10105000020620030330045AE51B24FCF8881B8693
:10106000030886040886050886061818188B0C8C59
:101070000D8D0E8E0F750C00750D01750E80850C93
:101080001C850D1D850E1E7401251CFEE4351DFFFB
:10109000AB1E8E0C8F0D8B0E851C82851D83851ECD
:1010A000F012083BFBFA7003020D298A82120C959C
:1010B00080CCE5137003020D297B78300A2BE51BE9
:1010C00014F8881BE6FC3395E0FDFEFF8C0C8D0DBB
:1010D0008E0E8F0F20095EAC0C7D007E007F008C91
:1010E0000C8D0D8E0E8F0F804C300B1FE51B24FCDA
:1010F000F8881B86040886050886060886071818DF
:10110000188C0C8D0D8E0E8F0F802AE51B24FEF897
:10111000881B860408860518ED3395E0FEFF8C0CCD
:101120008D0D8E0E8F0F20090CAC0CAD0D7E007F47
:10113000008E0E8F0F300C43E50C450D450E450F0C
:1011400060397408B5130C758230C003120C95D049
:101150000380287410B51323758230C003120C95D8
:10116000D00330010C758278C003120C95D0038037
:101170000A758258C003120C95D003300925AC0CB7
:10118000AD0DAE0EE50FFF30E717C3E49CFCE49D08
:10119000FDE49EFEE49FFF8C0C8D0D8E0E8F0F8064
:1011A00002C209751600D20D8B00751000C0001226
:1011B0000CDFD000200D0DE510C4FCE6FD4CF61848
:1011C00088038002A6100516B20DE50C450D450EEC
:1011D000450F70D68803E514700375140120061AB4
:1011E000200517E51604FCC39514500E758220C027
:1011F00003120C95D003151480E930090E75822D69
:10120000C003120C95D00315148024E5166020301D
:10121000070E75822BC003120C95D0031514800F96
:1012200030080C758220C003120C95D003151420D1
:10123000051EAC141514C3E5169C50273006047C1B
:101240003080027C208C82C003120C95D00380E297
:10125000C3E51695145009E514C39516F5148003DB
:101260007514008B00AB161516EB6022B20D200D25
:101270000A08E6C4540FFB8B1080078603740F5BCB
:10128000F510851082C000120CAFD00080D7200569
:1012900003020D29AB141514EB7003020D2975829E
:1012A00020120C9580EE8A82120C95020D29851170
:1012B0008285128322AA82BA0A0810990280FB75DD
:1012C000990D10990280FB8A9922FCABF0AA83A9A0
:1012D00082749EF582C2D1EC30E716D2D1E9F424B3
:1012E00001F9EAF43400FAEBF43400FBECF43400D6
:1012F000FC120BD7020B8820F71030F6118883A858
:101300008220F507F6A88375830022F280F7F02289
:10131000AA82AB83ACF07D007E008A828B838CF046
:1013200012083BFFA3AA82AB83EF60070DBD00EA62
:101330000E80E78D828E83220000000000000000F6
:00000001FF
