:1000000002002E00000000000000000000000000C0
:1000200000000000000000000000000203057581D0
:1000300082120219E582600302009A780079007A40
:10004000007B007C007D00EC4D601C88828983E48D
:1000500093A3A882A9838A828B83F0A3AA82AB830D
:100060001CBCFFE31D80E07582007583007C007D71
:1000700000EC4D600AE4F0A31CBCFFF51D80F27596
:1000800082007583007C007D00EC4D600AE4F0A3E3
:100090001CBCFFF51D80F212017212086680FE463C
:1000A0006F72776172640A0D004261636B776172EF
:1000B000640A0D004C6566740A0D00526967687425
:1000C0000A0D0053746F700A0D000A726561642096
:1000D000313A202061742070696E20312E363A202A
:1000E00025660D000A7265616420303A20566F6CF7
:1000F000742061742070696E20312E363A20256696
:100100000D001B5B324A0053717561726520776187
:1001100076652067656E657261746F7220666F72B6
:10012000207468652045464D384C42312E0D0A43F7
:100130006865636B2070696E732050322E322061C7
:100140006E642050322E312077697468207468659F
:10015000206F7363696C6C6F73636F70652E0D0A2B
:10016000000A0D00436F6D6D616E643A20002564D6
:100170000900752200752300752400752500E4F53B
:1001800036F537E4F538F539753A01753B00753CBD
:1001900000753D00753E00753F00754000754100DB
:1001A000754201754300754401754500754601753A
:1001B0004700754801754900754A01754B00754C3B
:1001C00000754D00754E00754F007550007551005B
:1001D00075520175530075540075550075560175BB
:1001E0005700755800755900755A01755B00755CAC
:1001F00001755D00755E00755F00756001756100D9
:10020000756200756300756400756500756600753C
:1002100067007568007569002275A7007597DE751F
:1002200097AD75FF8075EF0675A71075C12075A78E
:100230000075A90075A900E5A930E7FB75A903754C
:10024000A903E5A930E7FB43A41075E10175E200BD
:1002500075E340759810758DE6858D8B53890F4336
:100260008920D28ED29975C800438E1075CAE07568
:10027000CBE375CEFF75CFFFD2ADD2CAD2AF7582B8
:100280000022AA82AB83438E407592B87593FF8596
:1002900092948593957591047C007D00C3EC9AED52
:1002A0009B500FE59130E7FB53917F0CBC00ED0DA7
:1002B00080EA75910022AA82AB837C007D00C3ECAA
:1002C0009AED9B502B7E00BE0400501D9000FAC09A
:1002D00002C003C004C005C006120282D006D005C9
:1002E000D004D003D0020E80DE0CBC00D10D80CE35
:1002F000228582BBD2EC20ECFDD2EC20ECFD85BD4A
:100300008285BE8322C0E0C002C003C0D075D00089
:10031000C2CF0522E522249B5003752200AA227B2E
:1003200000C3E5269AE5279B9200B39294AA227B0C
:1003300000C3E5289AE5299B9200B39293AA227BF9
:1003400000C3E5269AE5279B9200B39296AA227BEA
:1003500000C3E5289AE5299B9200B39295D0D0D0AE
:1003600003D002D0E03275A70075B28075BCF87575
:10037000B91E75E80075DF3F75B300D2EF225389CF
:10038000F0438901C28C221202F1120963AA82ABE6
:1003900083ACF0FDC002C003C004C005906C8B7537
:1003A000F053744012099FAA82AB83ACF0FDE58143
:1003B00024FCF581E4C0E074FCC0E0747FC0E0740C
:1003C00046C0E08A828B838CF0ED120AE9AA82ABE8
:1003D00083ACF0FDE58124FCF5818A828B838CF06F
:1003E000ED22AA82856AF005F07401800225E0D52D
:1003F000F0FBFB75A720BA0002800ABA0102800F49
:10040000BA021E8014EBF4FA52F1EB42D48012EBE4
:10041000F4FA52F2EB42D58008EBF4FA52F3EB42D5
:10042000CC75A70022752663E4F527E4F528F529A5
:10043000F52AF52B752C63E4F52D749FC0E074004C
:10044000C0E07480C0E0120ABB15811581158122BD
:10045000E4F526F527752863E4F529752A63E4F5A4
:100460002BE4F52CF52D74A9C0E07400C0E0748075
:10047000C0E0120ABB15811581158122E4F526F52D
:1004800027F528F529752A46E4F52BE4F52CF52DFA
:1004900074B4C0E07400C0E07480C0E0120ABB1500
:1004A000811581158122752663E4F527E4F528F589
:1004B00029F52AF52BF52CF52D74BBC0E07400C08E
:1004C000E07480C0E0120ABB15811581158122E419
:1004D000F526F527F528F529F52AF52BF52CF52D28
:1004E00074C3C0E07400C0E07480C0E0120ABB15A1
:1004F000811581158122758A00758C00C28DC28C90
:100500002097FD3097FDD28C7A007B0030970C103D
:100510008D0280F80ABA00F40B80F1C28C8A828BBB
:1005200083120ADCAA82AB83ACF0FDC002C003C018
:1005300004C00590000075F080744712099FAA82DC
:10054000AB83ACF0FDE58124FCF581858C82C00293
:10055000C003C004C005120A42AE82AF83A8F0F9FE
:10056000C006C007C000C00190000075F080744351
:1005700012099FAE82AF83A8F0F9E58124FCF581D2
:10058000D005D004D003D002C006C007C000C0010F
:100590008A828B838CF0ED120A4DAA82AB83ACF079
:1005A000FDE58124FCF581AE8A7F008E828F83C0B9
:1005B00002C003C004C005120ADCAE82AF83A8F0FB
:1005C000F9D005D004D003D002C006C007C000C0D7
:1005D000018A828B838CF0ED120A4DAA82AB83AC28
:1005E000F0FDE58124FCF581C002C003C004C00514
:1005F00090F4FC75F032743412099FAA82AB83AC7C
:10060000F0FDE58124FCF581C002C003C004C005F3
:1006100090000075F07A744412099FAA82AB83ACF3
:10062000F0FDE58124FCF5818A828B838CF0ED223C
:1006300085827085837185F0727D007E00C3ED95A3
:100640006BEE6480856CF063F08095F050508D0700
:10065000EECF25E0CF33F8EF2570F9E83571FAAB2E
:100660007289828A838BF0120947F9A3120947FA2B
:10067000EF256DFFE8356EF8AB6F8F8288838BF0C6
:10068000120947FFA3120947F8E9B50706EAB500C2
:10069000028004900000220DBD00A20E809F9000F9
:1006A0000122756D3A756E00756F40756B04E4F547
:1006B0006C90006275F040120630E5828583F0454B
:1006C000F060030204CF756D42756E00756F407562
:1006D0006B04E4F56C90006275F040120630E58220
:1006E0008583F045F06003020425756D4A756E0040
:1006F000756F40756B04E4F56C90006275F0401204
:100700000630E5828583F045F06003020450756D84
:1007100052756E00756F40756B04E4F56C90006265
:1007200075F040120630E5828583F045F0600302E3
:10073000047C756D5A756E00756F40756B04E4F539
:100740006C90006275F040120630E5828583F045BA
:10075000F060030204A60204CF75820C1202F1E5D8
:10076000828583F045F060F190000012028275826C
:100770000C020387120759AA82AB83ACF0FDE4C0D8
:10078000E0C0E0C0E0743FC0E08A828B838CF0ED73
:1007900012096FAA82E58124FCF581EA702B120709
:1007A00059AA82AB83ACF0FDC002C003C004C005EF
:1007B00074CAC0E07400C0E07480C0E0120ABBE5F7
:1007C0008124F9F58190000122120759AA82AB8396
:1007D000ACF0FDC002C003C004C00574E4C0E07406
:1007E00000C0E07480C0E0120ABBE58124F9F58105
:1007F0009000002290000A0202B6120774E582857A
:1008000083F045F060F4120774AA82AB83BA0155F5
:10081000BB00527562017563007A017B00C3EA94E4
:1008200004EB64809480503A90000AC002C0031226
:1008300002B6D003D0028A04EBCC25E0CC33EC2402
:1008400062F8C002C003C000120774E5828583F01D
:10085000D000D003D002F608A6F0180ABA00BE0BEA
:1008600080BB0206A22212037E756A0675820112FF
:1008700003E21203667402C0E07401C0E07480C039
:10088000E0120ABB1581158115817407C0E074015F
:10089000C0E07480C0E0120ABB1581158115817417
:1008A00061C0E07401C0E07480C0E0120ABB158131
:1008B00015811581C2A11207FA7464C0E07401C0E9
:1008C000E07480C0E0120ABB1581158115817A00A1
:1008D0007B00C3EA9404EB64809480503A8A04EB72
:1008E000CC25E0CC33EC2462F8860408860518C0D9
:1008F00002C003C004C005746EC0E07401C0E0749F
:1009000080C0E0120ABBE58124FBF581D003D00250
:100910000ABA00BE0B80BB7461C0E07401C0E07411
:1009200080C0E0120ABB15811581158175620075C2
:10093000630075640075650075660075670075680D
:10094000007569000208B620F71430F6148883A8F1
:100950008220F507E6A88375830022E280F7E493FE
:1009600022E022E4AC83AB82FAF9748E020C11FF10
:10097000A8811818120C39D2D133E6400730E70BA2
:100980007582002220E70675820122C2D1120C1B5B
:10099000E97003F5822220D101B3E433F5822212FB
:1009A0000CE6BC0003020C85EF60FA30D502B2D130
:1009B000E583B4FF03020C9BE582B4FF03020C9BAA
:1009C000258340072482400B020C852483145003A6
:1009D000020C9BF582EA8DF0A4A8F0EA8EF0A42820
:1009E000F8E435F0F9EB8DF0A428E935F0F9E433BB
:1009F000CA8FF0A429F9EA35F0FAEBF88EF0A429B1
:100A0000F9EA35F0FAE433FBEC8DF0A429F9EA3584
:100A1000F0FAE43BFBE88FF0A42AFAEB35F0FBE4B4
:100A200033CCFD8EF0A42AFAEB35F0FBE43CFCED70
:100A30008FF0A42BFBEC35F0FC20E703120CB30283
:100A40000C64E4AC82FBFAF97486020C11120CE619
:100A50007900E583B58202800D5003120D14E58301
:100A6000C39582120D2EE5D0C465D020E117EA2D82
:100A7000FAEB3EFBEC3FFC50097401120D2EEC44E6
:100A800080FC020C64C3EA9DFAEB9EFBEC9FFC50D9
:100A90000FC3E499F9E49AFAE49BFBE49CFCB2D11D
:100AA000120CB3020C640216FD8582188583198529
:100AB000F01A85091B900AA6021150C0088581080A
:100AC000E50824FBF51BE50824FBF88618088619C1
:100AD00008861A900AA6121150D00822AC83AB8265
:100AE0007A007900748E02171B120CE630D502B220
:100AF000D1BF0009BC0003020CA8020C9BBC000380
:100B0000020C85E583B4FF0BE582B4FF03020CA859
:100B1000020C85E582B4FF03020C9BC3958350074A
:100B2000247F400B020C852480145003020C9BC0D0
:100B3000E0E4CCCBCAF98D6A8E6B8F6CEF54F0C4B5
:100B4000F56D758306856DF0EB84F582E9C4F9EAED
:100B5000C4FAEBC4FBEC540FC47803D6FC18EBD6F4
:100B6000FB18EAD6FA8582F0EDA4A8F0FD8582F0A4
:100B7000EEA428FEE435F0F88582F0EFA428FFE427
:100B800035F0F8E99DF9EA9EFAEB9FFBEC98FCAD95
:100B90006AAE6BAF6C30E7101582E92DF9EA3EFAC8
:100BA000EB3FFBE43CFC80EDC082D58398C3E93386
:100BB000F9EA33FAEB33FBEC33FCC3E99DEA9EEB35
:100BC0009FEC9400B3E413F9D002D0E0C44AFAD009
:100BD00003D0E0C44BFBD004D0E0F5F0540FC44C7C
:100BE000FCD082158230F40FD3EC13FCEB13FBEA3C
:100BF00013FAE913F90582E930E70A74012AFAE4E5
:100C00003BFBE43CFC020C7CFCABF0AA83A98274A5
:100C10009EC2D1F582120CB3020C647901AA82E65D
:100C20008F82B5821318E6B5F00E18E6B583091861
:100C3000E68A82B58202790022B4800FE5F0700A5C
:100C4000E5837006E58270027F00EFB6801518B666
:100C5000001018B6000B18B6000608080876002227
:100C600008080822B98003EA13B34010EA2401FA05
:100C7000E43BFBE43CFC50047C800582BC000EBBE2
:100C8000000BBA0008E4F5F0F583F58222A2D1E565
:100C900082138CF092F78B838A8222E4F583F582AB
:100CA00075F080F4A2D11322E4F583F58275F0C0CB
:100CB000747F227804EC7011E58224F8500AF582E2
:100CC000E4C9CACBFCD8EF22EC7820058220E713D8
:100CD000D5820122C3E933F9EA33FAEB33FBEC3373
:100CE000FCD8EA158222AA82AB83A2F73392D160A4
:100CF00002D2F7F582ACF0E58124F9F8E6FD08E6CA
:100D0000FE0886F008E6A2F73392D56002D2F7F526
:100D100083AFF022E582C583F582A2D133A2D592BA
:100D2000D11392D5ECCFFCEBCEFBEACDFA2260409A
:100D3000F82582500274FFF582E824F8501ECCCBCF
:100D4000CAF9E4CC24F85014CBCAF9E4CB24F85007
:100D50000BCAF9E4CA24F850037900222408601071
:100D6000F8C3EC13FCEB13FBEA13FAE913F9D8F11F
:100D700022AA827482C0E0740DC0E0C00AC00B8A4F
:100D800082220511E4B51102051222AA8274302ACA
:100D9000FA24C6500A74072AFA3001034302208A53
:100DA00082020D71E582FAC4540FF582C002120D61
:100DB0008BD002740F5AF582020D8BAA0CAB0DACCE
:100DC0000EAD0FAE10751720EE2EFEED235401FF71
:100DD0004206EA2AFAEB33FBEC33FCED33FDC3EEBB
:100DE00095134008EEC39513FE430201D517D98A27
:100DF0000C8B0D8C0E8D0F8E1022787FE624D07513
:100E0000F00AA4FA7880E624D02AFA787E8603BB1A
:100E10002D04C3E49AFA751301C3E464808AF06375
:100E2000F08095F050297517038A0374F625174052
:100E30001C0513E517142473F8E5172473F98704C8
:100E4000A604772E1BEBFA6004051780DE8B02EAFE
:100E500030E70D787486037875A6037874762E0AC9
:100E6000E515600AE51504FB2513F5138005300C24
:100E700002051378738603E4BB2D0104FB70062082
:100E800007033008020513300503020F41300657EF
:100E9000EB600C75822DC002120D71D002801C30E7
:100EA000070C75822BC002120D71D002800D300824
:100EB0000A758220C002120D71D00278748604BCBB
:100EC0002E0C758230C002120D71D0021514AC14B4
:100ED0001514C3E5139C4003020F85758230C002D0
:100EE000120D71D00280E7AC141514C3E5139C50A9
:100EF0000C758220C002120D71D00280EA787386D0
:100F000004BC2D0C75822DC002120D71D002801C04
:100F100030070C75822BC002120D71D002800D308B
:100F2000080A758220C002120D71D00278748604FE
:100F3000BC2E52758230C002120D71D00215148081
:100F400044EB600E75822DC002120D71D002151493
:100F5000802030070E75822BC002120D71D0021551
:100F600014800F30080C758220C002120D71D0025F
:100F7000151478748603BB2E0C758230C002120DD6
:100F800071D0021514751701C20EE5172473F88687
:100F900003BB4503021042BB2E348A03C3E46480C2
:100FA0008BF063F08095F0500F758230C003120D06
:100FB00071D0031B8B0280E48B02D20EE5157038D2
:100FC000200C0302104275822E120D718074300EB7
:100FD000278A03EB30E71FC3E464808515F063F0D4
:100FE0008095F0500C758230C003120D71D003153E
:100FF000150B8B0280DD8B02300E0EC3E4648085FE
:1010000015F063F08095F05021E5172473F88603FE
:101010008B82C002120D71D002300E0EE5172473C0
:10102000F88603BB2E02800215151514C3E46480F4
:101030008515F063F08095F04003200E050517023A
:101040000F8AC3E464808515F063F08095F0500A40
:10105000758230120D71151580E830050FAA141530
:1010600014EA6008758220120D7180F122E5157076
:1010700003300C0D74072515FAE514C39AF5148096
:1010800006E51424FAF51475170078738602BA2B56
:101090000F20070C787376202008057517010514BA
:1010A000200519AA14C3E464808AF063F08095F0E7
:1010B000500A758220120D71151480E7C20EE517D3
:1010C0002473F88602BA00028069BA451F30010213
:1010D0007665C3E464808515F063F08095F0500A6E
:1010E000758230120D71151580E8D20EC3E5179484
:1010F00002E433FA7014EA700EC3E464808515F0DC
:1011000063F08095F04003300E16E5172473F886DF
:10111000028A82120D71E51724FD50121515800EFA
:101120007402B51709300C0675822E120D71051761
:101130000210BE300519AA14C3E464808AF063F07B
:101140008095F0500A758220120D71151480E722E7
:1011500085820A85830BE4F511F512AA18AB19AC48
:101160001A8A828B838CF0120947FD74012AF518C4
:10117000E43BF5198C1AEDFA70030216F6BA250253
:1011800080030216EEC205C206C207C208C209C227
:101190000AC20BC20CC202C203C20475130075144A
:1011A000007515FFAB18AC19AD1A8B828C838DF0CE
:1011B000120947FAA3AB82AC838B188C198D1ABA2B
:1011C00025078A82120D7180928A06BE3000402E59
:1011D0008A06EE24C6402774FFB51513E51475F092
:1011E0000AA4FEEA24D02EF51470BFD20680BBE517
:1011F0001575F00AA4FEEA24D02EF51580ACBA2E9F
:101200000A74FFB515A4751500809F8A06BE61009B
:10121000400E8A06EE248540075302DFD201800289
:10122000C201BA20028075BA23030212ABBA2A03A4
:101230000212B0BA2B02805FBA2D028055BA420268
:10124000805FBA43030212F5BA4403021430BA4570
:101250000302144ABA4603021446BA470302144E64
:10126000BA4903021430BA4C02803BBA4E0302144E
:1012700052BA4F03021437BA50030213C9BA5303C8
:10128000021319BA550302143CBA5803021441025E
:10129000147CD2050211AAD2070211AAD2080211A7
:1012A000AAD20A0211AAD20B0211AAD20C0211AAC6
:1012B00074FFB51520300A0BE51B14F8881B861443
:1012C0000211AAE51B24FEF8881B8606088607186B
:1012D0008E140211AA300A0BE51B14F8881B861520
:1012E0000211AAE51B24FEF8881B8606088607184B
:1012F0008E150211AA300A0AE51B14F8881B860213
:10130000800FE51B24FEF8881B8603088604188BD3
:10131000028A82120D71021481E51B24FDF8881BDC
:10132000860308860408860518188B0C8C0D8D0E14
:101330008B828C838DF0121877AB82AC838B167402
:10134000FFB5150385161520051DC3E51695145028
:1013500016E514C39516F514AB141514EB60087557
:101360008220120D7180F1850C82850D83850EF02F
:10137000120947FBFA6029AB151515C3E464808B8D
:10138000F063F08095F050188A82120D71AB0CACAE
:101390000DAD0E0BBB00010C8B0C8C0D8D0E80C7A0
:1013A000200503021481C3E516951440030214813D
:1013B000E514C39516F514AB141514EB7003021461
:1013C00081758220120D7180EEE51B24FDF8881BCB
:1013D000860308860408860518188B0C8C0D8D0E64
:1013E000E50EFB30E7047A438013EB546060047A27
:1013F00050800AEB30E6047A4980027A588A82C02B
:1014000002120D7175823A120D71758230120D71D2
:10141000758278120D71D002BA4902800BBA50025F
:101420008006850D82120DA4850C82120DA48051B8
:10143000D20975130A804A751308804575130A800E
:1014400040751310803BD2028037D2038033D20420
:10145000802FE51B24FDF8881B8603088604088678
:101460000518188B0C8C0D8D0E8B828C838DF0E5FE
:101470001112185EA3E51212185E80058A82120D01
:1014800071200206200303300470E51B24FCF88859
:101490001B86030886040886050886061818188B1C
:1014A0000C8C0D8D0E8E0FE50CE50DE50EE50F8B0A
:1014B000828C838DF0EE12173F74FFB515037515FE
:1014C00006300427747F550FFB8B10E510EB2BFBC8
:1014D0008B10E50E30E70674014510F510E5102479
:1014E000684006749925104002D20330030612109A
:1014F0006D02115B120DFA02115BE513700302110C
:101500005B7B78300A2BE51B14F8881BE6FC3395CF
:10151000E0FDFEFF8C0C8D0D8E0E8F0F20095EAC52
:101520000C7D007E007F008C0C8D0D8E0E8F0F8049
:101530004C300B1FE51B24FCF8881B86040886052D
:101540000886060886071818188C0C8D0D8E0E8FCD
:101550000F802AE51B24FEF8881B860408860518E0
:10156000ED3395E0FEFF8C0C8D0D8E0E8F0F200954
:101570000CAC0CAD0D7E007F008E0E8F0F300C4337
:10158000E50C450D450E450F60397408B5130C7513
:101590008230C003120D71D00380287410B513235C
:1015A000758230C003120D71D00330010C75827842
:1015B000C003120D71D003800A758258C003120D4A
:1015C00071D003300925AC0CAD0DAE0EE50FFF3028
:1015D000E717C3E49CFCE49DFDE49EFEE49FFF8CC2
:1015E0000C8D0D8E0E8F0F8002C209751600D20D64
:1015F0008B00751000C000120DBBD000200D0DE552
:1016000010C4FCE6FD4CF61888038002A6100516EF
:10161000B20DE50C450D450E450F70D68803E51457
:10162000700375140120061A200517E51604FCC383
:101630009514500E758220C003120D71D00315143D
:1016400080E930090E75822DC003120D71D003158B
:10165000148024E516602030070E75822BC003121B
:101660000D71D0031514800F30080C758220C00353
:10167000120D71D003151420051EAC141514C3E50A
:10168000169C50273006047C3080027C208C82C05F
:1016900003120D71D00380E2C3E51695145009E5DD
:1016A00014C39516F51480037514008B00AB161542
:1016B00016EB6022B20D200D0A08E6C4540FFB8B16
:1016C0001080078603740F5BF510851082C000122E
:1016D0000D8BD00080D720050302115BAB141514CD
:1016E000EB700302115B758220120D7180EE8A820D
:1016F000120D7102115B85118285128322AA82BAB2
:101700000A0810990280FB75990D10990280FB8AD6
:101710009922FCABF0AA83A982749EF582C2D1EC17
:1017200030E716D2D1E9F42401F9EAF43400FAEBF7
:10173000F43400FBECF43400FC120CB3020C64C073
:10174000E0F84582458345F07009F5F0FBFCFDFEAD
:1017500002180DE823A2F792E0F8A982AA83D2F733
:10176000ABF07C007E07C3749798404074FF2EFE58
:10177000740A89F0A4F985F082740A8AF0A4FA85C3
:10178000F083740A8BF0A4FB740529F9EA3582FA18
:10179000EB3583FB740035F0FCC3EC13FCEB13FB5F
:1017A000EA13FAE913F908EC70EF80BAE8C3947F02
:1017B000F88B838EF0E4FBFCFDFEFF08C3E933F9F0
:1017C000EA33FAE58333F583EB3BD4FBEC3CD4FC02
:1017D000ED3DD4FDEE3ED4FEEF3FD4FF602D05F08D
:1017E00074052BD4FBE43CD4FCE43DD4FDE43ED4AE
:1017F000FEE43FD4FF758204C3EF13FFEE13FEED4A
:1018000013FDEC13FCEB13FBD582EDD8AF7873D04E
:10181000E020E704762B8002762D087906E7C45491
:101820000F4430F608B90603762E08E7540F44300B
:10183000F60819B902E7764508E5F020E704762BAB
:101840008004762DF4040875F00A844430F608E527
:10185000F04430F608E4F690007375F0402220F76B
:101860001030F6118883A88220F507F6A8837583C7
:101870000022F280F7F022AA82AB83ACF07D007EDA
:10188000008A828B838CF0120947FFA3AA82AB8364
:10189000EF60070DBD00EA0E80E78D828E83220087
:00000001FF
