:1000000002002E752200752300752400752500E47A
:10001000F536F537E4F538F5392200000000000028
:1000200000000000000000000000000201AA75812D
:100030004F12012DE582600302009A780079007A60
:10004000007B007C007D00EC4D601C88828983E48D
:1000500093A3A882A9838A828B83F0A3AA82AB830D
:100060001CBCFFE31D80E07582007583007C007D71
:1000700000EC4D600AE4F0A31CBCFFF51D80F27596
:1000800082007583007C007D00EC4D600AE4F0A3E3
:100090001CBCFFF51D80F212000312044A80FE1BF7
:1000A0005B324A0053717561726520776176652015
:1000B00067656E657261746F7220666F7220746816
:1000C000652045464D384C42312E0D0A4368656324
:1000D0006B2070696E732050322E3220616E642066
:1000E00050322E31207769746820746865206F73F0
:1000F00063696C6C6F73636F70652E0D0A000A0084
:10010000090909706572696F643A203D2566200A05
:10011000000909097065616B206F6620726566656C
:1001200072656E63653A203D2566200A0075A7005A
:100130007597DE7597AD75FF8075EF0675A710751D
:10014000C12075A70075A90075A900E5A930E7FBD6
:1001500075A90375A903E5A930E7FB43A41075E170
:100160000175E20075E340759810758DE6858D8BFD
:1001700053890F438920D28ED29975C800438E10BF
:1001800075CAE075CBE375CEFF75CFFFD2ADD2CA8D
:10019000D2AF758200228582BBD2EC20ECFDD2EC7E
:1001A00020ECFD85BD8285BE8322C0E0C002C00375
:1001B000C0D075D000C2CF0522E522249B50037524
:1001C0002200AA227B00C3E5269AE5279B9200B372
:1001D00092A2AA227B00C3E5289AE5299B9200B34C
:1001E00092A1AA227B00C3E52A9AE52B9B9200B339
:1001F00092A3AA227B00C3E52C9AE52D9B9200B323
:1002000092A4D0D0D003D002D0E03275A70075B24E
:100210008075BCF875B91E75E80075DF3F75B300D1
:10022000D2EF225389F0438901C28C221201961227
:10023000063DAA82AB83ACF0FDC002C003C004C07F
:1002400005906C8B75F0537440120679AA82AB83CB
:10025000ACF0FDE58124FCF581E4C0E074FCC0E075
:10026000747FC0E07446C0E08A828B838CF0ED120C
:1002700007C3AA82AB83ACF0FDE58124FCF5818A3B
:10028000828B838CF0ED22AA82851CF005F074012C
:10029000800225E0D5F0FBFB75A720BA0002800A9A
:1002A000BA0102800FBA021E8014EBF4FA52F1EB8D
:1002B00042D48012EBF4FA52F2EB42D58008EBF410
:1002C000FA52F3EB42CC75A70022752663E4F527BA
:1002D000E4F528F529F52AF52B752C63E4F52D2294
:1002E000E4F526F527752863E4F529752A63E4F516
:1002F0002BE4F52CF52D22E4F526F527F528F52934
:10030000752A63E4F52B752C63E4F52D22752663BD
:10031000E4F527E4F528F529F52AF52BF52CF52D3C
:1003200022758A00758C00C28DC28C20A0FD30A081
:10033000FDD28C7A007B0030A00C108D0280F80A70
:10034000BA00F40B80F120A00C108D0280F80ABADC
:1003500000F40B80F1C28C8A828B831207B6AA82CA
:10036000AB83ACF0FDC002C003C004C00590000028
:1003700075F0807447120679AA82AB83ACF0FDE574
:100380008124FCF581858C82C002C003C004C005B5
:1003900012071CAE82AF83A8F0F9C006C007C000E8
:1003A000C00190000075F0807443120679AE82AFF0
:1003B00083A8F0F9E58124FCF581D005D004D003B1
:1003C000D002C006C007C000C0018A828B838CF0B7
:1003D000ED120727AA82AB83ACF0FDE58124FCF582
:1003E00081AE8A7F008E828F83C002C003C004C0AA
:1003F000051207B6AE82AF83A8F0F9D005D004D0BD
:1004000003D002C006C007C000C0018A828B838C63
:10041000F0ED120727AA82AB83ACF0FDE58124FC46
:10042000F581C002C003C004C00590F4FC75F03231
:100430007434120679AA82AB83ACF0FDE58124FC0A
:10044000F5818A828B838CF0ED22120223751C07C2
:10045000758201120287751C0175820212028712D1
:10046000020B749FC0E07400C0E07480C0E012070B
:100470009515811581158174A4C0E07400C0E074E5
:1004800080C0E012079515811581158174FEC0E0CA
:100490007400C0E07480C0E01207951581158115C5
:1004A0008175820D12022CAA82AB83ACF0FDE4C0F0
:1004B000E0C0E0C0E0C0E08A828B838CF0ED1206E1
:1004C00049AA82E58124FCF581EA7004C2A0800279
:1004D000D2A0758A00758C00C28DC28C20A0FD3020
:1004E000A0FDD28C7A007B0030A00C108D0280F829
:1004F0000ABA00F40B80F120A00C108D0280F80ADB
:10050000BA00F40B80F1C28C8A828B831207B6AAE0
:1005100082AB83ACF0FDC002C003C004C0059000F4
:100520000075F0807447120679AA82AB83ACF0FDA7
:10053000E58124FCF581858C82C002C003C004C023
:100540000512071CAE82AF83A8F0F9C006C007C031
:1005500000C00190000075F0807443120679AE82ED
:10056000AF83A8F0F9E58124FCF581D005D004D053
:1005700003D002C006C007C000C0018A828B838CF2
:10058000F0ED120727AA82AB83ACF0FDE58124FCD5
:10059000F581AE8A7F008E828F83C002C003C004C3
:1005A000C0051207B6AE82AF83A8F0F9D005D0041B
:1005B000D003D002C006C007C000C0018A828B836E
:1005C0008CF0ED120727AA82AB83ACF0FDE5812405
:1005D000FCF581C002C003C004C00590F4FC75F0B6
:1005E000327434120679AA82AB83ACF0FDE5812423
:1005F000FCF581C002C003C004C0057400C0E074F3
:1006000001C0E07480C0E0120795E58124F9F5810E
:1006100075820D12022CAA82AB83ACF0FDC002C021
:1006200003C004C0057411C0E07401C0E07480C050
:10063000E0120795E58124F9F5810204A1E4AC8379
:10064000AB82FAF9748E0208EBFFA8811818120920
:1006500013D2D133E6400730E70B7582012220E741
:100660000675820022C2D11208F5E97003F58222D4
:1006700030D101B3E433F582221209C0BC00030279
:10068000095FEF60FA30D502B2D1E583B4FF03020F
:100690000975E582B4FF03020975258340072482AA
:1006A000400B02095F2483145003020975F582EAA6
:1006B0008DF0A4A8F0EA8EF0A428F8E435F0F9EB68
:1006C0008DF0A428E935F0F9E433CA8FF0A429F9B4
:1006D000EA35F0FAEBF88EF0A429F9EA35F0FAE4FD
:1006E00033FBEC8DF0A429F9EA35F0FAE43BFBE8A2
:1006F0008FF0A42AFAEB35F0FBE433CCFD8EF0A4A6
:100700002AFAEB35F0FBE43CFCED8FF0A42BFBEC7C
:1007100035F0FC20E70312098D02093EE4AC82FBB0
:10072000FAF974860208EB1209C07900E583B582F4
:1007300002800D50031209EEE583C39582120A0868
:10074000E5D0C465D020E117EA2DFAEB3EFBEC3F83
:10075000FC50097401120A08EC4480FC02093EC3F3
:10076000EA9DFAEB9EFBEC9FFC500FC3E499F9E481
:100770009AFAE49BFBE49CFCB2D112098D02093E7B
:100780000213D785821885831985F01A85091B9075
:100790000780020E2AC008858108E50824FBF51BA6
:1007A000E50824FBF8861808861908861A90078041
:1007B000120E2AD00822AC83AB827A007900748EA4
:1007C0000213F51209C030D502B2D1BF0009BC0036
:1007D00003020982020975BC000302095FE583B4C4
:1007E000FF0BE582B4FF0302098202095FE582B4D0
:1007F000FF03020975C395835007247F400B02094C
:100800005F2480145003020975C0E0E4CCCBCAF920
:100810008D1C8E1D8F1EEF54F0C4F51F7583068549
:100820001FF0EB84F582E9C4F9EAC4FAEBC4FBECEF
:10083000540FC47803D6FC18EBD6FB18EAD6FA8519
:1008400082F0EDA4A8F0FD8582F0EEA428FEE43548
:10085000F0F88582F0EFA428FFE435F0F8E99DF97F
:10086000EA9EFAEB9FFBEC98FCAD1CAE1DAF1E3070
:10087000E7101582E92DF9EA3EFAEB3FFBE43CFC78
:1008800080EDC082D58398C3E933F9EA33FAEB33BC
:10089000FBEC33FCC3E99DEA9EEB9FEC9400B3E4D0
:1008A00013F9D002D0E0C44AFAD003D0E0C44BFB25
:1008B000D004D0E0F5F0540FC44CFCD08215823047
:1008C000F40FD3EC13FCEB13FBEA13FAE913F9056D
:1008D00082E930E70A74012AFAE43BFBE43CFC02BB
:1008E0000956FCABF0AA83A982749EC2D1F582128C
:1008F000098D02093E7901AA82E68F82B58213181A
:10090000E6B5F00E18E6B5830918E68A82B58202CC
:10091000790022B4800FE5F0700AE5837006E58265
:1009200070027F00EFB6801518B6001018B6000BE5
:1009300018B6000608080876002208080822B980C0
:1009400003EA13B34010EA2401FAE43BFBE43CFC65
:1009500050047C800582BC000EBB000BBA0008E48A
:10096000F5F0F583F58222A2D1E582138CF092F79F
:100970008B838A8222E4F583F58275F080F4A2D11C
:100980001322E4F583F58275F0C0747F227804ECBD
:100990007011E58224F8500AF582E4C9CACBFCD86C
:1009A000EF22EC7820058220E713D5820122C3E9EB
:1009B00033F9EA33FAEB33FBEC33FCD8EA15822245
:1009C000AA82AB83A2F73392D16002D2F7F582AC50
:1009D000F0E58124F9F8E6FD08E6FE0886F008E671
:1009E000A2F73392D56002D2F7F583AFF022E58209
:1009F000C583F582A2D133A2D592D11392D5ECCF83
:100A0000FCEBCEFBEACDFA226040F825825002745E
:100A1000FFF582E824F8501ECCCBCAF9E4CC24F8C8
:100A20005014CBCAF9E4CB24F8500BCAF9E4CA2419
:100A3000F8500379002224086010F8C3EC13FCEB93
:100A400013FBEA13FAE913F9D8F122AA82745CC005
:100A5000E0740AC0E0C00AC00B8A82220511E4B526
:100A60001102051222AA8274302AFA24C6500A748E
:100A7000072AFA3001034302208A82020A4BE582E8
:100A8000FAC4540FF582C002120A65D002740F5ADC
:100A9000F582020A65AA0CAB0DAC0EAD0FAE107557
:100AA0001720EE2EFEED235401FF4206EA2AFAEB50
:100AB00033FBEC33FCED33FDC3EE95134008EEC37E
:100AC0009513FE430201D517D98A0C8B0D8C0E8D20
:100AD0000F8E1022784CE624D075F00AA4FA784DD7
:100AE000E624D02AFA784B8603BB2D04C3E49AFA95
:100AF000751301C3E464808AF063F08095F0502997
:100B00007517038A0374F62517401C0513E517149F
:100B10002440F8E5172440F98704A604772E1BEB40
:100B2000FA6004051780DE8B02EA30E70D78418613
:100B3000037842A6037841762E0AE515600AE5158A
:100B400004FB2513F5138005300C0205137840864D
:100B500003E4BB2D0104FB700620070330080205E7
:100B600013300503020C1B300657EB600C75822D09
:100B7000C002120A4BD002801C30070C75822BC0B9
:100B800002120A4BD002800D30080A758220C00282
:100B9000120A4BD00278418604BC2E0C758230C0FC
:100BA00002120A4BD0021514AC141514C3E5139CA1
:100BB0004003020C5F758230C002120A4BD00280E3
:100BC000E7AC141514C3E5139C500C758220C002C9
:100BD000120A4BD00280EA78408604BC2D0C758244
:100BE0002DC002120A4BD002801C30070C75822BDC
:100BF000C002120A4BD002800D30080A758220C054
:100C000002120A4BD00278418604BC2E5275823003
:100C1000C002120A4BD00215148044EB600E75829C
:100C20002DC002120A4BD0021514802030070E7519
:100C3000822BC002120A4BD0021514800F30080C10
:100C4000758220C002120A4BD00215147841860327
:100C5000BB2E0C758230C002120A4BD002151475DF
:100C60001701C20EE5172440F88603BB4503020DA9
:100C70001CBB2E348A03C3E464808BF063F0809540
:100C8000F0500F758230C003120A4BD0031B8B0249
:100C900080E48B02D20EE5157038200C03020D1C87
:100CA00075822E120A4B8074300E278A03EB30E7D0
:100CB0001FC3E464808515F063F08095F0500C75D7
:100CC0008230C003120A4BD00315150B8B0280DD56
:100CD0008B02300E0EC3E464808515F063F08095BE
:100CE000F05021E5172440F886038B82C002120AD7
:100CF0004BD002300E0EE5172440F88603BB2E02BF
:100D0000800215151514C3E464808515F063F08026
:100D100095F04003200E050517020C64C3E46480BF
:100D20008515F063F08095F0500A758230120A4BF9
:100D3000151580E830050FAA141514EA60087582AD
:100D400020120A4B80F122E5157003300C0D740758
:100D50002515FAE514C39AF5148006E51424FAF56E
:100D60001475170078408602BA2B0F20070C7840C4
:100D700076202008057517010514200519AA14C34B
:100D8000E464808AF063F08095F0500A7582201246
:100D90000A4B151480E7C20EE5172440F88602BA04
:100DA00000028069BA451F3001027665C3E46480A1
:100DB0008515F063F08095F0500A758230120A4B69
:100DC000151580E8D20EC3E5179402E433FA7014C7
:100DD000EA700EC3E464808515F063F08095F040FE
:100DE00003300E16E5172440F886028A82120A4B59
:100DF000E51724FD50121515800E7402B517093041
:100E00000C0675822E120A4B0517020D9830051933
:100E1000AA14C3E464808AF063F08095F0500A75E8
:100E20008220120A4B151480E72285820A85830BE3
:100E3000E4F511F512AA18AB19AC1A8A828B838CCF
:100E4000F0121419FD74012AF518E43BF5198C1AF7
:100E5000EDFA70030213D0BA250280030213C8C250
:100E600005C206C207C208C209C20AC20BC20CC22E
:100E700002C203C2047513007514007515FFAB1888
:100E8000AC19AD1A8B828C838DF0121419FAA3ABB6
:100E900082AC838B188C198D1ABA25078A82120AA4
:100EA0004B80928A06BE3000402E8A06EE24C64051
:100EB0002774FFB51513E51475F00AA4FEEA24D0D3
:100EC0002EF51470BFD20680BBE51575F00AA4FE9E
:100ED000EA24D02EF51580ACBA2E0A74FFB515A4FD
:100EE000751500809F8A06BE6100400E8A06EE24BA
:100EF0008540075302DFD2018002C201BA2002807E
:100F000075BA2303020F85BA2A03020F8ABA2B028D
:100F1000805FBA2D028055BA4202805FBA43030255
:100F20000FCFBA440302110ABA4503021124BA468C
:100F300003021120BA4703021128BA490302110A19
:100F4000BA4C02803BBA4E0302112CBA4F03021175
:100F500011BA50030210A3BA5303020FF3BA550398
:100F6000021116BA580302111B021156D205020EC5
:100F700084D207020E84D208020E84D20A020E84A2
:100F8000D20B020E84D20C020E8474FFB5152030F1
:100F90000A0BE51B14F8881B8614020E84E51B243B
:100FA000FEF8881B8606088607188E14020E843009
:100FB0000A0BE51B14F8881B8615020E84E51B241A
:100FC000FEF8881B8606088607188E15020E8430E8
:100FD0000A0AE51B14F8881B8602800FE51B24FE15
:100FE000F8881B8603088604188B028A82120A4B33
:100FF00002115BE51B24FDF8881B860308860408A4
:10100000860518188B0C8C0D8D0E8B828C838DF0C1
:1010100012156DAB82AC838B1674FFB51503851664
:101020001520051DC3E51695145016E514C3951635
:10103000F514AB141514EB6008758220120A4B806E
:10104000F1850C82850D83850EF0121419FBFA6070
:1010500029AB151515C3E464808BF063F08095F01F
:1010600050188A82120A4BAB0CAC0DAD0E0BBB00B4
:10107000010C8B0C8C0D8D0E80C720050302115BBB
:10108000C3E5169514400302115BE514C39516F5EC
:1010900014AB141514EB700302115B758220120A55
:1010A0004B80EEE51B24FDF8881B860308860408A8
:1010B000860518188B0C8C0D8D0EE50EFB30E704A1
:1010C0007A438013EB546060047A50800AEB30E678
:1010D000047A4980027A588A82C002120A4B7582C9
:1010E0003A120A4B758230120A4B758278120A4BFB
:1010F000D002BA4902800BBA50028006850D8212D6
:101100000A7E850C82120A7E8051D20975130A80EC
:101110004A751308804575130A8040751310803B8B
:10112000D2028037D2038033D204802FE51B24FD06
:10113000F8881B860308860408860518188B0C8C13
:101140000D8D0E8B828C838DF0E511121554A3E565
:101150001212155480058A82120A4B2002062003BF
:1011600003300470E51B24FCF8881B860308860402
:101170000886050886061818188B0C8C0D8D0E8EA7
:101180000FE50CE50DE50EE50F8B828C838DF0EEFF
:1011900012143574FFB51503751506300427747FD6
:1011A000550FFB8B10E510EB2BFB8B10E50E30E79A
:1011B0000674014510F510E5102468400674992561
:1011C000104002D203300306120D47020E35120AF8
:1011D000D4020E35E5137003020E357B45300A2B21
:1011E000E51B14F8881BE6FC3395E0FDFEFF8C0C34
:1011F0008D0D8E0E8F0F20095EAC0C7D007E007F62
:10120000008C0C8D0D8E0E8F0F804C300B1FE51B4C
:1012100024FCF8881B8604088605088606088607CD
:101220001818188C0C8D0D8E0E8F0F802AE51B243C
:10123000FEF8881B860408860518ED3395E0FEFF4E
:101240008C0C8D0D8E0E8F0F20090CAC0CAD0D7E0D
:10125000007F008E0E8F0F300C43E50C450D450EC0
:10126000450F60397408B5130C758230C003120A3B
:101270004BD00380287410B51323758230C003123D
:101280000A4BD00330010C758278C003120A4BD090
:1012900003800A758258C003120A4BD00330092517
:1012A000AC0CAD0DAE0EE50FFF30E717C3E49CFCB0
:1012B000E49DFDE49EFEE49FFF8C0C8D0D8E0E8F51
:1012C0000F8002C209751600D20D8B00751000C088
:1012D00000120A95D000200D0DE510C4FCE6FD4C6F
:1012E000F61888038002A6100516B20DE50C450D10
:1012F000450E450F70D68803E51470037514012060
:10130000061A200517E51604FCC39514500E7582C5
:1013100020C003120A4BD003151480E930090E7562
:10132000822DC003120A4BD00315148024E51660E9
:101330002030070E75822BC003120A4BD003151400
:10134000800F30080C758220C003120A4BD00315A1
:101350001420051EAC141514C3E5169C5027300646
:10136000047C3080027C208C82C003120A4BD003A4
:1013700080E2C3E51695145009E514C39516F514DB
:1013800080037514008B00AB161516EB6022B20DAE
:10139000200D0A08E6C4540FFB8B108007860374E7
:1013A0000F5BF510851082C000120A65D00080D74F
:1013B000200503020E35AB141514EB7003020E3535
:1013C000758220120A4B80EE8A82120A4B020E3579
:1013D00085118285128322AA82BA0A081099028096
:1013E000FB75990D10990280FB8A9922FCABF0AA3B
:1013F00083A982749EF582C2D1EC30E716D2D1E97E
:10140000F42401F9EAF43400FAEBF43400FBECF4D0
:101410003400FC12098D02093E20F71430F61488BE
:1014200083A88220F507E6A88375830022E280F76F
:10143000E49322E022C0E0F84582458345F070093C
:10144000F5F0FBFCFDFE021503E823A2F792E0F89D
:10145000A982AA83D2F7ABF07C007E07C374979869
:10146000404074FF2EFE740A89F0A4F985F082745E
:101470000A8AF0A4FA85F083740A8BF0A4FB740541
:1014800029F9EA3582FAEB3583FB740035F0FCC3A9
:10149000EC13FCEB13FBEA13FAE913F908EC70EF19
:1014A00080BAE8C3947FF88B838EF0E4FBFCFDFEEA
:1014B000FF08C3E933F9EA33FAE58333F583EB3BFD
:1014C000D4FBEC3CD4FCED3DD4FDEE3ED4FEEF3F2E
:1014D000D4FF602D05F074052BD4FBE43CD4FCE470
:1014E0003DD4FDE43ED4FEE43FD4FF758204C3EF57
:1014F00013FFEE13FEED13FDEC13FCEB13FBD58293
:10150000EDD8AF7840D0E020E704762B8002762D2E
:10151000087906E7C4540F4430F608B90603762E5E
:1015200008E7540F4430F60819B902E7764508E594
:10153000F020E704762B8004762DF4040875F00A79
:10154000844430F608E5F04430F608E4F6900040B4
:1015500075F0402220F71030F6118883A88220F51C
:1015600007F6A88375830022F280F7F022AA82ABE7
:1015700083ACF07D007E008A828B838CF01214197C
:10158000FFA3AA82AB83EF60070DBD00EA0E80E7E0
:101590008D828E8322000000000000000000000009
:00000001FF
