:1000000002002E752200752300752400752500E47A
:10001000F536F537E4F538F5392200000000000028
:10002000000000000000000000000002024E758188
:100030004F120162E582600302009A780079007A2B
:10004000007B007C007D00EC4D601C88828983E48D
:1000500093A3A882A9838A828B83F0A3AA82AB830D
:100060001CBCFFE31D80E07582007583007C007D71
:1000700000EC4D600AE4F0A31CBCFFF51D80F27596
:1000800082007583007C007D00EC4D600AE4F0A3E3
:100090001CBCFFF51D80F212000312050D80FE1B33
:1000A0005B324A0053717561726520776176652015
:1000B00067656E657261746F7220666F7220746816
:1000C000652045464D384C42312E0D0A4368656324
:1000D0006B2070696E732050322E3220616E642066
:1000E00050322E31207769746820746865206F73F0
:1000F00063696C6C6F73636F70652E0D0A000A0084
:10010000090909706572696F643A203D256620739C
:100110000A00090909667265713A203D2566207357
:100120000A000909096D6F76696E67206261636B69
:100130000A000909096D6F76696E6720666F72772C
:100140006172640A000909097475726E206C656633
:10015000740A000909097475726E207269676874FF
:100160000A0075A7007597DE7597AD75FF8075EF6E
:100170000675A71075C12075A70075A90075A9009F
:10018000E5A930E7FB75A90375A903E5A930E7FBED
:1001900043A41075E10175E20075E3407598107590
:1001A0008DE6858D8B53890F438920D28ED2997528
:1001B000C800438E1075CAE075CBE375CEFF75CFCE
:1001C000FFD2ADD2CAD2AF75820022AA82AB8343DE
:1001D0008E407592B87593FF85929485939575912D
:1001E000047C007D00C3EC9AED9B500FE59130E755
:1001F000FB53917F0CBC00ED0D80EA75910022AAA3
:1002000082AB837C007D00C3EC9AED9B502B7E007B
:10021000BE0400501D9000FAC002C003C004C00517
:10022000C0061201CBD006D005D004D003D0020EF8
:1002300080DE0CBC00D10D80CE228582BBD2EC20AA
:10024000ECFDD2EC20ECFD85BD8285BE8322C0E0B2
:10025000C002C003C0D075D000C2CF0522E5222461
:100260009B5003752200AA227B00C3E5269AE5274E
:100270009B9200B39294AA227B00C3E5289AE529B9
:100280009B9200B39293AA227B00C3E5269AE527AE
:100290009B9200B39296AA227B00C3E5289AE52997
:1002A0009B9200B39295D0D0D003D002D0E03275AB
:1002B000A70075B28075BCF875B91E75E80075DFCA
:1002C0003F75B300D2EF225389F0438901C28C22DB
:1002D00012023A1207E8AA82AB83ACF0FDC002C05A
:1002E00003C004C005906C8B75F053744012085421
:1002F000AA82AB83ACF0FDE58124FCF581E4C0E08B
:1003000074FCC0E0747FC0E07446C0E08A828B83D6
:100310008CF0ED12099EAA82AB83ACF0FDE581243E
:10032000FCF5818A828B838CF0ED22AA82851CF0F9
:1003300005F07401800225E0D5F0FBFB75A720BA1B
:100340000002800ABA0102800FBA021E8014EBF488
:10035000FA52F1EB42D48012EBF4FA52F2EB42D5AE
:100360008008EBF4FA52F3EB42CC75A70022752615
:1003700063E4F527E4F528F529F52AF52B752C63B8
:10038000E4F52D22E4F526F527752863E4F52975B3
:100390002A63E4F52BE4F52CF52D22E4F526F52768
:1003A000F528F529752A46E4F52BE4F52CF52D22E0
:1003B000752663E4F527E4F528F529F52AF52BF5EC
:1003C0002CF52D22758A00758C00C28DC28C209769
:1003D000FD3097FDD28C7A007B0030970C108D0297
:1003E00080F80ABA00F40B80F120970C108D02807F
:1003F000F80ABA00F40B80F1C28C8A828B8312094E
:1004000091AA82AB83ACF0FDC002C003C004C0055A
:1004100090000075F0807447120854AA82AB83AC38
:10042000F0FDE58124FCF581858C82C002C003C00B
:1004300004C0051208F7AE82AF83A8F0F9C006C069
:1004400007C000C00190000075F08074431208548A
:10045000AE82AF83A8F0F9E58124FCF581D005D008
:1004600004D003D002C006C007C000C0018A828B3E
:10047000838CF0ED120902AA82AB83ACF0FDE5811A
:1004800024FCF581AE8A7F008E828F83C002C00378
:10049000C004C005120991AE82AF83A8F0F9D0055F
:1004A000D004D003D002C006C007C000C0018A82B9
:1004B0008B838CF0ED120902AA82AB83ACF0FDE5D0
:1004C0008124FCF581C002C003C004C00590F4FC87
:1004D00075F0327434120854AA82AB83ACF0FDE597
:1004E0008124FCF581C002C003C004C00590000057
:1004F00075F07A7444120854AA82AB83ACF0FDE51F
:100500008124FCF5818A828B838CF0ED221202C754
:100510001202AF749FC0E07400C0E07480C0E012AB
:10052000097015811581158174A4C0E07400C0E0C4
:100530007480C0E012097015811581158174FEC0A8
:10054000E07400C0E07480C0E0120970158115816C
:100550001581C2A11203C4AA82AB83ACF0FDC00214
:10056000C003C004C005C002C003C004C0057400BD
:10057000C0E07401C0E07480C0E0120970E581241D
:10058000F9F581D005D004D003D002C002C003C069
:1005900004C005C002C003C004C00590000075F08F
:1005A00080743F12099EAE82AF83A8F0F9E58124E2
:1005B000FCF581C006C007C000C0017412C0E07421
:1005C00001C0E07480C0E0120970E58124F9F58172
:1005D0009003E81201FFD005D004D003D002C0027E
:1005E000C003C004C005748FC0E074C2C0E074755D
:1005F000C0E0743DC0E08A828B838CF0ED12082449
:10060000AE82E58124FCF581D005D004D003D00270
:10061000EE7050C002C003C004C0057423C0E07473
:10062000DBC0E07479C0E0743DC0E08A828B838CCB
:10063000F0ED1207F4AE82E58124FCF581D005D0FF
:1006400004D003D002EE701B1203847422C0E07445
:1006500001C0E07480C0E012097015811581158118
:10066000020554C002C003C004C00574C9C0E074D0
:1006700076C0E0743EC0E0743DC0E08A828B838C1B
:10068000F0ED120824AE82E58124FCF581D005D07E
:1006900004D003D002EE7050C002C003C004C005F5
:1006A000745CC0E0748FC0E07442C0E0743DC0E090
:1006B0008A828B838CF0ED1207F4AE82E58124FCF4
:1006C000F581D005D004D003D002EE701B12036E6A
:1006D0007432C0E07401C0E07480C0E0120970158B
:1006E0008115811581020554C002C003C004C005F4
:1006F0007402C0E0742BC0E07407C0E0743DC0E039
:100700008A828B838CF0ED120824AE82E58124FC72
:10071000F581D005D004D003D002EE7050C002C0E5
:1007200003C004C0057496C0E07443C0E0740BC0FD
:10073000E0743DC0E08A828B838CF0ED1207F4AE4A
:1007400082E58124FCF581D005D004D003D002EEEF
:10075000701B12039B7445C0E07401C0E07480C03C
:10076000E0120970158115811581020554C002C07F
:1007700003C004C0057458C0E07439C0E074B4C04C
:10078000E0743CC0E08A828B838CF0ED120824AECA
:1007900082E58124FCF581D005D004D003D002EE9F
:1007A00060030205547412C0E07483C0E074C0C0DA
:1007B000E0743CC0E08A828B838CF0ED1207F4AACF
:1007C00082E58124FCF581EA60030205541203B03E
:1007D0007453C0E07401C0E07480C0E01209701569
:1007E0008115811581020554E4AC83AB82FAF9745A
:1007F0008E020AC6FFA8811818120AEED2D133E67B
:10080000400730E70B7582012220E706758200223F
:10081000C2D1120AD0E97003F5822230D101B3E4CB
:1008200033F58222FFA8811818120AEED2D133E6DE
:10083000400730E70B7582002220E706758201220F
:10084000C2D1120AD0E97003F5822220D101B3E4AB
:1008500033F58222120B9BBC0003020B3AEF60FAC5
:1008600030D502B2D1E583B4FF03020B50E582B468
:10087000FF03020B50258340072482400B020B3AF2
:100880002483145003020B50F582EA8DF0A4A8F0E3
:10089000EA8EF0A428F8E435F0F9EB8DF0A428E90D
:1008A00035F0F9E433CA8FF0A429F9EA35F0FAEB10
:1008B000F88EF0A429F9EA35F0FAE433FBEC8DF078
:1008C000A429F9EA35F0FAE43BFBE88FF0A42AFA10
:1008D000EB35F0FBE433CCFD8EF0A42AFAEB35F0D7
:1008E000FBE43CFCED8FF0A42BFBEC35F0FC20E7A7
:1008F00003120B68020B19E4AC82FBFAF97486024E
:100900000AC6120B9B7900E583B58202800D500365
:10091000120BC9E583C39582120BE3E5D0C465D001
:1009200020E117EA2DFAEB3EFBEC3FFC5009740185
:10093000120BE3EC4480FC020B19C3EA9DFAEB9E18
:10094000FBEC9FFC500FC3E499F9E49AFAE49BFB9B
:10095000E49CFCB2D1120B68020B190215B285821D
:100960001885831985F01A85091B90095B0210050B
:10097000C008858108E50824FBF51BE50824FBF881
:10098000861808861908861A90095B121005D00887
:1009900022AC83AB827A007900748E0215D0120BE0
:1009A0009B30D502B2D1BF0009BC0003020B5D022F
:1009B0000B50BC0003020B3AE583B4FF0BE582B495
:1009C000FF03020B5D020B3AE582B4FF03020B50FA
:1009D000C395835007247F400B020B3A24801450A8
:1009E00003020B50C0E0E4CCCBCAF98D1C8E1D8FE6
:1009F0001EEF54F0C4F51F758306851FF0EB84F5D8
:100A000082E9C4F9EAC4FAEBC4FBEC540FC47803DE
:100A1000D6FC18EBD6FB18EAD6FA8582F0EDA4A82E
:100A2000F0FD8582F0EEA428FEE435F0F88582F032
:100A3000EFA428FFE435F0F8E99DF9EA9EFAEB9F70
:100A4000FBEC98FCAD1CAE1DAF1E30E7101582E923
:100A50002DF9EA3EFAEB3FFBE43CFC80EDC082D589
:100A60008398C3E933F9EA33FAEB33FBEC33FCC385
:100A7000E99DEA9EEB9FEC9400B3E413F9D002D019
:100A8000E0C44AFAD003D0E0C44BFBD004D0E0F578
:100A9000F0540FC44CFCD082158230F40FD3EC1309
:100AA000FCEB13FBEA13FAE913F90582E930E70AD4
:100AB00074012AFAE43BFBE43CFC020B31FCABF092
:100AC000AA83A982749EC2D1F582120B68020B1907
:100AD0007901AA82E68F82B5821318E6B5F00E1866
:100AE000E6B5830918E68A82B58202790022B480CD
:100AF0000FE5F0700AE5837006E58270027F00EF73
:100B0000B6801518B6001018B6000B18B600060807
:100B1000080876002208080822B98003EA13B340C7
:100B200010EA2401FAE43BFBE43CFC50047C800521
:100B300082BC000EBB000BBA0008E4F5F0F583F5AB
:100B40008222A2D1E582138CF092F78B838A8222D3
:100B5000E4F583F58275F080F4A2D11322E4F583E5
:100B6000F58275F0C0747F227804EC7011E5822460
:100B7000F8500AF582E4C9CACBFCD8EF22EC782001
:100B8000058220E713D5820122C3E933F9EA33FA5B
:100B9000EB33FBEC33FCD8EA158222AA82AB83A2AA
:100BA000F73392D16002D2F7F582ACF0E58124F9F7
:100BB000F8E6FD08E6FE0886F008E6A2F73392D5CF
:100BC0006002D2F7F583AFF022E582C583F582A2F9
:100BD000D133A2D592D11392D5ECCFFCEBCEFBEA68
:100BE000CDFA226040F82582500274FFF582E82495
:100BF000F8501ECCCBCAF9E4CC24F85014CBCAF977
:100C0000E4CB24F8500BCAF9E4CA24F85003790065
:100C10002224086010F8C3EC13FCEB13FBEA13FA70
:100C2000E913F9D8F122AA827437C0E0740CC0E04D
:100C3000C00AC00B8A82220511E4B51102051222F6
:100C4000AA8274302AFA24C6500A74072AFA30019C
:100C5000034302208A82020C26E582FAC4540FF56F
:100C600082C002120C40D002740F5AF582020C406E
:100C7000AA0CAB0DAC0EAD0FAE10751720EE2EFE0C
:100C8000ED235401FF4206EA2AFAEB33FBEC33FC76
:100C9000ED33FDC3EE95134008EEC39513FE4302FA
:100CA00001D517D98A0C8B0D8C0E8D0F8E102278E2
:100CB0004CE624D075F00AA4FA784DE624D02AFA3E
:100CC000784B8603BB2D04C3E49AFA751301C3E481
:100CD00064808AF063F08095F050297517038A03C9
:100CE00074F62517401C0513E517142440F8E51782
:100CF0002440F98704A604772E1BEBFA600405173D
:100D000080DE8B02EA30E70D784186037842A60345
:100D10007841762E0AE515600AE51504FB2513F5E2
:100D2000138005300C02051378408603E4BB2D01C7
:100D300004FB700620070330080205133005030288
:100D40000DF6300657EB600C75822DC002120C2692
:100D5000D002801C30070C75822BC002120C26D0EA
:100D600002800D30080A758220C002120C26D002C3
:100D700078418604BC2E0C758230C002120C26D03D
:100D8000021514AC141514C3E5139C4003020E3A6B
:100D9000758230C002120C26D00280E7AC14151404
:100DA000C3E5139C500C758220C002120C26D002A1
:100DB00080EA78408604BC2D0C75822DC002120C8E
:100DC00026D002801C30070C75822BC002120C2624
:100DD000D002800D30080A758220C002120C26D085
:100DE0000278418604BC2E52758230C002120C2655
:100DF000D00215148044EB600E75822DC002120CD7
:100E000026D0021514802030070E75822BC00212E6
:100E10000C26D0021514800F30080C758220C002F9
:100E2000120C26D002151478418603BB2E0C758255
:100E300030C002120C26D0021514751701C20EE53F
:100E4000172440F88603BB4503020EF7BB2E348AF5
:100E500003C3E464808BF063F08095F0500F7582DB
:100E600030C003120C26D0031B8B0280E48B02D20D
:100E70000EE5157038200C03020EF775822E120C49
:100E8000268074300E278A03EB30E71FC3E46480AA
:100E90008515F063F08095F0500C758230C0031218
:100EA0000C26D00315150B8B0280DD8B02300E0E45
:100EB000C3E464808515F063F08095F05021E51758
:100EC0002440F886038B82C002120C26D002300E1A
:100ED0000EE5172440F88603BB2E02800215151577
:100EE00014C3E464808515F063F08095F04003201E
:100EF0000E050517020E3FC3E464808515F063F00C
:100F00008095F0500A758230120C26151580E83055
:100F1000050FAA141514EA6008758220120C2680A9
:100F2000F122E5157003300C0D74072515FAE51450
:100F3000C39AF5148006E51424FAF51475170078A1
:100F4000408602BA2B0F20070C7840762020080537
:100F50007517010514200519AA14C3E464808AF0EA
:100F600063F08095F0500A758220120C26151480CB
:100F7000E7C20EE5172440F88602BA00028069BA7B
:100F8000451F3001027665C3E464808515F063F087
:100F90008095F0500A758230120C26151580E8D223
:100FA0000EC3E5179402E433FA7014EA700EC3E43A
:100FB00064808515F063F08095F04003300E16E5EF
:100FC000172440F886028A82120C26E51724FD5069
:100FD000121515800E7402B51709300C0675822E95
:100FE000120C260517020F73300519AA14C3E46406
:100FF000808AF063F08095F0500A758220120C26EA
:10100000151480E72285820A85830BE4F511F51219
:10101000AA18AB19AC1A8A828B838CF01215F4FDD6
:1010200074012AF518E43BF5198C1AEDFA700302E5
:1010300015ABBA250280030215A3C205C206C2077A
:10104000C208C209C20AC20BC20CC202C203C20455
:101050007513007514007515FFAB18AC19AD1A8B1C
:10106000828C838DF01215F4FAA3AB82AC838B18BB
:101070008C198D1ABA25078A82120C2680928A064C
:10108000BE3000402E8A06EE24C6402774FFB515F8
:1010900013E51475F00AA4FEEA24D02EF51470BFEF
:1010A000D20680BBE51575F00AA4FEEA24D02EF521
:1010B0001580ACBA2E0A74FFB515A4751500809F73
:1010C0008A06BE6100400E8A06EE24854007530260
:1010D000DFD2018002C201BA20028075BA23030266
:1010E0001160BA2A03021165BA2B02805FBA2D0281
:1010F0008055BA4202805FBA43030211AABA440380
:101100000212E5BA45030212FFBA46030212FBBA05
:101110004703021303BA49030212E5BA4C02803BAB
:10112000BA4E03021307BA4F030212ECBA5003027D
:10113000127EBA53030211CEBA55030212F1BA5805
:10114000030212F6021331D20502105FD207021019
:101150005FD20802105FD20A02105FD20B02105F4A
:10116000D20C02105F74FFB51520300A0BE51B147A
:10117000F8881B861402105FE51B24FEF8881B8686
:1011800006088607188E1402105F300A0BE51B1440
:10119000F8881B861502105FE51B24FEF8881B8665
:1011A00006088607188E1502105F300A0AE51B1420
:1011B000F8881B8602800FE51B24FEF8881B860337
:1011C000088604188B028A82120C26021336E51B4D
:1011D00024FDF8881B860308860408860518188BEA
:1011E0000C8C0D8D0E8B828C838DF0121748AB8288
:1011F000AC838B1674FFB5150385161520051DC32A
:10120000E51695145016E514C39516F514AB141590
:1012100014EB6008758220120C2680F1850C828503
:101220000D83850EF01215F4FBFA6029AB15151528
:10123000C3E464808BF063F08095F050188A8212CA
:101240000C26AB0CAC0DAD0E0BBB00010C8B0C8C4B
:101250000D8D0E80C7200503021336C3E5169514C5
:101260004003021336E514C39516F514AB14151498
:10127000EB7003021336758220120C2680EEE51BFC
:1012800024FDF8881B860308860408860518188B39
:101290000C8C0D8D0EE50EFB30E7047A438013EBCA
:1012A000546060047A50800AEB30E6047A49800288
:1012B0007A588A82C002120C2675823A120C267560
:1012C0008230120C26758278120C26D002BA49029E
:1012D000800BBA50028006850D82120C59850C8253
:1012E000120C598051D20975130A804A751308806F
:1012F0004575130A8040751310803BD2028037D2A7
:10130000038033D204802FE51B24FDF8881B86035D
:1013100008860408860518188B0C8C0D8D0E8B82A0
:101320008C838DF0E51112172FA3E51212172F8071
:10133000058A82120C26200206200303300470E581
:101340001B24FCF8881B860308860408860508868B
:10135000061818188B0C8C0D8D0E8E0FE50CE50DF4
:10136000E50EE50F8B828C838DF0EE12161074FF64
:10137000B51503751506300427747F550FFB8B10C8
:10138000E510EB2BFB8B10E50E30E70674014510E2
:10139000F510E51024684006749925104002D20328
:1013A000300306120F22021010120CAF021010E5CB
:1013B0001370030210107B45300A2BE51B14F888CC
:1013C0001BE6FC3395E0FDFEFF8C0C8D0D8E0E8F21
:1013D0000F20095EAC0C7D007E007F008C0C8D0D13
:1013E0008E0E8F0F804C300B1FE51B24FCF8881BE2
:1013F00086040886050886060886071818188C0CC7
:101400008D0D8E0E8F0F802AE51B24FEF8881B861B
:101410000408860518ED3395E0FEFF8C0C8D0D8ECB
:101420000E8F0F20090CAC0CAD0D7E007F008E0ED0
:101430008F0F300C43E50C450D450E450F60397498
:1014400008B5130C758230C003120C26D003802817
:101450007410B51323758230C003120C26D00330EC
:10146000010C758278C003120C26D003800A7582A5
:1014700058C003120C26D003300925AC0CAD0DAEBC
:101480000EE50FFF30E717C3E49CFCE49DFDE49EEE
:10149000FEE49FFF8C0C8D0D8E0E8F0F8002C20913
:1014A000751600D20D8B00751000C000120C70D0A4
:1014B00000200D0DE510C4FCE6FD4CF618880380F5
:1014C00002A6100516B20DE50C450D450E450F7030
:1014D000D68803E514700375140120061A20051739
:1014E000E51604FCC39514500E758220C003120C3F
:1014F00026D003151480E930090E75822DC0031221
:101500000C26D00315148024E516602030070E75D4
:10151000822BC003120C26D0031514800F30080C48
:10152000758220C003120C26D003151420051EACB2
:10153000141514C3E5169C50273006047C30800235
:101540007C208C82C003120C26D00380E2C3E516F7
:1015500095145009E514C39516F51480037514000D
:101560008B00AB161516EB6022B20D200D0A08E6B3
:10157000C4540FFB8B1080078603740F5BF5108536
:101580001082C000120C40D00080D720050302104A
:1015900010AB141514EB7003021010758220120C9E
:1015A0002680EE8A82120C26021010851182851286
:1015B0008322AA82BA0A0810990280FB75990D103D
:1015C000990280FB8A9922FCABF0AA83A982749EBF
:1015D000F582C2D1EC30E716D2D1E9F42401F9EA60
:1015E000F43400FAEBF43400FBECF43400FC120B9E
:1015F00068020B1920F71430F6148883A88220F5AE
:1016000007E6A88375830022E280F7E49322E022B4
:10161000C0E0F84582458345F07009F5F0FBFCFD1C
:10162000FE0216DEE823A2F792E0F8A982AA83D28E
:10163000F7ABF07C007E07C3749798404074FF2E90
:10164000FE740A89F0A4F985F082740A8AF0A4FA7B
:1016500085F083740A8BF0A4FB740529F9EA3582BE
:10166000FAEB3583FB740035F0FCC3EC13FCEB1391
:10167000FBEA13FAE913F908EC70EF80BAE8C394B7
:101680007FF88B838EF0E4FBFCFDFEFF08C3E9339B
:10169000F9EA33FAE58333F583EB3BD4FBEC3CD436
:1016A000FCED3DD4FDEE3ED4FEEF3FD4FF602D05B2
:1016B000F074052BD4FBE43CD4FCE43DD4FDE43EC3
:1016C000D4FEE43FD4FF758204C3EF13FFEE13FE94
:1016D000ED13FDEC13FCEB13FBD582EDD8AF784096
:1016E000D0E020E704762B8002762D087906E7C447
:1016F000540F4430F608B90603762E08E7540F4419
:1017000030F60819B902E7764508E5F020E70476D7
:101710002B8004762DF4040875F00A844430F60812
:10172000E5F04430F608E4F690004075F0402220E1
:10173000F71030F6118883A88220F507F6A8837584
:10174000830022F280F7F022AA82AB83ACF07D0006
:101750007E008A828B838CF01215F4FFA3AA82ABE1
:1017600083EF60070DBD00EA0E80E78D828E832235
:00000001FF
