:1000000002002E00000000000000000000000000C0
:1000200000000000000000000000000203217581B4
:100030007F120235E582600302009A780079007A27
:10004000007B007C007D00EC4D601C88828983E48D
:1000500093A3A882A9838A828B83F0A3AA82AB830D
:100060001CBCFFE31D80E07582007583007C007D71
:1000700000EC4D600AE4F0A31CBCFFF51D80F27596
:1000800082007583007C007D00EC4D600AE4F0A3E3
:100090001CBCFFF51D80F212018E12097080FE4615
:1000A0006F72776172640A0D004261636B776172EF
:1000B000640A0D004C6566740A0D00526967687425
:1000C0000A0D0053746F700A0D0057616974696EF0
:1000D0006720666F7220746865207369676E616C53
:1000E00020746F20626520310A0D00566F6C7420F9
:1000F0006174204144433A2025660A0D0053696724
:100100006E616C20697320300A0D00537461727443
:100110002054696D65720A0D0053746F7020546924
:100120006D65720A0D001B5B324A00537175617276
:100130006520776176652067656E657261746F72A0
:1001400020666F72207468652045464D384C4231F8
:100150002E0D0A436865636B2070696E7320503200
:100160002E3220616E642050322E312077697468FF
:1001700020746865206F7363696C6C6F73636F7054
:10018000652E0D0A000A0D002566090A0D0075226C
:1001900000752300752400752500E4F536F537E475
:1001A000F538F539753A01753B00753C00753D0031
:1001B000753E00753F007540007541007542017540
:1001C0004300754401754500754601754700754843
:1001D00001754900754A01754B00754C00754D005D
:1001E000754E00754F0075500075510075520175C0
:1001F00053007554007555007556017557007558B4
:1002000000755900755A01755B00755C01755D00DC
:10021000755E00755F00756001756100756200753F
:100220006300756400756500756600756700756824
:10023000007569002275A7007597DE7597AD75FF8B
:100240008075EF0675A71075C12075A70075A90008
:1002500075A900E5A930E7FB75A90375A903E5A910
:1002600030E7FB43A41075E10175E20075E34075CA
:100270009810758DE6858D8B53890F438920D28E1A
:10028000D29975C800438E1075CAE075CBE375CE60
:10029000FF75CFFFD2ADD2CAD2AF75820022AA823B
:1002A000AB83438E407592B87593FF859294859386
:1002B000957591047C007D00C3EC9AED9B500FE591
:1002C0009130E7FB53917F0CBC00ED0D80EA7591F6
:1002D0000022AA82AB837C007D00C3EC9AED9B5088
:1002E0002B7E00BE0400501D9000FAC002C003C067
:1002F00004C005C00612029ED006D005D004D0036B
:10030000D0020E80DE0CBC00D10D80CE228582BBD7
:10031000D2EC20ECFDD2EC20ECFD85BD8285BE83C5
:1003200022C0E0C002C003C0D075D000C2CF0522F9
:10033000E522249B5003752200AA227B00C3E526F8
:100340009AE5279B9200B39294AA227B00C3E528EA
:100350009AE5299B9200B39295AA227B00C3E526D9
:100360009AE5279B9200B39292AA227B00C3E528CC
:100370009AE5299B9200B39293D0D0D003D002D0BB
:10038000E03275A70075B28075BCF875B91E75E8C6
:100390000075DF3F75B300D2EF225389F043890126
:1003A000C28C2212030D120BE6AA82AB83ACF0FDC5
:1003B000C002C003C004C005906C8B75F05374403C
:1003C000120C52AA82AB83ACF0FDE58124FCF581CE
:1003D000E4C0E074FCC0E0747FC0E07446C0E08A12
:1003E000828B838CF0ED120D9CAA82AB83ACF0FD66
:1003F000E58124FCF5818A828B838CF0ED22AA8230
:10040000851CF005F07401800225E0D5F0FBFB753A
:10041000A720BA0002800ABA0102800FBA021E8029
:1004200014EBF4FA52F1EB42D48012EBF4FA52F2EC
:10043000EB42D58008EBF4FA52F3EB42CC75A700FF
:1004400022752663E4F527E4F528F529F52AF52B2E
:10045000752C63E4F52D749FC0E07400C0E07480D7
:10046000C0E0120D6E15811581158122E4F526F587
:1004700027752863E4F529752A63E4F52BE4F52C48
:10048000F52D74A9C0E07400C0E07480C0E0120DC6
:100490006E15811581158122E4F526F527F528F5DD
:1004A00029752A46E4F52BE4F52CF52D74B4C0E04B
:1004B0007400C0E07480C0E0120D6E1581158115C6
:1004C0008122752663E4F527E4F528F529F52AF558
:1004D0002BF52CF52D74BBC0E07400C0E07480C017
:1004E000E0120D6E15811581158122E4F526F527A0
:1004F000F528F529F52AF52BF52CF52D74C3C0E068
:100500007400C0E07480C0E0120D6E158115811575
:100510008122758A00758C00C28DC28C74CAC0E0BD
:100520007400C0E07480C0E0120D6E158115811555
:100530008175820C1203A3AA82AB83ACF0FDC002CA
:10054000C003C004C00574EBC0E07400C0E0748058
:10055000C0E0120D6EE58124F9F58175820C12035D
:10056000A3AA82AB83ACF0FD74CDC0E074CCC0E034
:10057000744CC0E0743DC0E08A828B838CF0ED1235
:100580000C22AA82E58124FCF581EA70CE75820CEA
:100590001203A3AA82AB83ACF0FD74CDC0E074CC8F
:1005A000C0E0744CC0E0743DC0E08A828B838CF064
:1005B000ED120C22AA82E58124FCF581EA60CE745A
:1005C000FDC0E07400C0E07480C0E0120D6E1581C3
:1005D0001581158175820C1203A3AA82AB83ACF03E
:1005E000FDC002C003C004C00574EBC0E07400C0CD
:1005F000E07480C0E0120D6EE58124F9F581740B82
:10060000C0E07401C0E07480C0E0120D6E15811569
:10061000811581D28CE4F56AF56B75820C1203A307
:10062000AC82AD83AEF0FF74CDC0E074CCC0E0749A
:100630004CC0E0743DC0E08C828D838EF0EF120CD4
:1006400022AC82E58124FCF581EC603975820C12C4
:1006500003A3AC82AD83AEF0FFC004C005C006C0EA
:100660000774EBC0E07400C0E07480C0E0120D6E4F
:10067000E58124F9F581108D02809F056AE4B56A51
:1006800099056B8095856A82856B83120D8FAC828C
:10069000AD83AEF0FFC004C005C006C007C004C0F3
:1006A00005C006C00790000075F0807447120C5218
:1006B00085826C85836D85F06EF56FE58124FCF590
:1006C00081858C82120CF5AA82AB83A8F0F9C00256
:1006D000C003C000C00190000075F0807443120C8C
:1006E00052AA82AB83A8F0F9E58124FCF581C0020F
:1006F000C003C000C001856C82856D83856EF0E506
:100700006F120D0085826C85836D85F06EF56FE547
:100710008124FCF581AA8A7B008A828B83120D8F4B
:10072000AA82AB83A8F0F9C002C003C000C0018553
:100730006C82856D83856EF0E56F120D00AA82AB29
:1007400083A8F0F9E58124FCF581C002C003C00054
:10075000C00190C33E75F02E7439120C52AA82ABC0
:1007600083A8F0F9E58124FCF581E4C0E0C0E074E1
:1007700020C0E07441C0E08A828B8388F0E9120CCB
:1007800022AA82E58124FCF581D007D006D005D0CD
:1007900004EA700302082475820CC004C005C00678
:1007A000C0071203A3A882A983AAF0FB74CDC0E0FE
:1007B00074CCC0E0744CC0E0743DC0E08882898392
:1007C0008AF0EB120C22AA82E58124FCF581D00785
:1007D000D006D005D004EA604B75820CC004C00579
:1007E000C006C0071203A3AA82AB83A8F0F9C00217
:1007F000C003C000C00174EBC0E07400C0E07480AE
:10080000C0E0120D6EE58124F9F581D007D006D045
:1008100005D004108D03020797056AE4B56A020546
:100820006B020797C28CC004C005C006C0077419CC
:10083000C0E07401C0E07480C0E0120D6E15811537
:1008400081158190000075F0807447120C52AA82C5
:10085000AB83ACF0FDE58124FCF581858C82C00280
:10086000C003C004C005120CF5AE82AF83A8F0F936
:10087000C006C007C000C00190000075F08074433E
:10088000120C52AE82AF83A8F0F9E58124FCF58109
:10089000D005D004D003D002C006C007C000C001FC
:1008A0008A828B838CF0ED120D00AA82AB83ACF0B0
:1008B000FDE58124FCF581AE8A7F008E828F83C0A6
:1008C00002C003C004C005120D8FAE82AF83A8F032
:1008D000F9D005D004D003D002C006C007C000C0C4
:1008E000018A828B838CF0ED120D00AA82AB83AC5F
:1008F000F0FDE58124FCF581C002C003C004C00501
:1009000090F4FC75F0327434120C52AA82AB83ACB2
:10091000F0FDE58124FCF581C002C003C004C005E0
:1009200090000075F07A7444120C52AA82AB83AC2A
:10093000F0FDE58124FCF5818A828B838CF0ED2229
:1009400075820C12030DE5828583F045F060F17528
:10095000820C12030DE5828583F045F060F1900072
:100960000012029E75820C0203A390000A0202D2BA
:1009700012039A751C067582011203FE120382741B
:1009800026C0E07401C0E07480C0E0120D6E1581D5
:1009900015811581742BC0E07401C0E07480C0E043
:1009A000120D6E1581158115817485C0E07401C02A
:1009B000E07480C0E0120D6E15811581158112055D
:1009C00012AA82AB83ACF0FDC002C003C004C00514
:1009D000C002C003C004C0057488C0E07401C0E058
:1009E0007480C0E0120D6EE58124F9F581D005D048
:1009F00004D003D002C002C003C004C005E4C0E0BC
:100A0000C0E074C8C0E07442C0E08A828B838CF07E
:100A1000ED120BF2AE82E58124FCF581D005D00405
:100A2000D003D002EE7003020BDAC002C003C00490
:100A3000C005E4C0E0C0E0742FC0E07444C0E08AA8
:100A4000828B838CF0ED120C22AE82E58124FCF5C2
:100A500081D005D004D003D002EE7038C002C003AC
:100A6000C004C005E4C0E0C0E07434C0E07444C019
:100A7000E08A828B838CF0ED120BF2AE82E581244A
:100A8000FCF581D005D004D003D002EE700612042C
:100A90006C020BDDC002C003C004C005E4C0E0C0AE
:100AA000E074AAC0E07443C0E08A828B838CF0EDCE
:100AB000120C22AE82E58124FCF581D005D004D051
:100AC00003D002EE704DC002C003C004C005E4C0F4
:100AD000E0C0E074B4C0E07443C0E08A828B838CD1
:100AE000F0ED120BF2AE82E58124FCF581D005D049
:100AF00004D003D002EE701B120441749FC0E07456
:100B000000C0E07480C0E0120D6E15811581158162
:100B1000020BDDC002C003C004C005E4C0E07440A5
:100B2000C0E074B0C0E07444C0E08A828B838CF073
:100B3000ED120C22AE82E58124FCF581D005D004B3
:100B4000D003D002EE7037C002C003C004C005E479
:100B5000C0E0C0E074B4C0E07444C0E08A828B831B
:100B60008CF0ED120BF2AE82E58124FCF581D0050C
:100B7000D004D003D002EE70051204C2805FC00220
:100B8000C003C004C005E4C0E07480C0E07484C049
:100B9000E07444C0E08A828B838CF0ED120C22AEAC
:100BA00082E58124FCF581D005D004D003D002EE8B
:100BB000702BC0E07440C0E07488C0E07444C0E0B2
:100BC0008A828B838CF0ED120BF2AA82E58124FCE1
:100BD000F581EA700812049880031204EB9003E890
:100BE0001202D20209BEE4AC83AB82FAF9748E021F
:100BF0000EC4FFA8811818120EECD2D133E64007BC
:100C000030E70B7582012220E70675820022C2D1EF
:100C1000120ECEE97003F5822230D101B3E433F530
:100C20008222FFA8811818120EECD2D133E64007B9
:100C300030E70B7582002220E70675820122C2D1BF
:100C4000120ECEE97003F5822220D101B3E433F510
:100C50008222120F99BC0003020F38EF60FA30D5E0
:100C600002B2D1E583B4FF03020F4EE582B4FF0365
:100C7000020F4E258340072482400B020F38248345
:100C8000145003020F4EF582EA8DF0A4A8F0EA8E0C
:100C9000F0A428F8E435F0F9EB8DF0A428E935F05C
:100CA000F9E433CA8FF0A429F9EA35F0FAEBF88EAB
:100CB000F0A429F9EA35F0FAE433FBEC8DF0A4292D
:100CC000F9EA35F0FAE43BFBE88FF0A42AFAEB35B9
:100CD000F0FBE433CCFD8EF0A42AFAEB35F0FBE414
:100CE0003CFCED8FF0A42BFBEC35F0FC20E703126D
:100CF0000F66020F17E4AC82FBFAF97486020EC489
:100D0000120F997900E583B58202800D5003120F0E
:100D1000C7E583C39582120FE1E5D0C465D020E119
:100D200017EA2DFAEB3EFBEC3FFC50097401120F61
:100D3000E1EC4480FC020F17C3EA9DFAEB9EFBEC4A
:100D40009FFC500FC3E499F9E49AFAE49BFBE49CFE
:100D5000FCB2D1120F66020F170219B085821885F6
:100D6000831985F01A85091B900D59021403C008D8
:100D7000858108E50824FBF51BE50824FBF88618A7
:100D800008861908861A900D59121403D00822AC4F
:100D900083AB827A007900748E0219CE120F9930DB
:100DA000D502B2D1BF0009BC0003020F5B020F4E97
:100DB000BC0003020F38E583B4FF0BE582B4FF03E8
:100DC000020F5B020F38E582B4FF03020F4EC3959A
:100DD000835007247F400B020F38248014500302F5
:100DE0000F4EC0E0E4CCCBCAF98D1C8E1D8F1EEFD8
:100DF00054F0C4F51F758306851FF0EB84F582E976
:100E0000C4F9EAC4FAEBC4FBEC540FC47803D6FC73
:100E100018EBD6FB18EAD6FA8582F0EDA4A8F0FD0F
:100E20008582F0EEA428FEE435F0F88582F0EFA488
:100E300028FFE435F0F8E99DF9EA9EFAEB9FFBEC18
:100E400098FCAD1CAE1DAF1E30E7101582E92DF9E0
:100E5000EA3EFAEB3FFBE43CFC80EDC082D5839890
:100E6000C3E933F9EA33FAEB33FBEC33FCC3E99D16
:100E7000EA9EEB9FEC9400B3E413F9D002D0E0C4F7
:100E80004AFAD003D0E0C44BFBD004D0E0F5F054D4
:100E90000FC44CFCD082158230F40FD3EC13FCEB62
:100EA00013FBEA13FAE913F90582E930E70A740142
:100EB0002AFAE43BFBE43CFC020F2FFCABF0AA83D4
:100EC000A982749EC2D1F582120F66020F177901B2
:100ED000AA82E68F82B5821318E6B5F00E18E6B541
:100EE000830918E68A82B58202790022B4800FE570
:100EF000F0700AE5837006E58270027F00EFB6802D
:100F00001518B6001018B6000B18B6000608080829
:100F100076002208080822B98003EA13B34010EAD9
:100F20002401FAE43BFBE43CFC50047C800582BCD9
:100F3000000EBB000BBA0008E4F5F0F583F5822241
:100F4000A2D1E582138CF092F78B838A8222E4F59A
:100F500083F58275F080F4A2D11322E4F583F58243
:100F600075F0C0747F227804EC7011E58224F8508B
:100F70000AF582E4C9CACBFCD8EF22EC78200582BE
:100F800020E713D5820122C3E933F9EA33FAEB33C0
:100F9000FBEC33FCD8EA158222AA82AB83A2F7339A
:100FA00092D16002D2F7F582ACF0E58124F9F8E63F
:100FB000FD08E6FE0886F008E6A2F73392D5600247
:100FC000D2F7F583AFF022E582C583F582A2D13353
:100FD000A2D592D11392D5ECCFFCEBCEFBEACDFAA1
:100FE000226040F82582500274FFF582E824F85010
:100FF0001ECCCBCAF9E4CC24F85014CBCAF9E4CB0C
:1010000024F8500BCAF9E4CA24F8500379002224CA
:10101000086010F8C3EC13FCEB13FBEA13FAE913B6
:10102000F9D8F122AA827435C0E07410C0E0C00A79
:10103000C00B8A82220511E4B51102051222AA8290
:1010400074302AFA24C6500A74072AFA300103437E
:1010500002208A82021024E582FAC4540FF582C06D
:101060000212103ED002740F5AF58202103EAA0CF2
:10107000AB0DAC0EAD0FAE10751720EE2EFEED23AE
:101080005401FF4206EA2AFAEB33FBEC33FCED3362
:10109000FDC3EE95134008EEC39513FE430201D540
:1010A00017D98A0C8B0D8C0E8D0F8E1022787CE652
:1010B00024D075F00AA4FA787DE624D02AFA787B49
:1010C0008603BB2D04C3E49AFA751301C3E464805C
:1010D0008AF063F08095F050297517038A0374F63F
:1010E0002517401C0513E517142470F8E517247024
:1010F000F98704A604772E1BEBFA6004051780DE3F
:101100008B02EA30E70D787186037872A603787156
:10111000762E0AE515600AE51504FB2513F5138004
:1011200005300C02051378708603E4BB2D0104FB27
:10113000700620070330080205133005030211F47E
:10114000300657EB600C75822DC002121024D002BD
:10115000801C30070C75822BC002121024D0028034
:101160000D30080A758220C002121024D002787156
:101170008604BC2E0C758230C002121024D00215D9
:1011800014AC141514C3E5139C4003021238758285
:1011900030C002121024D00280E7AC141514C3E54D
:1011A000139C500C758220C002121024D00280EAD9
:1011B00078708604BC2D0C75822DC002121024D0CC
:1011C00002801C30070C75822BC002121024D00242
:1011D000800D30080A758220C002121024D00278D7
:1011E000718604BC2E52758230C002121024D002C7
:1011F00015148044EB600E75822DC002121024D0AD
:10120000021514802030070E75822BC002121024A4
:10121000D0021514800F30080C758220C002121005
:1012200024D002151478718603BB2E0C758230C051
:1012300002121024D0021514751701C20EE51724EE
:1012400070F88603BB45030212F5BB2E348A03C334
:10125000E464808BF063F08095F0500F758230C0AD
:1012600003121024D0031B8B0280E48B02D20EE504
:10127000157038200C030212F575822E121024808E
:1012800074300E278A03EB30E71FC3E464808515B2
:10129000F063F08095F0500C758230C0031210247A
:1012A000D00315150B8B0280DD8B02300E0EC3E4CC
:1012B00064808515F063F08095F05021E517247067
:1012C000F886038B82C002121024D002300E0EE585
:1012D000172470F88603BB2E02800215151514C35F
:1012E000E464808515F063F08095F04003200E05DE
:1012F000051702123DC3E464808515F063F0809504
:10130000F0500A758230121024151580E830050F50
:10131000AA141514EA600875822012102480F122A4
:10132000E5157003300C0D74072515FAE514C39A02
:10133000F5148006E51424FAF51475170078708604
:1013400002BA2B0F20070C7870762020080575173D
:10135000010514200519AA14C3E464808AF063F01F
:101360008095F0500A758220121024151480E7C26F
:101370000EE5172470F88602BA00028069BA451F8C
:101380003001027665C3E464808515F063F08095D2
:10139000F0500A758230121024151580E8D20EC361
:1013A000E5179402E433FA7014EA700EC3E4648023
:1013B0008515F063F08095F04003300E16E5172494
:1013C00070F886028A82121024E51724FD50121547
:1013D00015800E7402B51709300C0675822E121096
:1013E000240517021371300519AA14C3E464808A16
:1013F000F063F08095F0500A7582201210241514C5
:1014000080E72285820A85830BE4F511F512AA187C
:10141000AB19AC1A8A828B838CF01219F2FD74011D
:101420002AF518E43BF5198C1AEDFA70030219A994
:10143000BA250280030219A1C205C206C207C2086A
:10144000C209C20AC20BC20CC202C203C204751393
:10145000007514007515FFAB18AC19AD1A8B828C92
:10146000838DF01219F2FAA3AB82AC838B188C191E
:101470008D1ABA25078A8212102480928A06BE30FD
:1014800000402E8A06EE24C6402774FFB51513E5EA
:101490001475F00AA4FEEA24D02EF51470BFD2060B
:1014A00080BBE51575F00AA4FEEA24D02EF5158060
:1014B000ACBA2E0A74FFB515A4751500809F8A0674
:1014C000BE6100400E8A06EE248540075302DFD23B
:1014D000018002C201BA20028075BA230302155EA0
:1014E000BA2A03021563BA2B02805FBA2D02805517
:1014F000BA4202805FBA43030215A8BA4403021637
:10150000E3BA45030216FDBA46030216F9BA4703C9
:10151000021701BA49030216E3BA4C02803BBA4EE5
:1015200003021705BA4F030216EABA500302167CEB
:10153000BA53030215CCBA55030216EFBA58030288
:1015400016F402172FD20502145DD20702145DD2E1
:101550000802145DD20A02145DD20B02145DD20C93
:1015600002145D74FFB51520300A0BE51B14F888D2
:101570001B861402145DE51B24FEF8881B860608F2
:101580008607188E1402145D300A0BE51B14F888C8
:101590001B861502145DE51B24FEF8881B860608D1
:1015A0008607188E1502145D300A0AE51B14F888A8
:1015B0001B8602800FE51B24FEF8881B8603088625
:1015C00004188B028A82121024021734E51B24FDB2
:1015D000F8881B860308860408860518188B0C8C6F
:1015E0000D8D0E8B828C838DF0121B46AB82AC83EB
:1015F0008B1674FFB5150385161520051DC3E5165A
:1016000095145016E514C39516F514AB141514EB88
:10161000600875822012102480F1850C82850D836C
:10162000850EF01219F2FBFA6029AB151515C3E40B
:1016300064808BF063F08095F050188A8212102439
:10164000AB0CAC0DAD0E0BBB00010C8B0C8C0D8DDF
:101650000E80C7200503021734C3E5169514400316
:10166000021734E514C39516F514AB141514EB707A
:101670000302173475822012102480EEE51B24FD2E
:10168000F8881B860308860408860518188B0C8CBE
:101690000D8D0EE50EFB30E7047A438013EB5460AA
:1016A00060047A50800AEB30E6047A4980027A5866
:1016B0008A82C00212102475823A12102475823078
:1016C000121024758278121024D002BA4902800BBD
:1016D000BA50028006850D82121057850C821210B6
:1016E000578051D20975130A804A751308804575D1
:1016F000130A8040751310803BD2028037D20380DA
:1017000033D204802FE51B24FDF8881B860308864E
:101710000408860518188B0C8C0D8D0E8B828C831B
:101720008DF0E511121B2DA3E512121B2D80058AE9
:1017300082121024200206200303300470E51B24CB
:10174000FCF8881B860308860408860508860618A8
:1017500018188B0C8C0D8D0E8E0FE50CE50DE50E1B
:10176000E50F8B828C838DF0EE121A0E74FFB51587
:1017700003751506300427747F550FFB8B10E51099
:10178000EB2BFB8B10E50E30E70674014510F510CE
:10179000E51024684006749925104002D2033003F6
:1017A0000612132002140E1210AD02140EE513706F
:1017B0000302140E7B75300A2BE51B14F8881BE618
:1017C000FC3395E0FDFEFF8C0C8D0D8E0E8F0F20EF
:1017D000095EAC0C7D007E007F008C0C8D0D8E0EA2
:1017E0008F0F804C300B1FE51B24FCF8881B8604F0
:1017F0000886050886060886071818188C0C8D0DB3
:101800008E0E8F0F802AE51B24FEF8881B860408A5
:10181000860518ED3395E0FEFF8C0C8D0D8E0E8F36
:101820000F20090CAC0CAD0D7E007F008E0E8F0FCB
:10183000300C43E50C450D450E450F60397408B575
:10184000130C758230C003121024D003802874104A
:10185000B51323758230C003121024D00330010C5D
:10186000758278C003121024D003800A758258C094
:1018700003121024D003300925AC0CAD0DAE0EE5DB
:101880000FFF30E717C3E49CFCE49DFDE49EFEE4FB
:101890009FFF8C0C8D0D8E0E8F0F8002C209751666
:1018A00000D20D8B00751000C00012106ED0002009
:1018B0000D0DE510C4FCE6FD4CF61888038002A669
:1018C000100516B20DE50C450D450E450F70D68876
:1018D00003E514700375140120061A200517E51698
:1018E00004FCC39514500E758220C003121024D03E
:1018F00003151480E930090E75822DC003121024DF
:10190000D00315148024E516602030070E75822B55
:10191000C003121024D0031514800F30080C7582F8
:1019200020C003121024D003151420051EAC14157A
:1019300014C3E5169C50273006047C3080027C20BE
:101940008C82C003121024D00380E2C3E5169514E4
:101950005009E514C39516F51480037514008B0027
:10196000AB161516EB6022B20D200D0A08E6C45422
:101970000FFB8B1080078603740F5BF510851082B8
:10198000C00012103ED00080D720050302140EAB19
:10199000141514EB700302140E75822012102480AB
:1019A000EE8A8212102402140E851182851283227F
:1019B000AA82BA0A0810990280FB75990D10990243
:1019C00080FB8A9922FCABF0AA83A982749EF582DF
:1019D000C2D1EC30E716D2D1E9F42401F9EAF434AB
:1019E00000FAEBF43400FBECF43400FC120F660256
:1019F0000F1720F71430F6148883A88220F507E625
:101A0000A88375830022E280F7E49322E022C0E0FD
:101A1000F84582458345F07009F5F0FBFCFDFE02B8
:101A20001ADCE823A2F792E0F8A982AA83D2F7ABE6
:101A3000F07C007E07C3749798404074FF2EFE74BC
:101A40000A89F0A4F985F082740A8AF0A4FA85F074
:101A500083740A8BF0A4FB740529F9EA3582FAEB4A
:101A60003583FB740035F0FCC3EC13FCEB13FBEA8D
:101A700013FAE913F908EC70EF80BAE8C3947FF821
:101A80008B838EF0E4FBFCFDFEFF08C3E933F9EA2B
:101A900033FAE58333F583EB3BD4FBEC3CD4FCED2C
:101AA0003DD4FDEE3ED4FEEF3FD4FF602D05F07433
:101AB000052BD4FBE43CD4FCE43DD4FDE43ED4FE51
:101AC000E43FD4FF758204C3EF13FFEE13FEED1362
:101AD000FDEC13FCEB13FBD582EDD8AF7870D0E0B2
:101AE00020E704762B8002762D087906E7C4540F90
:101AF0004430F608B90603762E08E7540F4430F652
:101B00000819B902E7764508E5F020E704762B804E
:101B100004762DF4040875F00A844430F608E5F0E4
:101B20004430F608E4F690007075F0402220F7107B
:101B300030F6118883A88220F507F6A88375830004
:101B400022F280F7F022AA82AB83ACF07D007E0007
:101B50008A828B838CF01219F2FFA3AA82AB83EFE7
:101B600060070DBD00EA0E80E78D828E83220000A3
:00000001FF
