:1000000002002E00000000000000000000000000C0
:10002000000000000000000000000002036875816D
:100030007F12027CE582600302009A780079007AE0
:10004000007B007C007D00EC4D601C88828983E48D
:1000500093A3A882A9838A828B83F0A3AA82AB830D
:100060001CBCFFE31D80E07582007583007C007D71
:1000700000EC4D600AE4F0A31CBCFFF51D80F27596
:1000800082007583007C007D00EC4D600AE4F0A3E3
:100090001CBCFFF51D80F21201D51209A680FE4698
:1000A0006F72776172640A0D004261636B776172EF
:1000B000640A0D004C6566740A0D00526967687425
:1000C0000A0D0053746F700A0D0057616974696EF0
:1000D0006720666F7220746865207369676E616C53
:1000E00020746F20626520310A0D00566F6C7420F9
:1000F0006174204144433A2025660A0D0053696724
:100100006E616C20697320300A0D00537461727443
:100110002054696D65720A0D00506F737369626CCB
:100120007920612053544F502E20627265616B20FC
:100130006F7574206F6620746865206C6F6F702017
:10014000616E642073746F702074696D65722E2007
:100150000A0D0053746F702054696D65720A0D00AA
:100160001B5B324A00537175617265207761766559
:100170002067656E657261746F7220666F7220749D
:1001800068652045464D384C42312E0D0A4368655E
:10019000636B2070696E732050322E3220616E6462
:1001A0002050322E31207769746820746865206F82
:1001B0007363696C6C6F73636F70652E0D0A000A50
:1001C0000D0062616474696D652566090A0D00257C
:1001D00066090A0D00752200752300752400752537
:1001E00000E4F536F537E4F538F539753A01753B35
:1001F00000753C00753D00753E00753F0075400080
:1002000075410075420175430075440175450075DF
:100210004601754700754801754900754A01754BDF
:1002200000754C00754D00754E00754F00755000FF
:100230007551007552017553007554007555007560
:100240005601755700755800755900755A01755B50
:1002500000755C01755D00755E00755F007560017D
:1002600075610075620075630075640075650075E1
:1002700066007567007568007569002275A70075CE
:1002800097DE7597AD75FF8075EF0675A71075C180
:100290002075A70075A90075A900E5A930E7FB75D1
:1002A000A90375A903E5A930E7FB43A41075E10193
:1002B00075E20075E340759810758DE6858D8B535A
:1002C000890F438920D28ED29975C800438E10754C
:1002D000CAE075CBE375CEFF75CFFFD2ADD2CAD2DF
:1002E000AF75820022AA82AB83438E407592B875A7
:1002F00093FF8592948593957591047C007D00C34E
:10030000EC9AED9B500FE59130E7FB53917F0CBCCD
:1003100000ED0D80EA75910022AA82AB837C007DFE
:1003200000C3EC9AED9B502B7E00BE0400501D9044
:1003300000FAC002C003C004C005C0061202E5D026
:1003400006D005D004D003D0020E80DE0CBC00D154
:100350000D80CE228582BBD2EC20ECFDD2EC20ECCD
:10036000FD85BD8285BE8322C0E0C002C003C0D02F
:1003700075D000C2CF0522E522249B5003752200D0
:10038000AA227B00C3E5269AE5279B9200B39294AC
:10039000AA227B00C3E5289AE5299B9200B3929597
:1003A000AA227B00C3E5269AE5279B9200B392928E
:1003B000AA227B00C3E5289AE5299B9200B3929379
:1003C000D0D0D003D002D0E03275A70075B28075CE
:1003D000BCF875B91E75E80075DF3F75B300D2EF44
:1003E000225389F0438901C28C22120354120D6FEB
:1003F000AA82AB83ACF0FDC002C003C004C005906C
:100400006C8B75F0537440120DDBAA82AB83ACF099
:10041000FDE58124FCF581E4C0E074FCC0E0747F5C
:10042000C0E07446C0E08A828B838CF0ED120F2509
:10043000AA82AB83ACF0FDE58124FCF5818A828B36
:10044000838CF0ED22AA82851CF005F074018002F5
:1004500025E0D5F0FBFB75A720BA0002800ABA019F
:1004600002800FBA021E8014EBF4FA52F1EB42D470
:100470008012EBF4FA52F2EB42D58008EBF4FA5218
:10048000F3EB42CC75A70022752663E4F527E4F56B
:1004900028F529F52AF52B752C63E4F52D749FC0FA
:1004A000E07400C0E07480C0E0120EF71581158181
:1004B000158122E4F526F527752863E4F529752AC8
:1004C00063E4F52BE4F52CF52D74A9C0E07400C0AD
:1004D000E07480C0E0120EF715811581158122E4C9
:1004E000F526F527F528F529752A46E4F52BE4F5D8
:1004F0002CF52D74B4C0E07400C0E07480C0E0122C
:100500000EF715811581158122752663E4F527E420
:10051000F528F529F52AF52BF52CF52D74BBC0E04F
:100520007400C0E07480C0E0120EF71581158115CB
:100530008122E4F526F527F528F529F52AF52BF58E
:100540002CF52D74C3C0E07400C0E07480C0E012CC
:100550000EF715811581158122758A00758C00C2F0
:100560008D7A007B00C28CC002C00374CAC0E074E4
:1005700000C0E07480C0E0120EF71581158115816E
:1005800075820C1203EAAC82AD83AEF0FFC004C0EA
:1005900005C006C00774EBC0E07400C0E07480C002
:1005A000E0120EF7E58124F9F581D003D0027582BF
:1005B0000CC002C0031203EAAC82AD83AEF0FF743C
:1005C000CDC0E074CCC0E0C0E0743EC0E08C828D51
:1005D000838EF0EF120DABAC82E58124FCF581D067
:1005E00003D002EC70C875820CC002C0031203EA8B
:1005F000AC82AD83AEF0FF74CDC0E074CCC0E0C07F
:10060000E0743EC0E08C828D838EF0EF120DABACB7
:1006100082E58124FCF581D003D002EC60C8C002E1
:10062000C00374FDC0E07400C0E07480C0E0120E2E
:10063000F715811581158175820C1203EAAC82AD24
:1006400083AEF0FFC004C005C006C00774EBC0E075
:100650007400C0E07480C0E0120EF7E58124F9F563
:1006600081740BC0E07401C0E07480C0E0120EF72A
:10067000158115811581D003D002D28CE4F56AF57D
:100680006B75820CC002C0031203EAAE82AF83A86E
:10069000F0F974CDC0E074CCC0E0C0E0743EC0E0BE
:1006A0008E828F8388F0E9120DABAE82E58124FC47
:1006B000F581D003D002EE700302084475820CC0AD
:1006C00002C0031203EAAE82AF83A8F0F9C006C0ED
:1006D00007C000C00174EBC0E07400C0E07480C0CB
:1006E000E0120EF7E58124F9F581D003D002108DD8
:1006F00002800C056AE4B56A02056BAA6AAB6BC09E
:1007000002C003856A82856B83C002C003120F1882
:10071000AE82AF83A8F0F9C006C007C000C0019048
:10072000000075F0807447120DDBAE82AF83A8F035
:10073000F9E58124FCF581D003D002858C82C006C6
:10074000C007C000C001120E7EAC82AD83AAF0FBD0
:10075000C004C005C002C00390000075F08074435F
:10076000120DDBAA82AB83ACF0FDE58124FCF581A0
:10077000D001D000D007D006C002C003C004C0051D
:100780008E828F8388F0E9120E89AA82AB83ACF047
:10079000FDE58124FCF581AE8A7F008E828F83C0C7
:1007A00002C003C004C005120F18AE82AF83A8F0C8
:1007B000F9D005D004D003D002C006C007C000C0E5
:1007C000018A828B838CF0ED120E89AA82AB83ACF6
:1007D000F0FDE58124FCF581C002C003C004C00522
:1007E00090C33E75F02E7439120DDBAA82AB83AC38
:1007F000F0FDE58124FCF581C003E4C0E07450C045
:10080000E07443C0E07447C0E08A828B838CF0EDD3
:10081000120DABAA82E58124FCF581D003EAD00356
:10082000D0026003020681C002C0037419C0E074E4
:1008300001C0E07480C0E0120EF7158115811581AA
:10084000D003D002C28CC002C0037453C0E0740154
:10085000C0E07480C0E0120EF7158115811581D0BB
:1008600003D0028A828B83120F18AA82AB83ACF06A
:10087000FDC002C003C004C00590000075F0807484
:1008800047120DDBAA82AB83ACF0FDE58124FCF5B9
:1008900081858C82C002C003C004C005120E7EAEEA
:1008A00082AF83A8F0F9C006C007C000C001900065
:1008B0000075F0807443120DDBAE82AF83A8F0F9AF
:1008C000E58124FCF581D005D004D003D002C00618
:1008D000C007C000C0018A828B838CF0ED120E89A4
:1008E000AA82AB83ACF0FDE58124FCF581AE8A7F62
:1008F000008E828F83C002C003C004C005120F188F
:10090000AE82AF83A8F0F9D005D004D003D002C0E6
:1009100006C007C000C0018A828B838CF0ED120EE6
:1009200089AA82AB83ACF0FDE58124FCF581C0028D
:10093000C003C004C00590F4FC75F0327434120D8D
:10094000DBAA82AB83ACF0FDE58124FCF581C0021B
:10095000C003C004C00590000075F07A7444120D05
:10096000DBAA82AB83ACF0FDE58124FCF5818A82B1
:100970008B838CF0ED2275820C120354E582858303
:10098000F045F060F175820C120354E5828583F026
:1009900045F060F19000001202E575820C0203EA56
:1009A00090000A0203191203E1751C0675820112F8
:1009B00004451203C97460C0E07401C0E07480C0D3
:1009C000E0120EF71581158115817465C0E0740180
:1009D000C0E07480C0E0120EF71581158115817496
:1009E000BFC0E07401C0E07480C0E0120EF7158152
:1009F00015811581756C00756D00756E00756F0041
:100A0000C2A1120559AE82AF83A8F0F9C006C00793
:100A1000C000C001E4C0E0C0E07448C0E07443C05E
:100A2000E08E828F8388F0E9120DABAA82E58124E3
:100A3000FCF581D001D000D007D006EA6035AE6C5D
:100A4000AF6DA86EA96FC006C007C000C001C06C22
:100A5000C06DC06EC06F74C2C0E07401C0E074802D
:100A6000C0E0120EF7E58124F9F581D001D000D065
:100A700007D006C006C007C000C001C006C007C03E
:100A800000C00174CFC0E07401C0E07480C0E01207
:100A90000EF7E58124F9F581D001D000D007D0060A
:100AA000C006C007C000C001E4C0E0C0E0742FC0B1
:100AB000E07444C0E08E828F8388F0E9120DABAA07
:100AC00082E58124FCF581D001D000D007D006EA70
:100AD0007075C006C007C000C001E4C0E0C0E0748B
:100AE00034C0E07444C0E08E828F8388F0E9120D38
:100AF0007BAA82E58124FCF581D001D000D007D00B
:100B000006EA7043C006C007C000C0011204B3D09B
:100B100001D000D007D006C006C007C000C001C089
:100B200006C007C000C00174CFC0E07401C0E0740B
:100B300080C0E0120EF7E58124F9F581D001D000E4
:100B4000D007D006020D4EC006C007C000C001E4A9
:100B5000C0E0C0E074AAC0E07443C0E08E828F831E
:100B600088F0E9120DABAA82E58124FCF581D00161
:100B7000D000D007D006EA706FC006C007C000C022
:100B800001E4C0E0C0E074B4C0E07443C0E08E8211
:100B90008F8388F0E9120D7BAA82E58124FCF58120
:100BA000D001D000D007D006EA703D752663E4F589
:100BB00027E4F528F529F52AF52B752C63E4F52DA6
:100BC000C006C007C000C001749FC0E07400C0E050
:100BD0007480C0E0120EF7158115811581D001D007
:100BE00000D007D006020D4EC006C007C000C001ED
:100BF000E4C0E07440C0E074B0C0E07444C0E08E73
:100C0000828F8388F0E9120DABAA82E58124FCF57E
:100C100081D001D000D007D006EA7075C006C007A9
:100C2000C000C001E4C0E0C0E074B4C0E07444C0DF
:100C3000E08E828F8388F0E9120D7BAA82E5812401
:100C4000FCF581D001D000D007D006EA7043C00681
:100C5000C007C000C001120509D001D000D007D0E4
:100C600006C006C007C000C001C006C007C000C063
:100C70000174CFC0E07401C0E07480C0E0120EF7D0
:100C8000E58124F9F581D001D000D007D006020D0E
:100C90004EC006C007C000C001E4C0E07480C0E0E0
:100CA0007484C0E07444C0E08E828F8388F0E912BF
:100CB0000DABAA82E58124FCF581D001D000D007DC
:100CC000D006EA7076C006C007C000C001E4C0E0EC
:100CD0007440C0E07488C0E07444C0E08E828F83AA
:100CE00088F0E9120D7BAA82E58124FCF581D00110
:100CF000D000D007D006EA7042C006C007C000C0CE
:100D0000011204DFD001D000D007D006C006C00712
:100D1000C000C001C006C007C000C00174CFC0E061
:100D20007401C0E07480C0E0120EF7E58124F9F58B
:100D300081D001D000D007D0068013C006C007C004
:100D400000C001120532D001D000D007D0069003B8
:100D5000E8C006C007C000C001120319D001D000CE
:100D6000D007D0068E6C8F6D886E896F020A02E400
:100D7000AC83AB82FAF9748E02104DFFA88118186B
:100D8000121075D2D133E6400730E70B758201228D
:100D900020E70675820022C2D1121057E97003F5D0
:100DA000822230D101B3E433F58222FFA8811818E2
:100DB000121075D2D133E6400730E70B758200225E
:100DC00020E70675820122C2D1121057E97003F59F
:100DD000822220D101B3E433F58222121122BC0019
:100DE000030210C1EF60FA30D502B2D1E583B4FF3F
:100DF000030210D7E582B4FF030210D72583400712
:100E00002482400B0210C124831450030210D7F532
:100E100082EA8DF0A4A8F0EA8EF0A428F8E435F078
:100E2000F9EB8DF0A428E935F0F9E433CA8FF0A48A
:100E300029F9EA35F0FAEBF88EF0A429F9EA35F051
:100E4000FAE433FBEC8DF0A429F9EA35F0FAE43B3F
:100E5000FBE88FF0A42AFAEB35F0FBE433CCFD8EEF
:100E6000F0A42AFAEB35F0FBE43CFCED8FF0A42B68
:100E7000FBEC35F0FC20E7031210EF0210A0E4AC0D
:100E800082FBFAF9748602104D1211227900E58373
:100E9000B58202800D5003121150E583C395821272
:100EA000116AE5D0C465D020E117EA2DFAEB3EFBCC
:100EB000EC3FFC5009740112116AEC4480FC0210F2
:100EC000A0C3EA9DFAEB9EFBEC9FFC500FC3E49994
:100ED000F9E49AFAE49BFBE49CFCB2D11210EF0215
:100EE00010A0021B3985821885831985F01A85099F
:100EF0001B900EE202158CC008858108E50824FBD2
:100F0000F51BE50824FBF8861808861908861A9050
:100F10000EE212158CD00822AC83AB827A007900E5
:100F2000748E021B5712112230D502B2D1BF0009B4
:100F3000BC00030210E40210D7BC00030210C1E59C
:100F400083B4FF0BE582B4FF030210E40210C1E595
:100F500082B4FF030210D7C395835007247F400B50
:100F60000210C124801450030210D7C0E0E4CCCB9F
:100F7000CAF98D1C8E1D8F1EEF54F0C4F51F7583AA
:100F800006851FF0EB84F582E9C4F9EAC4FAEBC4E4
:100F9000FBEC540FC47803D6FC18EBD6FB18EAD64A
:100FA000FA8582F0EDA4A8F0FD8582F0EEA428FE7B
:100FB000E435F0F88582F0EFA428FFE435F0F8E995
:100FC0009DF9EA9EFAEB9FFBEC98FCAD1CAE1DAFC1
:100FD0001E30E7101582E92DF9EA3EFAEB3FFBE4FB
:100FE0003CFC80EDC082D58398C3E933F9EA33FA3B
:100FF000EB33FBEC33FCC3E99DEA9EEB9FEC9400E2
:10100000B3E413F9D002D0E0C44AFAD003D0E0C46C
:101010004BFBD004D0E0F5F0540FC44CFCD082154B
:101020008230F40FD3EC13FCEB13FBEA13FAE91351
:10103000F90582E930E70A74012AFAE43BFBE43C53
:10104000FC0210B8FCABF0AA83A982749EC2D1F551
:10105000821210EF0210A07901AA82E68F82B58277
:101060001318E6B5F00E18E6B5830918E68A82B5BE
:101070008202790022B4800FE5F0700AE5837006E1
:10108000E58270027F00EFB6801518B6001018B622
:10109000000B18B600060808087600220808082287
:1010A000B98003EA13B34010EA2401FAE43BFBE4FD
:1010B0003CFC50047C800582BC000EBB000BBA00D7
:1010C00008E4F5F0F583F58222A2D1E582138CF0D5
:1010D00092F78B838A8222E4F583F58275F080F49F
:1010E000A2D11322E4F583F58275F0C0747F2278D3
:1010F00004EC7011E58224F8500AF582E4C9CACBE9
:10110000FCD8EF22EC7820058220E713D58201225B
:10111000C3E933F9EA33FAEB33FBEC33FCD8EA15D5
:101120008222AA82AB83A2F73392D16002D2F7F572
:1011300082ACF0E58124F9F8E6FD08E6FE0886F0C9
:1011400008E6A2F73392D56002D2F7F583AFF0221A
:10115000E582C583F582A2D133A2D592D11392D56F
:10116000ECCFFCEBCEFBEACDFA226040F8258250B2
:101170000274FFF582E824F8501ECCCBCAF9E4CC07
:1011800024F85014CBCAF9E4CB24F8500BCAF9E484
:10119000CA24F8500379002224086010F8C3EC1325
:1011A000FCEB13FBEA13FAE913F9D8F122AA8274D3
:1011B000BEC0E07411C0E0C00AC00B8A82220511D3
:1011C000E4B51102051222AA8274302AFA24C6500C
:1011D0000A74072AFA3001034302208A820211AD01
:1011E000E582FAC4540FF582C0021211C7D002740E
:1011F0000F5AF5820211C7AA0CAB0DAC0EAD0FAEA3
:1012000010751720EE2EFEED235401FF4206EA2A48
:10121000FAEB33FBEC33FCED33FDC3EE95134008E2
:10122000EEC39513FE430201D517D98A0C8B0D8CA2
:101230000E8D0F8E1022787CE624D075F00AA4FA69
:10124000787DE624D02AFA787B8603BB2D04C3E49C
:101250009AFA751301C3E464808AF063F08095F014
:1012600050297517038A0374F62517401C0513E5EA
:1012700017142470F8E5172470F98704A604772E54
:101280001BEBFA6004051780DE8B02EA30E70D786D
:101290007186037872A6037871762E0AE515600AC6
:1012A000E51504FB2513F5138005300C02051378B2
:1012B000708603E4BB2D0104FB7006200703300891
:1012C00002051330050302137D300657EB600C75E1
:1012D000822DC0021211ADD002801C30070C758225
:1012E0002BC0021211ADD002800D30080A75822089
:1012F000C0021211ADD00278718604BC2E0C75822A
:1013000030C0021211ADD0021514AC141514C3E58F
:10131000139C40030213C1758230C0021211ADD07C
:101320000280E7AC141514C3E5139C500C758220A1
:10133000C0021211ADD00280EA78708604BC2D0C78
:1013400075822DC0021211ADD002801C30070C75C1
:10135000822BC0021211ADD002800D30080A7582B6
:1013600020C0021211ADD00278718604BC2E5275D5
:101370008230C0021211ADD00215148044EB600E11
:1013800075822DC0021211ADD002151480203007D5
:101390000E75822BC0021211ADD0021514800F30D1
:1013A000080C758220C0021211ADD002151478719C
:1013B0008603BB2E0C758230C0021211ADD002150F
:1013C00014751701C20EE5172470F88603BB450398
:1013D00002147EBB2E348A03C3E464808BF063F076
:1013E0008095F0500F758230C0031211ADD0031BF1
:1013F0008B0280E48B02D20EE5157038200C0302BC
:10140000147E75822E1211AD8074300E278A03EB84
:1014100030E71FC3E464808515F063F08095F050D9
:101420000C758230C0031211ADD00315150B8B0261
:1014300080DD8B02300E0EC3E464808515F063F00E
:101440008095F05021E5172470F886038B82C00246
:101450001211ADD002300E0EE5172470F88603BBD2
:101460002E02800215151514C3E464808515F063FF
:10147000F08095F04003200E0505170213C6C3E463
:1014800064808515F063F08095F0500A7582301203
:1014900011AD151580E830050FAA141514EA60087F
:1014A0007582201211AD80F122E5157003300C0D0C
:1014B00074072515FAE514C39AF5148006E514247B
:1014C000FAF51475170078708602BA2B0F20070CF6
:1014D000787076202008057517010514200519AAD3
:1014E00014C3E464808AF063F08095F0500A75823A
:1014F000201211AD151480E7C20EE5172470F8868E
:1015000002BA00028069BA451F3001027665C3E461
:1015100064808515F063F08095F0500A7582301272
:1015200011AD151580E8D20EC3E5179402E433FA25
:101530007014EA700EC3E464808515F063F0809542
:10154000F04003300E16E5172470F886028A8212E6
:1015500011ADE51724FD50121515800E7402B51754
:1015600009300C0675822E1211AD05170214FA30DF
:101570000519AA14C3E464808AF063F08095F050E2
:101580000A7582201211AD151480E72285820A8522
:10159000830BE4F511F512AA18AB19AC1A8A828BE9
:1015A000838CF0121B7BFD74012AF518E43BF519BE
:1015B0008C1AEDFA7003021B32BA25028003021B5B
:1015C0002AC205C206C207C208C209C20AC20BC2A9
:1015D0000CC202C203C2047513007514007515FF16
:1015E000AB18AC19AD1A8B828C838DF0121B7BFA71
:1015F000A3AB82AC838B188C198D1ABA25078A820B
:101600001211AD80928A06BE3000402E8A06EE246A
:10161000C6402774FFB51513E51475F00AA4FEEA59
:1016200024D02EF51470BFD20680BBE51575F00AE4
:10163000A4FEEA24D02EF51580ACBA2E0A74FFB5AC
:1016400015A4751500809F8A06BE6100400E8A06AB
:10165000EE248540075302DFD2018002C201BA2086
:10166000028075BA23030216E7BA2A030216ECBAFF
:101670002B02805FBA2D028055BA4202805FBA43C6
:1016800003021731BA440302186CBA4503021886E4
:10169000BA4603021882BA470302188ABA490302FB
:1016A000186CBA4C02803BBA4E0302188EBA4F0334
:1016B000021873BA5003021805BA5303021755BA39
:1016C0005503021878BA580302187D0218B8D205DB
:1016D0000215E6D2070215E6D2080215E6D20A0282
:1016E00015E6D20B0215E6D20C0215E674FFB5150D
:1016F00020300A0BE51B14F8881B86140215E6E55A
:101700001B24FEF8881B8606088607188E1402150F
:10171000E6300A0BE51B14F8881B86150215E6E572
:101720001B24FEF8881B8606088607188E150215EE
:10173000E6300A0AE51B14F8881B8602800FE51BB9
:1017400024FEF8881B8603088604188B028A8212FE
:1017500011AD0218BDE51B24FDF8881B8603088621
:101760000408860518188B0C8C0D8D0E8B828C83CB
:101770008DF0121CCFAB82AC838B1674FFB51503B2
:1017800085161520051DC3E51695145016E514C3DE
:101790009516F514AB141514EB6008758220121120
:1017A000AD80F1850C82850D83850EF0121B7BFBCD
:1017B000FA6029AB151515C3E464808BF063F080E3
:1017C00095F050188A821211ADAB0CAC0DAD0E0B1A
:1017D000BB00010C8B0C8C0D8D0E80C72005030205
:1017E00018BDC3E516951440030218BDE514C39552
:1017F00016F514AB141514EB70030218BD75822096
:101800001211AD80EEE51B24FDF8881B86030886C7
:101810000408860518188B0C8C0D8D0EE50EFB3018
:10182000E7047A438013EB546060047A50800AEB3B
:1018300030E6047A4980027A588A82C0021211ADD9
:1018400075823A1211AD7582301211AD758278121F
:1018500011ADD002BA4902800BBA50028006850D44
:10186000821211E0850C821211E08051D2097513A9
:101870000A804A751308804575130A804075131055
:10188000803BD2028037D2038033D204802FE51B05
:1018900024FDF8881B860308860408860518188B23
:1018A0000C8C0D8D0E8B828C838DF0E511121CB685
:1018B000A3E512121CB680058A821211AD20020621
:1018C000200303300470E51B24FCF8881B86030802
:1018D00086040886050886061818188B0C8C0D8D52
:1018E0000E8E0FE50CE50DE50EE50F8B828C838DDA
:1018F000F0EE121B9774FFB515037515063004271B
:10190000747F550FFB8B10E510EB2BFB8B10E50E56
:1019100030E70674014510F510E5102468400674A0
:101920009925104002D2033003061214A90215971C
:10193000121236021597E51370030215977B753066
:101940000A2BE51B14F8881BE6FC3395E0FDFEFF2F
:101950008C0C8D0D8E0E8F0F20095EAC0C7D007EE1
:10196000007F008C0C8D0D8E0E8F0F804C300B1F66
:10197000E51B24FCF8881B860408860508860608F3
:1019800086071818188C0C8D0D8E0E8F0F802AE587
:101990001B24FEF8881B860408860518ED3395E0A5
:1019A000FEFF8C0C8D0D8E0E8F0F20090CAC0CAD34
:1019B0000D7E007F008E0E8F0F300C43E50C450D21
:1019C000450E450F60397408B5130C758230C0039D
:1019D0001211ADD00380287410B51323758230C066
:1019E000031211ADD00330010C758278C0031211BF
:1019F000ADD003800A758258C0031211ADD00330F8
:101A00000925AC0CAD0DAE0EE50FFF30E717C3E4B2
:101A10009CFCE49DFDE49EFEE49FFF8C0C8D0D8EEE
:101A20000E8F0F8002C209751600D20D8B00751043
:101A300000C0001211F7D000200D0DE510C4FCE627
:101A4000FD4CF61888038002A6100516B20DE50CB1
:101A5000450D450E450F70D68803E51470037514C7
:101A60000120061A200517E51604FCC39514500E34
:101A7000758220C0031211ADD003151480E930091E
:101A80000E75822DC0031211ADD00315148024E50C
:101A900016602030070E75822BC0031211ADD003E3
:101AA0001514800F30080C758220C0031211ADD0C0
:101AB00003151420051EAC141514C3E5169C5027FD
:101AC0003006047C3080027C208C82C0031211AD71
:101AD000D00380E2C3E51695145009E514C39516AA
:101AE000F51480037514008B00AB161516EB6022FD
:101AF000B20D200D0A08E6C4540FFB8B1080078638
:101B000003740F5BF510851082C0001211C7D0005E
:101B100080D7200503021597AB141514EB70030250
:101B200015977582201211AD80EE8A821211AD02D6
:101B3000159785118285128322AA82BA0A08109904
:101B40000280FB75990D10990280FB8A9922FCABEB
:101B5000F0AA83A982749EF582C2D1EC30E716D236
:101B6000D1E9F42401F9EAF43400FAEBF43400FB8F
:101B7000ECF43400FC1210EF0210A020F71430F641
:101B8000148883A88220F507E6A88375830022E2E3
:101B900080F7E49322E022C0E0F84582458345F0D7
:101BA0007009F5F0FBFCFDFE021C65E823A2F7922C
:101BB000E0F8A982AA83D2F7ABF07C007E07C37459
:101BC0009798404074FF2EFE740A89F0A4F985F0BE
:101BD00082740A8AF0A4FA85F083740A8BF0A4FB5D
:101BE000740529F9EA3582FAEB3583FB740035F088
:101BF000FCC3EC13FCEB13FBEA13FAE913F908EC52
:101C000070EF80BAE8C3947FF88B838EF0E4FBFC1E
:101C1000FDFEFF08C3E933F9EA33FAE58333F583C0
:101C2000EB3BD4FBEC3CD4FCED3DD4FDEE3ED4FECE
:101C3000EF3FD4FF602D05F074052BD4FBE43CD4BA
:101C4000FCE43DD4FDE43ED4FEE43FD4FF758204C1
:101C5000C3EF13FFEE13FEED13FDEC13FCEB13FBD0
:101C6000D582EDD8AF7870D0E020E704762B8002E3
:101C7000762D087906E7C4540F4430F608B90603F8
:101C8000762E08E7540F4430F60819B902E7764576
:101C900008E5F020E704762B8004762DF40408751F
:101CA000F00A844430F608E5F04430F608E4F69093
:101CB000007075F0402220F71030F6118883A8825A
:101CC00020F507F6A88375830022F280F7F022AA98
:101CD00082AB83ACF07D007E008A828B838CF01215
:101CE0001B7BFFA3AA82AB83EF60070DBD00EA0E4A
:101CF00080E78D828E83220000000000000000003B
:00000001FF
