:1000000002002E00000000000000000000000000C0
:10002000000000000000000000000002032E7581A7
:1000300079120242E582600302009A780079007A20
:10004000007B007C007D00EC4D601C88828983E48D
:1000500093A3A882A9838A828B83F0A3AA82AB830D
:100060001CBCFFE31D80E07582007583007C007D71
:1000700000EC4D600AE4F0A31CBCFFF51D80F27596
:1000800082007583007C007D00EC4D600AE4F0A3E3
:100090001CBCFFF51D80F212019B1207FA80FE4680
:1000A0006F72776172640A0D004261636B776172EF
:1000B000640A0D004C6566740A0D00526967687425
:1000C0000A0D0053746F700A0D0057616974696EF0
:1000D0006720666F7220746865207369676E616C53
:1000E00020746F20626520310A0D00566F6C7420F9
:1000F0006174204144433A2025660A0D0053696724
:100100006E616C20697320300A0D00537461727443
:100110002054696D65720A0D0053746F7020546924
:100120006D65720A0D001B5B324A00537175617276
:100130006520776176652067656E657261746F72A0
:1001400020666F72207468652045464D384C4231F8
:100150002E0D0A436865636B2070696E7320503200
:100160002E3220616E642050322E312077697468FF
:1001700020746865206F7363696C6C6F73636F7054
:10018000652E0D0A000A0D0054696D65203A202580
:1001900066090A0D002566090A0D007522007523FF
:1001A00000752400752500E4F536F537E4F538F5DB
:1001B00039753A01753B00753C00753D00753E0090
:1001C000753F00754000754100754201754300752B
:1001D000440175450075460175470075480175492C
:1001E00000754A01754B00754C00754D00754E0049
:1001F000754F0075500075510075520175530075AB
:10020000540075550075560175570075580075599D
:1002100000755A01755B00755C01755D00755E00C7
:10022000755F00756001756100756200756300752A
:10023000640075650075660075670075680075690E
:10024000002275A7007597DE7597AD75FF8075EF75
:100250000675A71075C12075A70075A90075A900BE
:10026000E5A930E7FB75A90375A903E5A930E7FB0C
:1002700043A41075E10175E20075E34075981075AF
:100280008DE6858D8B53890F438920D28ED2997547
:10029000C800438E1075CAE075CBE375CEFF75CFED
:1002A000FFD2ADD2CAD2AF75820022AA82AB8343FD
:1002B0008E407592B87593FF85929485939575914C
:1002C000047C007D00C3EC9AED9B500FE59130E774
:1002D000FB53917F0CBC00ED0D80EA75910022AAC2
:1002E00082AB837C007D00C3EC9AED9B502B7E009B
:1002F000BE0400501D9000FAC002C003C004C00537
:10030000C0061202ABD006D005D004D003D0020E36
:1003100080DE0CBC00D10D80CE228582BBD2EC20C9
:10032000ECFDD2EC20ECFD85BD8285BE8322C0E0D1
:10033000C002C003C0D075D000C2CF0522E5222480
:100340009B5003752200AA227B00C3E5269AE5276D
:100350009B9200B39294AA227B00C3E5289AE529D8
:100360009B9200B39295AA227B00C3E5269AE527CB
:100370009B9200B39292AA227B00C3E5289AE529BA
:100380009B9200B39293D0D0D003D002D0E03275CC
:10039000A70075B28075BCF875B91E75E80075DFE9
:1003A0003F75B300D2EF225389F0438901C28C22FA
:1003B00012031A120A9FAA82AB83ACF0FDC002C0DE
:1003C00003C004C005906C8B75F0537440120B0B86
:1003D000AA82AB83ACF0FDE58124FCF581E4C0E0AA
:1003E00074FCC0E0747FC0E07446C0E08A828B83F6
:1003F0008CF0ED120C55AA82AB83ACF0FDE58124A4
:10040000FCF5818A828B838CF0ED22AA82851CF018
:1004100005F07401800225E0D5F0FBFB75A720BA3A
:100420000002800ABA0102800FBA021E8014EBF4A7
:10043000FA52F1EB42D48012EBF4FA52F2EB42D5CD
:100440008008EBF4FA52F3EB42CC75A70022752634
:1004500063E4F527E4F528F529F52AF52B752C63D7
:10046000E4F52D749FC0E07400C0E07480C0E01219
:100470000C2715811581158122E4F526F5277528AD
:1004800063E4F529752A63E4F52BE4F52CF52D7466
:10049000A9C0E07400C0E07480C0E0120C27158190
:1004A0001581158122E4F526F527F528F529752A09
:1004B00046E4F52BE4F52CF52D74B4C0E07400C0CF
:1004C000E07480C0E0120C2715811581158122751A
:1004D0002663E4F527E4F528F529F52AF52BF52C14
:1004E000F52D74BBC0E07400C0E07480C0E0120C55
:1004F0002715811581158122E4F526F527F528F5C4
:1005000029F52AF52BF52CF52D74C3C0E07400C035
:10051000E07480C0E0120C271581158115812275C9
:100520008A00758C00C28DC28C74CAC0E07400C091
:10053000E07480C0E0120C27158115811581758249
:100540000C1203B0AA82AB83ACF0FDC002C003C0A2
:1005500004C00574EBC0E07400C0E07480C0E01219
:100560000C27E58124F9F58175820C1203B0AA826B
:10057000AB83ACF0FD74CDC0E074CCC0E0C0E074DF
:100580003EC0E08A828B838CF0ED120ADBAA82E502
:100590008124FCF581EA70D075820C1203B0AA8226
:1005A000AB83ACF0FD74CDC0E074CCC0E0C0E074AF
:1005B0003EC0E08A828B838CF0ED120ADBAA82E5D2
:1005C0008124FCF581EA60D074FDC0E07400C0E0D5
:1005D0007480C0E0120C2715811581158175820C7D
:1005E0001203B0AA82AB83ACF0FDC002C003C0040A
:1005F000C00574EBC0E07400C0E07480C0E0120C71
:1006000027E58124F9F581740BC0E07401C0E07422
:1006100080C0E0120C27158115811581D28C7A00DB
:100620007B0075820CC002C0031203B0AC82AD83A4
:10063000AEF0FF74CDC0E074CCC0E0C0E0743EC04A
:10064000E08C828D838EF0EF120ADBAC82E5812490
:10065000FCF581D003D002EC603E75820CC002C074
:10066000031203B0AC82AD83AEF0FFC004C005C07E
:1006700006C00774EBC0E07400C0E07480C0E012F4
:100680000C27E58124F9F581D003D002108D02807A
:10069000910ABA008D0B808AC28CC002C003741903
:1006A000C0E07401C0E07480C0E0120C2715811511
:1006B000811581D003D0028A828B83120C48AA82D2
:1006C000AB83ACF0FDC002C003C004C005900000C5
:1006D00075F0807447120B0BAA82AB83ACF0FDE57A
:1006E0008124FCF581858C82C002C003C004C00552
:1006F000120BAEAE82AF83A8F0F9C006C007C000EF
:10070000C00190000075F0807443120B0BAE82AFF5
:1007100083A8F0F9E58124FCF581D005D004D0034D
:10072000D002C006C007C000C0018A828B838CF053
:10073000ED120BB9AA82AB83ACF0FDE58124FCF588
:1007400081AE8A7F008E828F83C002C003C004C046
:1007500005120C48AE82AF83A8F0F9D005D004D0C2
:1007600003D002C006C007C000C0018A828B838C00
:10077000F0ED120BB9AA82AB83ACF0FDE58124FC4D
:10078000F581C002C003C004C00590F4FC75F032CE
:100790007434120B0BAA82AB83ACF0FDE58124FC10
:1007A000F581C002C003C004C00590000075F07A56
:1007B0007444120B0BAA82AB83ACF0FDE58124FCE0
:1007C000F5818A828B838CF0ED2275820C12031ADC
:1007D000E5828583F045F060F175820C12031AE51D
:1007E000828583F045F060F19000001202AB7582C3
:1007F0000C0203B090000A0202DF1203A7751C0668
:1008000075820112040B12038F7426C0E07401C0BC
:10081000E07480C0E0120C27158115811581742BBE
:10082000C0E07401C0E07480C0E0120C271581158F
:100830008115817485C0E07401C0E07480C0E0124D
:100840000C2715811581158112051FAA82AB83AC77
:10085000F0FDC002C003C004C005C002C003C00454
:10086000C0057488C0E07401C0E07480C0E0120C60
:1008700027E58124F9F581D005D004D003D002C04A
:1008800002C003C004C005E4C0E0C0E0742FC0E0B3
:100890007444C0E08A828B838CF0ED120ADBAE8256
:1008A000E58124FCF581D005D004D003D002EE70A0
:1008B00055C002C003C004C005E4C0E0C0E0743409
:1008C000C0E07444C0E08A828B838CF0ED120AABE6
:1008D000AE82E58124FCF581D005D004D003D0029E
:1008E000EE7023C002C003C004C0051204797495E1
:1008F000C0E07401C0E07480C0E0120C27E58124E0
:10090000F9F581020848C002C003C004C005E4C074
:10091000E0C0E074AAC0E07443C0E08A828B838C9C
:10092000F0ED120ADBAE82E58124FCF581D005D022
:1009300004D003D002EE704DC002C003C004C00555
:10094000E4C0E0C0E074B4C0E07443C0E08A828BCD
:10095000838CF0ED120AABAE82E58124FCF581D0E8
:1009600005D004D003D002EE701B12044E749FC059
:10097000E07400C0E07480C0E0120C27158115817E
:100980001581020848C002C003C004C005E4C0E0ED
:100990007440C0E074B0C0E07444C0E08A828B83CD
:1009A0008CF0ED120ADBAE82E58124FCF581D005E6
:1009B000D004D003D002EE7055C002C003C004C002
:1009C00005E4C0E0C0E074B4C0E07444C0E08A82D2
:1009D0008B838CF0ED120AABAE82E58124FCF581AD
:1009E000D005D004D003D002EE7023C002C003C0F3
:1009F00004C0051204CF7495C0E07401C0E0748097
:100A0000C0E0120C27E58124F9F581020848C002F4
:100A1000C003C004C005E4C0E07480C0E07484C0BA
:100A2000E07444C0E08A828B838CF0ED120ADBAE66
:100A300082E58124FCF581D005D004D003D002EEFC
:100A40007057C002C003C004C005E4C0E07440C0D9
:100A5000E07488C0E07444C0E08A828B838CF0ED3F
:100A6000120AABAE82E58124FCF581D005D004D01A
:100A700003D002EE7023C002C003C004C0051204FC
:100A8000A57495C0E07401C0E07480C0E0120C272A
:100A9000E58124F9F5810208481204F8020848E4C7
:100AA000AC83AB82FAF9748E020D7DFFA881181811
:100AB000120DA5D2D133E6400730E70B7582012233
:100AC00020E70675820022C2D1120D87E97003F576
:100AD000822230D101B3E433F58222FFA8811818B5
:100AE000120DA5D2D133E6400730E70B7582002204
:100AF00020E70675820122C2D1120D87E97003F545
:100B0000822220D101B3E433F58222120E52BC00BE
:100B100003020DF1EF60FA30D502B2D1E583B4FFE4
:100B200003020E07E582B4FF03020E072583400788
:100B30002482400B020DF12483145003020E07F5AA
:100B400082EA8DF0A4A8F0EA8EF0A428F8E435F04B
:100B5000F9EB8DF0A428E935F0F9E433CA8FF0A45D
:100B600029F9EA35F0FAEBF88EF0A429F9EA35F024
:100B7000FAE433FBEC8DF0A429F9EA35F0FAE43B12
:100B8000FBE88FF0A42AFAEB35F0FBE433CCFD8EC2
:100B9000F0A42AFAEB35F0FBE43CFCED8FF0A42B3B
:100BA000FBEC35F0FC20E703120E1F020DD0E4AC85
:100BB00082FBFAF97486020D7D120E527900E583EC
:100BC000B58202800D5003120E80E583C395821218
:100BD0000E9AE5D0C465D020E117EA2DFAEB3EFB72
:100BE000EC3FFC50097401120E9AEC4480FC020D9B
:100BF000D0C3EA9DFAEB9EFBEC9FFC500FC3E49937
:100C0000F9E49AFAE49BFBE49CFCB2D1120E1F02B9
:100C10000DD002186985821885831985F01A850917
:100C20001B900C120212BCC008858108E50824FB49
:100C3000F51BE50824FBF8861808861908861A9023
:100C40000C121212BCD00822AC83AB827A0079005D
:100C5000748E021887120E5230D502B2D1BF00092D
:100C6000BC0003020E14020E07BC0003020DF1E5E6
:100C700083B4FF0BE582B4FF03020E14020DF1E50D
:100C800082B4FF03020E07C395835007247F400BF5
:100C9000020DF12480145003020E07C0E0E4CCCB17
:100CA000CAF98D1C8E1D8F1EEF54F0C4F51F75837D
:100CB00006851FF0EB84F582E9C4F9EAC4FAEBC4B7
:100CC000FBEC540FC47803D6FC18EBD6FB18EAD61D
:100CD000FA8582F0EDA4A8F0FD8582F0EEA428FE4E
:100CE000E435F0F88582F0EFA428FFE435F0F8E968
:100CF0009DF9EA9EFAEB9FFBEC98FCAD1CAE1DAF94
:100D00001E30E7101582E92DF9EA3EFAEB3FFBE4CD
:100D10003CFC80EDC082D58398C3E933F9EA33FA0D
:100D2000EB33FBEC33FCC3E99DEA9EEB9FEC9400B4
:100D3000B3E413F9D002D0E0C44AFAD003D0E0C43F
:100D40004BFBD004D0E0F5F0540FC44CFCD082151E
:100D50008230F40FD3EC13FCEB13FBEA13FAE91324
:100D6000F90582E930E70A74012AFAE43BFBE43C26
:100D7000FC020DE8FCABF0AA83A982749EC2D1F5F7
:100D800082120E1F020DD07901AA82E68F82B582EF
:100D90001318E6B5F00E18E6B5830918E68A82B591
:100DA0008202790022B4800FE5F0700AE5837006B4
:100DB000E58270027F00EFB6801518B6001018B6F5
:100DC000000B18B60006080808760022080808225A
:100DD000B98003EA13B34010EA2401FAE43BFBE4D0
:100DE0003CFC50047C800582BC000EBB000BBA00AA
:100DF00008E4F5F0F583F58222A2D1E582138CF0A8
:100E000092F78B838A8222E4F583F58275F080F471
:100E1000A2D11322E4F583F58275F0C0747F2278A5
:100E200004EC7011E58224F8500AF582E4C9CACBBB
:100E3000FCD8EF22EC7820058220E713D58201222E
:100E4000C3E933F9EA33FAEB33FBEC33FCD8EA15A8
:100E50008222AA82AB83A2F73392D16002D2F7F545
:100E600082ACF0E58124F9F8E6FD08E6FE0886F09C
:100E700008E6A2F73392D56002D2F7F583AFF022ED
:100E8000E582C583F582A2D133A2D592D11392D542
:100E9000ECCFFCEBCEFBEACDFA226040F825825085
:100EA0000274FFF582E824F8501ECCCBCAF9E4CCDA
:100EB00024F85014CBCAF9E4CB24F8500BCAF9E457
:100EC000CA24F8500379002224086010F8C3EC13F8
:100ED000FCEB13FBEA13FAE913F9D8F122AA8274A6
:100EE000EEC0E0740EC0E0C00AC00B8A8222051179
:100EF000E4B51102051222AA8274302AFA24C650DF
:100F00000A74072AFA3001034302208A82020EDDA6
:100F1000E582FAC4540FF582C002120EF7D00274B3
:100F20000F5AF582020EF7AA0CAB0DAC0EAD0FAE48
:100F300010751720EE2EFEED235401FF4206EA2A1B
:100F4000FAEB33FBEC33FCED33FDC3EE95134008B5
:100F5000EEC39513FE430201D517D98A0C8B0D8C75
:100F60000E8D0F8E10227876E624D075F00AA4FA42
:100F70007877E624D02AFA78758603BB2D04C3E47B
:100F80009AFA751301C3E464808AF063F08095F0E7
:100F900050297517038A0374F62517401C0513E5BD
:100FA0001714246AF8E517246AF98704A604772E33
:100FB0001BEBFA6004051780DE8B02EA30E70D7840
:100FC0006B8603786CA603786B762E0AE515600AAB
:100FD000E51504FB2513F5138005300C0205137885
:100FE0006A8603E4BB2D0104FB700620070330086A
:100FF0000205133005030210AD300657EB600C7587
:10100000822DC002120EDDD002801C30070C7582CA
:101010002BC002120EDDD002800D30080A7582202E
:10102000C002120EDDD002786B8604BC2E0C7582D5
:1010300030C002120EDDD0021514AC141514C3E535
:10104000139C40030210F1758230C002120EDDD0F5
:101050000280E7AC141514C3E5139C500C75822074
:10106000C002120EDDD00280EA786A8604BC2D0C24
:1010700075822DC002120EDDD002801C30070C7567
:10108000822BC002120EDDD002800D30080A75825C
:1010900020C002120EDDD002786B8604BC2E527581
:1010A0008230C002120EDDD00215148044EB600EB7
:1010B00075822DC002120EDDD0021514802030077B
:1010C0000E75822BC002120EDDD0021514800F3077
:1010D000080C758220C002120EDDD0021514786B48
:1010E0008603BB2E0C758230C002120EDDD00215B5
:1010F00014751701C20EE517246AF88603BB450371
:101100000211AEBB2E348A03C3E464808BF063F01B
:101110008095F0500F758230C003120EDDD0031B96
:101120008B0280E48B02D20EE5157038200C03028E
:1011300011AE75822E120EDD8074300E278A03EBFD
:1011400030E71FC3E464808515F063F08095F050AC
:101150000C758230C003120EDDD00315150B8B0207
:1011600080DD8B02300E0EC3E464808515F063F0E1
:101170008095F05021E517246AF886038B82C0021F
:10118000120EDDD002300E0EE517246AF88603BB7E
:101190002E02800215151514C3E464808515F063D2
:1011A000F08095F04003200E0505170210F6C3E409
:1011B00064808515F063F08095F0500A75823012D6
:1011C0000EDD151580E830050FAA141514EA600825
:1011D000758220120EDD80F122E5157003300C0DB2
:1011E00074072515FAE514C39AF5148006E514244E
:1011F000FAF514751700786A8602BA2B0F20070CCF
:10120000786A76202008057517010514200519AAAB
:1012100014C3E464808AF063F08095F0500A75820C
:1012200020120EDD151480E7C20EE517246AF88639
:1012300002BA00028069BA451F3001027665C3E434
:1012400064808515F063F08095F0500A7582301245
:101250000EDD151580E8D20EC3E5179402E433FACB
:101260007014EA700EC3E464808515F063F0809515
:10127000F04003300E16E517246AF886028A8212BF
:101280000EDDE51724FD50121515800E7402B517FA
:1012900009300C0675822E120EDD051702122A3057
:1012A0000519AA14C3E464808AF063F08095F050B5
:1012B0000A758220120EDD151480E72285820A85C8
:1012C000830BE4F511F512AA18AB19AC1A8A828BBC
:1012D000838CF01218ABFD74012AF518E43BF51964
:1012E0008C1AEDFA7003021862BA25028003021804
:1012F0005AC205C206C207C208C209C20AC20BC24C
:101300000CC202C203C2047513007514007515FFE8
:10131000AB18AC19AD1A8B828C838DF01218ABFA16
:10132000A3AB82AC838B188C198D1ABA25078A82DD
:10133000120EDD80928A06BE3000402E8A06EE2410
:10134000C6402774FFB51513E51475F00AA4FEEA2C
:1013500024D02EF51470BFD20680BBE51575F00AB7
:10136000A4FEEA24D02EF51580ACBA2E0A74FFB57F
:1013700015A4751500809F8A06BE6100400E8A067E
:10138000EE248540075302DFD2018002C201BA2059
:10139000028075BA2303021417BA2A0302141CBA76
:1013A0002B02805FBA2D028055BA4202805FBA4399
:1013B00003021461BA440302159CBA45030215B630
:1013C000BA46030215B2BA47030215BABA49030274
:1013D000159CBA4C02803BBA4E030215BEBA4F03AD
:1013E0000215A3BA5003021535BA5303021485BA85
:1013F00055030215A8BA58030215AD0215E8D20527
:10140000021316D207021316D208021316D20A02CA
:101410001316D20B021316D20C02131674FFB51555
:1014200020300A0BE51B14F8881B8614021316E5FE
:101430001B24FEF8881B8606088607188E140213E4
:1014400016300A0BE51B14F8881B8615021316E5E7
:101450001B24FEF8881B8606088607188E150213C3
:1014600016300A0AE51B14F8881B8602800FE51B5C
:1014700024FEF8881B8603088604188B028A8212D1
:101480000EDD0215EDE51B24FDF8881B860308869A
:101490000408860518188B0C8C0D8D0E8B828C839E
:1014A0008DF01219FFAB82AC838B1674FFB5150358
:1014B00085161520051DC3E51695145016E514C3B1
:1014C0009516F514AB141514EB6008758220120EF6
:1014D000DD80F1850C82850D83850EF01218ABFB43
:1014E000FA6029AB151515C3E464808BF063F080B6
:1014F00095F050188A82120EDDAB0CAC0DAD0E0BC0
:10150000BB00010C8B0C8C0D8D0E80C720050302D7
:1015100015EDC3E516951440030215EDE514C395CA
:1015200016F514AB141514EB70030215ED7582203B
:10153000120EDD80EEE51B24FDF8881B860308866D
:101540000408860518188B0C8C0D8D0EE50EFB30EB
:10155000E7047A438013EB546060047A50800AEB0E
:1015600030E6047A4980027A588A82C002120EDD7F
:1015700075823A120EDD758230120EDD7582781298
:101580000EDDD002BA4902800BBA50028006850DEA
:1015900082120F10850C82120F108051D209751320
:1015A0000A804A751308804575130A804075131028
:1015B000803BD2028037D2038033D204802FE51BD8
:1015C00024FDF8881B860308860408860518188BF6
:1015D0000C8C0D8D0E8B828C838DF0E5111219E62B
:1015E000A3E5121219E680058A82120EDD2002069A
:1015F000200303300470E51B24FCF8881B860308D5
:1016000086040886050886061818188B0C8C0D8D24
:101610000E8E0FE50CE50DE50EE50F8B828C838DAC
:10162000F0EE1218C774FFB51503751506300427C0
:10163000747F550FFB8B10E510EB2BFB8B10E50E29
:1016400030E70674014510F510E510246840067473
:101650009925104002D2033003061211D90212C795
:10166000120F660212C7E51370030212C77B6F30B8
:101670000A2BE51B14F8881BE6FC3395E0FDFEFF02
:101680008C0C8D0D8E0E8F0F20095EAC0C7D007EB4
:10169000007F008C0C8D0D8E0E8F0F804C300B1F39
:1016A000E51B24FCF8881B860408860508860608C6
:1016B00086071818188C0C8D0D8E0E8F0F802AE55A
:1016C0001B24FEF8881B860408860518ED3395E078
:1016D000FEFF8C0C8D0D8E0E8F0F20090CAC0CAD07
:1016E0000D7E007F008E0E8F0F300C43E50C450DF4
:1016F000450E450F60397408B5130C758230C00370
:10170000120EDDD00380287410B51323758230C00B
:1017100003120EDDD00330010C758278C003120E67
:10172000DDD003800A758258C003120EDDD003306D
:101730000925AC0CAD0DAE0EE50FFF30E717C3E485
:101740009CFCE49DFDE49EFEE49FFF8C0C8D0D8EC1
:101750000E8F0F8002C209751600D20D8B00751016
:1017600000C000120F27D000200D0DE510C4FCE6CC
:10177000FD4CF61888038002A6100516B20DE50C84
:10178000450D450E450F70D68803E514700375149A
:101790000120061A200517E51604FCC39514500E07
:1017A000758220C003120EDDD003151480E93009C4
:1017B0000E75822DC003120EDDD00315148024E5B2
:1017C00016602030070E75822BC003120EDDD00389
:1017D0001514800F30080C758220C003120EDDD066
:1017E00003151420051EAC141514C3E5169C5027D0
:1017F0003006047C3080027C208C82C003120EDD17
:10180000D00380E2C3E51695145009E514C395167C
:10181000F51480037514008B00AB161516EB6022CF
:10182000B20D200D0A08E6C4540FFB8B108007860A
:1018300003740F5BF510851082C000120EF7D00004
:1018400080D72005030212C7AB141514EB700302F6
:1018500012C7758220120EDD80EE8A82120EDD0222
:1018600012C785118285128322AA82BA0A081099AA
:101870000280FB75990D10990280FB8A9922FCABBE
:10188000F0AA83A982749EF582C2D1EC30E716D209
:10189000D1E9F42401F9EAF43400FAEBF43400FB62
:1018A000ECF43400FC120E1F020DD020F71430F6B9
:1018B000148883A88220F507E6A88375830022E2B6
:1018C00080F7E49322E022C0E0F84582458345F0AA
:1018D0007009F5F0FBFCFDFE021995E823A2F792D2
:1018E000E0F8A982AA83D2F7ABF07C007E07C3742C
:1018F0009798404074FF2EFE740A89F0A4F985F091
:1019000082740A8AF0A4FA85F083740A8BF0A4FB2F
:10191000740529F9EA3582FAEB3583FB740035F05A
:10192000FCC3EC13FCEB13FBEA13FAE913F908EC24
:1019300070EF80BAE8C3947FF88B838EF0E4FBFCF1
:10194000FDFEFF08C3E933F9EA33FAE58333F58393
:10195000EB3BD4FBEC3CD4FCED3DD4FDEE3ED4FEA1
:10196000EF3FD4FF602D05F074052BD4FBE43CD48D
:10197000FCE43DD4FDE43ED4FEE43FD4FF75820494
:10198000C3EF13FFEE13FEED13FDEC13FCEB13FBA3
:10199000D582EDD8AF786AD0E020E704762B8002BC
:1019A000762D087906E7C4540F4430F608B90603CB
:1019B000762E08E7540F4430F60819B902E7764549
:1019C00008E5F020E704762B8004762DF4040875F2
:1019D000F00A844430F608E5F04430F608E4F69066
:1019E000006A75F0402220F71030F6118883A88233
:1019F00020F507F6A88375830022F280F7F022AA6B
:101A000082AB83ACF07D007E008A828B838CF012E7
:101A100018ABFFA3AA82AB83EF60070DBD00EA0EEF
:101A200080E78D828E83220000000000000000000D
:00000001FF
