:100000000200037581431200E2E582600302006F83
:10001000780079007A007B007C007D00EC4D601C4C
:1000200088828983E493A3A882A9838A828B83F040
:10003000A3AA82AB831CBCFFE31D80E07582007520
:1000400083007C007D00EC4D600AE4F0A31CBCFF43
:10005000F51D80F27582007583007C007D00EC4DFB
:10006000600AE4F0A31CBCFFF51D80F21200E1124F
:1000700001AB80FE1B5B324A000D206F7665726615
:100080006C6F775F636F756E743A25640A000D6656
:100090003D256620487A202C2020202020506572A3
:1000A000696F643D25666D730A006F7574206F6615
:1000B0002072616E67650064697374616E636520A8
:1000C000696E20496E636865733A2025660064692D
:1000D0007374616E636520696E20636D3A202566D6
:1000E000002275A7007597DE7597AD75FF8075EFD7
:1000F0000675A71075C12075A70075A90075A90020
:10010000E5A930E7FB75A90375A903E5A930E7FB6D
:1001100043A41075E10175E20075E3407598107510
:100120008DE6858D8B53890F438920D28ED29975A8
:100130008200225389F0438901C28C22AA82AB83B8
:10014000438E407592B87593FF859294859395750B
:1001500091047C007D00C3EC9AED9B500FE591303B
:10016000E7FB53917F0CBC00ED0D80EA75910022F6
:10017000AA82AB837C007D00C3EC9AED9B502B7E62
:1001800000BE0400501D9000FAC002C003C004C0AD
:1001900005C00612013CD006D005D004D003D00221
:1001A0000E80DE0CBC00D10D80CE22E4F50DF50EE4
:1001B000F58AF58CC28D1201339001F4120170742E
:1001C00074C0E07400C0E07480C0E01205F11581D5
:1001D00015811581C2A1900002120170D2A1900078
:1001E0000A120170AC0DAD0E20A00C108D0280F82B
:1001F0000CBC00F40D80F18C0D8D0EC004C005C048
:1002000004C0057479C0E07400C0E07480C0E012DE
:1002100005F1E58124FBF581D005D004C28C8C82E8
:100220008D83120612AC82AD83AEF0FFC004C00510
:10023000C006C00790000075F08074471204D5AC6A
:1002400082AD83AEF0FFE58124FCF581858C82C010
:1002500004C005C006C007120578A882A983AAF0C9
:10026000FBC000C001C002C00390000075F08074A4
:10027000431204D5AA82AB83A8F0F9E58124FCF5EA
:1002800081D007D006D005D004C002C003C000C092
:10029000018C828D838EF0EF120583AA82AB83AC32
:1002A000F0FDE58124FCF581AE8A7F008E828F838C
:1002B000C002C003C004C005120612AE82AF83A8FC
:1002C000F0F9D005D004D003D002C006C007C000AA
:1002D000C0018A828B838CF0ED120583AA82AB83E6
:1002E000ACF0FDE58124FCF581C002C003C004C070
:1002F0000590F4FC75F03274341204D585820F85B4
:10030000831085F011F512E58124FCF581C00FC042
:1003100010C011C01290000075F07A74441204D518
:10032000AE82AF83A8F0F9E58124FCF581C006C058
:1003300007C000C001C00FC010C011C01290000063
:1003400075F080743F12061FAA82AB83ACF0FDE506
:100350008124FCF581C002C003C004C005748EC0B6
:10036000E07400C0E07480C0E01205F1E58124F57E
:10037000F58174CDC0E074CCC0E074E8C0E0744195
:10038000C0E0850F828510838511F0E51212061FEB
:10039000AA82AB83ACF0FDE58124FCF581E4C0E0EA
:1003A000C0E0C0E07440C0E08A828B838CF0ED1224
:1003B000061FAA82AB83ACF0FDE58124FCF581C069
:1003C00002C003C004C005E4C0E0C0E07494C0E013
:1003D0007442C0E0850F828510838511F0E512120A
:1003E000061FAE82AF83A8F0F9E58124FCF581E415
:1003F000C0E0C0E0C0E07440C0E08E828F8388F02F
:10040000E912061F85820985830A85F00BF50CE544
:100410008124FCF581D005D004D003D002C002C0F5
:1004200003C004C005E4C0E0C0E0C0E0C0E08A82D0
:100430008B838CF0ED1204A5AE82E58124FCF5815E
:10044000D005D004D003D002EE701774AAC0E074B7
:1004500000C0E07480C0E01205F11581158115819E
:10046000803AC002C003C004C005C009C00AC00B66
:10047000C00C74B7C0E07400C0E07480C0E0120526
:10048000F1E58124F9F58174CEC0E07400C0E07418
:1004900080C0E01205F1E58124F9F5819003E812AE
:1004A00001700201D4FFA881181812075CD2D13361
:1004B000E6400730E70B7582012220E706758200CF
:1004C00022C2D112073EE97003F5822230D101B376
:1004D000E433F58222120809BC00030207A8EF608A
:1004E000FA30D502B2D1E583B4FF030207BEE5823C
:1004F000B4FF030207BE258340072482400B020796
:10050000A824831450030207BEF582EA8DF0A4A844
:10051000F0EA8EF0A428F8E435F0F9EB8DF0A42889
:10052000E935F0F9E433CA8FF0A429F9EA35F0FA95
:10053000EBF88EF0A429F9EA35F0FAE433FBEC8D00
:10054000F0A429F9EA35F0FAE43BFBE88FF0A42A9D
:10055000FAEB35F0FBE433CCFD8EF0A42AFAEB3550
:10056000F0FBE43CFCED8FF0A42BFBEC35F0FC2021
:10057000E7031207D6020787E4AC82FBFAF9748618
:100580000208401208097900E583B58202800D5007
:100590000312084AE583C39582120864E5D0C46556
:1005A000D020E117EA2DFAEB3EFBEC3FFC5009743A
:1005B00001120864EC4480FC020787C3EA9DFAEB51
:1005C0009EFBEC9FFC500FC3E499F9E49AFAE49B7C
:1005D000FBE49CFCB2D11207D602078702123385D6
:1005E000823085833185F0328513339005DC020C2F
:1005F00086C008858108E50824FBF533E50824FB5F
:10060000F886300886310886329005DC120C86D0D8
:100610000822AC83AB827A007900748E02125112E8
:10062000080930D502B2D1BF0009BC00030207CBD4
:100630000207BEBC00030207A8E583B4FF0BE582F6
:10064000B4FF030207CB0207A8E582B4FF03020749
:10065000BEC395835007247F400B0207A824801453
:1006600050030207BEC0E0E4CCCBCAF98D148E154E
:100670008F16EF54F0C4F5177583068517F0EB84D9
:10068000F582E9C4F9EAC4FAEBC4FBEC540FC47870
:1006900003D6FC18EBD6FB18EAD6FA8582F0EDA457
:1006A000A8F0FD8582F0EEA428FEE435F0F88582FE
:1006B000F0EFA428FFE435F0F8E99DF9EA9EFAEBA3
:1006C0009FFBEC98FCAD14AE15AF1630E710158209
:1006D000E92DF9EA3EFAEB3FFBE43CFC80EDC082F9
:1006E000D58398C3E933F9EA33FAEB33FBEC33FCF7
:1006F000C3E99DEA9EEB9FEC9400B3E413F9D002AA
:10070000D0E0C44AFAD003D0E0C44BFBD004D0E020
:10071000F5F0540FC44CFCD082158230F40FD3ECAA
:1007200013FCEB13FBEA13FAE913F90582E930E74E
:100730000A74012AFAE43BFBE43CFC02079F7901BE
:10074000AA82E68F82B5821318E6B5F00E18E6B5D8
:10075000830918E68A82B58202790022B4800FE507
:10076000F0700AE5837006E58270027F00EFB680C4
:100770001518B6001018B6000B18B60006080808C1
:1007800076002208080822B98003EA13B34010EA71
:100790002401FAE43BFBE43CFC50047C800582BC71
:1007A000000EBB000BBA0008E4F5F0F583F58222D9
:1007B000A2D1E582138CF092F78B838A8222E4F532
:1007C00083F58275F080F4A2D11322E4F583F582DB
:1007D00075F0C0747F227804EC7011E58224F85023
:1007E0000AF582E4C9CACBFCD8EF22EC7820058256
:1007F00020E713D5820122C3E933F9EA33FAEB3358
:10080000FBEC33FCD8EA158222AA82AB83A2F73331
:1008100092D16002D2F7F582ACF0E58124F9F8E6D6
:10082000FD08E6FE0886F008E6A2F73392D56002DE
:10083000D2F7F583AFF022FCABF0AA83A982749EB5
:10084000C2D1F5821207D6020787E582C583F582F9
:10085000A2D133A2D592D11392D5ECCFFCEBCEFB33
:10086000EACDFA226040F82582500274FFF582E852
:1008700024F8501ECCCBCAF9E4CC24F85014CBCACF
:10088000F9E4CB24F8500BCAF9E4CA24F8500379F0
:10089000002224086010F8C3EC13FCEB13FBEA13EE
:1008A000FAE913F9D8F122AA8274B8C0E07408C03A
:1008B000E0C022C0238A82220529E4B52902052A44
:1008C00022AA8274302AFA24C6500A74072AFA30FF
:1008D00000034302208A820208A7E582FAC4540F6B
:1008E000F582C0021208C1D002740F5AF5820208C4
:1008F000C1AA24AB25AC26AD27AE28752F20EE2E3D
:10090000FEED235401FF4206EA2AFAEB33FBEC33F7
:10091000FCED33FDC3EE952B4008EEC3952BFE4353
:100920000201D52FD98A248B258C268D278E28224B
:100930007840E624D075F00AA4FA7841E624D02A5B
:10094000FA783F8603BB2D04C3E49AFA752B01C3E2
:10095000E464808AF063F08095F05029752F038A53
:100960000374F6252F401C052BE52F142434F8E5DD
:100970002F2434F98704A604772E1BEBFA600405B4
:100980002F80DE8B02EA30E70D783586037836A6B5
:10099000037835762E0AE52D600AE52D04FB252B1C
:1009A000F52B8005300B02052B78348603E4BB2D34
:1009B0000104FB7006200603300702052B300403F8
:1009C000020A77300557EB600C75822DC0021208C1
:1009D000A7D002801C30060C75822BC0021208A71B
:1009E000D002800D30070A758220C0021208A7D0FD
:1009F0000278358604BC2E0C758230C0021208A71E
:100A0000D002152CAC2C152CC3E52B9C4003020AFC
:100A1000BB758230C0021208A7D00280E7AC2C154B
:100A20002CC3E52B9C500C758220C0021208A7D065
:100A30000280EA78348604BC2D0C75822DC0021227
:100A400008A7D002801C30060C75822BC002120849
:100A5000A7D002800D30070A758220C0021208A7B5
:100A6000D00278358604BC2E52758230C00212083E
:100A7000A7D002152C8044EB600E75822DC00212A7
:100A800008A7D002152C802030060E75822BC002DC
:100A90001208A7D002152C800F30070C758220C0D9
:100AA000021208A7D002152C78358603BB2E0C75D0
:100AB0008230C0021208A7D002152C752F01C20D7A
:100AC000E52F2434F88603BB4503020B78BB2E3494
:100AD0008A03C3E464808BF063F08095F0500F7557
:100AE0008230C0031208A7D0031B8B0280E48B0264
:100AF000D20DE52D7038200B03020B7875822E1273
:100B000008A78074300D278A03EB30E71FC3E46425
:100B100080852DF063F08095F0500C758230C00315
:100B20001208A7D003152D0B8B0280DD8B02300D30
:100B30000EC3E46480852DF063F08095F05021E5CC
:100B40002F2434F886038B82C0021208A7D002300B
:100B50000D0EE52F2434F88603BB2E028002152DDE
:100B6000152CC3E46480852DF063F08095F040037C
:100B7000200D05052F020AC0C3E46480852DF063B3
:100B8000F08095F0500A7582301208A7152D80E884
:100B900030040FAA2C152CEA60087582201208A7D1
:100BA00080F122E52D7003300B0D7407252DFAE539
:100BB0002CC39AF52C8006E52C24FAF52C752F0011
:100BC00078348602BA2B0F20060C78347620200762
:100BD00005752F01052C200419AA2CC3E464808A12
:100BE000F063F08095F0500A7582201208A7152C4A
:100BF00080E7C20DE52F2434F88602BA000280692E
:100C0000BA451F3000027665C3E46480852DF06329
:100C1000F08095F0500A7582301208A7152D80E8F3
:100C2000D20DC3E52F9402E433FA7014EA700EC3B8
:100C3000E46480852DF063F08095F04003300D165C
:100C4000E52F2434F886028A821208A7E52F24FDB6
:100C50005012152D800E7402B52F09300B067582C7
:100C60002E1208A7052F020BF4300419AA2CC3E496
:100C700064808AF063F08095F0500A758220120833
:100C8000A7152C80E722858222858323E4F529F5A8
:100C90002AAA30AB31AC328A828B838CF012127567
:100CA000FD74012AF530E43BF5318C32EDFA700326
:100CB00002122CBA25028003021224C204C205C209
:100CC00006C207C208C209C20AC20BC201C202C2DE
:100CD00003752B00752C00752DFFAB30AC31AD3298
:100CE0008B828C838DF0121275FAA3AB82AC838B4E
:100CF000308C318D32BA25078A821208A780928AF9
:100D000006BE3000402E8A06EE24C6402774FFB58A
:100D10002D13E52C75F00AA4FEEA24D02EF52C70D4
:100D2000BFD20580BBE52D75F00AA4FEEA24D02EC3
:100D3000F52D80ACBA2E0A74FFB52DA4752D008058
:100D40009F8A06BE6100400E8A06EE248540075346
:100D500002DFD2008002C200BA20028075BA2303EB
:100D6000020DE1BA2A03020DE6BA2B02805FBA2D0A
:100D7000028055BA4202805FBA4303020E2BBA4486
:100D800003020F66BA4503020F80BA4603020F7CC6
:100D9000BA4703020F84BA4903020F66BA4C0280B5
:100DA0003BBA4E03020F88BA4F03020F6DBA5003CD
:100DB000020EFFBA5303020E4FBA5503020F72BA66
:100DC0005803020F77020FB2D204020CE0D20602DF
:100DD0000CE0D207020CE0D209020CE0D20A020CAD
:100DE000E0D20B020CE074FFB52D2030090BE53387
:100DF00014F88833862C020CE0E53324FEF888339F
:100E00008606088607188E2C020CE030090BE533A5
:100E100014F88833862D020CE0E53324FEF888337D
:100E20008606088607188E2D020CE030090AE53385
:100E300014F888338602800FE53324FEF888338661
:100E400003088604188B028A821208A7020FB7E5EE
:100E50003324FDF8883386030886040886051818AD
:100E60008B248C258D268B828C838DF01213C9AB3D
:100E700082AC838B2E74FFB52D03852E2D20041D8F
:100E8000C3E52E952C5016E52CC3952EF52CAB2CD6
:100E9000152CEB60087582201208A780F18524824A
:100EA0008525838526F0121275FBFA6029AB2D1576
:100EB0002DC3E464808BF063F08095F050188A8233
:100EC0001208A7AB24AC25AD260BBB00010C8B246C
:100ED0008C258D2680C7200403020FB7C3E52E950D
:100EE0002C4003020FB7E52CC3952EF52CAB2C1527
:100EF0002CEB7003020FB77582201208A780EEE575
:100F00003324FDF8883386030886040886051818FC
:100F10008B248C258D26E526FB30E7047A4380134D
:100F2000EB546060047A50800AEB30E6047A498022
:100F3000027A588A82C0021208A775823A1208A75C
:100F40007582301208A77582781208A7D002BA49B4
:100F500002800BBA500280068525821208DA8524A9
:100F6000821208DA8051D208752B0A804A752B0844
:100F70008045752B0A8040752B10803BD20180374D
:100F8000D2028033D203802FE53324FDF8883386E4
:100F90000308860408860518188B248C258D268B5B
:100FA000828C838DF0E5291213B0A3E52A1213B0C9
:100FB00080058A821208A7200106200203300370F0
:100FC000E53324FCF8883386030886040886050880
:100FD00086061818188B248C258D268E27E524E587
:100FE00025E526E5278B828C838DF0EE1212917415
:100FF000FFB52D03752D06300327747F5527FB8B16
:1010000028E528EB2BFB8B28E52630E70674014505
:1010100028F528E52824684006749925284002D23E
:1010200002300206120BA3020C91120930020C913D
:10103000E52B7003020C917B3930092BE53314F852
:101040008833E6FC3395E0FDFEFF8C248D258E264B
:101050008F2720085EAC247D007E007F008C248DCD
:10106000258E268F27804C300A1FE53324FCF88814
:101070003386040886050886060886071818188C23
:10108000248D258E268F27802AE53324FEF8883389
:10109000860408860518ED3395E0FEFF8C248D2527
:1010A0008E268F2720080CAC24AD257E007F008E75
:1010B000268F27300B43E5244525452645276039F3
:1010C0007408B52B0C758230C0031208A7D00380BA
:1010D000287410B52B23758230C0031208A7D003E3
:1010E00030000C758278C0031208A7D003800A75FF
:1010F0008258C0031208A7D003300825AC24AD25C0
:10110000AE26E527FF30E717C3E49CFCE49DFDE431
:101110009EFEE49FFF8C248D258E268F278002C2A1
:1011200008752E00D20C8B00752800C0001208F143
:10113000D000200C0DE528C4FCE6FD4CF618880311
:101140008002A628052EB20CE52445254526452714
:1011500070D68803E52C7003752C0120051A200435
:1011600017E52E04FCC3952C500E758220C0031287
:1011700008A7D003152C80E930080E75822DC00316
:101180001208A7D003152C8024E52E602030060E0F
:1011900075822BC0031208A7D003152C800F3007CF
:1011A0000C758220C0031208A7D003152C20041E42
:1011B000AC2C152CC3E52E9C50273005047C3080C8
:1011C000027C208C82C0031208A7D00380E2C3E512
:1011D0002E952C5009E52CC3952EF52C8003752CEB
:1011E000008B00AB2E152EEB6022B20C200C0A08EF
:1011F000E6C4540FFB8B2880078603740F5BF52829
:10120000852882C0001208C1D00080D720040302C4
:101210000C91AB2C152CEB7003020C9175822012F3
:1012200008A780EE8A821208A7020C918529828580
:101230002A8322AA82BA0A0810990280FB75990DA6
:1012400010990280FB8A9922FCABF0AA83A98274D0
:101250009EF582C2D1EC30E716D2D1E9F42401F92F
:10126000EAF43400FAEBF43400FBECF43400FC1242
:1012700007D602078720F71430F6148883A8822047
:10128000F507E6A88375830022E280F7E49322E065
:1012900022C0E0F84582458345F07009F5F0FBFC7B
:1012A000FDFE02135FE823A2F792E0F8A982AA8369
:1012B000D2F7ABF07C007E07C3749798404074FF70
:1012C0002EFE740A89F0A4F985F082740A8AF0A4CB
:1012D000FA85F083740A8BF0A4FB740529F9EA35CA
:1012E00082FAEB3583FB740035F0FCC3EC13FCEBA6
:1012F00013FBEA13FAE913F908EC70EF80BAE8C3BC
:10130000947FF88B838EF0E4FBFCFDFEFF08C3E9BD
:1013100033F9EA33FAE58333F583EB3BD4FBEC3C5A
:10132000D4FCED3DD4FDEE3ED4FEEF3FD4FF602D66
:1013300005F074052BD4FBE43CD4FCE43DD4FDE47F
:101340003ED4FEE43FD4FF758204C3EF13FFEE13D7
:10135000FEED13FDEC13FCEB13FBD582EDD8AF785B
:1013600034D0E020E704762B8002762D087906E75A
:10137000C4540F4430F608B90603762E08E7540F1C
:101380004430F60819B902E7764508E5F020E7048D
:10139000762B8004762DF4040875F00A844430F628
:1013A00008E5F04430F608E4F690003475F0402289
:1013B00020F71030F6118883A88220F507F6A8835D
:1013C00075830022F280F7F022AA82AB83ACF07D15
:1013D000007E008A828B838CF0121275FFA3AA8292
:1013E000AB83EF60070DBD00EA0E80E78D828E8330
:1013F00022000000000000000000000000000000CB
:00000001FF
