:1000000002002E1B5B324A000D543D2566200A205B
:100010006D732020202000750900220000000000E0
:100020000000000000000000000000020145758192
:100030003112009FE582600302009A780079007A0D
:10004000007B007C007D00EC4D601C88828983E48D
:1000500093A3A882A9838A828B83F0A3AA82AB830D
:100060001CBCFFE31D80E07582007583007C007D71
:1000700000EC4D600AE4F0A31CBCFFF51D80F27596
:1000800082007583007C007D00EC4D600AE4F0A3E3
:100090001CBCFFF51D80F21200171201A280FE7534
:1000A000A7007597DE7597AD75FF8075EF0675A78C
:1000B0001075C12075A70075A90075A900E5A930C4
:1000C000E7FB75A90375A903E5A930E7FB43A41075
:1000D00075E10175E20075E340759810758DE68550
:1000E0008D8B53890F438920D28ED29975C80043D6
:1000F0008E1075CAE075CBE375CEFF75CFFFD2AD1C
:10010000D2CAD2AF758200225389F0438901C28CD2
:1001100022AA82AB83438E407592B87593FF859275
:10012000948593957591047C007D00C3EC9AED9BBA
:10013000500FE59130E7FB53917F0CBC00ED0D8033
:10014000EA75910022C0E0C0D075D000C2CF050989
:10015000E509249B5003750900E50924AF9200B31B
:1001600092A0D0D0D0E032AA82AB837C007D00C3C5
:10017000EC9AED9B502B7E00BE0400501D9000FABF
:10018000C002C003C004C005C006120111D006D0D1
:1001900005D004D003D0020E80DE0CBC00D10D804F
:1001A000CE22758A00758C00C28D1201089001F470
:1001B0001201677403C0E07400C0E07480C0E012F4
:1001C000043A158115811581758A00758C00C28DE0
:1001D00030A1FD20A1FDD28C7A007B0020A10C1063
:1001E0008D0280F80ABA00F40B80F1C28C8A828BEF
:1001F0008312045BAA82AB83ACF0FDC002C003C0D3
:1002000004C00590000075F080744712031EAA8296
:10021000AB83ACF0FDE58124FCF581858C82C002C6
:10022000C003C004C0051203C1AE82AF83A8F0F9B9
:10023000C006C007C000C00190000075F080744384
:1002400012031EAE82AF83A8F0F9E58124FCF5818C
:10025000D005D004D003D002C006C007C000C00142
:100260008A828B838CF0ED1203CCAA82AB83ACF034
:10027000FDE58124FCF581AE8A7F008E828F83C0EC
:1002800002C003C004C00512045BAE82AF83A8F0B5
:10029000F9D005D004D003D002C006C007C000C00A
:1002A000018A828B838CF0ED1203CCAA82AB83ACE3
:1002B000F0FDE58124FCF581C002C003C004C00547
:1002C00090F4FC75F032743412031EAA82AB83AC36
:1002D000F0FDE58124FCF581C002C003C004C00527
:1002E00090000075F07A744412031EAA82AB83ACAE
:1002F000F0FDE58124FCF581C002C003C004C00507
:100300007408C0E07400C0E07480C0E012043AE5F4
:100310008124F9F5819000321201670201C81204AC
:10032000EABC0003020489EF60FA30D502B2D1E5DD
:1003300083B4FF0302049FE582B4FF0302049F25F8
:100340008340072482400B02048924831450030253
:10035000049FF582EA8DF0A4A8F0EA8EF0A428F8B4
:10036000E435F0F9EB8DF0A428E935F0F9E433CA6F
:100370008FF0A429F9EA35F0FAEBF88EF0A429F908
:10038000EA35F0FAE433FBEC8DF0A429F9EA35F014
:10039000FAE43BFBE88FF0A42AFAEB35F0FBE433F8
:1003A000CCFD8EF0A42AFAEB35F0FBE43CFCED8F9B
:1003B000F0A42BFBEC35F0FC20E7031204B7020499
:1003C00068E4AC82FBFAF974860205211204EA792A
:1003D00000E583B58202800D500312052BE583C32F
:1003E0009582120545E5D0C465D020E117EA2DFAC3
:1003F000EB3EFBEC3FFC50097401120545EC4480D8
:10040000FC020468C3EA9DFAEB9EFBEC9FFC500FD4
:10041000C3E499F9E49AFAE49BFBE49CFCB2D112A0
:1004200004B7020468020F1485821985831A85F0C7
:100430001B850A1C900425020967C008858108E510
:100440000824FBF51CE50824FBF8861908861A0821
:10045000861B900425120967D00822AC83AB827AF0
:10046000007900748E020F32B98003EA13B3401092
:10047000EA2401FAE43BFBE43CFC50047C80058266
:10048000BC000EBB000BBA0008E4F5F0F583F58262
:1004900022A2D1E582138CF092F78B838A8222E428
:1004A000F583F58275F080F4A2D11322E4F583F58B
:1004B0008275F0C0747F227804EC7011E58224F814
:1004C000500AF582E4C9CACBFCD8EF22EC782005AB
:1004D0008220E713D5820122C3E933F9EA33FAEB2C
:1004E00033FBEC33FCD8EA158222AA82AB83A2F755
:1004F0003392D16002D2F7F582ACF0E58124F9F8AD
:10050000E6FD08E6FE0886F008E6A2F73392D5601D
:1005100002D2F7F583AFF022FCABF0AA83A9827474
:100520009EC2D1F5821204B7020468E582C583F544
:1005300082A2D133A2D592D11392D5ECCFFCEBCECF
:10054000FBEACDFA226040F82582500274FFF58262
:10055000E824F8501ECCCBCAF9E4CC24F85014CBD4
:10056000CAF9E4CB24F8500BCAF9E4CA24F85003C2
:1005700079002224086010F8C3EC13FCEB13FBEAAB
:1005800013FAE913F9D8F122AA827499C0E074052C
:10059000C0E0C00BC00C8A82220512E4B51202052D
:1005A0001322AA8274302AFA24C6500A74072AFA3F
:1005B0003001034302208A82020588E582FAC4548E
:1005C0000FF582C0021205A2D002740F5AF5820202
:1005D00005A2AA0DAB0EAC0FAD10AE11751820EE32
:1005E0002EFEED235401FF4206EA2AFAEB33FBEC20
:1005F00033FCED33FDC3EE95144008EEC39514FEB5
:10060000430201D518D98A0D8B0E8C0F8D108E11D7
:1006100022782EE624D075F00AA4FA782FE624D0AA
:100620002AFA782D8603BB2D04C3E49AFA751401C7
:10063000C3E464808AF063F08095F0502975180354
:100640008A0374F62518401C0514E518142422F8B2
:10065000E5182422F98704A604772E1BEBFA600420
:10066000051880DE8B02EA30E70D782386037824B4
:10067000A6037823762E0AE516600AE51604FB2504
:1006800014F5148005300C02051478228603E4BBAF
:100690002D0104FB70062007033008020514300505
:1006A00003020758300657EB600C75822DC002120A
:1006B0000588D002801C30070C75822BC002120501
:1006C00088D002800D30080A758220C00212058889
:1006D000D00278238604BC2E0C758230C00212052D
:1006E00088D0021515AC151515C3E5149C400302FE
:1006F000079C758230C002120588D00280E7AC15D5
:100700001515C3E5149C500C758220C00212058893
:10071000D00280EA78228604BC2D0C75822DC0029E
:10072000120588D002801C30070C75822BC0021283
:100730000588D002800D30080A758220C00212059B
:1007400088D00278238604BC2E52758230C00212F3
:100750000588D00215158044EB600E75822DC0020D
:10076000120588D0021515802030070E75822BC027
:1007700002120588D0021515800F30080C758220F2
:10078000C002120588D002151578238603BB2E0CF3
:10079000758230C002120588D0021515751801C285
:1007A0000EE5182422F88603BB4503020859BB2E28
:1007B000348A03C3E464808BF063F08095F0500FBB
:1007C000758230C003120588D0031B8B0280E48B36
:1007D00002D20EE5167038200C0302085975822EDD
:1007E0001205888074300E278A03EB30E71FC3E4BC
:1007F00064808516F063F08095F0500C758230C0EF
:1008000003120588D00315160B8B0280DD8B023096
:100810000E0EC3E464808516F063F08095F05021DD
:10082000E5182422F886038B82C002120588D002C4
:10083000300E0EE5182422F88603BB2E0280021526
:10084000161515C3E464808516F063F08095F040BA
:1008500003200E0505180207A1C3E464808516F085
:1008600063F08095F0500A75823012058815168065
:10087000E830050FAA151515EA60087582201205E3
:100880008880F122E5167003300C0D74072516FAE6
:10089000E515C39AF5158006E51524FAF5157518C2
:1008A0000078228602BA2B0F20070C7822762020AF
:1008B00008057518010515200519AA15C3E46480FB
:1008C0008AF063F08095F0500A7582201205881531
:1008D0001580E7C20EE5182422F88602BA000280CD
:1008E00069BA451F3001027665C3E464808516F05D
:1008F00063F08095F0500A758230120588151680D5
:10090000E8D20EC3E5189402E433FA7014EA700ECC
:10091000C3E464808516F063F08095F04003300EE8
:1009200016E5182422F886028A82120588E5182422
:10093000FD50121516800E7402B51809300C06759C
:10094000822E12058805180208D5300519AA15C38C
:10095000E464808AF063F08095F0500A758220127A
:100960000588151580E72285820B85830CE4F51236
:10097000F513AA19AB1AAC1B8A828B838CF0120F69
:1009800056FD74012AF519E43BF51A8C1BEDFA703B
:1009900003020F0DBA25028003020F05C205C2062D
:1009A000C207C208C209C20AC20BC20CC202C203F9
:1009B000C2047514007515007516FFAB19AC1AAD9D
:1009C0001B8B828C838DF0120F56FAA3AB82AC8303
:1009D0008B198C1A8D1BBA25078A82120588809282
:1009E0008A06BE3000402E8A06EE24C6402774FFD9
:1009F000B51613E51575F00AA4FEEA24D02EF515F8
:100A000070BFD20680BBE51675F00AA4FEEA24D0BA
:100A10002EF51680ACBA2E0A74FFB516A475160012
:100A2000809F8A06BE6100400E8A06EE248540073C
:100A30005302DFD2018002C201BA20028075BA23BC
:100A400003020AC2BA2A03020AC7BA2B02805FBA9B
:100A50002D028055BA4202805FBA4303020B0CBAE2
:100A60004403020C47BA4503020C61BA4603020C68
:100A70005DBA4703020C65BA4903020C47BA4C023F
:100A8000803BBA4E03020C69BA4F03020C4EBA50B7
:100A900003020BE0BA5303020B30BA5503020C53A6
:100AA000BA5803020C58020C93D2050209C1D207AE
:100AB0000209C1D2080209C1D20A0209C1D20B023D
:100AC00009C1D20C0209C174FFB51620300A0BE52A
:100AD0001C14F8881C86150209C1E51C24FEF88840
:100AE0001C8606088607188E150209C1300A0BE518
:100AF0001C14F8881C86160209C1E51C24FEF8881F
:100B00001C8606088607188E160209C1300A0AE5F7
:100B10001C14F8881C8602800FE51C24FEF8881C33
:100B20008603088604188B028A82120588020C98B4
:100B3000E51C24FDF8881C86030886040886051831
:100B4000188B0D8C0E8D0F8B828C838DF01210AA5A
:100B5000AB82AC838B1774FFB5160385171620057F
:100B60001DC3E51795155016E515C39517F515AB7B
:100B7000151515EB600875822012058880F1850D2A
:100B800082850E83850FF0120F56FBFA6029AB1693
:100B90001516C3E464808BF063F08095F050188ADA
:100BA00082120588AB0DAC0EAD0F0BBB00010C8B98
:100BB0000D8C0E8D0F80C7200503020C98C3E5171E
:100BC00095154003020C98E515C39517F515AB155F
:100BD0001515EB7003020C9875822012058880EEC3
:100BE000E51C24FDF8881C86030886040886051881
:100BF000188B0D8C0E8D0FE50FFB30E7047A4380C8
:100C000013EB546060047A50800AEB30E6047A49B2
:100C100080027A588A82C00212058875823A1205CB
:100C200088758230120588758278120588D002BADC
:100C30004902800BBA50028006850E821205BB85E0
:100C40000D821205BB8051D20975140A804A7514B1
:100C500008804575140A8040751410803BD20280CC
:100C600037D2038033D204802FE51C24FDF8881C82
:100C7000860308860408860518188B0D8C0E8D0FC8
:100C80008B828C838DF0E512121091A3E513121064
:100C90009180058A82120588200206200303300411
:100CA00070E51C24FCF8881C860308860408860569
:100CB0000886061818188B0D8C0E8D0F8E10E50DFA
:100CC000E50EE50FE5108B828C838DF0EE120F722E
:100CD00074FFB51603751606300427747F5510FB94
:100CE0008B11E511EB2BFB8B11E50F30E70674013F
:100CF0004511F511E511246840067499251140024B
:100D0000D203300306120884020972120611020986
:100D100072E51470030209727B27300A2BE51C145C
:100D2000F8881CE6FC3395E0FDFEFF8C0D8D0E8EE1
:100D30000F8F1020095EAC0D7D007E007F008C0DB2
:100D40008D0E8E0F8F10804C300B1FE51C24FCF88D
:100D5000881C860408860508860608860718181861
:100D60008C0D8D0E8E0F8F10802AE51C24FEF888C6
:100D70001C860408860518ED3395E0FEFF8C0D8D6A
:100D80000E8E0F8F1020090CAC0DAD0E7E007F0073
:100D90008E0F8F10300C43E50D450E450F4510604A
:100DA000397408B5140C758230C003120588D0035D
:100DB00080287410B51423758230C003120588D0C2
:100DC0000330010C758278C003120588D003800AB5
:100DD000758258C003120588D003300925AC0DADCB
:100DE0000EAE0FE510FF30E717C3E49CFCE49DFD59
:100DF000E49EFEE49FFF8C0D8D0E8E0F8F108002FF
:100E0000C209751700D20D8B00751100C0001205C4
:100E1000D2D000200D0DE511C4FCE6FD4CF618887B
:100E2000038002A6110517B20DE50D450E450F45CD
:100E30001070D68803E515700375150120061A2079
:100E40000517E51704FCC39515500E758220C003E5
:100E5000120588D003151580E930090E75822DC062
:100E600003120588D00315158024E517602030078C
:100E70000E75822BC003120588D0031515800F3024
:100E8000080C758220C003120588D00315152005B3
:100E90001EAC151515C3E5179C50273006047C3091
:100EA00080027C208C82C003120588D00380E2C3BC
:100EB000E51795155009E515C39517F515800375C8
:100EC00015008B00AB171517EB6022B20D200D0A31
:100ED00008E6C4540FFB8B1180078603740F5BF583
:100EE00011851182C0001205A2D00080D720050311
:100EF000020972AB151515EB700302097275822099
:100F000012058880EE8A8212058802097285128293
:100F100085138322AA82BA0A0810990280FB759968
:100F20000D10990280FB8A9922FCABF0AA83A9825A
:100F3000749EF582C2D1EC30E716D2D1E9F42401D7
:100F4000F9EAF43400FAEBF43400FBECF43400FC7E
:100F50001204B702046820F71430F6148883A882BC
:100F600020F507E6A88375830022E280F7E4932248
:100F7000E022C0E0F84582458345F07009F5F0FBBA
:100F8000FCFDFE021040E823A2F792E0F8A982AA35
:100F900083D2F7ABF07C007E07C37497984040740F
:100FA000FF2EFE740A89F0A4F985F082740A8AF093
:100FB000A4FA85F083740A8BF0A4FB740529F9EA7E
:100FC0003582FAEB3583FB740035F0FCC3EC13FC7F
:100FD000EB13FBEA13FAE913F908EC70EF80BAE8B7
:100FE000C3947FF88B838EF0E4FBFCFDFEFF08C307
:100FF000E933F9EA33FAE58333F583EB3BD4FBECD1
:101000003CD4FCED3DD4FDEE3ED4FEEF3FD4FF607A
:101010002D05F074052BD4FBE43CD4FCE43DD4FD59
:10102000E43ED4FEE43FD4FF758204C3EF13FFEE29
:1010300013FEED13FDEC13FCEB13FBD582EDD8AFE3
:101040007822D0E020E704762B8002762D087906FE
:10105000E7C4540F4430F608B90603762E08E75467
:101060000F4430F60819B902E7764508E5F020E7A5
:1010700004762B8004762DF4040875F00A8444303D
:10108000F608E5F04430F608E4F690002275F040EA
:101090002220F71030F6118883A88220F507F6A8E1
:1010A0008375830022F280F7F022AA82AB83ACF032
:1010B0007D007E008A828B838CF0120F56FFA3AADC
:1010C00082AB83EF60070DBD00EA0E80E78D828E54
:1010D000832200000000000000000000000000006B
:00000001FF
