:1000000002000375815C120109E582600302006F42
:10001000780079007A007B007C007D00EC4D601C4C
:1000200088828983E493A3A882A9838A828B83F040
:10003000A3AA82AB831CBCFFE31D80E07582007520
:1000400083007C007D00EC4D600AE4F0A31CBCFF43
:10005000F51D80F27582007583007C007D00EC4DFB
:10006000600AE4F0A31CBCFFF51D80F21201081227
:1000700005B580FE1B5B324A004144432074657322
:10008000742070726F6772616D0A46696C653A2000
:1000900025730A436F6D70696C65643A2025732C73
:1000A0002025730A0A00433A5C55736572735C61DC
:1000B0006C6C69736F6E795C446F63756D656E749B
:1000C000735C456C6563526F626F745C74657374C6
:1000D0002E63004D617220323420323031380031CD
:1000E000393A35353A343600090909706572696F55
:1000F000643A203D2566200A000909096672657187
:100100003A203D2566200A002275A7007597DE7506
:1001100097AD75FF8075EF0675A71075C12075A79F
:100120000075A90075A900E5A930E7FB75A903755D
:10013000A903E5A930E7FB43A41075E10175E200CE
:1001400075E340759810758DE6858D8B53890F4347
:100150008920D28ED2997582002275A70075B2804F
:1001600075BCF875B91E75E80075DF3F75B300D230
:10017000EF22AA82AB83438E407592B87593FF85B8
:1001800092948593957591047C007D00C3EC9AED63
:100190009B500FE59130E7FB53917F0CBC00ED0DB8
:1001A00080EA75910022AA82AB837C007D00C3ECBB
:1001B0009AED9B502B7E00BE0400501D9000FAC0AB
:1001C00002C003C004C005C006120172D006D005EB
:1001D000D004D003D0020E80DE0CBC00D10D80CE46
:1001E00022AA82851CF005F07401800225E0D5F07A
:1001F000FBFB75A720BA0002800ABA0102800FBA81
:10020000021E8014EBF4FA52F1EB42D48012EBF4AC
:10021000FA52F2EB42D58008EBF4FA52F3EB42CCFF
:1002200075A700228582BBD2EC20ECFDD2EC20EC3D
:10023000FD85BD8285BE83221202241207CCAA82CC
:10024000AB83ACF0FDC002C003C004C005906C8B52
:1002500075F0537440120801AA82AB83ACF0FDE53F
:100260008124FCF581E4C0E074FCC0E0747FC0E050
:100270007446C0E08A828B838CF0ED1209C4AA8296
:10028000AB83ACF0FDE58124FCF5818A828B838C05
:10029000F0ED225389F0438901C28C22D2A590004F
:1002A00028120172C2A522AA828AE0A2E792A1A224
:1002B000E692A2A2E592A3A2E492A4C00212029C3A
:1002C000900028120172D0028AE0A2E392A1A2E279
:1002D00092A2A2E192A3A2E092A402029CAA82D2DC
:1002E000A68A821202A79000020201A6AA82C2A6D2
:1002F0008A821202A79000050201A6C2A5900014EE
:100300001201A67582331202EC7582331202EC756B
:1003100082321202EC7582281202EC75820C1202F3
:10032000EC7582011202EC9000140201A6AA82ABC5
:1003300083ACF07402B522047DC080027D808D8282
:10034000C002C003C0041202EC9000051201A6D046
:1003500004D003D0027D007E00ED2AFFEE3BF88C36
:10036000018F82888389F01207B0FF60208F82C0DE
:1003700002C003C004C005C0061202DDD006D005CD
:10038000D004D003D0020DBD00CF0E80CC300024AD
:100390008D028E03C3EA9410EB648094805015752F
:1003A0008220C002C0031202DDD003D0020ABA00CC
:1003B000E30B80E022AA82AB83ACF0AD247E001D6B
:1003C000BDFF011E7402B523047FC080027F808FB1
:1003D00082C002C003C004C005C0061202EC900037
:1003E000051201A6D006D005D004D003D002ED4EF0
:1003F0006021758214C002C003C004C005C006128B
:1004000002ECD006D005D004D003D0021DBDFFDE23
:100410001E80DB7D007E00ED2AFFEE3BF88C018F15
:1004200082888389F01207B0FF60208F82C002C0EB
:1004300003C004C005C0061202DDD006D005D004FA
:10044000D003D0020DBD00CF0E80CC3001248D0230
:100450008E03C3EA9410EB6480948050157582205B
:10046000C002C0031202DDD003D0020ABA00E30BBF
:1004700080E02285822785832885F029E4F52AF506
:100480002BE52524FFFFE52634FFF879007A00C329
:10049000E99FEA648088F063F08095F05059C002CB
:1004A000C007C000C00112098BAB82D001D000D0C0
:1004B00007D002BB0A028003BB0D1DE52A2527FCDD
:1004C000E52B3528FDAE298C828D838EF0E4120950
:1004D0009E852A82852B8322E92527FCEA3528FD83
:1004E000AE298C828D838EF0EB12099E09B9000132
:1004F0000A892A8A2B8098E52A2527FAE52B3528B0
:10050000FBAC298A828B838CF0E412099E852582BC
:100510008526832285823085833185F032E52E451C
:100520002F6066E52C452D6060E52E24FFFDE52F4C
:1005300034FFFEED2530FFEE3531F8A932751C0A87
:10054000E4F51D852C82852D83C005C006C007C03B
:1005500000C00112093EAA82D001D000D007D00607
:10056000D00574302A8F82888389F012099E8D2EDF
:100570008E2F751C0AE4F51D852C82852D831207AC
:10058000D885822C85832D8094E52E452F6025E526
:100590002E24FFFAE52F34FFFBEA2530FCEB353142
:1005A000FDAE328C828D838EF0742012099E8A2ECD
:1005B0008B2F80D522758A00758C00C28D12029314
:1005C0009001F41201A67474C0E07400C0E074805D
:1005D000C0E012091D15811581158174DFC0E0741A
:1005E00000C0E07480C0E074D3C0E07400C0E07468
:1005F00080C0E074A6C0E07400C0E07480C0E07405
:1006000079C0E07400C0E07480C0E012091DE5818B
:1006100024F4F581751C047582011201E1751C0733
:100620007582011201E112015A1202FB758A0075EE
:100630008C00C28DC28C2097FD3097FDD28C7A0041
:100640007B0030970C108D0280F80ABA00F40B8002
:10065000F120970C108D0280F80ABA00F40B80F19B
:10066000C28C8A828B831209B7AA82AB83ACF0FD5D
:10067000C002C003C004C00590000075F08074473C
:10068000120801AA82AB83ACF0FDE58124FCF58160
:10069000858C82C002C003C004C0051208A4AE82CB
:1006A000AF83A8F0F9C006C007C000C001900000E9
:1006B00075F0807443120801AE82AF83A8F0F9E5AB
:1006C0008124FCF581D005D004D003D002C006C03F
:1006D00007C000C0018A828B838CF0ED1208AFAA9C
:1006E00082AB83ACF0FDE58124FCF581AE8A7F000E
:1006F0008E828F83C002C003C004C0051209B7AE4A
:1007000082AF83A8F0F9D005D004D003D002C00690
:10071000C007C000C0018A828B838CF0ED1208AF45
:10072000AA82AB83ACF0FDE58124FCF581C002C058
:1007300003C004C00590F4FC75F032743412080153
:10074000AA82AB83ACF0FDE58124FCF581C002C038
:1007500003C004C005C002C003C004C00574E8C0E3
:10076000E07400C0E07480C0E012091DE58124F946
:10077000F58190000075F080743F1209C4AA82AB25
:1007800083ACF0FDE58124FCF581C002C003C00408
:10079000C00574F9C0E07400C0E07480C0E01209C4
:1007A0001DE58124F9F5819000C81201A602062CEE
:1007B00020F71430F6148883A88220F507E6A88372
:1007C00075830022E280F7E49322E022E4AC83AB5D
:1007D00082FAF9748E020AEC7A10E4FBFCE58225B9
:1007E000E0F582E58333F583EB33FBEC33FCEB95EB
:1007F0001CF5F0EC951D4006FCABF0438201DADD00
:1008000022120B78BC0003020B17EF60FA30D502FE
:10081000B2D1E583B4FF03020B2DE582B4FF0302DE
:100820000B2D258340072482400B020B17248314D1
:100830005003020B2DF582EA8DF0A4A8F0EA8EF0A9
:10084000A428F8E435F0F9EB8DF0A428E935F0F9A7
:10085000E433CA8FF0A429F9EA35F0FAEBF88EF008
:10086000A429F9EA35F0FAE433FBEC8DF0A429F978
:10087000EA35F0FAE43BFBE88FF0A42AFAEB35F016
:10088000FBE433CCFD8EF0A42AFAEB35F0FBE43C1C
:10089000FCED8FF0A42BFBEC35F0FC20E703120BF2
:1008A00045020AF6E4AC82FBFAF97486020AEC12FD
:1008B0000B787900E583B58202800D5003120BA6F8
:1008C000E583C39582120BC0E5D0C465D020E11743
:1008D000EA2DFAEB3EFBEC3FFC50097401120BC011
:1008E000EC4480FC020AF6C3EA9DFAEB9EFBEC9F07
:1008F000FC500FC3E499F9E49AFAE49BFBE49CFCF6
:10090000B2D1120B45020AF602158F858218858333
:100910001985F01A85091B900908020FE2C00885A5
:100920008108E50824FBF51BE50824FBF886180878
:10093000861908861A900908120FE2D00822E51CD1
:10094000451D60467A01E51C25E0F51CE51D334098
:1009500012F51DE582951CE583951D40030A80E68E
:10096000C3E51D13F51DE51C13F51CC3E582951C9D
:10097000F5F0E583951D4005F58385F082C3E51DFF
:1009800013F51DE51C13F51CDAE12210980280FB1B
:10099000AA998A82C00212158FD0028A822220F779
:1009A0001030F6118883A88220F507F6A883758396
:1009B0000022F280F7F022AC83AB827A00790074D7
:1009C0008E0215AD120B7830D502B2D1BF0009BC32
:1009D0000003020B3A020B2DBC0003020B17E58348
:1009E000B4FF0BE582B4FF03020B3A020B17E5825A
:1009F000B4FF03020B2DC395835007247F400B02E5
:100A00000B172480145003020B2DC0E0E4CCCBCA9A
:100A1000F98D1C8E1D8F1EEF54F0C4F51F758306D3
:100A2000851FF0EB84F582E9C4F9EAC4FAEBC4FB54
:100A3000EC540FC47803D6FC18EBD6FB18EAD6FAB0
:100A40008582F0EDA4A8F0FD8582F0EEA428FEE4F6
:100A500035F0F88582F0EFA428FFE435F0F8E99D41
:100A6000F9EA9EFAEB9FFBEC98FCAD1CAE1DAF1EA5
:100A700030E7101582E92DF9EA3EFAEB3FFBE43C42
:100A8000FC80EDC082D58398C3E933F9EA33FAEBF1
:100A900033FBEC33FCC3E99DEA9EEB9FEC9400B37F
:100AA000E413F9D002D0E0C44AFAD003D0E0C44B3A
:100AB000FBD004D0E0F5F0540FC44CFCD08215827A
:100AC00030F40FD3EC13FCEB13FBEA13FAE913F940
:100AD0000582E930E70A74012AFAE43BFBE43CFCB6
:100AE000020B0EFCABF0AA83A982749EC2D1F582E0
:100AF000120B45020AF6B98003EA13B34010EA2448
:100B000001FAE43BFBE43CFC50047C800582BC0021
:100B10000EBB000BBA0008E4F5F0F583F58222A2C3
:100B2000D1E582138CF092F78B838A8222E4F583DD
:100B3000F58275F080F4A2D11322E4F583F5827575
:100B4000F0C0747F227804EC7011E58224F8500A1A
:100B5000F582E4C9CACBFCD8EF22EC7820058220CC
:100B6000E713D5820122C3E933F9EA33FAEB33FB09
:100B7000EC33FCD8EA158222AA82AB83A2F7339227
:100B8000D16002D2F7F582ACF0E58124F9F8E6FDF8
:100B900008E6FE0886F008E6A2F73392D56002D296
:100BA000F7F583AFF022E582C583F582A2D133A2A7
:100BB000D592D11392D5ECCFFCEBCEFBEACDFA2245
:100BC0006040F82582500274FFF582E824F8501E38
:100BD000CCCBCAF9E4CC24F85014CBCAF9E4CB242A
:100BE000F8500BCAF9E4CA24F8500379002224080B
:100BF0006010F8C3EC13FCEB13FBEA13FAE913F9EA
:100C0000D8F122AA827414C0E0740CC0E0C00AC0FB
:100C10000B8A82220511E4B51102051222AA827400
:100C2000302AFA24C6500A74072AFA300203430213
:100C3000208A82020C03E582FAC4540FF582C002B6
:100C4000120C1DD002740F5AF582020C1DAA0CABB7
:100C50000DAC0EAD0FAE10751720EE2EFEED235429
:100C600001FF4206EA2AFAEB33FBEC33FCED33FDDD
:100C7000C3EE95134008EEC39513FE430201D5174A
:100C8000D98A0C8B0D8C0E8D0F8E10227859E6248C
:100C9000D075F00AA4FA785AE624D02AFA78588651
:100CA00003BB2D04C3E49AFA751301C3E464808A7C
:100CB000F063F08095F050297517038A0374F625C8
:100CC00017401C0513E51714244DF8E517244DF9BA
:100CD0008704A604772E1BEBFA6004051780DE8BD1
:100CE00002EA30E70D784E8603784FA603784E76F9
:100CF0002E0AE515600AE51504FB2513F51380059A
:100D0000300D020513784D8603E4BB2D0104FB7002
:100D1000062008033009020513300603020DD33004
:100D20000757EB600C75822DC002120C03D00280B5
:100D30001C30080C75822BC002120C03D002800DEF
:100D400030090A758220C002120C03D002784E8648
:100D500004BC2E0C758230C002120C03D002151494
:100D6000AC141514C3E5139C4003020E17758230B2
:100D7000C002120C03D00280E7AC141514C3E513B3
:100D80009C500C758220C002120C03D00280EA78BD
:100D90004D8604BC2D0C75822DC002120C03D002AE
:100DA000801C30080C75822BC002120C03D002800C
:100DB0000D30090A758220C002120C03D002784E51
:100DC0008604BC2E52758230C002120C03D002156C
:100DD000148044EB600E75822DC002120C03D00209
:100DE0001514802030080E75822BC002120C03D01F
:100DF000021514800F30090C758220C002120C03FA
:100E0000D0021514784E8603BB2E0C758230C002BA
:100E1000120C03D0021514751701C20FE517244DEB
:100E2000F88603BB4503020ED4BB2E348A03C3E409
:100E300064808BF063F08095F0500F758230C003B2
:100E4000120C03D0031B8B0280E48B02D20FE5153A
:100E50007038200D03020ED475822E120C0380749C
:100E6000300F278A03EB30E71FC3E464808515F059
:100E700063F08095F0500C758230C003120C03D0E3
:100E80000315150B8B0280DD8B02300F0EC3E4645B
:100E9000808515F063F08095F05021E517244DF81A
:100EA00086038B82C002120C03D002300F0EE517AE
:100EB000244DF88603BB2E02800215151514C3E4D9
:100EC00064808515F063F08095F04003200F0505E0
:100ED00017020E1CC3E464808515F063F08095F062
:100EE000500A758230120C03151580E830060FAADF
:100EF000141514EA6008758220120C0380F122E5B3
:100F0000157003300D0D74072515FAE514C39AF515
:100F1000148006E51424FAF514751700784D86023E
:100F2000BA2B0F20080C784D762020090575170183
:100F30000514200619AA14C3E464808AF063F080C3
:100F400095F0500A758220120C03151480E7C20F29
:100F5000E517244DF88602BA00028069BA451F30B1
:100F600002027665C3E464808515F063F08095F035
:100F7000500A758230120C03151580E8D20FC3E5B4
:100F8000179402E433FA7014EA700EC3E4648085A7
:100F900015F063F08095F04003300F16E517244DEF
:100FA000F886028A82120C03E51724FD50121515EB
:100FB000800E7402B51709300D0675822E120C03CF
:100FC0000517020F50300619AA14C3E464808AF092
:100FD00063F08095F0500A758220120C031514807E
:100FE000E72285820A85830BE4F511F512AA18AB76
:100FF00019AC1A8A828B838CF01207B0FD74012A17
:10100000F518E43BF5198C1AEDFA7003021588BA4D
:1010100025028003021580C206C207C208C209C2A7
:101020000AC20BC20CC20DC203C204C20575130072
:101030007514007515FFAB18AC19AD1A8B828C8333
:101040008DF01207B0FAA3AB82AC838B188C198D8C
:101050001ABA25078A82120C0380928A06BE3000D3
:10106000402E8A06EE24C6402774FFB51513E514FA
:1010700075F00AA4FEEA24D02EF51470BFD20780C2
:10108000BBE51575F00AA4FEEA24D02EF51580AC58
:10109000BA2E0A74FFB515A4751500809F8A06BE86
:1010A0006100400E8A06EE248540075302DFD2021B
:1010B0008002C202BA20028075BA230302113DBA2F
:1010C0002A03021142BA2B02805FBA2D028055BA60
:1010D0004202805FBA4303021187BA44030212C27C
:1010E000BA45030212DCBA46030212D8BA47030219
:1010F00012E0BA49030212C2BA4C02803BBA4E0354
:101100000212E4BA4F030212C9BA500302125BBAC8
:1011100053030211ABBA55030212CEBA580302129E
:10112000D302130ED20602103CD20802103CD209A0
:1011300002103CD20B02103CD20C02103CD20D0229
:10114000103C74FFB51520300B0BE51B14F8881B01
:10115000861402103CE51B24FEF8881B86060886D0
:1011600007188E1402103C300B0BE51B14F8881B7B
:10117000861502103CE51B24FEF8881B86060886AF
:1011800007188E1502103C300B0AE51B14F8881B5B
:101190008602800FE51B24FEF8881B860308860460
:1011A000188B028A82120C03021313E51B24FDF82C
:1011B000881B860308860408860518188B0C8C0D7E
:1011C0008D0E8B828C838DF01216F0AB82AC838BEC
:1011D0001674FFB5150385161520061DC3E5169573
:1011E000145016E514C39516F514AB141514EB60E2
:1011F00008758220120C0380F1850C82850D838591
:101200000EF01207B0FBFA6029AB151515C3E464A4
:10121000808BF063F08095F050188A82120C03AB3B
:101220000CAC0DAD0E0BBB00010C8B0C8C0D8D0EA0
:1012300080C7200603021313C3E51695144003026A
:101240001313E514C39516F514AB141514EB7003C2
:10125000021313758220120C0380EEE51B24FDF8A7
:10126000881B860308860408860518188B0C8C0DCD
:101270008D0EE50EFB30E7047A438013EB5460607B
:10128000047A50800AEB30E6047A4980027A588A60
:1012900082C002120C0375823A120C03758230125E
:1012A0000C03758278120C03D002BA4902800BBA83
:1012B00050028006850D82120C36850C82120C3687
:1012C0008051D20A75130A804A7513088045751338
:1012D0000A8040751310803BD2038037D2048033DC
:1012E000D205802FE51B24FDF8881B8603088604A1
:1012F00008860518188B0C8C0D8D0E8B828C838DB7
:10130000F0E51112099EA3E51212099E80058A825A
:10131000120C03200306200403300570E51B24FC97
:10132000F8881B86030886040886050886061818B0
:10133000188B0C8C0D8D0E8E0FE50CE50DE50EE572
:101340000F8B828C838DF0EE1215D174FFB51503CF
:10135000751506300527747F550FFB8B10E510EBD4
:101360002BFB8B10E50E30E70674014510F510E5F8
:101370001024684006749925104002D204300406F7
:10138000120EFF020FED120C8C020FEDE51370032D
:10139000020FED7B52300B2BE51B14F8881BE6FC8B
:1013A0003395E0FDFEFF8C0C8D0D8E0E8F0F200A05
:1013B0005EAC0C7D007E007F008C0C8D0D8E0E8F40
:1013C0000F804C300C1FE51B24FCF8881B8604089A
:1013D00086050886060886071818188C0C8D0D8E51
:1013E0000E8F0F802AE51B24FEF8881B86040886D2
:1013F0000518ED3395E0FEFF8C0C8D0D8E0E8F0FD2
:10140000200A0CAC0CAD0D7E007F008E0E8F0F30CD
:101410000D43E50C450D450E450F60397408B513B5
:101420000C758230C003120C03D00380287410B5F1
:101430001323758230C003120C03D00330020C75E5
:101440008278C003120C03D003800A758258C0034F
:10145000120C03D003300A25AC0CAD0DAE0EE50F17
:10146000FF30E717C3E49CFCE49DFDE49EFEE49F8F
:10147000FF8C0C8D0D8E0E8F0F8002C20A75160028
:10148000D20E8B00751000C000120C4DD000200E43
:101490000DE510C4FCE6FD4CF61888038002A6108A
:1014A0000516B20EE50C450D450E450F70D68803A6
:1014B000E514700375140120071A200617E51604B9
:1014C000FCC39514500E758220C003120C03D00388
:1014D000151480E9300A0E75822DC003120C03D05A
:1014E0000315148024E516602030080E75822BC089
:1014F00003120C03D0031514800F30090C758220E1
:10150000C003120C03D003151420061EAC141514CE
:10151000C3E5169C50273007047C3080027C208C69
:1015200082C003120C03D00380E2C3E51695145069
:1015300009E514C39516F51480037514008B00ABF0
:10154000161516EB6022B20E200E0A08E6C4540FE0
:10155000FB8B1080078603740F5BF510851082C02B
:1015600000120C1DD00080D7200603020FEDAB1433
:101570001514EB7003020FED758220120C0380EE40
:101580008A82120C03020FED85118285128322AA32
:1015900082BA0A0810990280FB75990D1099028091
:1015A000FB8A9922FCABF0AA83A982749EF582C2C1
:1015B000D1EC30E716D2D1E9F42401F9EAF4340091
:1015C000FAEBF43400FBECF43400FC120B45020A95
:1015D000F6C0E0F84582458345F07009F5F0FBFC64
:1015E000FDFE02169FE823A2F792E0F8A982AA83E3
:1015F000D2F7ABF07C007E07C3749798404074FF2D
:101600002EFE740A89F0A4F985F082740A8AF0A487
:10161000FA85F083740A8BF0A4FB740529F9EA3586
:1016200082FAEB3583FB740035F0FCC3EC13FCEB62
:1016300013FBEA13FAE913F908EC70EF80BAE8C378
:10164000947FF88B838EF0E4FBFCFDFEFF08C3E97A
:1016500033F9EA33FAE58333F583EB3BD4FBEC3C17
:10166000D4FCED3DD4FDEE3ED4FEEF3FD4FF602D23
:1016700005F074052BD4FBE43CD4FCE43DD4FDE43C
:101680003ED4FEE43FD4FF758204C3EF13FFEE1394
:10169000FEED13FDEC13FCEB13FBD582EDD8AF7818
:1016A0004DD0E020E704762B8002762D087906E7FE
:1016B000C4540F4430F608B90603762E08E7540FD9
:1016C0004430F60819B902E7764508E5F020E7044A
:1016D000762B8004762DF4040875F00A844430F6E5
:1016E00008E5F04430F608E4F690004D75F040222D
:1016F000AA82AB83ACF07D007E008A828B838CF063
:101700001207B0FFA3AA82AB83EF60070DBD00EA0A
:101710000E80E78D828E8322000000000000000012
:00000001FF
